{
	"contracts/GatedEvent.sol": {
		"GatedEvent": {
			"abi": [
				{
					"inputs": [],
					"stateMutability": "nonpayable",
					"type": "constructor"
				},
				{
					"anonymous": false,
					"inputs": [
						{
							"indexed": true,
							"internalType": "uint256",
							"name": "Id",
							"type": "uint256"
						},
						{
							"indexed": true,
							"internalType": "string",
							"name": "Title",
							"type": "string"
						},
						{
							"indexed": true,
							"internalType": "string",
							"name": "Host",
							"type": "string"
						}
					],
					"name": "NewEventCreated",
					"type": "event"
				},
				{
					"inputs": [
						{
							"internalType": "uint256",
							"name": "_id",
							"type": "uint256"
						},
						{
							"internalType": "address",
							"name": "_attendee",
							"type": "address"
						}
					],
					"name": "CaptureAttendance",
					"outputs": [],
					"stateMutability": "nonpayable",
					"type": "function"
				},
				{
					"inputs": [
						{
							"internalType": "string",
							"name": "_title",
							"type": "string"
						},
						{
							"internalType": "string",
							"name": "_details",
							"type": "string"
						},
						{
							"internalType": "string",
							"name": "_host",
							"type": "string"
						},
						{
							"internalType": "string",
							"name": "_datetime",
							"type": "string"
						},
						{
							"internalType": "string",
							"name": "_location",
							"type": "string"
						}
					],
					"name": "CreateEvent",
					"outputs": [],
					"stateMutability": "nonpayable",
					"type": "function"
				},
				{
					"inputs": [
						{
							"internalType": "uint256",
							"name": "_id",
							"type": "uint256"
						}
					],
					"name": "DetailsOfPeopleRegisterd",
					"outputs": [
						{
							"components": [
								{
									"internalType": "string",
									"name": "Name",
									"type": "string"
								},
								{
									"internalType": "uint8",
									"name": "Age",
									"type": "uint8"
								},
								{
									"internalType": "string",
									"name": "Email",
									"type": "string"
								},
								{
									"internalType": "address",
									"name": "AttendeeAddress",
									"type": "address"
								}
							],
							"internalType": "struct GatedEvent.AttendeeDetails[]",
							"name": "",
							"type": "tuple[]"
						}
					],
					"stateMutability": "view",
					"type": "function"
				},
				{
					"inputs": [
						{
							"internalType": "uint256",
							"name": "_id",
							"type": "uint256"
						}
					],
					"name": "NumberOFPeopleRegisterd",
					"outputs": [
						{
							"internalType": "uint256",
							"name": "",
							"type": "uint256"
						}
					],
					"stateMutability": "view",
					"type": "function"
				},
				{
					"inputs": [
						{
							"internalType": "uint256",
							"name": "_id",
							"type": "uint256"
						},
						{
							"internalType": "string",
							"name": "_name",
							"type": "string"
						},
						{
							"internalType": "string",
							"name": "_email",
							"type": "string"
						},
						{
							"internalType": "uint8",
							"name": "_age",
							"type": "uint8"
						}
					],
					"name": "RegisterForEvent",
					"outputs": [],
					"stateMutability": "nonpayable",
					"type": "function"
				},
				{
					"inputs": [
						{
							"internalType": "uint256",
							"name": "_id",
							"type": "uint256"
						}
					],
					"name": "UnLockNFT",
					"outputs": [],
					"stateMutability": "nonpayable",
					"type": "function"
				},
				{
					"inputs": [
						{
							"internalType": "uint256",
							"name": "_id",
							"type": "uint256"
						},
						{
							"internalType": "string",
							"name": "_title",
							"type": "string"
						},
						{
							"internalType": "string",
							"name": "_details",
							"type": "string"
						},
						{
							"internalType": "string",
							"name": "_host",
							"type": "string"
						},
						{
							"internalType": "string",
							"name": "_datetime",
							"type": "string"
						},
						{
							"internalType": "string",
							"name": "_location",
							"type": "string"
						}
					],
					"name": "UpdateEvent",
					"outputs": [],
					"stateMutability": "nonpayable",
					"type": "function"
				},
				{
					"inputs": [
						{
							"internalType": "uint256",
							"name": "_id",
							"type": "uint256"
						}
					],
					"name": "ViewEvent",
					"outputs": [
						{
							"components": [
								{
									"internalType": "uint256",
									"name": "Id",
									"type": "uint256"
								},
								{
									"internalType": "string",
									"name": "Title",
									"type": "string"
								},
								{
									"internalType": "string",
									"name": "Details",
									"type": "string"
								},
								{
									"internalType": "string",
									"name": "Host",
									"type": "string"
								},
								{
									"internalType": "string",
									"name": "DateTime",
									"type": "string"
								},
								{
									"internalType": "string",
									"name": "Location",
									"type": "string"
								},
								{
									"components": [
										{
											"internalType": "string",
											"name": "Name",
											"type": "string"
										},
										{
											"internalType": "uint8",
											"name": "Age",
											"type": "uint8"
										},
										{
											"internalType": "string",
											"name": "Email",
											"type": "string"
										},
										{
											"internalType": "address",
											"name": "AttendeeAddress",
											"type": "address"
										}
									],
									"internalType": "struct GatedEvent.AttendeeDetails[]",
									"name": "AttendeeInfo",
									"type": "tuple[]"
								}
							],
							"internalType": "struct GatedEvent.EventStruct",
							"name": "",
							"type": "tuple"
						}
					],
					"stateMutability": "view",
					"type": "function"
				}
			],
			"devdoc": {
				"kind": "dev",
				"methods": {},
				"version": 1
			},
			"evm": {
				"assembly": "    /* \"contracts/GatedEvent.sol\":118:4073  contract GatedEvent {... */\n  mstore(0x40, 0x80)\n    /* \"contracts/GatedEvent.sol\":201:282  constructor() /*address _nftAddress*/ {... */\n  callvalue\n  dup1\n  iszero\n  tag_1\n  jumpi\n  0x00\n  dup1\n  revert\ntag_1:\n  pop\n    /* \"contracts/GatedEvent.sol\":118:4073  contract GatedEvent {... */\n  dataSize(sub_0)\n  dup1\n  dataOffset(sub_0)\n  0x00\n  codecopy\n  0x00\n  return\nstop\n\nsub_0: assembly {\n        /* \"contracts/GatedEvent.sol\":118:4073  contract GatedEvent {... */\n      mstore(0x40, 0x80)\n      callvalue\n      dup1\n      iszero\n      tag_1\n      jumpi\n      0x00\n      dup1\n      revert\n    tag_1:\n      pop\n      jumpi(tag_2, lt(calldatasize, 0x04))\n      shr(0xe0, calldataload(0x00))\n      dup1\n      0x45eb8e9f\n      gt\n      tag_11\n      jumpi\n      dup1\n      0x45eb8e9f\n      eq\n      tag_7\n      jumpi\n      dup1\n      0x61c1cb70\n      eq\n      tag_8\n      jumpi\n      dup1\n      0x84efd1d3\n      eq\n      tag_9\n      jumpi\n      dup1\n      0x9ac8caa0\n      eq\n      tag_10\n      jumpi\n      jump(tag_2)\n    tag_11:\n      dup1\n      0x2957b520\n      eq\n      tag_3\n      jumpi\n      dup1\n      0x38f69348\n      eq\n      tag_4\n      jumpi\n      dup1\n      0x3fabf1b3\n      eq\n      tag_5\n      jumpi\n      dup1\n      0x41f5b72e\n      eq\n      tag_6\n      jumpi\n    tag_2:\n      0x00\n      dup1\n      revert\n        /* \"contracts/GatedEvent.sol\":3696:3910  function CaptureAttendance(uint256 _id, address _attendee) external {... */\n    tag_3:\n      tag_12\n      0x04\n      dup1\n      calldatasize\n      sub\n      dup2\n      add\n      swap1\n      tag_13\n      swap2\n      swap1\n      tag_14\n      jump\t// in\n    tag_13:\n      tag_15\n      jump\t// in\n    tag_12:\n      stop\n        /* \"contracts/GatedEvent.sol\":3281:3531  function DetailsOfPeopleRegisterd(... */\n    tag_4:\n      tag_16\n      0x04\n      dup1\n      calldatasize\n      sub\n      dup2\n      add\n      swap1\n      tag_17\n      swap2\n      swap1\n      tag_18\n      jump\t// in\n    tag_17:\n      tag_19\n      jump\t// in\n    tag_16:\n      mload(0x40)\n      tag_20\n      swap2\n      swap1\n      tag_21\n      jump\t// in\n    tag_20:\n      mload(0x40)\n      dup1\n      swap2\n      sub\n      swap1\n      return\n        /* \"contracts/GatedEvent.sol\":3916:4071  function UnLockNFT(uint256 _id) external {... */\n    tag_5:\n      tag_22\n      0x04\n      dup1\n      calldatasize\n      sub\n      dup2\n      add\n      swap1\n      tag_23\n      swap2\n      swap1\n      tag_18\n      jump\t// in\n    tag_23:\n      tag_24\n      jump\t// in\n    tag_22:\n      stop\n        /* \"contracts/GatedEvent.sol\":2494:2610  function ViewEvent(uint256 _id) external view returns (EventStruct memory) {... */\n    tag_6:\n      tag_25\n      0x04\n      dup1\n      calldatasize\n      sub\n      dup2\n      add\n      swap1\n      tag_26\n      swap2\n      swap1\n      tag_18\n      jump\t// in\n    tag_26:\n      tag_27\n      jump\t// in\n    tag_25:\n      mload(0x40)\n      tag_28\n      swap2\n      swap1\n      tag_29\n      jump\t// in\n    tag_28:\n      mload(0x40)\n      dup1\n      swap2\n      sub\n      swap1\n      return\n        /* \"contracts/GatedEvent.sol\":3537:3690  function NumberOFPeopleRegisterd(... */\n    tag_7:\n      tag_30\n      0x04\n      dup1\n      calldatasize\n      sub\n      dup2\n      add\n      swap1\n      tag_31\n      swap2\n      swap1\n      tag_18\n      jump\t// in\n    tag_31:\n      tag_32\n      jump\t// in\n    tag_30:\n      mload(0x40)\n      tag_33\n      swap2\n      swap1\n      tag_34\n      jump\t// in\n    tag_33:\n      mload(0x40)\n      dup1\n      swap2\n      sub\n      swap1\n      return\n        /* \"contracts/GatedEvent.sol\":1969:2488  function UpdateEvent(... */\n    tag_8:\n      tag_35\n      0x04\n      dup1\n      calldatasize\n      sub\n      dup2\n      add\n      swap1\n      tag_36\n      swap2\n      swap1\n      tag_37\n      jump\t// in\n    tag_36:\n      tag_38\n      jump\t// in\n    tag_35:\n      stop\n        /* \"contracts/GatedEvent.sol\":2616:3275  function RegisterForEvent(... */\n    tag_9:\n      tag_39\n      0x04\n      dup1\n      calldatasize\n      sub\n      dup2\n      add\n      swap1\n      tag_40\n      swap2\n      swap1\n      tag_41\n      jump\t// in\n    tag_40:\n      tag_42\n      jump\t// in\n    tag_39:\n      stop\n        /* \"contracts/GatedEvent.sol\":1271:1963  function CreateEvent(... */\n    tag_10:\n      tag_43\n      0x04\n      dup1\n      calldatasize\n      sub\n      dup2\n      add\n      swap1\n      tag_44\n      swap2\n      swap1\n      tag_45\n      jump\t// in\n    tag_44:\n      tag_46\n      jump\t// in\n    tag_43:\n      stop\n        /* \"contracts/GatedEvent.sol\":3696:3910  function CaptureAttendance(uint256 _id, address _attendee) external {... */\n    tag_15:\n      pop\n      pop\n      jump\t// out\n        /* \"contracts/GatedEvent.sol\":3281:3531  function DetailsOfPeopleRegisterd(... */\n    tag_19:\n        /* \"contracts/GatedEvent.sol\":3365:3389  AttendeeDetails[] memory */\n      0x60\n        /* \"contracts/GatedEvent.sol\":3408:3420  eventMapping */\n      0x01\n        /* \"contracts/GatedEvent.sol\":3408:3425  eventMapping[_id] */\n      0x00\n        /* \"contracts/GatedEvent.sol\":3421:3424  _id */\n      dup4\n        /* \"contracts/GatedEvent.sol\":3408:3425  eventMapping[_id] */\n      dup2\n      mstore\n      0x20\n      add\n      swap1\n      dup2\n      mstore\n      0x20\n      add\n      0x00\n      keccak256\n        /* \"contracts/GatedEvent.sol\":3408:3438  eventMapping[_id].AttendeeInfo */\n      0x06\n      add\n        /* \"contracts/GatedEvent.sol\":3401:3438  return eventMapping[_id].AttendeeInfo */\n      dup1\n      sload\n      dup1\n      0x20\n      mul\n      0x20\n      add\n      mload(0x40)\n      swap1\n      dup2\n      add\n      0x40\n      mstore\n      dup1\n      swap3\n      swap2\n      swap1\n      dup2\n      dup2\n      mstore\n      0x20\n      add\n      0x00\n      swap1\n    tag_49:\n      dup3\n      dup3\n      lt\n      iszero\n      tag_50\n      jumpi\n      dup4\n      dup3\n      swap1\n      0x00\n      mstore\n      keccak256(0x00, 0x20)\n      swap1\n      0x04\n      mul\n      add\n      mload(0x40)\n      dup1\n      0x80\n      add\n      0x40\n      mstore\n      swap1\n      dup2\n      0x00\n      dup3\n      add\n      dup1\n      sload\n      tag_52\n      swap1\n      tag_53\n      jump\t// in\n    tag_52:\n      dup1\n      0x1f\n      add\n      0x20\n      dup1\n      swap2\n      div\n      mul\n      0x20\n      add\n      mload(0x40)\n      swap1\n      dup2\n      add\n      0x40\n      mstore\n      dup1\n      swap3\n      swap2\n      swap1\n      dup2\n      dup2\n      mstore\n      0x20\n      add\n      dup3\n      dup1\n      sload\n      tag_54\n      swap1\n      tag_53\n      jump\t// in\n    tag_54:\n      dup1\n      iszero\n      tag_55\n      jumpi\n      dup1\n      0x1f\n      lt\n      tag_56\n      jumpi\n      0x0100\n      dup1\n      dup4\n      sload\n      div\n      mul\n      dup4\n      mstore\n      swap2\n      0x20\n      add\n      swap2\n      jump(tag_55)\n    tag_56:\n      dup3\n      add\n      swap2\n      swap1\n      0x00\n      mstore\n      keccak256(0x00, 0x20)\n      swap1\n    tag_57:\n      dup2\n      sload\n      dup2\n      mstore\n      swap1\n      0x01\n      add\n      swap1\n      0x20\n      add\n      dup1\n      dup4\n      gt\n      tag_57\n      jumpi\n      dup3\n      swap1\n      sub\n      0x1f\n      and\n      dup3\n      add\n      swap2\n    tag_55:\n      pop\n      pop\n      pop\n      pop\n      pop\n      dup2\n      mstore\n      0x20\n      add\n      0x01\n      dup3\n      add\n      0x00\n      swap1\n      sload\n      swap1\n      0x0100\n      exp\n      swap1\n      div\n      0xff\n      and\n      0xff\n      and\n      0xff\n      and\n      dup2\n      mstore\n      0x20\n      add\n      0x02\n      dup3\n      add\n      dup1\n      sload\n      tag_58\n      swap1\n      tag_53\n      jump\t// in\n    tag_58:\n      dup1\n      0x1f\n      add\n      0x20\n      dup1\n      swap2\n      div\n      mul\n      0x20\n      add\n      mload(0x40)\n      swap1\n      dup2\n      add\n      0x40\n      mstore\n      dup1\n      swap3\n      swap2\n      swap1\n      dup2\n      dup2\n      mstore\n      0x20\n      add\n      dup3\n      dup1\n      sload\n      tag_59\n      swap1\n      tag_53\n      jump\t// in\n    tag_59:\n      dup1\n      iszero\n      tag_60\n      jumpi\n      dup1\n      0x1f\n      lt\n      tag_61\n      jumpi\n      0x0100\n      dup1\n      dup4\n      sload\n      div\n      mul\n      dup4\n      mstore\n      swap2\n      0x20\n      add\n      swap2\n      jump(tag_60)\n    tag_61:\n      dup3\n      add\n      swap2\n      swap1\n      0x00\n      mstore\n      keccak256(0x00, 0x20)\n      swap1\n    tag_62:\n      dup2\n      sload\n      dup2\n      mstore\n      swap1\n      0x01\n      add\n      swap1\n      0x20\n      add\n      dup1\n      dup4\n      gt\n      tag_62\n      jumpi\n      dup3\n      swap1\n      sub\n      0x1f\n      and\n      dup3\n      add\n      swap2\n    tag_60:\n      pop\n      pop\n      pop\n      pop\n      pop\n      dup2\n      mstore\n      0x20\n      add\n      0x03\n      dup3\n      add\n      0x00\n      swap1\n      sload\n      swap1\n      0x0100\n      exp\n      swap1\n      div\n      0xffffffffffffffffffffffffffffffffffffffff\n      and\n      0xffffffffffffffffffffffffffffffffffffffff\n      and\n      0xffffffffffffffffffffffffffffffffffffffff\n      and\n      dup2\n      mstore\n      pop\n      pop\n      dup2\n      mstore\n      0x20\n      add\n      swap1\n      0x01\n      add\n      swap1\n      jump(tag_49)\n    tag_50:\n      pop\n      pop\n      pop\n      pop\n      swap1\n      pop\n        /* \"contracts/GatedEvent.sol\":3281:3531  function DetailsOfPeopleRegisterd(... */\n      swap2\n      swap1\n      pop\n      jump\t// out\n        /* \"contracts/GatedEvent.sol\":3916:4071  function UnLockNFT(uint256 _id) external {... */\n    tag_24:\n      pop\n      jump\t// out\n        /* \"contracts/GatedEvent.sol\":2494:2610  function ViewEvent(uint256 _id) external view returns (EventStruct memory) {... */\n    tag_27:\n        /* \"contracts/GatedEvent.sol\":2549:2567  EventStruct memory */\n      tag_64\n      tag_65\n      jump\t// in\n    tag_64:\n        /* \"contracts/GatedEvent.sol\":2586:2598  eventMapping */\n      0x01\n        /* \"contracts/GatedEvent.sol\":2586:2603  eventMapping[_id] */\n      0x00\n        /* \"contracts/GatedEvent.sol\":2599:2602  _id */\n      dup4\n        /* \"contracts/GatedEvent.sol\":2586:2603  eventMapping[_id] */\n      dup2\n      mstore\n      0x20\n      add\n      swap1\n      dup2\n      mstore\n      0x20\n      add\n      0x00\n      keccak256\n        /* \"contracts/GatedEvent.sol\":2579:2603  return eventMapping[_id] */\n      mload(0x40)\n      dup1\n      0xe0\n      add\n      0x40\n      mstore\n      swap1\n      dup2\n      0x00\n      dup3\n      add\n      sload\n      dup2\n      mstore\n      0x20\n      add\n      0x01\n      dup3\n      add\n      dup1\n      sload\n      tag_67\n      swap1\n      tag_53\n      jump\t// in\n    tag_67:\n      dup1\n      0x1f\n      add\n      0x20\n      dup1\n      swap2\n      div\n      mul\n      0x20\n      add\n      mload(0x40)\n      swap1\n      dup2\n      add\n      0x40\n      mstore\n      dup1\n      swap3\n      swap2\n      swap1\n      dup2\n      dup2\n      mstore\n      0x20\n      add\n      dup3\n      dup1\n      sload\n      tag_68\n      swap1\n      tag_53\n      jump\t// in\n    tag_68:\n      dup1\n      iszero\n      tag_69\n      jumpi\n      dup1\n      0x1f\n      lt\n      tag_70\n      jumpi\n      0x0100\n      dup1\n      dup4\n      sload\n      div\n      mul\n      dup4\n      mstore\n      swap2\n      0x20\n      add\n      swap2\n      jump(tag_69)\n    tag_70:\n      dup3\n      add\n      swap2\n      swap1\n      0x00\n      mstore\n      keccak256(0x00, 0x20)\n      swap1\n    tag_71:\n      dup2\n      sload\n      dup2\n      mstore\n      swap1\n      0x01\n      add\n      swap1\n      0x20\n      add\n      dup1\n      dup4\n      gt\n      tag_71\n      jumpi\n      dup3\n      swap1\n      sub\n      0x1f\n      and\n      dup3\n      add\n      swap2\n    tag_69:\n      pop\n      pop\n      pop\n      pop\n      pop\n      dup2\n      mstore\n      0x20\n      add\n      0x02\n      dup3\n      add\n      dup1\n      sload\n      tag_72\n      swap1\n      tag_53\n      jump\t// in\n    tag_72:\n      dup1\n      0x1f\n      add\n      0x20\n      dup1\n      swap2\n      div\n      mul\n      0x20\n      add\n      mload(0x40)\n      swap1\n      dup2\n      add\n      0x40\n      mstore\n      dup1\n      swap3\n      swap2\n      swap1\n      dup2\n      dup2\n      mstore\n      0x20\n      add\n      dup3\n      dup1\n      sload\n      tag_73\n      swap1\n      tag_53\n      jump\t// in\n    tag_73:\n      dup1\n      iszero\n      tag_74\n      jumpi\n      dup1\n      0x1f\n      lt\n      tag_75\n      jumpi\n      0x0100\n      dup1\n      dup4\n      sload\n      div\n      mul\n      dup4\n      mstore\n      swap2\n      0x20\n      add\n      swap2\n      jump(tag_74)\n    tag_75:\n      dup3\n      add\n      swap2\n      swap1\n      0x00\n      mstore\n      keccak256(0x00, 0x20)\n      swap1\n    tag_76:\n      dup2\n      sload\n      dup2\n      mstore\n      swap1\n      0x01\n      add\n      swap1\n      0x20\n      add\n      dup1\n      dup4\n      gt\n      tag_76\n      jumpi\n      dup3\n      swap1\n      sub\n      0x1f\n      and\n      dup3\n      add\n      swap2\n    tag_74:\n      pop\n      pop\n      pop\n      pop\n      pop\n      dup2\n      mstore\n      0x20\n      add\n      0x03\n      dup3\n      add\n      dup1\n      sload\n      tag_77\n      swap1\n      tag_53\n      jump\t// in\n    tag_77:\n      dup1\n      0x1f\n      add\n      0x20\n      dup1\n      swap2\n      div\n      mul\n      0x20\n      add\n      mload(0x40)\n      swap1\n      dup2\n      add\n      0x40\n      mstore\n      dup1\n      swap3\n      swap2\n      swap1\n      dup2\n      dup2\n      mstore\n      0x20\n      add\n      dup3\n      dup1\n      sload\n      tag_78\n      swap1\n      tag_53\n      jump\t// in\n    tag_78:\n      dup1\n      iszero\n      tag_79\n      jumpi\n      dup1\n      0x1f\n      lt\n      tag_80\n      jumpi\n      0x0100\n      dup1\n      dup4\n      sload\n      div\n      mul\n      dup4\n      mstore\n      swap2\n      0x20\n      add\n      swap2\n      jump(tag_79)\n    tag_80:\n      dup3\n      add\n      swap2\n      swap1\n      0x00\n      mstore\n      keccak256(0x00, 0x20)\n      swap1\n    tag_81:\n      dup2\n      sload\n      dup2\n      mstore\n      swap1\n      0x01\n      add\n      swap1\n      0x20\n      add\n      dup1\n      dup4\n      gt\n      tag_81\n      jumpi\n      dup3\n      swap1\n      sub\n      0x1f\n      and\n      dup3\n      add\n      swap2\n    tag_79:\n      pop\n      pop\n      pop\n      pop\n      pop\n      dup2\n      mstore\n      0x20\n      add\n      0x04\n      dup3\n      add\n      dup1\n      sload\n      tag_82\n      swap1\n      tag_53\n      jump\t// in\n    tag_82:\n      dup1\n      0x1f\n      add\n      0x20\n      dup1\n      swap2\n      div\n      mul\n      0x20\n      add\n      mload(0x40)\n      swap1\n      dup2\n      add\n      0x40\n      mstore\n      dup1\n      swap3\n      swap2\n      swap1\n      dup2\n      dup2\n      mstore\n      0x20\n      add\n      dup3\n      dup1\n      sload\n      tag_83\n      swap1\n      tag_53\n      jump\t// in\n    tag_83:\n      dup1\n      iszero\n      tag_84\n      jumpi\n      dup1\n      0x1f\n      lt\n      tag_85\n      jumpi\n      0x0100\n      dup1\n      dup4\n      sload\n      div\n      mul\n      dup4\n      mstore\n      swap2\n      0x20\n      add\n      swap2\n      jump(tag_84)\n    tag_85:\n      dup3\n      add\n      swap2\n      swap1\n      0x00\n      mstore\n      keccak256(0x00, 0x20)\n      swap1\n    tag_86:\n      dup2\n      sload\n      dup2\n      mstore\n      swap1\n      0x01\n      add\n      swap1\n      0x20\n      add\n      dup1\n      dup4\n      gt\n      tag_86\n      jumpi\n      dup3\n      swap1\n      sub\n      0x1f\n      and\n      dup3\n      add\n      swap2\n    tag_84:\n      pop\n      pop\n      pop\n      pop\n      pop\n      dup2\n      mstore\n      0x20\n      add\n      0x05\n      dup3\n      add\n      dup1\n      sload\n      tag_87\n      swap1\n      tag_53\n      jump\t// in\n    tag_87:\n      dup1\n      0x1f\n      add\n      0x20\n      dup1\n      swap2\n      div\n      mul\n      0x20\n      add\n      mload(0x40)\n      swap1\n      dup2\n      add\n      0x40\n      mstore\n      dup1\n      swap3\n      swap2\n      swap1\n      dup2\n      dup2\n      mstore\n      0x20\n      add\n      dup3\n      dup1\n      sload\n      tag_88\n      swap1\n      tag_53\n      jump\t// in\n    tag_88:\n      dup1\n      iszero\n      tag_89\n      jumpi\n      dup1\n      0x1f\n      lt\n      tag_90\n      jumpi\n      0x0100\n      dup1\n      dup4\n      sload\n      div\n      mul\n      dup4\n      mstore\n      swap2\n      0x20\n      add\n      swap2\n      jump(tag_89)\n    tag_90:\n      dup3\n      add\n      swap2\n      swap1\n      0x00\n      mstore\n      keccak256(0x00, 0x20)\n      swap1\n    tag_91:\n      dup2\n      sload\n      dup2\n      mstore\n      swap1\n      0x01\n      add\n      swap1\n      0x20\n      add\n      dup1\n      dup4\n      gt\n      tag_91\n      jumpi\n      dup3\n      swap1\n      sub\n      0x1f\n      and\n      dup3\n      add\n      swap2\n    tag_89:\n      pop\n      pop\n      pop\n      pop\n      pop\n      dup2\n      mstore\n      0x20\n      add\n      0x06\n      dup3\n      add\n      dup1\n      sload\n      dup1\n      0x20\n      mul\n      0x20\n      add\n      mload(0x40)\n      swap1\n      dup2\n      add\n      0x40\n      mstore\n      dup1\n      swap3\n      swap2\n      swap1\n      dup2\n      dup2\n      mstore\n      0x20\n      add\n      0x00\n      swap1\n    tag_92:\n      dup3\n      dup3\n      lt\n      iszero\n      tag_93\n      jumpi\n      dup4\n      dup3\n      swap1\n      0x00\n      mstore\n      keccak256(0x00, 0x20)\n      swap1\n      0x04\n      mul\n      add\n      mload(0x40)\n      dup1\n      0x80\n      add\n      0x40\n      mstore\n      swap1\n      dup2\n      0x00\n      dup3\n      add\n      dup1\n      sload\n      tag_95\n      swap1\n      tag_53\n      jump\t// in\n    tag_95:\n      dup1\n      0x1f\n      add\n      0x20\n      dup1\n      swap2\n      div\n      mul\n      0x20\n      add\n      mload(0x40)\n      swap1\n      dup2\n      add\n      0x40\n      mstore\n      dup1\n      swap3\n      swap2\n      swap1\n      dup2\n      dup2\n      mstore\n      0x20\n      add\n      dup3\n      dup1\n      sload\n      tag_96\n      swap1\n      tag_53\n      jump\t// in\n    tag_96:\n      dup1\n      iszero\n      tag_97\n      jumpi\n      dup1\n      0x1f\n      lt\n      tag_98\n      jumpi\n      0x0100\n      dup1\n      dup4\n      sload\n      div\n      mul\n      dup4\n      mstore\n      swap2\n      0x20\n      add\n      swap2\n      jump(tag_97)\n    tag_98:\n      dup3\n      add\n      swap2\n      swap1\n      0x00\n      mstore\n      keccak256(0x00, 0x20)\n      swap1\n    tag_99:\n      dup2\n      sload\n      dup2\n      mstore\n      swap1\n      0x01\n      add\n      swap1\n      0x20\n      add\n      dup1\n      dup4\n      gt\n      tag_99\n      jumpi\n      dup3\n      swap1\n      sub\n      0x1f\n      and\n      dup3\n      add\n      swap2\n    tag_97:\n      pop\n      pop\n      pop\n      pop\n      pop\n      dup2\n      mstore\n      0x20\n      add\n      0x01\n      dup3\n      add\n      0x00\n      swap1\n      sload\n      swap1\n      0x0100\n      exp\n      swap1\n      div\n      0xff\n      and\n      0xff\n      and\n      0xff\n      and\n      dup2\n      mstore\n      0x20\n      add\n      0x02\n      dup3\n      add\n      dup1\n      sload\n      tag_100\n      swap1\n      tag_53\n      jump\t// in\n    tag_100:\n      dup1\n      0x1f\n      add\n      0x20\n      dup1\n      swap2\n      div\n      mul\n      0x20\n      add\n      mload(0x40)\n      swap1\n      dup2\n      add\n      0x40\n      mstore\n      dup1\n      swap3\n      swap2\n      swap1\n      dup2\n      dup2\n      mstore\n      0x20\n      add\n      dup3\n      dup1\n      sload\n      tag_101\n      swap1\n      tag_53\n      jump\t// in\n    tag_101:\n      dup1\n      iszero\n      tag_102\n      jumpi\n      dup1\n      0x1f\n      lt\n      tag_103\n      jumpi\n      0x0100\n      dup1\n      dup4\n      sload\n      div\n      mul\n      dup4\n      mstore\n      swap2\n      0x20\n      add\n      swap2\n      jump(tag_102)\n    tag_103:\n      dup3\n      add\n      swap2\n      swap1\n      0x00\n      mstore\n      keccak256(0x00, 0x20)\n      swap1\n    tag_104:\n      dup2\n      sload\n      dup2\n      mstore\n      swap1\n      0x01\n      add\n      swap1\n      0x20\n      add\n      dup1\n      dup4\n      gt\n      tag_104\n      jumpi\n      dup3\n      swap1\n      sub\n      0x1f\n      and\n      dup3\n      add\n      swap2\n    tag_102:\n      pop\n      pop\n      pop\n      pop\n      pop\n      dup2\n      mstore\n      0x20\n      add\n      0x03\n      dup3\n      add\n      0x00\n      swap1\n      sload\n      swap1\n      0x0100\n      exp\n      swap1\n      div\n      0xffffffffffffffffffffffffffffffffffffffff\n      and\n      0xffffffffffffffffffffffffffffffffffffffff\n      and\n      0xffffffffffffffffffffffffffffffffffffffff\n      and\n      dup2\n      mstore\n      pop\n      pop\n      dup2\n      mstore\n      0x20\n      add\n      swap1\n      0x01\n      add\n      swap1\n      jump(tag_92)\n    tag_93:\n      pop\n      pop\n      pop\n      pop\n      dup2\n      mstore\n      pop\n      pop\n      swap1\n      pop\n        /* \"contracts/GatedEvent.sol\":2494:2610  function ViewEvent(uint256 _id) external view returns (EventStruct memory) {... */\n      swap2\n      swap1\n      pop\n      jump\t// out\n        /* \"contracts/GatedEvent.sol\":3537:3690  function NumberOFPeopleRegisterd(... */\n    tag_32:\n        /* \"contracts/GatedEvent.sol\":3620:3627  uint256 */\n      0x00\n        /* \"contracts/GatedEvent.sol\":3646:3658  eventMapping */\n      0x01\n        /* \"contracts/GatedEvent.sol\":3646:3663  eventMapping[_id] */\n      0x00\n        /* \"contracts/GatedEvent.sol\":3659:3662  _id */\n      dup4\n        /* \"contracts/GatedEvent.sol\":3646:3663  eventMapping[_id] */\n      dup2\n      mstore\n      0x20\n      add\n      swap1\n      dup2\n      mstore\n      0x20\n      add\n      0x00\n      keccak256\n        /* \"contracts/GatedEvent.sol\":3646:3676  eventMapping[_id].AttendeeInfo */\n      0x06\n      add\n        /* \"contracts/GatedEvent.sol\":3646:3683  eventMapping[_id].AttendeeInfo.length */\n      dup1\n      sload\n      swap1\n      pop\n        /* \"contracts/GatedEvent.sol\":3639:3683  return eventMapping[_id].AttendeeInfo.length */\n      swap1\n      pop\n        /* \"contracts/GatedEvent.sol\":3537:3690  function NumberOFPeopleRegisterd(... */\n      swap2\n      swap1\n      pop\n      jump\t// out\n        /* \"contracts/GatedEvent.sol\":1969:2488  function UpdateEvent(... */\n    tag_38:\n        /* \"contracts/GatedEvent.sol\":2193:2231  EventStruct storage eventDetailsUpdate */\n      0x00\n        /* \"contracts/GatedEvent.sol\":2234:2246  eventMapping */\n      0x01\n        /* \"contracts/GatedEvent.sol\":2234:2251  eventMapping[_id] */\n      0x00\n        /* \"contracts/GatedEvent.sol\":2247:2250  _id */\n      dup9\n        /* \"contracts/GatedEvent.sol\":2234:2251  eventMapping[_id] */\n      dup2\n      mstore\n      0x20\n      add\n      swap1\n      dup2\n      mstore\n      0x20\n      add\n      0x00\n      keccak256\n        /* \"contracts/GatedEvent.sol\":2193:2251  EventStruct storage eventDetailsUpdate = eventMapping[_id] */\n      swap1\n      pop\n        /* \"contracts/GatedEvent.sol\":2289:2295  _title */\n      dup6\n        /* \"contracts/GatedEvent.sol\":2262:2280  eventDetailsUpdate */\n      dup2\n        /* \"contracts/GatedEvent.sol\":2262:2286  eventDetailsUpdate.Title */\n      0x01\n      add\n        /* \"contracts/GatedEvent.sol\":2262:2295  eventDetailsUpdate.Title = _title */\n      swap1\n      dup2\n      tag_107\n      swap2\n      swap1\n      tag_108\n      jump\t// in\n    tag_107:\n      pop\n        /* \"contracts/GatedEvent.sol\":2334:2342  _details */\n      dup5\n        /* \"contracts/GatedEvent.sol\":2305:2323  eventDetailsUpdate */\n      dup2\n        /* \"contracts/GatedEvent.sol\":2305:2331  eventDetailsUpdate.Details */\n      0x02\n      add\n        /* \"contracts/GatedEvent.sol\":2305:2342  eventDetailsUpdate.Details = _details */\n      swap1\n      dup2\n      tag_109\n      swap2\n      swap1\n      tag_108\n      jump\t// in\n    tag_109:\n      pop\n        /* \"contracts/GatedEvent.sol\":2378:2383  _host */\n      dup4\n        /* \"contracts/GatedEvent.sol\":2352:2370  eventDetailsUpdate */\n      dup2\n        /* \"contracts/GatedEvent.sol\":2352:2375  eventDetailsUpdate.Host */\n      0x03\n      add\n        /* \"contracts/GatedEvent.sol\":2352:2383  eventDetailsUpdate.Host = _host */\n      swap1\n      dup2\n      tag_110\n      swap2\n      swap1\n      tag_108\n      jump\t// in\n    tag_110:\n      pop\n        /* \"contracts/GatedEvent.sol\":2423:2432  _datetime */\n      dup3\n        /* \"contracts/GatedEvent.sol\":2393:2411  eventDetailsUpdate */\n      dup2\n        /* \"contracts/GatedEvent.sol\":2393:2420  eventDetailsUpdate.DateTime */\n      0x04\n      add\n        /* \"contracts/GatedEvent.sol\":2393:2432  eventDetailsUpdate.DateTime = _datetime */\n      swap1\n      dup2\n      tag_111\n      swap2\n      swap1\n      tag_108\n      jump\t// in\n    tag_111:\n      pop\n        /* \"contracts/GatedEvent.sol\":2472:2481  _location */\n      dup2\n        /* \"contracts/GatedEvent.sol\":2442:2460  eventDetailsUpdate */\n      dup2\n        /* \"contracts/GatedEvent.sol\":2442:2469  eventDetailsUpdate.Location */\n      0x05\n      add\n        /* \"contracts/GatedEvent.sol\":2442:2481  eventDetailsUpdate.Location = _location */\n      swap1\n      dup2\n      tag_112\n      swap2\n      swap1\n      tag_108\n      jump\t// in\n    tag_112:\n      pop\n        /* \"contracts/GatedEvent.sol\":2183:2488  {... */\n      pop\n        /* \"contracts/GatedEvent.sol\":1969:2488  function UpdateEvent(... */\n      pop\n      pop\n      pop\n      pop\n      pop\n      pop\n      jump\t// out\n        /* \"contracts/GatedEvent.sol\":2616:3275  function RegisterForEvent(... */\n    tag_42:\n        /* \"contracts/GatedEvent.sol\":2824:2862  AttendeeDetails memory attendeeDetails */\n      0x00\n        /* \"contracts/GatedEvent.sol\":2865:2971  AttendeeDetails(... */\n      mload(0x40)\n      dup1\n      0x80\n      add\n      0x40\n      mstore\n      dup1\n        /* \"contracts/GatedEvent.sol\":2894:2899  _name */\n      dup6\n        /* \"contracts/GatedEvent.sol\":2865:2971  AttendeeDetails(... */\n      dup2\n      mstore\n      0x20\n      add\n        /* \"contracts/GatedEvent.sol\":2913:2917  _age */\n      dup4\n        /* \"contracts/GatedEvent.sol\":2865:2971  AttendeeDetails(... */\n      0xff\n      and\n      dup2\n      mstore\n      0x20\n      add\n        /* \"contracts/GatedEvent.sol\":2931:2937  _email */\n      dup5\n        /* \"contracts/GatedEvent.sol\":2865:2971  AttendeeDetails(... */\n      dup2\n      mstore\n      0x20\n      add\n        /* \"contracts/GatedEvent.sol\":2951:2961  msg.sender */\n      caller\n        /* \"contracts/GatedEvent.sol\":2865:2971  AttendeeDetails(... */\n      0xffffffffffffffffffffffffffffffffffffffff\n      and\n      dup2\n      mstore\n      pop\n        /* \"contracts/GatedEvent.sol\":2824:2971  AttendeeDetails memory attendeeDetails = AttendeeDetails(... */\n      swap1\n      pop\n        /* \"contracts/GatedEvent.sol\":2981:3019  EventStruct storage eventDetailsUpdate */\n      0x00\n        /* \"contracts/GatedEvent.sol\":3022:3034  eventMapping */\n      0x01\n        /* \"contracts/GatedEvent.sol\":3022:3039  eventMapping[_id] */\n      0x00\n        /* \"contracts/GatedEvent.sol\":3035:3038  _id */\n      dup8\n        /* \"contracts/GatedEvent.sol\":3022:3039  eventMapping[_id] */\n      dup2\n      mstore\n      0x20\n      add\n      swap1\n      dup2\n      mstore\n      0x20\n      add\n      0x00\n      keccak256\n        /* \"contracts/GatedEvent.sol\":2981:3039  EventStruct storage eventDetailsUpdate = eventMapping[_id] */\n      swap1\n      pop\n        /* \"contracts/GatedEvent.sol\":3050:3068  eventDetailsUpdate */\n      dup1\n        /* \"contracts/GatedEvent.sol\":3050:3081  eventDetailsUpdate.AttendeeInfo */\n      0x06\n      add\n        /* \"contracts/GatedEvent.sol\":3087:3102  attendeeDetails */\n      dup3\n        /* \"contracts/GatedEvent.sol\":3050:3103  eventDetailsUpdate.AttendeeInfo.push(attendeeDetails) */\n      swap1\n      dup1\n      0x01\n      dup2\n      sload\n      add\n      dup1\n      dup3\n      sstore\n      dup1\n      swap2\n      pop\n      pop\n      0x01\n      swap1\n      sub\n      swap1\n      0x00\n      mstore\n      keccak256(0x00, 0x20)\n      swap1\n      0x04\n      mul\n      add\n      0x00\n      swap1\n      swap2\n      swap1\n      swap2\n      swap1\n      swap2\n      pop\n      0x00\n      dup3\n      add\n      mload\n      dup2\n      0x00\n      add\n      swap1\n      dup2\n      tag_115\n      swap2\n      swap1\n      tag_108\n      jump\t// in\n    tag_115:\n      pop\n      0x20\n      dup3\n      add\n      mload\n      dup2\n      0x01\n      add\n      exp(0x0100, 0x00)\n      dup2\n      sload\n      dup2\n      0xff\n      mul\n      not\n      and\n      swap1\n      dup4\n      0xff\n      and\n      mul\n      or\n      swap1\n      sstore\n      pop\n      0x40\n      dup3\n      add\n      mload\n      dup2\n      0x02\n      add\n      swap1\n      dup2\n      tag_116\n      swap2\n      swap1\n      tag_108\n      jump\t// in\n    tag_116:\n      pop\n      0x60\n      dup3\n      add\n      mload\n      dup2\n      0x03\n      add\n      exp(0x0100, 0x00)\n      dup2\n      sload\n      dup2\n      0xffffffffffffffffffffffffffffffffffffffff\n      mul\n      not\n      and\n      swap1\n      dup4\n      0xffffffffffffffffffffffffffffffffffffffff\n      and\n      mul\n      or\n      swap1\n      sstore\n      pop\n      pop\n      pop\n        /* \"contracts/GatedEvent.sol\":2757:3275  {... */\n      pop\n      pop\n        /* \"contracts/GatedEvent.sol\":2616:3275  function RegisterForEvent(... */\n      pop\n      pop\n      pop\n      pop\n      jump\t// out\n        /* \"contracts/GatedEvent.sol\":1271:1963  function CreateEvent(... */\n    tag_46:\n        /* \"contracts/GatedEvent.sol\":1508:1509  1 */\n      0x01\n        /* \"contracts/GatedEvent.sol\":1491:1505  EventIDCounter */\n      sload(0x02)\n        /* \"contracts/GatedEvent.sol\":1491:1509  EventIDCounter + 1 */\n      tag_118\n      swap2\n      swap1\n      tag_119\n      jump\t// in\n    tag_118:\n        /* \"contracts/GatedEvent.sol\":1474:1488  EventIDCounter */\n      0x02\n        /* \"contracts/GatedEvent.sol\":1474:1509  EventIDCounter = EventIDCounter + 1 */\n      dup2\n      swap1\n      sstore\n      pop\n        /* \"contracts/GatedEvent.sol\":1520:1537  uint256 _newEvent */\n      0x00\n        /* \"contracts/GatedEvent.sol\":1540:1554  EventIDCounter */\n      sload(0x02)\n        /* \"contracts/GatedEvent.sol\":1520:1554  uint256 _newEvent = EventIDCounter */\n      swap1\n      pop\n        /* \"contracts/GatedEvent.sol\":1565:1597  EventStruct storage eventDetails */\n      0x00\n        /* \"contracts/GatedEvent.sol\":1600:1612  eventMapping */\n      0x01\n        /* \"contracts/GatedEvent.sol\":1600:1623  eventMapping[_newEvent] */\n      0x00\n        /* \"contracts/GatedEvent.sol\":1613:1622  _newEvent */\n      dup4\n        /* \"contracts/GatedEvent.sol\":1600:1623  eventMapping[_newEvent] */\n      dup2\n      mstore\n      0x20\n      add\n      swap1\n      dup2\n      mstore\n      0x20\n      add\n      0x00\n      keccak256\n        /* \"contracts/GatedEvent.sol\":1565:1623  EventStruct storage eventDetails = eventMapping[_newEvent] */\n      swap1\n      pop\n        /* \"contracts/GatedEvent.sol\":1651:1660  _newEvent */\n      dup2\n        /* \"contracts/GatedEvent.sol\":1633:1645  eventDetails */\n      dup2\n        /* \"contracts/GatedEvent.sol\":1633:1648  eventDetails.Id */\n      0x00\n      add\n        /* \"contracts/GatedEvent.sol\":1633:1660  eventDetails.Id = _newEvent */\n      dup2\n      swap1\n      sstore\n      pop\n        /* \"contracts/GatedEvent.sol\":1691:1697  _title */\n      dup7\n        /* \"contracts/GatedEvent.sol\":1670:1682  eventDetails */\n      dup2\n        /* \"contracts/GatedEvent.sol\":1670:1688  eventDetails.Title */\n      0x01\n      add\n        /* \"contracts/GatedEvent.sol\":1670:1697  eventDetails.Title = _title */\n      swap1\n      dup2\n      tag_120\n      swap2\n      swap1\n      tag_108\n      jump\t// in\n    tag_120:\n      pop\n        /* \"contracts/GatedEvent.sol\":1730:1738  _details */\n      dup6\n        /* \"contracts/GatedEvent.sol\":1707:1719  eventDetails */\n      dup2\n        /* \"contracts/GatedEvent.sol\":1707:1727  eventDetails.Details */\n      0x02\n      add\n        /* \"contracts/GatedEvent.sol\":1707:1738  eventDetails.Details = _details */\n      swap1\n      dup2\n      tag_121\n      swap2\n      swap1\n      tag_108\n      jump\t// in\n    tag_121:\n      pop\n        /* \"contracts/GatedEvent.sol\":1768:1773  _host */\n      dup5\n        /* \"contracts/GatedEvent.sol\":1748:1760  eventDetails */\n      dup2\n        /* \"contracts/GatedEvent.sol\":1748:1765  eventDetails.Host */\n      0x03\n      add\n        /* \"contracts/GatedEvent.sol\":1748:1773  eventDetails.Host = _host */\n      swap1\n      dup2\n      tag_122\n      swap2\n      swap1\n      tag_108\n      jump\t// in\n    tag_122:\n      pop\n        /* \"contracts/GatedEvent.sol\":1807:1816  _datetime */\n      dup4\n        /* \"contracts/GatedEvent.sol\":1783:1795  eventDetails */\n      dup2\n        /* \"contracts/GatedEvent.sol\":1783:1804  eventDetails.DateTime */\n      0x04\n      add\n        /* \"contracts/GatedEvent.sol\":1783:1816  eventDetails.DateTime = _datetime */\n      swap1\n      dup2\n      tag_123\n      swap2\n      swap1\n      tag_108\n      jump\t// in\n    tag_123:\n      pop\n        /* \"contracts/GatedEvent.sol\":1850:1859  _location */\n      dup3\n        /* \"contracts/GatedEvent.sol\":1826:1838  eventDetails */\n      dup2\n        /* \"contracts/GatedEvent.sol\":1826:1847  eventDetails.Location */\n      0x05\n      add\n        /* \"contracts/GatedEvent.sol\":1826:1859  eventDetails.Location = _location */\n      swap1\n      dup2\n      tag_124\n      swap2\n      swap1\n      tag_108\n      jump\t// in\n    tag_124:\n      pop\n        /* \"contracts/GatedEvent.sol\":1870:1880  eventArray */\n      0x00\n        /* \"contracts/GatedEvent.sol\":1886:1898  eventDetails */\n      dup2\n        /* \"contracts/GatedEvent.sol\":1870:1899  eventArray.push(eventDetails) */\n      swap1\n      dup1\n      0x01\n      dup2\n      sload\n      add\n      dup1\n      dup3\n      sstore\n      dup1\n      swap2\n      pop\n      pop\n      0x01\n      swap1\n      sub\n      swap1\n      0x00\n      mstore\n      keccak256(0x00, 0x20)\n      swap1\n      0x07\n      mul\n      add\n      0x00\n      swap1\n      swap2\n      swap1\n      swap2\n      swap1\n      swap2\n      pop\n      0x00\n      dup3\n      add\n      sload\n      dup2\n      0x00\n      add\n      sstore\n      0x01\n      dup3\n      add\n      dup2\n      0x01\n      add\n      swap1\n      dup2\n      tag_126\n      swap2\n      swap1\n      tag_127\n      jump\t// in\n    tag_126:\n      pop\n      0x02\n      dup3\n      add\n      dup2\n      0x02\n      add\n      swap1\n      dup2\n      tag_128\n      swap2\n      swap1\n      tag_127\n      jump\t// in\n    tag_128:\n      pop\n      0x03\n      dup3\n      add\n      dup2\n      0x03\n      add\n      swap1\n      dup2\n      tag_129\n      swap2\n      swap1\n      tag_127\n      jump\t// in\n    tag_129:\n      pop\n      0x04\n      dup3\n      add\n      dup2\n      0x04\n      add\n      swap1\n      dup2\n      tag_130\n      swap2\n      swap1\n      tag_127\n      jump\t// in\n    tag_130:\n      pop\n      0x05\n      dup3\n      add\n      dup2\n      0x05\n      add\n      swap1\n      dup2\n      tag_131\n      swap2\n      swap1\n      tag_127\n      jump\t// in\n    tag_131:\n      pop\n      0x06\n      dup3\n      add\n      dup2\n      0x06\n      add\n      swap1\n      dup1\n      sload\n      tag_132\n      swap3\n      swap2\n      swap1\n      tag_133\n      jump\t// in\n    tag_132:\n      pop\n      pop\n      pop\n        /* \"contracts/GatedEvent.sol\":1950:1955  _host */\n      dup5\n        /* \"contracts/GatedEvent.sol\":1915:1956  NewEventCreated(_newEvent, _title, _host) */\n      mload(0x40)\n      tag_134\n      swap2\n      swap1\n      tag_135\n      jump\t// in\n    tag_134:\n      mload(0x40)\n      dup1\n      swap2\n      sub\n      swap1\n      keccak256\n        /* \"contracts/GatedEvent.sol\":1942:1948  _title */\n      dup8\n        /* \"contracts/GatedEvent.sol\":1915:1956  NewEventCreated(_newEvent, _title, _host) */\n      mload(0x40)\n      tag_136\n      swap2\n      swap1\n      tag_135\n      jump\t// in\n    tag_136:\n      mload(0x40)\n      dup1\n      swap2\n      sub\n      swap1\n      keccak256\n        /* \"contracts/GatedEvent.sol\":1931:1940  _newEvent */\n      dup4\n        /* \"contracts/GatedEvent.sol\":1915:1956  NewEventCreated(_newEvent, _title, _host) */\n      0x2eaf5c3aec496fce10b5616bd077441243efa6fd20f3ae98eb388b9d48a288ae\n      mload(0x40)\n      mload(0x40)\n      dup1\n      swap2\n      sub\n      swap1\n      log4\n        /* \"contracts/GatedEvent.sol\":1464:1963  {... */\n      pop\n      pop\n        /* \"contracts/GatedEvent.sol\":1271:1963  function CreateEvent(... */\n      pop\n      pop\n      pop\n      pop\n      pop\n      jump\t// out\n    tag_65:\n      mload(0x40)\n      dup1\n      0xe0\n      add\n      0x40\n      mstore\n      dup1\n      0x00\n      dup2\n      mstore\n      0x20\n      add\n      0x60\n      dup2\n      mstore\n      0x20\n      add\n      0x60\n      dup2\n      mstore\n      0x20\n      add\n      0x60\n      dup2\n      mstore\n      0x20\n      add\n      0x60\n      dup2\n      mstore\n      0x20\n      add\n      0x60\n      dup2\n      mstore\n      0x20\n      add\n      0x60\n      dup2\n      mstore\n      pop\n      swap1\n      jump\t// out\n    tag_133:\n      dup3\n      dup1\n      sload\n      dup3\n      dup3\n      sstore\n      swap1\n      0x00\n      mstore\n      keccak256(0x00, 0x20)\n      swap1\n      0x04\n      mul\n      dup2\n      add\n      swap3\n      dup3\n      iszero\n      tag_137\n      jumpi\n      0x00\n      mstore\n      keccak256(0x00, 0x20)\n      swap2\n      0x04\n      mul\n      dup3\n      add\n    tag_138:\n      dup3\n      dup2\n      gt\n      iszero\n      tag_139\n      jumpi\n      dup3\n      dup3\n      0x00\n      dup3\n      add\n      dup2\n      0x00\n      add\n      swap1\n      dup2\n      tag_140\n      swap2\n      swap1\n      tag_127\n      jump\t// in\n    tag_140:\n      pop\n      0x01\n      dup3\n      add\n      0x00\n      swap1\n      sload\n      swap1\n      0x0100\n      exp\n      swap1\n      div\n      0xff\n      and\n      dup2\n      0x01\n      add\n      exp(0x0100, 0x00)\n      dup2\n      sload\n      dup2\n      0xff\n      mul\n      not\n      and\n      swap1\n      dup4\n      0xff\n      and\n      mul\n      or\n      swap1\n      sstore\n      pop\n      0x02\n      dup3\n      add\n      dup2\n      0x02\n      add\n      swap1\n      dup2\n      tag_141\n      swap2\n      swap1\n      tag_127\n      jump\t// in\n    tag_141:\n      pop\n      0x03\n      dup3\n      add\n      0x00\n      swap1\n      sload\n      swap1\n      0x0100\n      exp\n      swap1\n      div\n      0xffffffffffffffffffffffffffffffffffffffff\n      and\n      dup2\n      0x03\n      add\n      exp(0x0100, 0x00)\n      dup2\n      sload\n      dup2\n      0xffffffffffffffffffffffffffffffffffffffff\n      mul\n      not\n      and\n      swap1\n      dup4\n      0xffffffffffffffffffffffffffffffffffffffff\n      and\n      mul\n      or\n      swap1\n      sstore\n      pop\n      pop\n      pop\n      swap2\n      0x04\n      add\n      swap2\n      swap1\n      0x04\n      add\n      swap1\n      jump(tag_138)\n    tag_139:\n    tag_137:\n      pop\n      swap1\n      pop\n      tag_142\n      swap2\n      swap1\n      tag_143\n      jump\t// in\n    tag_142:\n      pop\n      swap1\n      jump\t// out\n    tag_143:\n    tag_144:\n      dup1\n      dup3\n      gt\n      iszero\n      tag_145\n      jumpi\n      0x00\n      dup1\n      dup3\n      add\n      0x00\n      tag_146\n      swap2\n      swap1\n      tag_147\n      jump\t// in\n    tag_146:\n      0x01\n      dup3\n      add\n      exp(0x0100, 0x00)\n      dup2\n      sload\n      swap1\n      0xff\n      mul\n      not\n      and\n      swap1\n      sstore\n      0x02\n      dup3\n      add\n      0x00\n      tag_148\n      swap2\n      swap1\n      tag_147\n      jump\t// in\n    tag_148:\n      0x03\n      dup3\n      add\n      exp(0x0100, 0x00)\n      dup2\n      sload\n      swap1\n      0xffffffffffffffffffffffffffffffffffffffff\n      mul\n      not\n      and\n      swap1\n      sstore\n      pop\n      0x04\n      add\n      jump(tag_144)\n    tag_145:\n      pop\n      swap1\n      jump\t// out\n    tag_147:\n      pop\n      dup1\n      sload\n      tag_149\n      swap1\n      tag_53\n      jump\t// in\n    tag_149:\n      0x00\n      dup3\n      sstore\n      dup1\n      0x1f\n      lt\n      tag_151\n      jumpi\n      pop\n      jump(tag_150)\n    tag_151:\n      0x1f\n      add\n      0x20\n      swap1\n      div\n      swap1\n      0x00\n      mstore\n      keccak256(0x00, 0x20)\n      swap1\n      dup2\n      add\n      swap1\n      tag_152\n      swap2\n      swap1\n      tag_153\n      jump\t// in\n    tag_152:\n    tag_150:\n      pop\n      jump\t// out\n    tag_153:\n    tag_154:\n      dup1\n      dup3\n      gt\n      iszero\n      tag_155\n      jumpi\n      0x00\n      dup2\n      0x00\n      swap1\n      sstore\n      pop\n      0x01\n      add\n      jump(tag_154)\n    tag_155:\n      pop\n      swap1\n      jump\t// out\n        /* \"#utility.yul\":7:82   */\n    tag_156:\n        /* \"#utility.yul\":40:46   */\n      0x00\n        /* \"#utility.yul\":73:75   */\n      0x40\n        /* \"#utility.yul\":67:76   */\n      mload\n        /* \"#utility.yul\":57:76   */\n      swap1\n      pop\n        /* \"#utility.yul\":7:82   */\n      swap1\n      jump\t// out\n        /* \"#utility.yul\":88:205   */\n    tag_157:\n        /* \"#utility.yul\":197:198   */\n      0x00\n        /* \"#utility.yul\":194:195   */\n      dup1\n        /* \"#utility.yul\":187:199   */\n      revert\n        /* \"#utility.yul\":211:328   */\n    tag_158:\n        /* \"#utility.yul\":320:321   */\n      0x00\n        /* \"#utility.yul\":317:318   */\n      dup1\n        /* \"#utility.yul\":310:322   */\n      revert\n        /* \"#utility.yul\":334:411   */\n    tag_159:\n        /* \"#utility.yul\":371:378   */\n      0x00\n        /* \"#utility.yul\":400:405   */\n      dup2\n        /* \"#utility.yul\":389:405   */\n      swap1\n      pop\n        /* \"#utility.yul\":334:411   */\n      swap2\n      swap1\n      pop\n      jump\t// out\n        /* \"#utility.yul\":417:539   */\n    tag_160:\n        /* \"#utility.yul\":490:514   */\n      tag_223\n        /* \"#utility.yul\":508:513   */\n      dup2\n        /* \"#utility.yul\":490:514   */\n      tag_159\n      jump\t// in\n    tag_223:\n        /* \"#utility.yul\":483:488   */\n      dup2\n        /* \"#utility.yul\":480:515   */\n      eq\n        /* \"#utility.yul\":470:533   */\n      tag_224\n      jumpi\n        /* \"#utility.yul\":529:530   */\n      0x00\n        /* \"#utility.yul\":526:527   */\n      dup1\n        /* \"#utility.yul\":519:531   */\n      revert\n        /* \"#utility.yul\":470:533   */\n    tag_224:\n        /* \"#utility.yul\":417:539   */\n      pop\n      jump\t// out\n        /* \"#utility.yul\":545:684   */\n    tag_161:\n        /* \"#utility.yul\":591:596   */\n      0x00\n        /* \"#utility.yul\":629:635   */\n      dup2\n        /* \"#utility.yul\":616:636   */\n      calldataload\n        /* \"#utility.yul\":607:636   */\n      swap1\n      pop\n        /* \"#utility.yul\":645:678   */\n      tag_226\n        /* \"#utility.yul\":672:677   */\n      dup2\n        /* \"#utility.yul\":645:678   */\n      tag_160\n      jump\t// in\n    tag_226:\n        /* \"#utility.yul\":545:684   */\n      swap3\n      swap2\n      pop\n      pop\n      jump\t// out\n        /* \"#utility.yul\":690:816   */\n    tag_162:\n        /* \"#utility.yul\":727:734   */\n      0x00\n        /* \"#utility.yul\":767:809   */\n      0xffffffffffffffffffffffffffffffffffffffff\n        /* \"#utility.yul\":760:765   */\n      dup3\n        /* \"#utility.yul\":756:810   */\n      and\n        /* \"#utility.yul\":745:810   */\n      swap1\n      pop\n        /* \"#utility.yul\":690:816   */\n      swap2\n      swap1\n      pop\n      jump\t// out\n        /* \"#utility.yul\":822:918   */\n    tag_163:\n        /* \"#utility.yul\":859:866   */\n      0x00\n        /* \"#utility.yul\":888:912   */\n      tag_229\n        /* \"#utility.yul\":906:911   */\n      dup3\n        /* \"#utility.yul\":888:912   */\n      tag_162\n      jump\t// in\n    tag_229:\n        /* \"#utility.yul\":877:912   */\n      swap1\n      pop\n        /* \"#utility.yul\":822:918   */\n      swap2\n      swap1\n      pop\n      jump\t// out\n        /* \"#utility.yul\":924:1046   */\n    tag_164:\n        /* \"#utility.yul\":997:1021   */\n      tag_231\n        /* \"#utility.yul\":1015:1020   */\n      dup2\n        /* \"#utility.yul\":997:1021   */\n      tag_163\n      jump\t// in\n    tag_231:\n        /* \"#utility.yul\":990:995   */\n      dup2\n        /* \"#utility.yul\":987:1022   */\n      eq\n        /* \"#utility.yul\":977:1040   */\n      tag_232\n      jumpi\n        /* \"#utility.yul\":1036:1037   */\n      0x00\n        /* \"#utility.yul\":1033:1034   */\n      dup1\n        /* \"#utility.yul\":1026:1038   */\n      revert\n        /* \"#utility.yul\":977:1040   */\n    tag_232:\n        /* \"#utility.yul\":924:1046   */\n      pop\n      jump\t// out\n        /* \"#utility.yul\":1052:1191   */\n    tag_165:\n        /* \"#utility.yul\":1098:1103   */\n      0x00\n        /* \"#utility.yul\":1136:1142   */\n      dup2\n        /* \"#utility.yul\":1123:1143   */\n      calldataload\n        /* \"#utility.yul\":1114:1143   */\n      swap1\n      pop\n        /* \"#utility.yul\":1152:1185   */\n      tag_234\n        /* \"#utility.yul\":1179:1184   */\n      dup2\n        /* \"#utility.yul\":1152:1185   */\n      tag_164\n      jump\t// in\n    tag_234:\n        /* \"#utility.yul\":1052:1191   */\n      swap3\n      swap2\n      pop\n      pop\n      jump\t// out\n        /* \"#utility.yul\":1197:1671   */\n    tag_14:\n        /* \"#utility.yul\":1265:1271   */\n      0x00\n        /* \"#utility.yul\":1273:1279   */\n      dup1\n        /* \"#utility.yul\":1322:1324   */\n      0x40\n        /* \"#utility.yul\":1310:1319   */\n      dup4\n        /* \"#utility.yul\":1301:1308   */\n      dup6\n        /* \"#utility.yul\":1297:1320   */\n      sub\n        /* \"#utility.yul\":1293:1325   */\n      slt\n        /* \"#utility.yul\":1290:1409   */\n      iszero\n      tag_236\n      jumpi\n        /* \"#utility.yul\":1328:1407   */\n      tag_237\n      tag_157\n      jump\t// in\n    tag_237:\n        /* \"#utility.yul\":1290:1409   */\n    tag_236:\n        /* \"#utility.yul\":1448:1449   */\n      0x00\n        /* \"#utility.yul\":1473:1526   */\n      tag_238\n        /* \"#utility.yul\":1518:1525   */\n      dup6\n        /* \"#utility.yul\":1509:1515   */\n      dup3\n        /* \"#utility.yul\":1498:1507   */\n      dup7\n        /* \"#utility.yul\":1494:1516   */\n      add\n        /* \"#utility.yul\":1473:1526   */\n      tag_161\n      jump\t// in\n    tag_238:\n        /* \"#utility.yul\":1463:1526   */\n      swap3\n      pop\n        /* \"#utility.yul\":1419:1536   */\n      pop\n        /* \"#utility.yul\":1575:1577   */\n      0x20\n        /* \"#utility.yul\":1601:1654   */\n      tag_239\n        /* \"#utility.yul\":1646:1653   */\n      dup6\n        /* \"#utility.yul\":1637:1643   */\n      dup3\n        /* \"#utility.yul\":1626:1635   */\n      dup7\n        /* \"#utility.yul\":1622:1644   */\n      add\n        /* \"#utility.yul\":1601:1654   */\n      tag_165\n      jump\t// in\n    tag_239:\n        /* \"#utility.yul\":1591:1654   */\n      swap2\n      pop\n        /* \"#utility.yul\":1546:1664   */\n      pop\n        /* \"#utility.yul\":1197:1671   */\n      swap3\n      pop\n      swap3\n      swap1\n      pop\n      jump\t// out\n        /* \"#utility.yul\":1677:2006   */\n    tag_18:\n        /* \"#utility.yul\":1736:1742   */\n      0x00\n        /* \"#utility.yul\":1785:1787   */\n      0x20\n        /* \"#utility.yul\":1773:1782   */\n      dup3\n        /* \"#utility.yul\":1764:1771   */\n      dup5\n        /* \"#utility.yul\":1760:1783   */\n      sub\n        /* \"#utility.yul\":1756:1788   */\n      slt\n        /* \"#utility.yul\":1753:1872   */\n      iszero\n      tag_241\n      jumpi\n        /* \"#utility.yul\":1791:1870   */\n      tag_242\n      tag_157\n      jump\t// in\n    tag_242:\n        /* \"#utility.yul\":1753:1872   */\n    tag_241:\n        /* \"#utility.yul\":1911:1912   */\n      0x00\n        /* \"#utility.yul\":1936:1989   */\n      tag_243\n        /* \"#utility.yul\":1981:1988   */\n      dup5\n        /* \"#utility.yul\":1972:1978   */\n      dup3\n        /* \"#utility.yul\":1961:1970   */\n      dup6\n        /* \"#utility.yul\":1957:1979   */\n      add\n        /* \"#utility.yul\":1936:1989   */\n      tag_161\n      jump\t// in\n    tag_243:\n        /* \"#utility.yul\":1926:1989   */\n      swap2\n      pop\n        /* \"#utility.yul\":1882:1999   */\n      pop\n        /* \"#utility.yul\":1677:2006   */\n      swap3\n      swap2\n      pop\n      pop\n      jump\t// out\n        /* \"#utility.yul\":2012:2158   */\n    tag_166:\n        /* \"#utility.yul\":2111:2117   */\n      0x00\n        /* \"#utility.yul\":2145:2150   */\n      dup2\n        /* \"#utility.yul\":2139:2151   */\n      mload\n        /* \"#utility.yul\":2129:2151   */\n      swap1\n      pop\n        /* \"#utility.yul\":2012:2158   */\n      swap2\n      swap1\n      pop\n      jump\t// out\n        /* \"#utility.yul\":2164:2380   */\n    tag_167:\n        /* \"#utility.yul\":2295:2306   */\n      0x00\n        /* \"#utility.yul\":2329:2335   */\n      dup3\n        /* \"#utility.yul\":2324:2327   */\n      dup3\n        /* \"#utility.yul\":2317:2336   */\n      mstore\n        /* \"#utility.yul\":2369:2373   */\n      0x20\n        /* \"#utility.yul\":2364:2367   */\n      dup3\n        /* \"#utility.yul\":2360:2374   */\n      add\n        /* \"#utility.yul\":2345:2374   */\n      swap1\n      pop\n        /* \"#utility.yul\":2164:2380   */\n      swap3\n      swap2\n      pop\n      pop\n      jump\t// out\n        /* \"#utility.yul\":2386:2550   */\n    tag_168:\n        /* \"#utility.yul\":2485:2489   */\n      0x00\n        /* \"#utility.yul\":2508:2511   */\n      dup2\n        /* \"#utility.yul\":2500:2511   */\n      swap1\n      pop\n        /* \"#utility.yul\":2538:2542   */\n      0x20\n        /* \"#utility.yul\":2533:2536   */\n      dup3\n        /* \"#utility.yul\":2529:2543   */\n      add\n        /* \"#utility.yul\":2521:2543   */\n      swap1\n      pop\n        /* \"#utility.yul\":2386:2550   */\n      swap2\n      swap1\n      pop\n      jump\t// out\n        /* \"#utility.yul\":2556:2655   */\n    tag_169:\n        /* \"#utility.yul\":2608:2614   */\n      0x00\n        /* \"#utility.yul\":2642:2647   */\n      dup2\n        /* \"#utility.yul\":2636:2648   */\n      mload\n        /* \"#utility.yul\":2626:2648   */\n      swap1\n      pop\n        /* \"#utility.yul\":2556:2655   */\n      swap2\n      swap1\n      pop\n      jump\t// out\n        /* \"#utility.yul\":2661:2820   */\n    tag_170:\n        /* \"#utility.yul\":2735:2746   */\n      0x00\n        /* \"#utility.yul\":2769:2775   */\n      dup3\n        /* \"#utility.yul\":2764:2767   */\n      dup3\n        /* \"#utility.yul\":2757:2776   */\n      mstore\n        /* \"#utility.yul\":2809:2813   */\n      0x20\n        /* \"#utility.yul\":2804:2807   */\n      dup3\n        /* \"#utility.yul\":2800:2814   */\n      add\n        /* \"#utility.yul\":2785:2814   */\n      swap1\n      pop\n        /* \"#utility.yul\":2661:2820   */\n      swap3\n      swap2\n      pop\n      pop\n      jump\t// out\n        /* \"#utility.yul\":2826:3072   */\n    tag_171:\n        /* \"#utility.yul\":2907:2908   */\n      0x00\n        /* \"#utility.yul\":2917:3030   */\n    tag_250:\n        /* \"#utility.yul\":2931:2937   */\n      dup4\n        /* \"#utility.yul\":2928:2929   */\n      dup2\n        /* \"#utility.yul\":2925:2938   */\n      lt\n        /* \"#utility.yul\":2917:3030   */\n      iszero\n      tag_252\n      jumpi\n        /* \"#utility.yul\":3016:3017   */\n      dup1\n        /* \"#utility.yul\":3011:3014   */\n      dup3\n        /* \"#utility.yul\":3007:3018   */\n      add\n        /* \"#utility.yul\":3001:3019   */\n      mload\n        /* \"#utility.yul\":2997:2998   */\n      dup2\n        /* \"#utility.yul\":2992:2995   */\n      dup5\n        /* \"#utility.yul\":2988:2999   */\n      add\n        /* \"#utility.yul\":2981:3020   */\n      mstore\n        /* \"#utility.yul\":2953:2955   */\n      0x20\n        /* \"#utility.yul\":2950:2951   */\n      dup2\n        /* \"#utility.yul\":2946:2956   */\n      add\n        /* \"#utility.yul\":2941:2956   */\n      swap1\n      pop\n        /* \"#utility.yul\":2917:3030   */\n      jump(tag_250)\n    tag_252:\n        /* \"#utility.yul\":3064:3065   */\n      0x00\n        /* \"#utility.yul\":3055:3061   */\n      dup5\n        /* \"#utility.yul\":3050:3053   */\n      dup5\n        /* \"#utility.yul\":3046:3062   */\n      add\n        /* \"#utility.yul\":3039:3066   */\n      mstore\n        /* \"#utility.yul\":2888:3072   */\n      pop\n        /* \"#utility.yul\":2826:3072   */\n      pop\n      pop\n      pop\n      jump\t// out\n        /* \"#utility.yul\":3078:3180   */\n    tag_172:\n        /* \"#utility.yul\":3119:3125   */\n      0x00\n        /* \"#utility.yul\":3170:3172   */\n      0x1f\n        /* \"#utility.yul\":3166:3173   */\n      not\n        /* \"#utility.yul\":3161:3163   */\n      0x1f\n        /* \"#utility.yul\":3154:3159   */\n      dup4\n        /* \"#utility.yul\":3150:3164   */\n      add\n        /* \"#utility.yul\":3146:3174   */\n      and\n        /* \"#utility.yul\":3136:3174   */\n      swap1\n      pop\n        /* \"#utility.yul\":3078:3180   */\n      swap2\n      swap1\n      pop\n      jump\t// out\n        /* \"#utility.yul\":3186:3543   */\n    tag_173:\n        /* \"#utility.yul\":3264:3267   */\n      0x00\n        /* \"#utility.yul\":3292:3331   */\n      tag_255\n        /* \"#utility.yul\":3325:3330   */\n      dup3\n        /* \"#utility.yul\":3292:3331   */\n      tag_169\n      jump\t// in\n    tag_255:\n        /* \"#utility.yul\":3347:3408   */\n      tag_256\n        /* \"#utility.yul\":3401:3407   */\n      dup2\n        /* \"#utility.yul\":3396:3399   */\n      dup6\n        /* \"#utility.yul\":3347:3408   */\n      tag_170\n      jump\t// in\n    tag_256:\n        /* \"#utility.yul\":3340:3408   */\n      swap4\n      pop\n        /* \"#utility.yul\":3417:3482   */\n      tag_257\n        /* \"#utility.yul\":3475:3481   */\n      dup2\n        /* \"#utility.yul\":3470:3473   */\n      dup6\n        /* \"#utility.yul\":3463:3467   */\n      0x20\n        /* \"#utility.yul\":3456:3461   */\n      dup7\n        /* \"#utility.yul\":3452:3468   */\n      add\n        /* \"#utility.yul\":3417:3482   */\n      tag_171\n      jump\t// in\n    tag_257:\n        /* \"#utility.yul\":3507:3536   */\n      tag_258\n        /* \"#utility.yul\":3529:3535   */\n      dup2\n        /* \"#utility.yul\":3507:3536   */\n      tag_172\n      jump\t// in\n    tag_258:\n        /* \"#utility.yul\":3502:3505   */\n      dup5\n        /* \"#utility.yul\":3498:3537   */\n      add\n        /* \"#utility.yul\":3491:3537   */\n      swap2\n      pop\n        /* \"#utility.yul\":3268:3543   */\n      pop\n        /* \"#utility.yul\":3186:3543   */\n      swap3\n      swap2\n      pop\n      pop\n      jump\t// out\n        /* \"#utility.yul\":3549:3635   */\n    tag_174:\n        /* \"#utility.yul\":3584:3591   */\n      0x00\n        /* \"#utility.yul\":3624:3628   */\n      0xff\n        /* \"#utility.yul\":3617:3622   */\n      dup3\n        /* \"#utility.yul\":3613:3629   */\n      and\n        /* \"#utility.yul\":3602:3629   */\n      swap1\n      pop\n        /* \"#utility.yul\":3549:3635   */\n      swap2\n      swap1\n      pop\n      jump\t// out\n        /* \"#utility.yul\":3641:3743   */\n    tag_175:\n        /* \"#utility.yul\":3714:3736   */\n      tag_261\n        /* \"#utility.yul\":3730:3735   */\n      dup2\n        /* \"#utility.yul\":3714:3736   */\n      tag_174\n      jump\t// in\n    tag_261:\n        /* \"#utility.yul\":3709:3712   */\n      dup3\n        /* \"#utility.yul\":3702:3737   */\n      mstore\n        /* \"#utility.yul\":3641:3743   */\n      pop\n      pop\n      jump\t// out\n        /* \"#utility.yul\":3749:3857   */\n    tag_176:\n        /* \"#utility.yul\":3826:3850   */\n      tag_263\n        /* \"#utility.yul\":3844:3849   */\n      dup2\n        /* \"#utility.yul\":3826:3850   */\n      tag_163\n      jump\t// in\n    tag_263:\n        /* \"#utility.yul\":3821:3824   */\n      dup3\n        /* \"#utility.yul\":3814:3851   */\n      mstore\n        /* \"#utility.yul\":3749:3857   */\n      pop\n      pop\n      jump\t// out\n        /* \"#utility.yul\":3941:4977   */\n    tag_177:\n        /* \"#utility.yul\":4064:4067   */\n      0x00\n        /* \"#utility.yul\":4100:4104   */\n      0x80\n        /* \"#utility.yul\":4095:4098   */\n      dup4\n        /* \"#utility.yul\":4091:4105   */\n      add\n        /* \"#utility.yul\":4187:4191   */\n      0x00\n        /* \"#utility.yul\":4180:4185   */\n      dup4\n        /* \"#utility.yul\":4176:4192   */\n      add\n        /* \"#utility.yul\":4170:4193   */\n      mload\n        /* \"#utility.yul\":4240:4243   */\n      dup5\n        /* \"#utility.yul\":4234:4238   */\n      dup3\n        /* \"#utility.yul\":4230:4244   */\n      sub\n        /* \"#utility.yul\":4223:4227   */\n      0x00\n        /* \"#utility.yul\":4218:4221   */\n      dup7\n        /* \"#utility.yul\":4214:4228   */\n      add\n        /* \"#utility.yul\":4207:4245   */\n      mstore\n        /* \"#utility.yul\":4266:4339   */\n      tag_265\n        /* \"#utility.yul\":4334:4338   */\n      dup3\n        /* \"#utility.yul\":4320:4332   */\n      dup3\n        /* \"#utility.yul\":4266:4339   */\n      tag_173\n      jump\t// in\n    tag_265:\n        /* \"#utility.yul\":4258:4339   */\n      swap2\n      pop\n        /* \"#utility.yul\":4115:4350   */\n      pop\n        /* \"#utility.yul\":4431:4435   */\n      0x20\n        /* \"#utility.yul\":4424:4429   */\n      dup4\n        /* \"#utility.yul\":4420:4436   */\n      add\n        /* \"#utility.yul\":4414:4437   */\n      mload\n        /* \"#utility.yul\":4450:4509   */\n      tag_266\n        /* \"#utility.yul\":4503:4507   */\n      0x20\n        /* \"#utility.yul\":4498:4501   */\n      dup7\n        /* \"#utility.yul\":4494:4508   */\n      add\n        /* \"#utility.yul\":4480:4492   */\n      dup3\n        /* \"#utility.yul\":4450:4509   */\n      tag_175\n      jump\t// in\n    tag_266:\n        /* \"#utility.yul\":4360:4519   */\n      pop\n        /* \"#utility.yul\":4602:4606   */\n      0x40\n        /* \"#utility.yul\":4595:4600   */\n      dup4\n        /* \"#utility.yul\":4591:4607   */\n      add\n        /* \"#utility.yul\":4585:4608   */\n      mload\n        /* \"#utility.yul\":4655:4658   */\n      dup5\n        /* \"#utility.yul\":4649:4653   */\n      dup3\n        /* \"#utility.yul\":4645:4659   */\n      sub\n        /* \"#utility.yul\":4638:4642   */\n      0x40\n        /* \"#utility.yul\":4633:4636   */\n      dup7\n        /* \"#utility.yul\":4629:4643   */\n      add\n        /* \"#utility.yul\":4622:4660   */\n      mstore\n        /* \"#utility.yul\":4681:4754   */\n      tag_267\n        /* \"#utility.yul\":4749:4753   */\n      dup3\n        /* \"#utility.yul\":4735:4747   */\n      dup3\n        /* \"#utility.yul\":4681:4754   */\n      tag_173\n      jump\t// in\n    tag_267:\n        /* \"#utility.yul\":4673:4754   */\n      swap2\n      pop\n        /* \"#utility.yul\":4529:4765   */\n      pop\n        /* \"#utility.yul\":4858:4862   */\n      0x60\n        /* \"#utility.yul\":4851:4856   */\n      dup4\n        /* \"#utility.yul\":4847:4863   */\n      add\n        /* \"#utility.yul\":4841:4864   */\n      mload\n        /* \"#utility.yul\":4877:4940   */\n      tag_268\n        /* \"#utility.yul\":4934:4938   */\n      0x60\n        /* \"#utility.yul\":4929:4932   */\n      dup7\n        /* \"#utility.yul\":4925:4939   */\n      add\n        /* \"#utility.yul\":4911:4923   */\n      dup3\n        /* \"#utility.yul\":4877:4940   */\n      tag_176\n      jump\t// in\n    tag_268:\n        /* \"#utility.yul\":4775:4950   */\n      pop\n        /* \"#utility.yul\":4967:4971   */\n      dup1\n        /* \"#utility.yul\":4960:4971   */\n      swap2\n      pop\n        /* \"#utility.yul\":4069:4977   */\n      pop\n        /* \"#utility.yul\":3941:4977   */\n      swap3\n      swap2\n      pop\n      pop\n      jump\t// out\n        /* \"#utility.yul\":4983:5267   */\n    tag_178:\n        /* \"#utility.yul\":5116:5126   */\n      0x00\n        /* \"#utility.yul\":5151:5261   */\n      tag_270\n        /* \"#utility.yul\":5257:5260   */\n      dup4\n        /* \"#utility.yul\":5249:5255   */\n      dup4\n        /* \"#utility.yul\":5151:5261   */\n      tag_177\n      jump\t// in\n    tag_270:\n        /* \"#utility.yul\":5137:5261   */\n      swap1\n      pop\n        /* \"#utility.yul\":4983:5267   */\n      swap3\n      swap2\n      pop\n      pop\n      jump\t// out\n        /* \"#utility.yul\":5273:5418   */\n    tag_179:\n        /* \"#utility.yul\":5375:5379   */\n      0x00\n        /* \"#utility.yul\":5407:5411   */\n      0x20\n        /* \"#utility.yul\":5402:5405   */\n      dup3\n        /* \"#utility.yul\":5398:5412   */\n      add\n        /* \"#utility.yul\":5390:5412   */\n      swap1\n      pop\n        /* \"#utility.yul\":5273:5418   */\n      swap2\n      swap1\n      pop\n      jump\t// out\n        /* \"#utility.yul\":5506:6673   */\n    tag_180:\n        /* \"#utility.yul\":5689:5692   */\n      0x00\n        /* \"#utility.yul\":5718:5804   */\n      tag_273\n        /* \"#utility.yul\":5798:5803   */\n      dup3\n        /* \"#utility.yul\":5718:5804   */\n      tag_166\n      jump\t// in\n    tag_273:\n        /* \"#utility.yul\":5820:5938   */\n      tag_274\n        /* \"#utility.yul\":5931:5937   */\n      dup2\n        /* \"#utility.yul\":5926:5929   */\n      dup6\n        /* \"#utility.yul\":5820:5938   */\n      tag_167\n      jump\t// in\n    tag_274:\n        /* \"#utility.yul\":5813:5938   */\n      swap4\n      pop\n        /* \"#utility.yul\":5964:5967   */\n      dup4\n        /* \"#utility.yul\":6009:6013   */\n      0x20\n        /* \"#utility.yul\":6001:6007   */\n      dup3\n        /* \"#utility.yul\":5997:6014   */\n      mul\n        /* \"#utility.yul\":5992:5995   */\n      dup6\n        /* \"#utility.yul\":5988:6015   */\n      add\n        /* \"#utility.yul\":6039:6127   */\n      tag_275\n        /* \"#utility.yul\":6121:6126   */\n      dup6\n        /* \"#utility.yul\":6039:6127   */\n      tag_168\n      jump\t// in\n    tag_275:\n        /* \"#utility.yul\":6150:6157   */\n      dup1\n        /* \"#utility.yul\":6181:6182   */\n      0x00\n        /* \"#utility.yul\":6166:6628   */\n    tag_276:\n        /* \"#utility.yul\":6191:6197   */\n      dup6\n        /* \"#utility.yul\":6188:6189   */\n      dup2\n        /* \"#utility.yul\":6185:6198   */\n      lt\n        /* \"#utility.yul\":6166:6628   */\n      iszero\n      tag_278\n      jumpi\n        /* \"#utility.yul\":6262:6271   */\n      dup5\n        /* \"#utility.yul\":6256:6260   */\n      dup5\n        /* \"#utility.yul\":6252:6272   */\n      sub\n        /* \"#utility.yul\":6247:6250   */\n      dup10\n        /* \"#utility.yul\":6240:6273   */\n      mstore\n        /* \"#utility.yul\":6313:6319   */\n      dup2\n        /* \"#utility.yul\":6307:6320   */\n      mload\n        /* \"#utility.yul\":6341:6469   */\n      tag_279\n        /* \"#utility.yul\":6464:6468   */\n      dup6\n        /* \"#utility.yul\":6449:6462   */\n      dup3\n        /* \"#utility.yul\":6341:6469   */\n      tag_178\n      jump\t// in\n    tag_279:\n        /* \"#utility.yul\":6333:6469   */\n      swap5\n      pop\n        /* \"#utility.yul\":6492:6584   */\n      tag_280\n        /* \"#utility.yul\":6577:6583   */\n      dup4\n        /* \"#utility.yul\":6492:6584   */\n      tag_179\n      jump\t// in\n    tag_280:\n        /* \"#utility.yul\":6482:6584   */\n      swap3\n      pop\n        /* \"#utility.yul\":6613:6617   */\n      0x20\n        /* \"#utility.yul\":6608:6611   */\n      dup11\n        /* \"#utility.yul\":6604:6618   */\n      add\n        /* \"#utility.yul\":6597:6618   */\n      swap10\n      pop\n        /* \"#utility.yul\":6226:6628   */\n      pop\n        /* \"#utility.yul\":6213:6214   */\n      0x01\n        /* \"#utility.yul\":6210:6211   */\n      dup2\n        /* \"#utility.yul\":6206:6215   */\n      add\n        /* \"#utility.yul\":6201:6215   */\n      swap1\n      pop\n        /* \"#utility.yul\":6166:6628   */\n      jump(tag_276)\n    tag_278:\n        /* \"#utility.yul\":6170:6184   */\n      pop\n        /* \"#utility.yul\":6644:6648   */\n      dup3\n        /* \"#utility.yul\":6637:6648   */\n      swap8\n      pop\n        /* \"#utility.yul\":6664:6667   */\n      dup8\n        /* \"#utility.yul\":6657:6667   */\n      swap6\n      pop\n        /* \"#utility.yul\":5694:6673   */\n      pop\n      pop\n      pop\n      pop\n      pop\n        /* \"#utility.yul\":5506:6673   */\n      swap3\n      swap2\n      pop\n      pop\n      jump\t// out\n        /* \"#utility.yul\":6679:7180   */\n    tag_21:\n        /* \"#utility.yul\":6886:6890   */\n      0x00\n        /* \"#utility.yul\":6924:6926   */\n      0x20\n        /* \"#utility.yul\":6913:6922   */\n      dup3\n        /* \"#utility.yul\":6909:6927   */\n      add\n        /* \"#utility.yul\":6901:6927   */\n      swap1\n      pop\n        /* \"#utility.yul\":6973:6982   */\n      dup2\n        /* \"#utility.yul\":6967:6971   */\n      dup2\n        /* \"#utility.yul\":6963:6983   */\n      sub\n        /* \"#utility.yul\":6959:6960   */\n      0x00\n        /* \"#utility.yul\":6948:6957   */\n      dup4\n        /* \"#utility.yul\":6944:6961   */\n      add\n        /* \"#utility.yul\":6937:6984   */\n      mstore\n        /* \"#utility.yul\":7001:7173   */\n      tag_282\n        /* \"#utility.yul\":7168:7172   */\n      dup2\n        /* \"#utility.yul\":7159:7165   */\n      dup5\n        /* \"#utility.yul\":7001:7173   */\n      tag_180\n      jump\t// in\n    tag_282:\n        /* \"#utility.yul\":6993:7173   */\n      swap1\n      pop\n        /* \"#utility.yul\":6679:7180   */\n      swap3\n      swap2\n      pop\n      pop\n      jump\t// out\n        /* \"#utility.yul\":7186:7294   */\n    tag_181:\n        /* \"#utility.yul\":7263:7287   */\n      tag_284\n        /* \"#utility.yul\":7281:7286   */\n      dup2\n        /* \"#utility.yul\":7263:7287   */\n      tag_159\n      jump\t// in\n    tag_284:\n        /* \"#utility.yul\":7258:7261   */\n      dup3\n        /* \"#utility.yul\":7251:7288   */\n      mstore\n        /* \"#utility.yul\":7186:7294   */\n      pop\n      pop\n      jump\t// out\n        /* \"#utility.yul\":7300:7506   */\n    tag_182:\n        /* \"#utility.yul\":7421:7432   */\n      0x00\n        /* \"#utility.yul\":7455:7461   */\n      dup3\n        /* \"#utility.yul\":7450:7453   */\n      dup3\n        /* \"#utility.yul\":7443:7462   */\n      mstore\n        /* \"#utility.yul\":7495:7499   */\n      0x20\n        /* \"#utility.yul\":7490:7493   */\n      dup3\n        /* \"#utility.yul\":7486:7500   */\n      add\n        /* \"#utility.yul\":7471:7500   */\n      swap1\n      pop\n        /* \"#utility.yul\":7300:7506   */\n      swap3\n      swap2\n      pop\n      pop\n      jump\t// out\n        /* \"#utility.yul\":7594:8741   */\n    tag_183:\n        /* \"#utility.yul\":7767:7770   */\n      0x00\n        /* \"#utility.yul\":7796:7882   */\n      tag_287\n        /* \"#utility.yul\":7876:7881   */\n      dup3\n        /* \"#utility.yul\":7796:7882   */\n      tag_166\n      jump\t// in\n    tag_287:\n        /* \"#utility.yul\":7898:8006   */\n      tag_288\n        /* \"#utility.yul\":7999:8005   */\n      dup2\n        /* \"#utility.yul\":7994:7997   */\n      dup6\n        /* \"#utility.yul\":7898:8006   */\n      tag_182\n      jump\t// in\n    tag_288:\n        /* \"#utility.yul\":7891:8006   */\n      swap4\n      pop\n        /* \"#utility.yul\":8032:8035   */\n      dup4\n        /* \"#utility.yul\":8077:8081   */\n      0x20\n        /* \"#utility.yul\":8069:8075   */\n      dup3\n        /* \"#utility.yul\":8065:8082   */\n      mul\n        /* \"#utility.yul\":8060:8063   */\n      dup6\n        /* \"#utility.yul\":8056:8083   */\n      add\n        /* \"#utility.yul\":8107:8195   */\n      tag_289\n        /* \"#utility.yul\":8189:8194   */\n      dup6\n        /* \"#utility.yul\":8107:8195   */\n      tag_168\n      jump\t// in\n    tag_289:\n        /* \"#utility.yul\":8218:8225   */\n      dup1\n        /* \"#utility.yul\":8249:8250   */\n      0x00\n        /* \"#utility.yul\":8234:8696   */\n    tag_290:\n        /* \"#utility.yul\":8259:8265   */\n      dup6\n        /* \"#utility.yul\":8256:8257   */\n      dup2\n        /* \"#utility.yul\":8253:8266   */\n      lt\n        /* \"#utility.yul\":8234:8696   */\n      iszero\n      tag_292\n      jumpi\n        /* \"#utility.yul\":8330:8339   */\n      dup5\n        /* \"#utility.yul\":8324:8328   */\n      dup5\n        /* \"#utility.yul\":8320:8340   */\n      sub\n        /* \"#utility.yul\":8315:8318   */\n      dup10\n        /* \"#utility.yul\":8308:8341   */\n      mstore\n        /* \"#utility.yul\":8381:8387   */\n      dup2\n        /* \"#utility.yul\":8375:8388   */\n      mload\n        /* \"#utility.yul\":8409:8537   */\n      tag_293\n        /* \"#utility.yul\":8532:8536   */\n      dup6\n        /* \"#utility.yul\":8517:8530   */\n      dup3\n        /* \"#utility.yul\":8409:8537   */\n      tag_178\n      jump\t// in\n    tag_293:\n        /* \"#utility.yul\":8401:8537   */\n      swap5\n      pop\n        /* \"#utility.yul\":8560:8652   */\n      tag_294\n        /* \"#utility.yul\":8645:8651   */\n      dup4\n        /* \"#utility.yul\":8560:8652   */\n      tag_179\n      jump\t// in\n    tag_294:\n        /* \"#utility.yul\":8550:8652   */\n      swap3\n      pop\n        /* \"#utility.yul\":8681:8685   */\n      0x20\n        /* \"#utility.yul\":8676:8679   */\n      dup11\n        /* \"#utility.yul\":8672:8686   */\n      add\n        /* \"#utility.yul\":8665:8686   */\n      swap10\n      pop\n        /* \"#utility.yul\":8294:8696   */\n      pop\n        /* \"#utility.yul\":8281:8282   */\n      0x01\n        /* \"#utility.yul\":8278:8279   */\n      dup2\n        /* \"#utility.yul\":8274:8283   */\n      add\n        /* \"#utility.yul\":8269:8283   */\n      swap1\n      pop\n        /* \"#utility.yul\":8234:8696   */\n      jump(tag_290)\n    tag_292:\n        /* \"#utility.yul\":8238:8252   */\n      pop\n        /* \"#utility.yul\":8712:8716   */\n      dup3\n        /* \"#utility.yul\":8705:8716   */\n      swap8\n      pop\n        /* \"#utility.yul\":8732:8735   */\n      dup8\n        /* \"#utility.yul\":8725:8735   */\n      swap6\n      pop\n        /* \"#utility.yul\":7772:8741   */\n      pop\n      pop\n      pop\n      pop\n      pop\n        /* \"#utility.yul\":7594:8741   */\n      swap3\n      swap2\n      pop\n      pop\n      jump\t// out\n        /* \"#utility.yul\":8817:10766   */\n    tag_184:\n        /* \"#utility.yul\":8942:8945   */\n      0x00\n        /* \"#utility.yul\":8978:8982   */\n      0xe0\n        /* \"#utility.yul\":8973:8976   */\n      dup4\n        /* \"#utility.yul\":8969:8983   */\n      add\n        /* \"#utility.yul\":9063:9067   */\n      0x00\n        /* \"#utility.yul\":9056:9061   */\n      dup4\n        /* \"#utility.yul\":9052:9068   */\n      add\n        /* \"#utility.yul\":9046:9069   */\n      mload\n        /* \"#utility.yul\":9082:9145   */\n      tag_296\n        /* \"#utility.yul\":9139:9143   */\n      0x00\n        /* \"#utility.yul\":9134:9137   */\n      dup7\n        /* \"#utility.yul\":9130:9144   */\n      add\n        /* \"#utility.yul\":9116:9128   */\n      dup3\n        /* \"#utility.yul\":9082:9145   */\n      tag_181\n      jump\t// in\n    tag_296:\n        /* \"#utility.yul\":8993:9155   */\n      pop\n        /* \"#utility.yul\":9238:9242   */\n      0x20\n        /* \"#utility.yul\":9231:9236   */\n      dup4\n        /* \"#utility.yul\":9227:9243   */\n      add\n        /* \"#utility.yul\":9221:9244   */\n      mload\n        /* \"#utility.yul\":9291:9294   */\n      dup5\n        /* \"#utility.yul\":9285:9289   */\n      dup3\n        /* \"#utility.yul\":9281:9295   */\n      sub\n        /* \"#utility.yul\":9274:9278   */\n      0x20\n        /* \"#utility.yul\":9269:9272   */\n      dup7\n        /* \"#utility.yul\":9265:9279   */\n      add\n        /* \"#utility.yul\":9258:9296   */\n      mstore\n        /* \"#utility.yul\":9317:9390   */\n      tag_297\n        /* \"#utility.yul\":9385:9389   */\n      dup3\n        /* \"#utility.yul\":9371:9383   */\n      dup3\n        /* \"#utility.yul\":9317:9390   */\n      tag_173\n      jump\t// in\n    tag_297:\n        /* \"#utility.yul\":9309:9390   */\n      swap2\n      pop\n        /* \"#utility.yul\":9165:9401   */\n      pop\n        /* \"#utility.yul\":9486:9490   */\n      0x40\n        /* \"#utility.yul\":9479:9484   */\n      dup4\n        /* \"#utility.yul\":9475:9491   */\n      add\n        /* \"#utility.yul\":9469:9492   */\n      mload\n        /* \"#utility.yul\":9539:9542   */\n      dup5\n        /* \"#utility.yul\":9533:9537   */\n      dup3\n        /* \"#utility.yul\":9529:9543   */\n      sub\n        /* \"#utility.yul\":9522:9526   */\n      0x40\n        /* \"#utility.yul\":9517:9520   */\n      dup7\n        /* \"#utility.yul\":9513:9527   */\n      add\n        /* \"#utility.yul\":9506:9544   */\n      mstore\n        /* \"#utility.yul\":9565:9638   */\n      tag_298\n        /* \"#utility.yul\":9633:9637   */\n      dup3\n        /* \"#utility.yul\":9619:9631   */\n      dup3\n        /* \"#utility.yul\":9565:9638   */\n      tag_173\n      jump\t// in\n    tag_298:\n        /* \"#utility.yul\":9557:9638   */\n      swap2\n      pop\n        /* \"#utility.yul\":9411:9649   */\n      pop\n        /* \"#utility.yul\":9731:9735   */\n      0x60\n        /* \"#utility.yul\":9724:9729   */\n      dup4\n        /* \"#utility.yul\":9720:9736   */\n      add\n        /* \"#utility.yul\":9714:9737   */\n      mload\n        /* \"#utility.yul\":9784:9787   */\n      dup5\n        /* \"#utility.yul\":9778:9782   */\n      dup3\n        /* \"#utility.yul\":9774:9788   */\n      sub\n        /* \"#utility.yul\":9767:9771   */\n      0x60\n        /* \"#utility.yul\":9762:9765   */\n      dup7\n        /* \"#utility.yul\":9758:9772   */\n      add\n        /* \"#utility.yul\":9751:9789   */\n      mstore\n        /* \"#utility.yul\":9810:9883   */\n      tag_299\n        /* \"#utility.yul\":9878:9882   */\n      dup3\n        /* \"#utility.yul\":9864:9876   */\n      dup3\n        /* \"#utility.yul\":9810:9883   */\n      tag_173\n      jump\t// in\n    tag_299:\n        /* \"#utility.yul\":9802:9883   */\n      swap2\n      pop\n        /* \"#utility.yul\":9659:9894   */\n      pop\n        /* \"#utility.yul\":9980:9984   */\n      0x80\n        /* \"#utility.yul\":9973:9978   */\n      dup4\n        /* \"#utility.yul\":9969:9985   */\n      add\n        /* \"#utility.yul\":9963:9986   */\n      mload\n        /* \"#utility.yul\":10033:10036   */\n      dup5\n        /* \"#utility.yul\":10027:10031   */\n      dup3\n        /* \"#utility.yul\":10023:10037   */\n      sub\n        /* \"#utility.yul\":10016:10020   */\n      0x80\n        /* \"#utility.yul\":10011:10014   */\n      dup7\n        /* \"#utility.yul\":10007:10021   */\n      add\n        /* \"#utility.yul\":10000:10038   */\n      mstore\n        /* \"#utility.yul\":10059:10132   */\n      tag_300\n        /* \"#utility.yul\":10127:10131   */\n      dup3\n        /* \"#utility.yul\":10113:10125   */\n      dup3\n        /* \"#utility.yul\":10059:10132   */\n      tag_173\n      jump\t// in\n    tag_300:\n        /* \"#utility.yul\":10051:10132   */\n      swap2\n      pop\n        /* \"#utility.yul\":9904:10143   */\n      pop\n        /* \"#utility.yul\":10229:10233   */\n      0xa0\n        /* \"#utility.yul\":10222:10227   */\n      dup4\n        /* \"#utility.yul\":10218:10234   */\n      add\n        /* \"#utility.yul\":10212:10235   */\n      mload\n        /* \"#utility.yul\":10282:10285   */\n      dup5\n        /* \"#utility.yul\":10276:10280   */\n      dup3\n        /* \"#utility.yul\":10272:10286   */\n      sub\n        /* \"#utility.yul\":10265:10269   */\n      0xa0\n        /* \"#utility.yul\":10260:10263   */\n      dup7\n        /* \"#utility.yul\":10256:10270   */\n      add\n        /* \"#utility.yul\":10249:10287   */\n      mstore\n        /* \"#utility.yul\":10308:10381   */\n      tag_301\n        /* \"#utility.yul\":10376:10380   */\n      dup3\n        /* \"#utility.yul\":10362:10374   */\n      dup3\n        /* \"#utility.yul\":10308:10381   */\n      tag_173\n      jump\t// in\n    tag_301:\n        /* \"#utility.yul\":10300:10381   */\n      swap2\n      pop\n        /* \"#utility.yul\":10153:10392   */\n      pop\n        /* \"#utility.yul\":10482:10486   */\n      0xc0\n        /* \"#utility.yul\":10475:10480   */\n      dup4\n        /* \"#utility.yul\":10471:10487   */\n      add\n        /* \"#utility.yul\":10465:10488   */\n      mload\n        /* \"#utility.yul\":10535:10538   */\n      dup5\n        /* \"#utility.yul\":10529:10533   */\n      dup3\n        /* \"#utility.yul\":10525:10539   */\n      sub\n        /* \"#utility.yul\":10518:10522   */\n      0xc0\n        /* \"#utility.yul\":10513:10516   */\n      dup7\n        /* \"#utility.yul\":10509:10523   */\n      add\n        /* \"#utility.yul\":10502:10540   */\n      mstore\n        /* \"#utility.yul\":10561:10728   */\n      tag_302\n        /* \"#utility.yul\":10723:10727   */\n      dup3\n        /* \"#utility.yul\":10709:10721   */\n      dup3\n        /* \"#utility.yul\":10561:10728   */\n      tag_183\n      jump\t// in\n    tag_302:\n        /* \"#utility.yul\":10553:10728   */\n      swap2\n      pop\n        /* \"#utility.yul\":10402:10739   */\n      pop\n        /* \"#utility.yul\":10756:10760   */\n      dup1\n        /* \"#utility.yul\":10749:10760   */\n      swap2\n      pop\n        /* \"#utility.yul\":8947:10766   */\n      pop\n        /* \"#utility.yul\":8817:10766   */\n      swap3\n      swap2\n      pop\n      pop\n      jump\t// out\n        /* \"#utility.yul\":10772:11157   */\n    tag_29:\n        /* \"#utility.yul\":10921:10925   */\n      0x00\n        /* \"#utility.yul\":10959:10961   */\n      0x20\n        /* \"#utility.yul\":10948:10957   */\n      dup3\n        /* \"#utility.yul\":10944:10962   */\n      add\n        /* \"#utility.yul\":10936:10962   */\n      swap1\n      pop\n        /* \"#utility.yul\":11008:11017   */\n      dup2\n        /* \"#utility.yul\":11002:11006   */\n      dup2\n        /* \"#utility.yul\":10998:11018   */\n      sub\n        /* \"#utility.yul\":10994:10995   */\n      0x00\n        /* \"#utility.yul\":10983:10992   */\n      dup4\n        /* \"#utility.yul\":10979:10996   */\n      add\n        /* \"#utility.yul\":10972:11019   */\n      mstore\n        /* \"#utility.yul\":11036:11150   */\n      tag_304\n        /* \"#utility.yul\":11145:11149   */\n      dup2\n        /* \"#utility.yul\":11136:11142   */\n      dup5\n        /* \"#utility.yul\":11036:11150   */\n      tag_184\n      jump\t// in\n    tag_304:\n        /* \"#utility.yul\":11028:11150   */\n      swap1\n      pop\n        /* \"#utility.yul\":10772:11157   */\n      swap3\n      swap2\n      pop\n      pop\n      jump\t// out\n        /* \"#utility.yul\":11163:11281   */\n    tag_185:\n        /* \"#utility.yul\":11250:11274   */\n      tag_306\n        /* \"#utility.yul\":11268:11273   */\n      dup2\n        /* \"#utility.yul\":11250:11274   */\n      tag_159\n      jump\t// in\n    tag_306:\n        /* \"#utility.yul\":11245:11248   */\n      dup3\n        /* \"#utility.yul\":11238:11275   */\n      mstore\n        /* \"#utility.yul\":11163:11281   */\n      pop\n      pop\n      jump\t// out\n        /* \"#utility.yul\":11287:11509   */\n    tag_34:\n        /* \"#utility.yul\":11380:11384   */\n      0x00\n        /* \"#utility.yul\":11418:11420   */\n      0x20\n        /* \"#utility.yul\":11407:11416   */\n      dup3\n        /* \"#utility.yul\":11403:11421   */\n      add\n        /* \"#utility.yul\":11395:11421   */\n      swap1\n      pop\n        /* \"#utility.yul\":11431:11502   */\n      tag_308\n        /* \"#utility.yul\":11499:11500   */\n      0x00\n        /* \"#utility.yul\":11488:11497   */\n      dup4\n        /* \"#utility.yul\":11484:11501   */\n      add\n        /* \"#utility.yul\":11475:11481   */\n      dup5\n        /* \"#utility.yul\":11431:11502   */\n      tag_185\n      jump\t// in\n    tag_308:\n        /* \"#utility.yul\":11287:11509   */\n      swap3\n      swap2\n      pop\n      pop\n      jump\t// out\n        /* \"#utility.yul\":11515:11632   */\n    tag_186:\n        /* \"#utility.yul\":11624:11625   */\n      0x00\n        /* \"#utility.yul\":11621:11622   */\n      dup1\n        /* \"#utility.yul\":11614:11626   */\n      revert\n        /* \"#utility.yul\":11638:11755   */\n    tag_187:\n        /* \"#utility.yul\":11747:11748   */\n      0x00\n        /* \"#utility.yul\":11744:11745   */\n      dup1\n        /* \"#utility.yul\":11737:11749   */\n      revert\n        /* \"#utility.yul\":11761:11941   */\n    tag_188:\n        /* \"#utility.yul\":11809:11886   */\n      0x4e487b7100000000000000000000000000000000000000000000000000000000\n        /* \"#utility.yul\":11806:11807   */\n      0x00\n        /* \"#utility.yul\":11799:11887   */\n      mstore\n        /* \"#utility.yul\":11906:11910   */\n      0x41\n        /* \"#utility.yul\":11903:11904   */\n      0x04\n        /* \"#utility.yul\":11896:11911   */\n      mstore\n        /* \"#utility.yul\":11930:11934   */\n      0x24\n        /* \"#utility.yul\":11927:11928   */\n      0x00\n        /* \"#utility.yul\":11920:11935   */\n      revert\n        /* \"#utility.yul\":11947:12228   */\n    tag_189:\n        /* \"#utility.yul\":12030:12057   */\n      tag_313\n        /* \"#utility.yul\":12052:12056   */\n      dup3\n        /* \"#utility.yul\":12030:12057   */\n      tag_172\n      jump\t// in\n    tag_313:\n        /* \"#utility.yul\":12022:12028   */\n      dup2\n        /* \"#utility.yul\":12018:12058   */\n      add\n        /* \"#utility.yul\":12160:12166   */\n      dup2\n        /* \"#utility.yul\":12148:12158   */\n      dup2\n        /* \"#utility.yul\":12145:12167   */\n      lt\n        /* \"#utility.yul\":12124:12142   */\n      0xffffffffffffffff\n        /* \"#utility.yul\":12112:12122   */\n      dup3\n        /* \"#utility.yul\":12109:12143   */\n      gt\n        /* \"#utility.yul\":12106:12168   */\n      or\n        /* \"#utility.yul\":12103:12191   */\n      iszero\n      tag_314\n      jumpi\n        /* \"#utility.yul\":12171:12189   */\n      tag_315\n      tag_188\n      jump\t// in\n    tag_315:\n        /* \"#utility.yul\":12103:12191   */\n    tag_314:\n        /* \"#utility.yul\":12211:12221   */\n      dup1\n        /* \"#utility.yul\":12207:12209   */\n      0x40\n        /* \"#utility.yul\":12200:12222   */\n      mstore\n        /* \"#utility.yul\":11990:12228   */\n      pop\n        /* \"#utility.yul\":11947:12228   */\n      pop\n      pop\n      jump\t// out\n        /* \"#utility.yul\":12234:12363   */\n    tag_190:\n        /* \"#utility.yul\":12268:12274   */\n      0x00\n        /* \"#utility.yul\":12295:12315   */\n      tag_317\n      tag_156\n      jump\t// in\n    tag_317:\n        /* \"#utility.yul\":12285:12315   */\n      swap1\n      pop\n        /* \"#utility.yul\":12324:12357   */\n      tag_318\n        /* \"#utility.yul\":12352:12356   */\n      dup3\n        /* \"#utility.yul\":12344:12350   */\n      dup3\n        /* \"#utility.yul\":12324:12357   */\n      tag_189\n      jump\t// in\n    tag_318:\n        /* \"#utility.yul\":12234:12363   */\n      swap2\n      swap1\n      pop\n      jump\t// out\n        /* \"#utility.yul\":12369:12677   */\n    tag_191:\n        /* \"#utility.yul\":12431:12435   */\n      0x00\n        /* \"#utility.yul\":12521:12539   */\n      0xffffffffffffffff\n        /* \"#utility.yul\":12513:12519   */\n      dup3\n        /* \"#utility.yul\":12510:12540   */\n      gt\n        /* \"#utility.yul\":12507:12563   */\n      iszero\n      tag_320\n      jumpi\n        /* \"#utility.yul\":12543:12561   */\n      tag_321\n      tag_188\n      jump\t// in\n    tag_321:\n        /* \"#utility.yul\":12507:12563   */\n    tag_320:\n        /* \"#utility.yul\":12581:12610   */\n      tag_322\n        /* \"#utility.yul\":12603:12609   */\n      dup3\n        /* \"#utility.yul\":12581:12610   */\n      tag_172\n      jump\t// in\n    tag_322:\n        /* \"#utility.yul\":12573:12610   */\n      swap1\n      pop\n        /* \"#utility.yul\":12665:12669   */\n      0x20\n        /* \"#utility.yul\":12659:12663   */\n      dup2\n        /* \"#utility.yul\":12655:12670   */\n      add\n        /* \"#utility.yul\":12647:12670   */\n      swap1\n      pop\n        /* \"#utility.yul\":12369:12677   */\n      swap2\n      swap1\n      pop\n      jump\t// out\n        /* \"#utility.yul\":12683:12829   */\n    tag_192:\n        /* \"#utility.yul\":12780:12786   */\n      dup3\n        /* \"#utility.yul\":12775:12778   */\n      dup2\n        /* \"#utility.yul\":12770:12773   */\n      dup4\n        /* \"#utility.yul\":12757:12787   */\n      calldatacopy\n        /* \"#utility.yul\":12821:12822   */\n      0x00\n        /* \"#utility.yul\":12812:12818   */\n      dup4\n        /* \"#utility.yul\":12807:12810   */\n      dup4\n        /* \"#utility.yul\":12803:12819   */\n      add\n        /* \"#utility.yul\":12796:12823   */\n      mstore\n        /* \"#utility.yul\":12683:12829   */\n      pop\n      pop\n      pop\n      jump\t// out\n        /* \"#utility.yul\":12835:13260   */\n    tag_193:\n        /* \"#utility.yul\":12913:12918   */\n      0x00\n        /* \"#utility.yul\":12938:13004   */\n      tag_325\n        /* \"#utility.yul\":12954:13003   */\n      tag_326\n        /* \"#utility.yul\":12996:13002   */\n      dup5\n        /* \"#utility.yul\":12954:13003   */\n      tag_191\n      jump\t// in\n    tag_326:\n        /* \"#utility.yul\":12938:13004   */\n      tag_190\n      jump\t// in\n    tag_325:\n        /* \"#utility.yul\":12929:13004   */\n      swap1\n      pop\n        /* \"#utility.yul\":13027:13033   */\n      dup3\n        /* \"#utility.yul\":13020:13025   */\n      dup2\n        /* \"#utility.yul\":13013:13034   */\n      mstore\n        /* \"#utility.yul\":13065:13069   */\n      0x20\n        /* \"#utility.yul\":13058:13063   */\n      dup2\n        /* \"#utility.yul\":13054:13070   */\n      add\n        /* \"#utility.yul\":13103:13106   */\n      dup5\n        /* \"#utility.yul\":13094:13100   */\n      dup5\n        /* \"#utility.yul\":13089:13092   */\n      dup5\n        /* \"#utility.yul\":13085:13101   */\n      add\n        /* \"#utility.yul\":13082:13107   */\n      gt\n        /* \"#utility.yul\":13079:13191   */\n      iszero\n      tag_327\n      jumpi\n        /* \"#utility.yul\":13110:13189   */\n      tag_328\n      tag_187\n      jump\t// in\n    tag_328:\n        /* \"#utility.yul\":13079:13191   */\n    tag_327:\n        /* \"#utility.yul\":13200:13254   */\n      tag_329\n        /* \"#utility.yul\":13247:13253   */\n      dup5\n        /* \"#utility.yul\":13242:13245   */\n      dup3\n        /* \"#utility.yul\":13237:13240   */\n      dup6\n        /* \"#utility.yul\":13200:13254   */\n      tag_192\n      jump\t// in\n    tag_329:\n        /* \"#utility.yul\":12919:13260   */\n      pop\n        /* \"#utility.yul\":12835:13260   */\n      swap4\n      swap3\n      pop\n      pop\n      pop\n      jump\t// out\n        /* \"#utility.yul\":13280:13620   */\n    tag_194:\n        /* \"#utility.yul\":13336:13341   */\n      0x00\n        /* \"#utility.yul\":13385:13388   */\n      dup3\n        /* \"#utility.yul\":13378:13382   */\n      0x1f\n        /* \"#utility.yul\":13370:13376   */\n      dup4\n        /* \"#utility.yul\":13366:13383   */\n      add\n        /* \"#utility.yul\":13362:13389   */\n      slt\n        /* \"#utility.yul\":13352:13474   */\n      tag_331\n      jumpi\n        /* \"#utility.yul\":13393:13472   */\n      tag_332\n      tag_186\n      jump\t// in\n    tag_332:\n        /* \"#utility.yul\":13352:13474   */\n    tag_331:\n        /* \"#utility.yul\":13510:13516   */\n      dup2\n        /* \"#utility.yul\":13497:13517   */\n      calldataload\n        /* \"#utility.yul\":13535:13614   */\n      tag_333\n        /* \"#utility.yul\":13610:13613   */\n      dup5\n        /* \"#utility.yul\":13602:13608   */\n      dup3\n        /* \"#utility.yul\":13595:13599   */\n      0x20\n        /* \"#utility.yul\":13587:13593   */\n      dup7\n        /* \"#utility.yul\":13583:13600   */\n      add\n        /* \"#utility.yul\":13535:13614   */\n      tag_193\n      jump\t// in\n    tag_333:\n        /* \"#utility.yul\":13526:13614   */\n      swap2\n      pop\n        /* \"#utility.yul\":13342:13620   */\n      pop\n        /* \"#utility.yul\":13280:13620   */\n      swap3\n      swap2\n      pop\n      pop\n      jump\t// out\n        /* \"#utility.yul\":13626:15583   */\n    tag_37:\n        /* \"#utility.yul\":13780:13786   */\n      0x00\n        /* \"#utility.yul\":13788:13794   */\n      dup1\n        /* \"#utility.yul\":13796:13802   */\n      0x00\n        /* \"#utility.yul\":13804:13810   */\n      dup1\n        /* \"#utility.yul\":13812:13818   */\n      0x00\n        /* \"#utility.yul\":13820:13826   */\n      dup1\n        /* \"#utility.yul\":13869:13872   */\n      0xc0\n        /* \"#utility.yul\":13857:13866   */\n      dup8\n        /* \"#utility.yul\":13848:13855   */\n      dup10\n        /* \"#utility.yul\":13844:13867   */\n      sub\n        /* \"#utility.yul\":13840:13873   */\n      slt\n        /* \"#utility.yul\":13837:13957   */\n      iszero\n      tag_335\n      jumpi\n        /* \"#utility.yul\":13876:13955   */\n      tag_336\n      tag_157\n      jump\t// in\n    tag_336:\n        /* \"#utility.yul\":13837:13957   */\n    tag_335:\n        /* \"#utility.yul\":13996:13997   */\n      0x00\n        /* \"#utility.yul\":14021:14074   */\n      tag_337\n        /* \"#utility.yul\":14066:14073   */\n      dup10\n        /* \"#utility.yul\":14057:14063   */\n      dup3\n        /* \"#utility.yul\":14046:14055   */\n      dup11\n        /* \"#utility.yul\":14042:14064   */\n      add\n        /* \"#utility.yul\":14021:14074   */\n      tag_161\n      jump\t// in\n    tag_337:\n        /* \"#utility.yul\":14011:14074   */\n      swap7\n      pop\n        /* \"#utility.yul\":13967:14084   */\n      pop\n        /* \"#utility.yul\":14151:14153   */\n      0x20\n        /* \"#utility.yul\":14140:14149   */\n      dup8\n        /* \"#utility.yul\":14136:14154   */\n      add\n        /* \"#utility.yul\":14123:14155   */\n      calldataload\n        /* \"#utility.yul\":14182:14200   */\n      0xffffffffffffffff\n        /* \"#utility.yul\":14174:14180   */\n      dup2\n        /* \"#utility.yul\":14171:14201   */\n      gt\n        /* \"#utility.yul\":14168:14285   */\n      iszero\n      tag_338\n      jumpi\n        /* \"#utility.yul\":14204:14283   */\n      tag_339\n      tag_158\n      jump\t// in\n    tag_339:\n        /* \"#utility.yul\":14168:14285   */\n    tag_338:\n        /* \"#utility.yul\":14309:14372   */\n      tag_340\n        /* \"#utility.yul\":14364:14371   */\n      dup10\n        /* \"#utility.yul\":14355:14361   */\n      dup3\n        /* \"#utility.yul\":14344:14353   */\n      dup11\n        /* \"#utility.yul\":14340:14362   */\n      add\n        /* \"#utility.yul\":14309:14372   */\n      tag_194\n      jump\t// in\n    tag_340:\n        /* \"#utility.yul\":14299:14372   */\n      swap6\n      pop\n        /* \"#utility.yul\":14094:14382   */\n      pop\n        /* \"#utility.yul\":14449:14451   */\n      0x40\n        /* \"#utility.yul\":14438:14447   */\n      dup8\n        /* \"#utility.yul\":14434:14452   */\n      add\n        /* \"#utility.yul\":14421:14453   */\n      calldataload\n        /* \"#utility.yul\":14480:14498   */\n      0xffffffffffffffff\n        /* \"#utility.yul\":14472:14478   */\n      dup2\n        /* \"#utility.yul\":14469:14499   */\n      gt\n        /* \"#utility.yul\":14466:14583   */\n      iszero\n      tag_341\n      jumpi\n        /* \"#utility.yul\":14502:14581   */\n      tag_342\n      tag_158\n      jump\t// in\n    tag_342:\n        /* \"#utility.yul\":14466:14583   */\n    tag_341:\n        /* \"#utility.yul\":14607:14670   */\n      tag_343\n        /* \"#utility.yul\":14662:14669   */\n      dup10\n        /* \"#utility.yul\":14653:14659   */\n      dup3\n        /* \"#utility.yul\":14642:14651   */\n      dup11\n        /* \"#utility.yul\":14638:14660   */\n      add\n        /* \"#utility.yul\":14607:14670   */\n      tag_194\n      jump\t// in\n    tag_343:\n        /* \"#utility.yul\":14597:14670   */\n      swap5\n      pop\n        /* \"#utility.yul\":14392:14680   */\n      pop\n        /* \"#utility.yul\":14747:14749   */\n      0x60\n        /* \"#utility.yul\":14736:14745   */\n      dup8\n        /* \"#utility.yul\":14732:14750   */\n      add\n        /* \"#utility.yul\":14719:14751   */\n      calldataload\n        /* \"#utility.yul\":14778:14796   */\n      0xffffffffffffffff\n        /* \"#utility.yul\":14770:14776   */\n      dup2\n        /* \"#utility.yul\":14767:14797   */\n      gt\n        /* \"#utility.yul\":14764:14881   */\n      iszero\n      tag_344\n      jumpi\n        /* \"#utility.yul\":14800:14879   */\n      tag_345\n      tag_158\n      jump\t// in\n    tag_345:\n        /* \"#utility.yul\":14764:14881   */\n    tag_344:\n        /* \"#utility.yul\":14905:14968   */\n      tag_346\n        /* \"#utility.yul\":14960:14967   */\n      dup10\n        /* \"#utility.yul\":14951:14957   */\n      dup3\n        /* \"#utility.yul\":14940:14949   */\n      dup11\n        /* \"#utility.yul\":14936:14958   */\n      add\n        /* \"#utility.yul\":14905:14968   */\n      tag_194\n      jump\t// in\n    tag_346:\n        /* \"#utility.yul\":14895:14968   */\n      swap4\n      pop\n        /* \"#utility.yul\":14690:14978   */\n      pop\n        /* \"#utility.yul\":15045:15048   */\n      0x80\n        /* \"#utility.yul\":15034:15043   */\n      dup8\n        /* \"#utility.yul\":15030:15049   */\n      add\n        /* \"#utility.yul\":15017:15050   */\n      calldataload\n        /* \"#utility.yul\":15077:15095   */\n      0xffffffffffffffff\n        /* \"#utility.yul\":15069:15075   */\n      dup2\n        /* \"#utility.yul\":15066:15096   */\n      gt\n        /* \"#utility.yul\":15063:15180   */\n      iszero\n      tag_347\n      jumpi\n        /* \"#utility.yul\":15099:15178   */\n      tag_348\n      tag_158\n      jump\t// in\n    tag_348:\n        /* \"#utility.yul\":15063:15180   */\n    tag_347:\n        /* \"#utility.yul\":15204:15267   */\n      tag_349\n        /* \"#utility.yul\":15259:15266   */\n      dup10\n        /* \"#utility.yul\":15250:15256   */\n      dup3\n        /* \"#utility.yul\":15239:15248   */\n      dup11\n        /* \"#utility.yul\":15235:15257   */\n      add\n        /* \"#utility.yul\":15204:15267   */\n      tag_194\n      jump\t// in\n    tag_349:\n        /* \"#utility.yul\":15194:15267   */\n      swap3\n      pop\n        /* \"#utility.yul\":14988:15277   */\n      pop\n        /* \"#utility.yul\":15344:15347   */\n      0xa0\n        /* \"#utility.yul\":15333:15342   */\n      dup8\n        /* \"#utility.yul\":15329:15348   */\n      add\n        /* \"#utility.yul\":15316:15349   */\n      calldataload\n        /* \"#utility.yul\":15376:15394   */\n      0xffffffffffffffff\n        /* \"#utility.yul\":15368:15374   */\n      dup2\n        /* \"#utility.yul\":15365:15395   */\n      gt\n        /* \"#utility.yul\":15362:15479   */\n      iszero\n      tag_350\n      jumpi\n        /* \"#utility.yul\":15398:15477   */\n      tag_351\n      tag_158\n      jump\t// in\n    tag_351:\n        /* \"#utility.yul\":15362:15479   */\n    tag_350:\n        /* \"#utility.yul\":15503:15566   */\n      tag_352\n        /* \"#utility.yul\":15558:15565   */\n      dup10\n        /* \"#utility.yul\":15549:15555   */\n      dup3\n        /* \"#utility.yul\":15538:15547   */\n      dup11\n        /* \"#utility.yul\":15534:15556   */\n      add\n        /* \"#utility.yul\":15503:15566   */\n      tag_194\n      jump\t// in\n    tag_352:\n        /* \"#utility.yul\":15493:15566   */\n      swap2\n      pop\n        /* \"#utility.yul\":15287:15576   */\n      pop\n        /* \"#utility.yul\":13626:15583   */\n      swap3\n      swap6\n      pop\n      swap3\n      swap6\n      pop\n      swap3\n      swap6\n      jump\t// out\n        /* \"#utility.yul\":15589:15707   */\n    tag_195:\n        /* \"#utility.yul\":15660:15682   */\n      tag_354\n        /* \"#utility.yul\":15676:15681   */\n      dup2\n        /* \"#utility.yul\":15660:15682   */\n      tag_174\n      jump\t// in\n    tag_354:\n        /* \"#utility.yul\":15653:15658   */\n      dup2\n        /* \"#utility.yul\":15650:15683   */\n      eq\n        /* \"#utility.yul\":15640:15701   */\n      tag_355\n      jumpi\n        /* \"#utility.yul\":15697:15698   */\n      0x00\n        /* \"#utility.yul\":15694:15695   */\n      dup1\n        /* \"#utility.yul\":15687:15699   */\n      revert\n        /* \"#utility.yul\":15640:15701   */\n    tag_355:\n        /* \"#utility.yul\":15589:15707   */\n      pop\n      jump\t// out\n        /* \"#utility.yul\":15713:15848   */\n    tag_196:\n        /* \"#utility.yul\":15757:15762   */\n      0x00\n        /* \"#utility.yul\":15795:15801   */\n      dup2\n        /* \"#utility.yul\":15782:15802   */\n      calldataload\n        /* \"#utility.yul\":15773:15802   */\n      swap1\n      pop\n        /* \"#utility.yul\":15811:15842   */\n      tag_357\n        /* \"#utility.yul\":15836:15841   */\n      dup2\n        /* \"#utility.yul\":15811:15842   */\n      tag_195\n      jump\t// in\n    tag_357:\n        /* \"#utility.yul\":15713:15848   */\n      swap3\n      swap2\n      pop\n      pop\n      jump\t// out\n        /* \"#utility.yul\":15854:16975   */\n    tag_41:\n        /* \"#utility.yul\":15958:15964   */\n      0x00\n        /* \"#utility.yul\":15966:15972   */\n      dup1\n        /* \"#utility.yul\":15974:15980   */\n      0x00\n        /* \"#utility.yul\":15982:15988   */\n      dup1\n        /* \"#utility.yul\":16031:16034   */\n      0x80\n        /* \"#utility.yul\":16019:16028   */\n      dup6\n        /* \"#utility.yul\":16010:16017   */\n      dup8\n        /* \"#utility.yul\":16006:16029   */\n      sub\n        /* \"#utility.yul\":16002:16035   */\n      slt\n        /* \"#utility.yul\":15999:16119   */\n      iszero\n      tag_359\n      jumpi\n        /* \"#utility.yul\":16038:16117   */\n      tag_360\n      tag_157\n      jump\t// in\n    tag_360:\n        /* \"#utility.yul\":15999:16119   */\n    tag_359:\n        /* \"#utility.yul\":16158:16159   */\n      0x00\n        /* \"#utility.yul\":16183:16236   */\n      tag_361\n        /* \"#utility.yul\":16228:16235   */\n      dup8\n        /* \"#utility.yul\":16219:16225   */\n      dup3\n        /* \"#utility.yul\":16208:16217   */\n      dup9\n        /* \"#utility.yul\":16204:16226   */\n      add\n        /* \"#utility.yul\":16183:16236   */\n      tag_161\n      jump\t// in\n    tag_361:\n        /* \"#utility.yul\":16173:16236   */\n      swap5\n      pop\n        /* \"#utility.yul\":16129:16246   */\n      pop\n        /* \"#utility.yul\":16313:16315   */\n      0x20\n        /* \"#utility.yul\":16302:16311   */\n      dup6\n        /* \"#utility.yul\":16298:16316   */\n      add\n        /* \"#utility.yul\":16285:16317   */\n      calldataload\n        /* \"#utility.yul\":16344:16362   */\n      0xffffffffffffffff\n        /* \"#utility.yul\":16336:16342   */\n      dup2\n        /* \"#utility.yul\":16333:16363   */\n      gt\n        /* \"#utility.yul\":16330:16447   */\n      iszero\n      tag_362\n      jumpi\n        /* \"#utility.yul\":16366:16445   */\n      tag_363\n      tag_158\n      jump\t// in\n    tag_363:\n        /* \"#utility.yul\":16330:16447   */\n    tag_362:\n        /* \"#utility.yul\":16471:16534   */\n      tag_364\n        /* \"#utility.yul\":16526:16533   */\n      dup8\n        /* \"#utility.yul\":16517:16523   */\n      dup3\n        /* \"#utility.yul\":16506:16515   */\n      dup9\n        /* \"#utility.yul\":16502:16524   */\n      add\n        /* \"#utility.yul\":16471:16534   */\n      tag_194\n      jump\t// in\n    tag_364:\n        /* \"#utility.yul\":16461:16534   */\n      swap4\n      pop\n        /* \"#utility.yul\":16256:16544   */\n      pop\n        /* \"#utility.yul\":16611:16613   */\n      0x40\n        /* \"#utility.yul\":16600:16609   */\n      dup6\n        /* \"#utility.yul\":16596:16614   */\n      add\n        /* \"#utility.yul\":16583:16615   */\n      calldataload\n        /* \"#utility.yul\":16642:16660   */\n      0xffffffffffffffff\n        /* \"#utility.yul\":16634:16640   */\n      dup2\n        /* \"#utility.yul\":16631:16661   */\n      gt\n        /* \"#utility.yul\":16628:16745   */\n      iszero\n      tag_365\n      jumpi\n        /* \"#utility.yul\":16664:16743   */\n      tag_366\n      tag_158\n      jump\t// in\n    tag_366:\n        /* \"#utility.yul\":16628:16745   */\n    tag_365:\n        /* \"#utility.yul\":16769:16832   */\n      tag_367\n        /* \"#utility.yul\":16824:16831   */\n      dup8\n        /* \"#utility.yul\":16815:16821   */\n      dup3\n        /* \"#utility.yul\":16804:16813   */\n      dup9\n        /* \"#utility.yul\":16800:16822   */\n      add\n        /* \"#utility.yul\":16769:16832   */\n      tag_194\n      jump\t// in\n    tag_367:\n        /* \"#utility.yul\":16759:16832   */\n      swap3\n      pop\n        /* \"#utility.yul\":16554:16842   */\n      pop\n        /* \"#utility.yul\":16881:16883   */\n      0x60\n        /* \"#utility.yul\":16907:16958   */\n      tag_368\n        /* \"#utility.yul\":16950:16957   */\n      dup8\n        /* \"#utility.yul\":16941:16947   */\n      dup3\n        /* \"#utility.yul\":16930:16939   */\n      dup9\n        /* \"#utility.yul\":16926:16948   */\n      add\n        /* \"#utility.yul\":16907:16958   */\n      tag_196\n      jump\t// in\n    tag_368:\n        /* \"#utility.yul\":16897:16958   */\n      swap2\n      pop\n        /* \"#utility.yul\":16852:16968   */\n      pop\n        /* \"#utility.yul\":15854:16975   */\n      swap3\n      swap6\n      swap2\n      swap5\n      pop\n      swap3\n      pop\n      jump\t// out\n        /* \"#utility.yul\":16981:18792   */\n    tag_45:\n        /* \"#utility.yul\":17126:17132   */\n      0x00\n        /* \"#utility.yul\":17134:17140   */\n      dup1\n        /* \"#utility.yul\":17142:17148   */\n      0x00\n        /* \"#utility.yul\":17150:17156   */\n      dup1\n        /* \"#utility.yul\":17158:17164   */\n      0x00\n        /* \"#utility.yul\":17207:17210   */\n      0xa0\n        /* \"#utility.yul\":17195:17204   */\n      dup7\n        /* \"#utility.yul\":17186:17193   */\n      dup9\n        /* \"#utility.yul\":17182:17205   */\n      sub\n        /* \"#utility.yul\":17178:17211   */\n      slt\n        /* \"#utility.yul\":17175:17295   */\n      iszero\n      tag_370\n      jumpi\n        /* \"#utility.yul\":17214:17293   */\n      tag_371\n      tag_157\n      jump\t// in\n    tag_371:\n        /* \"#utility.yul\":17175:17295   */\n    tag_370:\n        /* \"#utility.yul\":17362:17363   */\n      0x00\n        /* \"#utility.yul\":17351:17360   */\n      dup7\n        /* \"#utility.yul\":17347:17364   */\n      add\n        /* \"#utility.yul\":17334:17365   */\n      calldataload\n        /* \"#utility.yul\":17392:17410   */\n      0xffffffffffffffff\n        /* \"#utility.yul\":17384:17390   */\n      dup2\n        /* \"#utility.yul\":17381:17411   */\n      gt\n        /* \"#utility.yul\":17378:17495   */\n      iszero\n      tag_372\n      jumpi\n        /* \"#utility.yul\":17414:17493   */\n      tag_373\n      tag_158\n      jump\t// in\n    tag_373:\n        /* \"#utility.yul\":17378:17495   */\n    tag_372:\n        /* \"#utility.yul\":17519:17582   */\n      tag_374\n        /* \"#utility.yul\":17574:17581   */\n      dup9\n        /* \"#utility.yul\":17565:17571   */\n      dup3\n        /* \"#utility.yul\":17554:17563   */\n      dup10\n        /* \"#utility.yul\":17550:17572   */\n      add\n        /* \"#utility.yul\":17519:17582   */\n      tag_194\n      jump\t// in\n    tag_374:\n        /* \"#utility.yul\":17509:17582   */\n      swap6\n      pop\n        /* \"#utility.yul\":17305:17592   */\n      pop\n        /* \"#utility.yul\":17659:17661   */\n      0x20\n        /* \"#utility.yul\":17648:17657   */\n      dup7\n        /* \"#utility.yul\":17644:17662   */\n      add\n        /* \"#utility.yul\":17631:17663   */\n      calldataload\n        /* \"#utility.yul\":17690:17708   */\n      0xffffffffffffffff\n        /* \"#utility.yul\":17682:17688   */\n      dup2\n        /* \"#utility.yul\":17679:17709   */\n      gt\n        /* \"#utility.yul\":17676:17793   */\n      iszero\n      tag_375\n      jumpi\n        /* \"#utility.yul\":17712:17791   */\n      tag_376\n      tag_158\n      jump\t// in\n    tag_376:\n        /* \"#utility.yul\":17676:17793   */\n    tag_375:\n        /* \"#utility.yul\":17817:17880   */\n      tag_377\n        /* \"#utility.yul\":17872:17879   */\n      dup9\n        /* \"#utility.yul\":17863:17869   */\n      dup3\n        /* \"#utility.yul\":17852:17861   */\n      dup10\n        /* \"#utility.yul\":17848:17870   */\n      add\n        /* \"#utility.yul\":17817:17880   */\n      tag_194\n      jump\t// in\n    tag_377:\n        /* \"#utility.yul\":17807:17880   */\n      swap5\n      pop\n        /* \"#utility.yul\":17602:17890   */\n      pop\n        /* \"#utility.yul\":17957:17959   */\n      0x40\n        /* \"#utility.yul\":17946:17955   */\n      dup7\n        /* \"#utility.yul\":17942:17960   */\n      add\n        /* \"#utility.yul\":17929:17961   */\n      calldataload\n        /* \"#utility.yul\":17988:18006   */\n      0xffffffffffffffff\n        /* \"#utility.yul\":17980:17986   */\n      dup2\n        /* \"#utility.yul\":17977:18007   */\n      gt\n        /* \"#utility.yul\":17974:18091   */\n      iszero\n      tag_378\n      jumpi\n        /* \"#utility.yul\":18010:18089   */\n      tag_379\n      tag_158\n      jump\t// in\n    tag_379:\n        /* \"#utility.yul\":17974:18091   */\n    tag_378:\n        /* \"#utility.yul\":18115:18178   */\n      tag_380\n        /* \"#utility.yul\":18170:18177   */\n      dup9\n        /* \"#utility.yul\":18161:18167   */\n      dup3\n        /* \"#utility.yul\":18150:18159   */\n      dup10\n        /* \"#utility.yul\":18146:18168   */\n      add\n        /* \"#utility.yul\":18115:18178   */\n      tag_194\n      jump\t// in\n    tag_380:\n        /* \"#utility.yul\":18105:18178   */\n      swap4\n      pop\n        /* \"#utility.yul\":17900:18188   */\n      pop\n        /* \"#utility.yul\":18255:18257   */\n      0x60\n        /* \"#utility.yul\":18244:18253   */\n      dup7\n        /* \"#utility.yul\":18240:18258   */\n      add\n        /* \"#utility.yul\":18227:18259   */\n      calldataload\n        /* \"#utility.yul\":18286:18304   */\n      0xffffffffffffffff\n        /* \"#utility.yul\":18278:18284   */\n      dup2\n        /* \"#utility.yul\":18275:18305   */\n      gt\n        /* \"#utility.yul\":18272:18389   */\n      iszero\n      tag_381\n      jumpi\n        /* \"#utility.yul\":18308:18387   */\n      tag_382\n      tag_158\n      jump\t// in\n    tag_382:\n        /* \"#utility.yul\":18272:18389   */\n    tag_381:\n        /* \"#utility.yul\":18413:18476   */\n      tag_383\n        /* \"#utility.yul\":18468:18475   */\n      dup9\n        /* \"#utility.yul\":18459:18465   */\n      dup3\n        /* \"#utility.yul\":18448:18457   */\n      dup10\n        /* \"#utility.yul\":18444:18466   */\n      add\n        /* \"#utility.yul\":18413:18476   */\n      tag_194\n      jump\t// in\n    tag_383:\n        /* \"#utility.yul\":18403:18476   */\n      swap3\n      pop\n        /* \"#utility.yul\":18198:18486   */\n      pop\n        /* \"#utility.yul\":18553:18556   */\n      0x80\n        /* \"#utility.yul\":18542:18551   */\n      dup7\n        /* \"#utility.yul\":18538:18557   */\n      add\n        /* \"#utility.yul\":18525:18558   */\n      calldataload\n        /* \"#utility.yul\":18585:18603   */\n      0xffffffffffffffff\n        /* \"#utility.yul\":18577:18583   */\n      dup2\n        /* \"#utility.yul\":18574:18604   */\n      gt\n        /* \"#utility.yul\":18571:18688   */\n      iszero\n      tag_384\n      jumpi\n        /* \"#utility.yul\":18607:18686   */\n      tag_385\n      tag_158\n      jump\t// in\n    tag_385:\n        /* \"#utility.yul\":18571:18688   */\n    tag_384:\n        /* \"#utility.yul\":18712:18775   */\n      tag_386\n        /* \"#utility.yul\":18767:18774   */\n      dup9\n        /* \"#utility.yul\":18758:18764   */\n      dup3\n        /* \"#utility.yul\":18747:18756   */\n      dup10\n        /* \"#utility.yul\":18743:18765   */\n      add\n        /* \"#utility.yul\":18712:18775   */\n      tag_194\n      jump\t// in\n    tag_386:\n        /* \"#utility.yul\":18702:18775   */\n      swap2\n      pop\n        /* \"#utility.yul\":18496:18785   */\n      pop\n        /* \"#utility.yul\":16981:18792   */\n      swap3\n      swap6\n      pop\n      swap3\n      swap6\n      swap1\n      swap4\n      pop\n      jump\t// out\n        /* \"#utility.yul\":18798:18978   */\n    tag_197:\n        /* \"#utility.yul\":18846:18923   */\n      0x4e487b7100000000000000000000000000000000000000000000000000000000\n        /* \"#utility.yul\":18843:18844   */\n      0x00\n        /* \"#utility.yul\":18836:18924   */\n      mstore\n        /* \"#utility.yul\":18943:18947   */\n      0x22\n        /* \"#utility.yul\":18940:18941   */\n      0x04\n        /* \"#utility.yul\":18933:18948   */\n      mstore\n        /* \"#utility.yul\":18967:18971   */\n      0x24\n        /* \"#utility.yul\":18964:18965   */\n      0x00\n        /* \"#utility.yul\":18957:18972   */\n      revert\n        /* \"#utility.yul\":18984:19304   */\n    tag_53:\n        /* \"#utility.yul\":19028:19034   */\n      0x00\n        /* \"#utility.yul\":19065:19066   */\n      0x02\n        /* \"#utility.yul\":19059:19063   */\n      dup3\n        /* \"#utility.yul\":19055:19067   */\n      div\n        /* \"#utility.yul\":19045:19067   */\n      swap1\n      pop\n        /* \"#utility.yul\":19112:19113   */\n      0x01\n        /* \"#utility.yul\":19106:19110   */\n      dup3\n        /* \"#utility.yul\":19102:19114   */\n      and\n        /* \"#utility.yul\":19133:19151   */\n      dup1\n        /* \"#utility.yul\":19123:19204   */\n      tag_389\n      jumpi\n        /* \"#utility.yul\":19189:19193   */\n      0x7f\n        /* \"#utility.yul\":19181:19187   */\n      dup3\n        /* \"#utility.yul\":19177:19194   */\n      and\n        /* \"#utility.yul\":19167:19194   */\n      swap2\n      pop\n        /* \"#utility.yul\":19123:19204   */\n    tag_389:\n        /* \"#utility.yul\":19251:19253   */\n      0x20\n        /* \"#utility.yul\":19243:19249   */\n      dup3\n        /* \"#utility.yul\":19240:19254   */\n      lt\n        /* \"#utility.yul\":19220:19238   */\n      dup2\n        /* \"#utility.yul\":19217:19255   */\n      sub\n        /* \"#utility.yul\":19214:19298   */\n      tag_390\n      jumpi\n        /* \"#utility.yul\":19270:19288   */\n      tag_391\n      tag_197\n      jump\t// in\n    tag_391:\n        /* \"#utility.yul\":19214:19298   */\n    tag_390:\n        /* \"#utility.yul\":19035:19304   */\n      pop\n        /* \"#utility.yul\":18984:19304   */\n      swap2\n      swap1\n      pop\n      jump\t// out\n        /* \"#utility.yul\":19310:19451   */\n    tag_198:\n        /* \"#utility.yul\":19359:19363   */\n      0x00\n        /* \"#utility.yul\":19382:19385   */\n      dup2\n        /* \"#utility.yul\":19374:19385   */\n      swap1\n      pop\n        /* \"#utility.yul\":19405:19408   */\n      dup2\n        /* \"#utility.yul\":19402:19403   */\n      0x00\n        /* \"#utility.yul\":19395:19409   */\n      mstore\n        /* \"#utility.yul\":19439:19443   */\n      0x20\n        /* \"#utility.yul\":19436:19437   */\n      0x00\n        /* \"#utility.yul\":19426:19444   */\n      keccak256\n        /* \"#utility.yul\":19418:19444   */\n      swap1\n      pop\n        /* \"#utility.yul\":19310:19451   */\n      swap2\n      swap1\n      pop\n      jump\t// out\n        /* \"#utility.yul\":19457:19550   */\n    tag_199:\n        /* \"#utility.yul\":19494:19500   */\n      0x00\n        /* \"#utility.yul\":19541:19543   */\n      0x20\n        /* \"#utility.yul\":19536:19538   */\n      0x1f\n        /* \"#utility.yul\":19529:19534   */\n      dup4\n        /* \"#utility.yul\":19525:19539   */\n      add\n        /* \"#utility.yul\":19521:19544   */\n      div\n        /* \"#utility.yul\":19511:19544   */\n      swap1\n      pop\n        /* \"#utility.yul\":19457:19550   */\n      swap2\n      swap1\n      pop\n      jump\t// out\n        /* \"#utility.yul\":19556:19663   */\n    tag_200:\n        /* \"#utility.yul\":19600:19608   */\n      0x00\n        /* \"#utility.yul\":19650:19655   */\n      dup3\n        /* \"#utility.yul\":19644:19648   */\n      dup3\n        /* \"#utility.yul\":19640:19656   */\n      shl\n        /* \"#utility.yul\":19619:19656   */\n      swap1\n      pop\n        /* \"#utility.yul\":19556:19663   */\n      swap3\n      swap2\n      pop\n      pop\n      jump\t// out\n        /* \"#utility.yul\":19669:20062   */\n    tag_201:\n        /* \"#utility.yul\":19738:19744   */\n      0x00\n        /* \"#utility.yul\":19788:19789   */\n      0x08\n        /* \"#utility.yul\":19776:19786   */\n      dup4\n        /* \"#utility.yul\":19772:19790   */\n      mul\n        /* \"#utility.yul\":19811:19908   */\n      tag_396\n        /* \"#utility.yul\":19841:19907   */\n      0xffffffffffffffffffffffffffffffffffffffffffffffffffffffffffffffff\n        /* \"#utility.yul\":19830:19839   */\n      dup3\n        /* \"#utility.yul\":19811:19908   */\n      tag_200\n      jump\t// in\n    tag_396:\n        /* \"#utility.yul\":19929:19968   */\n      tag_397\n        /* \"#utility.yul\":19959:19967   */\n      dup7\n        /* \"#utility.yul\":19948:19957   */\n      dup4\n        /* \"#utility.yul\":19929:19968   */\n      tag_200\n      jump\t// in\n    tag_397:\n        /* \"#utility.yul\":19917:19968   */\n      swap6\n      pop\n        /* \"#utility.yul\":20001:20005   */\n      dup1\n        /* \"#utility.yul\":19997:20006   */\n      not\n        /* \"#utility.yul\":19990:19995   */\n      dup5\n        /* \"#utility.yul\":19986:20007   */\n      and\n        /* \"#utility.yul\":19977:20007   */\n      swap4\n      pop\n        /* \"#utility.yul\":20050:20054   */\n      dup1\n        /* \"#utility.yul\":20040:20048   */\n      dup7\n        /* \"#utility.yul\":20036:20055   */\n      and\n        /* \"#utility.yul\":20029:20034   */\n      dup5\n        /* \"#utility.yul\":20026:20056   */\n      or\n        /* \"#utility.yul\":20016:20056   */\n      swap3\n      pop\n        /* \"#utility.yul\":19745:20062   */\n      pop\n      pop\n        /* \"#utility.yul\":19669:20062   */\n      swap4\n      swap3\n      pop\n      pop\n      pop\n      jump\t// out\n        /* \"#utility.yul\":20068:20128   */\n    tag_202:\n        /* \"#utility.yul\":20096:20099   */\n      0x00\n        /* \"#utility.yul\":20117:20122   */\n      dup2\n        /* \"#utility.yul\":20110:20122   */\n      swap1\n      pop\n        /* \"#utility.yul\":20068:20128   */\n      swap2\n      swap1\n      pop\n      jump\t// out\n        /* \"#utility.yul\":20134:20276   */\n    tag_203:\n        /* \"#utility.yul\":20184:20193   */\n      0x00\n        /* \"#utility.yul\":20217:20270   */\n      tag_400\n        /* \"#utility.yul\":20235:20269   */\n      tag_401\n        /* \"#utility.yul\":20244:20268   */\n      tag_402\n        /* \"#utility.yul\":20262:20267   */\n      dup5\n        /* \"#utility.yul\":20244:20268   */\n      tag_159\n      jump\t// in\n    tag_402:\n        /* \"#utility.yul\":20235:20269   */\n      tag_202\n      jump\t// in\n    tag_401:\n        /* \"#utility.yul\":20217:20270   */\n      tag_159\n      jump\t// in\n    tag_400:\n        /* \"#utility.yul\":20204:20270   */\n      swap1\n      pop\n        /* \"#utility.yul\":20134:20276   */\n      swap2\n      swap1\n      pop\n      jump\t// out\n        /* \"#utility.yul\":20282:20357   */\n    tag_204:\n        /* \"#utility.yul\":20325:20328   */\n      0x00\n        /* \"#utility.yul\":20346:20351   */\n      dup2\n        /* \"#utility.yul\":20339:20351   */\n      swap1\n      pop\n        /* \"#utility.yul\":20282:20357   */\n      swap2\n      swap1\n      pop\n      jump\t// out\n        /* \"#utility.yul\":20363:20632   */\n    tag_205:\n        /* \"#utility.yul\":20473:20512   */\n      tag_405\n        /* \"#utility.yul\":20504:20511   */\n      dup4\n        /* \"#utility.yul\":20473:20512   */\n      tag_203\n      jump\t// in\n    tag_405:\n        /* \"#utility.yul\":20534:20625   */\n      tag_406\n        /* \"#utility.yul\":20583:20624   */\n      tag_407\n        /* \"#utility.yul\":20607:20623   */\n      dup3\n        /* \"#utility.yul\":20583:20624   */\n      tag_204\n      jump\t// in\n    tag_407:\n        /* \"#utility.yul\":20575:20581   */\n      dup5\n        /* \"#utility.yul\":20568:20572   */\n      dup5\n        /* \"#utility.yul\":20562:20573   */\n      sload\n        /* \"#utility.yul\":20534:20625   */\n      tag_201\n      jump\t// in\n    tag_406:\n        /* \"#utility.yul\":20528:20532   */\n      dup3\n        /* \"#utility.yul\":20521:20626   */\n      sstore\n        /* \"#utility.yul\":20439:20632   */\n      pop\n        /* \"#utility.yul\":20363:20632   */\n      pop\n      pop\n      pop\n      jump\t// out\n        /* \"#utility.yul\":20638:20711   */\n    tag_206:\n        /* \"#utility.yul\":20683:20686   */\n      0x00\n        /* \"#utility.yul\":20638:20711   */\n      swap1\n      jump\t// out\n        /* \"#utility.yul\":20717:20906   */\n    tag_207:\n        /* \"#utility.yul\":20794:20826   */\n      tag_410\n      tag_206\n      jump\t// in\n    tag_410:\n        /* \"#utility.yul\":20835:20900   */\n      tag_411\n        /* \"#utility.yul\":20893:20899   */\n      dup2\n        /* \"#utility.yul\":20885:20891   */\n      dup5\n        /* \"#utility.yul\":20879:20883   */\n      dup5\n        /* \"#utility.yul\":20835:20900   */\n      tag_205\n      jump\t// in\n    tag_411:\n        /* \"#utility.yul\":20770:20906   */\n      pop\n        /* \"#utility.yul\":20717:20906   */\n      pop\n      pop\n      jump\t// out\n        /* \"#utility.yul\":20912:21098   */\n    tag_208:\n        /* \"#utility.yul\":20972:21092   */\n    tag_413:\n        /* \"#utility.yul\":20989:20992   */\n      dup2\n        /* \"#utility.yul\":20982:20987   */\n      dup2\n        /* \"#utility.yul\":20979:20993   */\n      lt\n        /* \"#utility.yul\":20972:21092   */\n      iszero\n      tag_415\n      jumpi\n        /* \"#utility.yul\":21043:21082   */\n      tag_416\n        /* \"#utility.yul\":21080:21081   */\n      0x00\n        /* \"#utility.yul\":21073:21078   */\n      dup3\n        /* \"#utility.yul\":21043:21082   */\n      tag_207\n      jump\t// in\n    tag_416:\n        /* \"#utility.yul\":21016:21017   */\n      0x01\n        /* \"#utility.yul\":21009:21014   */\n      dup2\n        /* \"#utility.yul\":21005:21018   */\n      add\n        /* \"#utility.yul\":20996:21018   */\n      swap1\n      pop\n        /* \"#utility.yul\":20972:21092   */\n      jump(tag_413)\n    tag_415:\n        /* \"#utility.yul\":20912:21098   */\n      pop\n      pop\n      jump\t// out\n        /* \"#utility.yul\":21104:21647   */\n    tag_209:\n        /* \"#utility.yul\":21205:21207   */\n      0x1f\n        /* \"#utility.yul\":21200:21203   */\n      dup3\n        /* \"#utility.yul\":21197:21208   */\n      gt\n        /* \"#utility.yul\":21194:21640   */\n      iszero\n      tag_418\n      jumpi\n        /* \"#utility.yul\":21239:21277   */\n      tag_419\n        /* \"#utility.yul\":21271:21276   */\n      dup2\n        /* \"#utility.yul\":21239:21277   */\n      tag_198\n      jump\t// in\n    tag_419:\n        /* \"#utility.yul\":21323:21352   */\n      tag_420\n        /* \"#utility.yul\":21341:21351   */\n      dup5\n        /* \"#utility.yul\":21323:21352   */\n      tag_199\n      jump\t// in\n    tag_420:\n        /* \"#utility.yul\":21313:21321   */\n      dup2\n        /* \"#utility.yul\":21309:21353   */\n      add\n        /* \"#utility.yul\":21506:21508   */\n      0x20\n        /* \"#utility.yul\":21494:21504   */\n      dup6\n        /* \"#utility.yul\":21491:21509   */\n      lt\n        /* \"#utility.yul\":21488:21537   */\n      iszero\n      tag_421\n      jumpi\n        /* \"#utility.yul\":21527:21535   */\n      dup2\n        /* \"#utility.yul\":21512:21535   */\n      swap1\n      pop\n        /* \"#utility.yul\":21488:21537   */\n    tag_421:\n        /* \"#utility.yul\":21550:21630   */\n      tag_422\n        /* \"#utility.yul\":21606:21628   */\n      tag_423\n        /* \"#utility.yul\":21624:21627   */\n      dup6\n        /* \"#utility.yul\":21606:21628   */\n      tag_199\n      jump\t// in\n    tag_423:\n        /* \"#utility.yul\":21596:21604   */\n      dup4\n        /* \"#utility.yul\":21592:21629   */\n      add\n        /* \"#utility.yul\":21579:21590   */\n      dup3\n        /* \"#utility.yul\":21550:21630   */\n      tag_208\n      jump\t// in\n    tag_422:\n        /* \"#utility.yul\":21209:21640   */\n      pop\n      pop\n        /* \"#utility.yul\":21194:21640   */\n    tag_418:\n        /* \"#utility.yul\":21104:21647   */\n      pop\n      pop\n      pop\n      jump\t// out\n        /* \"#utility.yul\":21653:21770   */\n    tag_210:\n        /* \"#utility.yul\":21707:21715   */\n      0x00\n        /* \"#utility.yul\":21757:21762   */\n      dup3\n        /* \"#utility.yul\":21751:21755   */\n      dup3\n        /* \"#utility.yul\":21747:21763   */\n      shr\n        /* \"#utility.yul\":21726:21763   */\n      swap1\n      pop\n        /* \"#utility.yul\":21653:21770   */\n      swap3\n      swap2\n      pop\n      pop\n      jump\t// out\n        /* \"#utility.yul\":21776:21945   */\n    tag_211:\n        /* \"#utility.yul\":21820:21826   */\n      0x00\n        /* \"#utility.yul\":21853:21904   */\n      tag_426\n        /* \"#utility.yul\":21901:21902   */\n      0x00\n        /* \"#utility.yul\":21897:21903   */\n      not\n        /* \"#utility.yul\":21889:21894   */\n      dup5\n        /* \"#utility.yul\":21886:21887   */\n      0x08\n        /* \"#utility.yul\":21882:21895   */\n      mul\n        /* \"#utility.yul\":21853:21904   */\n      tag_210\n      jump\t// in\n    tag_426:\n        /* \"#utility.yul\":21849:21905   */\n      not\n        /* \"#utility.yul\":21934:21938   */\n      dup1\n        /* \"#utility.yul\":21928:21932   */\n      dup4\n        /* \"#utility.yul\":21924:21939   */\n      and\n        /* \"#utility.yul\":21914:21939   */\n      swap2\n      pop\n        /* \"#utility.yul\":21827:21945   */\n      pop\n        /* \"#utility.yul\":21776:21945   */\n      swap3\n      swap2\n      pop\n      pop\n      jump\t// out\n        /* \"#utility.yul\":21950:22245   */\n    tag_212:\n        /* \"#utility.yul\":22026:22030   */\n      0x00\n        /* \"#utility.yul\":22172:22201   */\n      tag_428\n        /* \"#utility.yul\":22197:22200   */\n      dup4\n        /* \"#utility.yul\":22191:22195   */\n      dup4\n        /* \"#utility.yul\":22172:22201   */\n      tag_211\n      jump\t// in\n    tag_428:\n        /* \"#utility.yul\":22164:22201   */\n      swap2\n      pop\n        /* \"#utility.yul\":22234:22237   */\n      dup3\n        /* \"#utility.yul\":22231:22232   */\n      0x02\n        /* \"#utility.yul\":22227:22238   */\n      mul\n        /* \"#utility.yul\":22221:22225   */\n      dup3\n        /* \"#utility.yul\":22218:22239   */\n      or\n        /* \"#utility.yul\":22210:22239   */\n      swap1\n      pop\n        /* \"#utility.yul\":21950:22245   */\n      swap3\n      swap2\n      pop\n      pop\n      jump\t// out\n        /* \"#utility.yul\":22250:23645   */\n    tag_108:\n        /* \"#utility.yul\":22367:22404   */\n      tag_430\n        /* \"#utility.yul\":22400:22403   */\n      dup3\n        /* \"#utility.yul\":22367:22404   */\n      tag_169\n      jump\t// in\n    tag_430:\n        /* \"#utility.yul\":22469:22487   */\n      0xffffffffffffffff\n        /* \"#utility.yul\":22461:22467   */\n      dup2\n        /* \"#utility.yul\":22458:22488   */\n      gt\n        /* \"#utility.yul\":22455:22511   */\n      iszero\n      tag_431\n      jumpi\n        /* \"#utility.yul\":22491:22509   */\n      tag_432\n      tag_188\n      jump\t// in\n    tag_432:\n        /* \"#utility.yul\":22455:22511   */\n    tag_431:\n        /* \"#utility.yul\":22535:22573   */\n      tag_433\n        /* \"#utility.yul\":22567:22571   */\n      dup3\n        /* \"#utility.yul\":22561:22572   */\n      sload\n        /* \"#utility.yul\":22535:22573   */\n      tag_53\n      jump\t// in\n    tag_433:\n        /* \"#utility.yul\":22620:22687   */\n      tag_434\n        /* \"#utility.yul\":22680:22686   */\n      dup3\n        /* \"#utility.yul\":22672:22678   */\n      dup3\n        /* \"#utility.yul\":22666:22670   */\n      dup6\n        /* \"#utility.yul\":22620:22687   */\n      tag_209\n      jump\t// in\n    tag_434:\n        /* \"#utility.yul\":22714:22715   */\n      0x00\n        /* \"#utility.yul\":22738:22742   */\n      0x20\n        /* \"#utility.yul\":22725:22742   */\n      swap1\n      pop\n        /* \"#utility.yul\":22770:22772   */\n      0x1f\n        /* \"#utility.yul\":22762:22768   */\n      dup4\n        /* \"#utility.yul\":22759:22773   */\n      gt\n        /* \"#utility.yul\":22787:22788   */\n      0x01\n        /* \"#utility.yul\":22782:23400   */\n      dup2\n      eq\n      tag_436\n      jumpi\n        /* \"#utility.yul\":23444:23445   */\n      0x00\n        /* \"#utility.yul\":23461:23467   */\n      dup5\n        /* \"#utility.yul\":23458:23535   */\n      iszero\n      tag_437\n      jumpi\n        /* \"#utility.yul\":23510:23519   */\n      dup3\n        /* \"#utility.yul\":23505:23508   */\n      dup8\n        /* \"#utility.yul\":23501:23520   */\n      add\n        /* \"#utility.yul\":23495:23521   */\n      mload\n        /* \"#utility.yul\":23486:23521   */\n      swap1\n      pop\n        /* \"#utility.yul\":23458:23535   */\n    tag_437:\n        /* \"#utility.yul\":23561:23628   */\n      tag_438\n        /* \"#utility.yul\":23621:23627   */\n      dup6\n        /* \"#utility.yul\":23614:23619   */\n      dup3\n        /* \"#utility.yul\":23561:23628   */\n      tag_212\n      jump\t// in\n    tag_438:\n        /* \"#utility.yul\":23555:23559   */\n      dup7\n        /* \"#utility.yul\":23548:23629   */\n      sstore\n        /* \"#utility.yul\":23417:23639   */\n      pop\n        /* \"#utility.yul\":22752:23639   */\n      jump(tag_435)\n        /* \"#utility.yul\":22782:23400   */\n    tag_436:\n        /* \"#utility.yul\":22834:22838   */\n      0x1f\n        /* \"#utility.yul\":22830:22839   */\n      not\n        /* \"#utility.yul\":22822:22828   */\n      dup5\n        /* \"#utility.yul\":22818:22840   */\n      and\n        /* \"#utility.yul\":22868:22905   */\n      tag_439\n        /* \"#utility.yul\":22900:22904   */\n      dup7\n        /* \"#utility.yul\":22868:22905   */\n      tag_198\n      jump\t// in\n    tag_439:\n        /* \"#utility.yul\":22927:22928   */\n      0x00\n        /* \"#utility.yul\":22941:23149   */\n    tag_440:\n        /* \"#utility.yul\":22955:22962   */\n      dup3\n        /* \"#utility.yul\":22952:22953   */\n      dup2\n        /* \"#utility.yul\":22949:22963   */\n      lt\n        /* \"#utility.yul\":22941:23149   */\n      iszero\n      tag_442\n      jumpi\n        /* \"#utility.yul\":23034:23043   */\n      dup5\n        /* \"#utility.yul\":23029:23032   */\n      dup10\n        /* \"#utility.yul\":23025:23044   */\n      add\n        /* \"#utility.yul\":23019:23045   */\n      mload\n        /* \"#utility.yul\":23011:23017   */\n      dup3\n        /* \"#utility.yul\":23004:23046   */\n      sstore\n        /* \"#utility.yul\":23085:23086   */\n      0x01\n        /* \"#utility.yul\":23077:23083   */\n      dup3\n        /* \"#utility.yul\":23073:23087   */\n      add\n        /* \"#utility.yul\":23063:23087   */\n      swap2\n      pop\n        /* \"#utility.yul\":23132:23134   */\n      0x20\n        /* \"#utility.yul\":23121:23130   */\n      dup6\n        /* \"#utility.yul\":23117:23135   */\n      add\n        /* \"#utility.yul\":23104:23135   */\n      swap5\n      pop\n        /* \"#utility.yul\":22978:22982   */\n      0x20\n        /* \"#utility.yul\":22975:22976   */\n      dup2\n        /* \"#utility.yul\":22971:22983   */\n      add\n        /* \"#utility.yul\":22966:22983   */\n      swap1\n      pop\n        /* \"#utility.yul\":22941:23149   */\n      jump(tag_440)\n    tag_442:\n        /* \"#utility.yul\":23177:23183   */\n      dup7\n        /* \"#utility.yul\":23168:23175   */\n      dup4\n        /* \"#utility.yul\":23165:23184   */\n      lt\n        /* \"#utility.yul\":23162:23341   */\n      iszero\n      tag_443\n      jumpi\n        /* \"#utility.yul\":23235:23244   */\n      dup5\n        /* \"#utility.yul\":23230:23233   */\n      dup10\n        /* \"#utility.yul\":23226:23245   */\n      add\n        /* \"#utility.yul\":23220:23246   */\n      mload\n        /* \"#utility.yul\":23278:23326   */\n      tag_444\n        /* \"#utility.yul\":23320:23324   */\n      0x1f\n        /* \"#utility.yul\":23312:23318   */\n      dup10\n        /* \"#utility.yul\":23308:23325   */\n      and\n        /* \"#utility.yul\":23297:23306   */\n      dup3\n        /* \"#utility.yul\":23278:23326   */\n      tag_211\n      jump\t// in\n    tag_444:\n        /* \"#utility.yul\":23270:23276   */\n      dup4\n        /* \"#utility.yul\":23263:23327   */\n      sstore\n        /* \"#utility.yul\":23185:23341   */\n      pop\n        /* \"#utility.yul\":23162:23341   */\n    tag_443:\n        /* \"#utility.yul\":23387:23388   */\n      0x01\n        /* \"#utility.yul\":23383:23384   */\n      0x02\n        /* \"#utility.yul\":23375:23381   */\n      dup9\n        /* \"#utility.yul\":23371:23385   */\n      mul\n        /* \"#utility.yul\":23367:23389   */\n      add\n        /* \"#utility.yul\":23361:23365   */\n      dup9\n        /* \"#utility.yul\":23354:23390   */\n      sstore\n        /* \"#utility.yul\":22789:23400   */\n      pop\n      pop\n      pop\n        /* \"#utility.yul\":22752:23639   */\n    tag_435:\n      pop\n        /* \"#utility.yul\":22342:23645   */\n      pop\n      pop\n      pop\n        /* \"#utility.yul\":22250:23645   */\n      pop\n      pop\n      jump\t// out\n        /* \"#utility.yul\":23651:23831   */\n    tag_213:\n        /* \"#utility.yul\":23699:23776   */\n      0x4e487b7100000000000000000000000000000000000000000000000000000000\n        /* \"#utility.yul\":23696:23697   */\n      0x00\n        /* \"#utility.yul\":23689:23777   */\n      mstore\n        /* \"#utility.yul\":23796:23800   */\n      0x11\n        /* \"#utility.yul\":23793:23794   */\n      0x04\n        /* \"#utility.yul\":23786:23801   */\n      mstore\n        /* \"#utility.yul\":23820:23824   */\n      0x24\n        /* \"#utility.yul\":23817:23818   */\n      0x00\n        /* \"#utility.yul\":23810:23825   */\n      revert\n        /* \"#utility.yul\":23837:24028   */\n    tag_119:\n        /* \"#utility.yul\":23877:23880   */\n      0x00\n        /* \"#utility.yul\":23896:23916   */\n      tag_447\n        /* \"#utility.yul\":23914:23915   */\n      dup3\n        /* \"#utility.yul\":23896:23916   */\n      tag_159\n      jump\t// in\n    tag_447:\n        /* \"#utility.yul\":23891:23916   */\n      swap2\n      pop\n        /* \"#utility.yul\":23930:23950   */\n      tag_448\n        /* \"#utility.yul\":23948:23949   */\n      dup4\n        /* \"#utility.yul\":23930:23950   */\n      tag_159\n      jump\t// in\n    tag_448:\n        /* \"#utility.yul\":23925:23950   */\n      swap3\n      pop\n        /* \"#utility.yul\":23973:23974   */\n      dup3\n        /* \"#utility.yul\":23970:23971   */\n      dup3\n        /* \"#utility.yul\":23966:23975   */\n      add\n        /* \"#utility.yul\":23959:23975   */\n      swap1\n      pop\n        /* \"#utility.yul\":23994:23997   */\n      dup1\n        /* \"#utility.yul\":23991:23992   */\n      dup3\n        /* \"#utility.yul\":23988:23998   */\n      gt\n        /* \"#utility.yul\":23985:24021   */\n      iszero\n      tag_449\n      jumpi\n        /* \"#utility.yul\":24001:24019   */\n      tag_450\n      tag_213\n      jump\t// in\n    tag_450:\n        /* \"#utility.yul\":23985:24021   */\n    tag_449:\n        /* \"#utility.yul\":23837:24028   */\n      swap3\n      swap2\n      pop\n      pop\n      jump\t// out\n        /* \"#utility.yul\":24034:24183   */\n    tag_214:\n        /* \"#utility.yul\":24083:24089   */\n      0x00\n        /* \"#utility.yul\":24117:24122   */\n      dup2\n        /* \"#utility.yul\":24111:24123   */\n      sload\n        /* \"#utility.yul\":24101:24123   */\n      swap1\n      pop\n        /* \"#utility.yul\":24143:24176   */\n      tag_452\n        /* \"#utility.yul\":24169:24175   */\n      dup2\n        /* \"#utility.yul\":24143:24176   */\n      tag_53\n      jump\t// in\n    tag_452:\n        /* \"#utility.yul\":24133:24176   */\n      swap1\n      pop\n        /* \"#utility.yul\":24034:24183   */\n      swap2\n      swap1\n      pop\n      jump\t// out\n        /* \"#utility.yul\":24189:25640   */\n    tag_127:\n        /* \"#utility.yul\":24300:24303   */\n      dup2\n        /* \"#utility.yul\":24294:24298   */\n      dup2\n        /* \"#utility.yul\":24291:24304   */\n      sub\n        /* \"#utility.yul\":24288:24314   */\n      tag_454\n      jumpi\n        /* \"#utility.yul\":24307:24312   */\n      pop\n      pop\n      jump(tag_453)\n        /* \"#utility.yul\":24288:24314   */\n    tag_454:\n        /* \"#utility.yul\":24338:24372   */\n      tag_455\n        /* \"#utility.yul\":24368:24371   */\n      dup3\n        /* \"#utility.yul\":24338:24372   */\n      tag_214\n      jump\t// in\n    tag_455:\n        /* \"#utility.yul\":24437:24455   */\n      0xffffffffffffffff\n        /* \"#utility.yul\":24429:24435   */\n      dup2\n        /* \"#utility.yul\":24426:24456   */\n      gt\n        /* \"#utility.yul\":24423:24479   */\n      iszero\n      tag_456\n      jumpi\n        /* \"#utility.yul\":24459:24477   */\n      tag_457\n      tag_188\n      jump\t// in\n    tag_457:\n        /* \"#utility.yul\":24423:24479   */\n    tag_456:\n        /* \"#utility.yul\":24503:24541   */\n      tag_458\n        /* \"#utility.yul\":24535:24539   */\n      dup3\n        /* \"#utility.yul\":24529:24540   */\n      sload\n        /* \"#utility.yul\":24503:24541   */\n      tag_53\n      jump\t// in\n    tag_458:\n        /* \"#utility.yul\":24588:24655   */\n      tag_459\n        /* \"#utility.yul\":24648:24654   */\n      dup3\n        /* \"#utility.yul\":24640:24646   */\n      dup3\n        /* \"#utility.yul\":24634:24638   */\n      dup6\n        /* \"#utility.yul\":24588:24655   */\n      tag_209\n      jump\t// in\n    tag_459:\n        /* \"#utility.yul\":24682:24683   */\n      0x00\n        /* \"#utility.yul\":24711:24713   */\n      0x1f\n        /* \"#utility.yul\":24703:24709   */\n      dup4\n        /* \"#utility.yul\":24700:24714   */\n      gt\n        /* \"#utility.yul\":24728:24729   */\n      0x01\n        /* \"#utility.yul\":24723:25395   */\n      dup2\n      eq\n      tag_461\n      jumpi\n        /* \"#utility.yul\":25439:25440   */\n      0x00\n        /* \"#utility.yul\":25456:25462   */\n      dup5\n        /* \"#utility.yul\":25453:25530   */\n      iszero\n      tag_462\n      jumpi\n        /* \"#utility.yul\":25505:25514   */\n      dup3\n        /* \"#utility.yul\":25500:25503   */\n      dup8\n        /* \"#utility.yul\":25496:25515   */\n      add\n        /* \"#utility.yul\":25490:25516   */\n      sload\n        /* \"#utility.yul\":25481:25516   */\n      swap1\n      pop\n        /* \"#utility.yul\":25453:25530   */\n    tag_462:\n        /* \"#utility.yul\":25556:25623   */\n      tag_463\n        /* \"#utility.yul\":25616:25622   */\n      dup6\n        /* \"#utility.yul\":25609:25614   */\n      dup3\n        /* \"#utility.yul\":25556:25623   */\n      tag_212\n      jump\t// in\n    tag_463:\n        /* \"#utility.yul\":25550:25554   */\n      dup7\n        /* \"#utility.yul\":25543:25624   */\n      sstore\n        /* \"#utility.yul\":25412:25634   */\n      pop\n        /* \"#utility.yul\":24693:25634   */\n      jump(tag_460)\n        /* \"#utility.yul\":24723:25395   */\n    tag_461:\n        /* \"#utility.yul\":24775:24779   */\n      0x1f\n        /* \"#utility.yul\":24771:24780   */\n      not\n        /* \"#utility.yul\":24763:24769   */\n      dup5\n        /* \"#utility.yul\":24759:24781   */\n      and\n        /* \"#utility.yul\":24801:24837   */\n      tag_464\n        /* \"#utility.yul\":24833:24836   */\n      dup8\n        /* \"#utility.yul\":24801:24837   */\n      tag_198\n      jump\t// in\n    tag_464:\n        /* \"#utility.yul\":24794:24837   */\n      swap7\n      pop\n        /* \"#utility.yul\":24864:24901   */\n      tag_465\n        /* \"#utility.yul\":24896:24900   */\n      dup7\n        /* \"#utility.yul\":24864:24901   */\n      tag_198\n      jump\t// in\n    tag_465:\n        /* \"#utility.yul\":24923:24924   */\n      0x00\n        /* \"#utility.yul\":24937:25144   */\n    tag_466:\n        /* \"#utility.yul\":24951:24958   */\n      dup3\n        /* \"#utility.yul\":24948:24949   */\n      dup2\n        /* \"#utility.yul\":24945:24959   */\n      lt\n        /* \"#utility.yul\":24937:25144   */\n      iszero\n      tag_468\n      jumpi\n        /* \"#utility.yul\":25030:25039   */\n      dup5\n        /* \"#utility.yul\":25025:25028   */\n      dup10\n        /* \"#utility.yul\":25021:25040   */\n      add\n        /* \"#utility.yul\":25015:25041   */\n      sload\n        /* \"#utility.yul\":25007:25013   */\n      dup3\n        /* \"#utility.yul\":25000:25042   */\n      sstore\n        /* \"#utility.yul\":25081:25082   */\n      0x01\n        /* \"#utility.yul\":25073:25079   */\n      dup3\n        /* \"#utility.yul\":25069:25083   */\n      add\n        /* \"#utility.yul\":25059:25083   */\n      swap2\n      pop\n        /* \"#utility.yul\":25128:25129   */\n      0x01\n        /* \"#utility.yul\":25117:25126   */\n      dup6\n        /* \"#utility.yul\":25113:25130   */\n      add\n        /* \"#utility.yul\":25100:25130   */\n      swap5\n      pop\n        /* \"#utility.yul\":24974:24978   */\n      0x20\n        /* \"#utility.yul\":24971:24972   */\n      dup2\n        /* \"#utility.yul\":24967:24979   */\n      add\n        /* \"#utility.yul\":24962:24979   */\n      swap1\n      pop\n        /* \"#utility.yul\":24937:25144   */\n      jump(tag_466)\n    tag_468:\n        /* \"#utility.yul\":25172:25178   */\n      dup7\n        /* \"#utility.yul\":25163:25170   */\n      dup4\n        /* \"#utility.yul\":25160:25179   */\n      lt\n        /* \"#utility.yul\":25157:25336   */\n      iszero\n      tag_469\n      jumpi\n        /* \"#utility.yul\":25230:25239   */\n      dup5\n        /* \"#utility.yul\":25225:25228   */\n      dup10\n        /* \"#utility.yul\":25221:25240   */\n      add\n        /* \"#utility.yul\":25215:25241   */\n      sload\n        /* \"#utility.yul\":25273:25321   */\n      tag_470\n        /* \"#utility.yul\":25315:25319   */\n      0x1f\n        /* \"#utility.yul\":25307:25313   */\n      dup10\n        /* \"#utility.yul\":25303:25320   */\n      and\n        /* \"#utility.yul\":25292:25301   */\n      dup3\n        /* \"#utility.yul\":25273:25321   */\n      tag_211\n      jump\t// in\n    tag_470:\n        /* \"#utility.yul\":25265:25271   */\n      dup4\n        /* \"#utility.yul\":25258:25322   */\n      sstore\n        /* \"#utility.yul\":25180:25336   */\n      pop\n        /* \"#utility.yul\":25157:25336   */\n    tag_469:\n        /* \"#utility.yul\":25382:25383   */\n      0x01\n        /* \"#utility.yul\":25378:25379   */\n      0x02\n        /* \"#utility.yul\":25370:25376   */\n      dup9\n        /* \"#utility.yul\":25366:25380   */\n      mul\n        /* \"#utility.yul\":25362:25384   */\n      add\n        /* \"#utility.yul\":25356:25360   */\n      dup9\n        /* \"#utility.yul\":25349:25385   */\n      sstore\n        /* \"#utility.yul\":24730:25395   */\n      pop\n      pop\n      pop\n        /* \"#utility.yul\":24693:25634   */\n    tag_460:\n      pop\n        /* \"#utility.yul\":24278:25640   */\n      pop\n      pop\n      pop\n        /* \"#utility.yul\":24189:25640   */\n      pop\n      pop\n    tag_453:\n      jump\t// out\n        /* \"#utility.yul\":25646:25794   */\n    tag_215:\n        /* \"#utility.yul\":25748:25759   */\n      0x00\n        /* \"#utility.yul\":25785:25788   */\n      dup2\n        /* \"#utility.yul\":25770:25788   */\n      swap1\n      pop\n        /* \"#utility.yul\":25646:25794   */\n      swap3\n      swap2\n      pop\n      pop\n      jump\t// out\n        /* \"#utility.yul\":25800:26190   */\n    tag_216:\n        /* \"#utility.yul\":25906:25909   */\n      0x00\n        /* \"#utility.yul\":25934:25973   */\n      tag_473\n        /* \"#utility.yul\":25967:25972   */\n      dup3\n        /* \"#utility.yul\":25934:25973   */\n      tag_169\n      jump\t// in\n    tag_473:\n        /* \"#utility.yul\":25989:26078   */\n      tag_474\n        /* \"#utility.yul\":26071:26077   */\n      dup2\n        /* \"#utility.yul\":26066:26069   */\n      dup6\n        /* \"#utility.yul\":25989:26078   */\n      tag_215\n      jump\t// in\n    tag_474:\n        /* \"#utility.yul\":25982:26078   */\n      swap4\n      pop\n        /* \"#utility.yul\":26087:26152   */\n      tag_475\n        /* \"#utility.yul\":26145:26151   */\n      dup2\n        /* \"#utility.yul\":26140:26143   */\n      dup6\n        /* \"#utility.yul\":26133:26137   */\n      0x20\n        /* \"#utility.yul\":26126:26131   */\n      dup7\n        /* \"#utility.yul\":26122:26138   */\n      add\n        /* \"#utility.yul\":26087:26152   */\n      tag_171\n      jump\t// in\n    tag_475:\n        /* \"#utility.yul\":26177:26183   */\n      dup1\n        /* \"#utility.yul\":26172:26175   */\n      dup5\n        /* \"#utility.yul\":26168:26184   */\n      add\n        /* \"#utility.yul\":26161:26184   */\n      swap2\n      pop\n        /* \"#utility.yul\":25910:26190   */\n      pop\n        /* \"#utility.yul\":25800:26190   */\n      swap3\n      swap2\n      pop\n      pop\n      jump\t// out\n        /* \"#utility.yul\":26196:26471   */\n    tag_135:\n        /* \"#utility.yul\":26328:26331   */\n      0x00\n        /* \"#utility.yul\":26350:26445   */\n      tag_477\n        /* \"#utility.yul\":26441:26444   */\n      dup3\n        /* \"#utility.yul\":26432:26438   */\n      dup5\n        /* \"#utility.yul\":26350:26445   */\n      tag_216\n      jump\t// in\n    tag_477:\n        /* \"#utility.yul\":26343:26445   */\n      swap2\n      pop\n        /* \"#utility.yul\":26462:26465   */\n      dup2\n        /* \"#utility.yul\":26455:26465   */\n      swap1\n      pop\n        /* \"#utility.yul\":26196:26471   */\n      swap3\n      swap2\n      pop\n      pop\n      jump\t// out\n\n    auxdata: 0xa26469706673582212202a3d04cbb3c7429b3d5be855218ff411bba7afe04d4cd49965b5fe9d509686e064736f6c63430008180033\n}\n",
				"bytecode": {
					"linkReferences": {},
					"object": "608060405234801561000f575f80fd5b50611b438061001d5f395ff3fe608060405234801561000f575f80fd5b5060043610610086575f3560e01c806345eb8e9f1161005957806345eb8e9f1461012257806361c1cb701461015257806384efd1d31461016e5780639ac8caa01461018a57610086565b80632957b5201461008a57806338f69348146100a65780633fabf1b3146100d657806341f5b72e146100f2575b5f80fd5b6100a4600480360381019061009f9190610e9b565b6101a6565b005b6100c060048036038101906100bb9190610ed9565b6101aa565b6040516100cd91906110da565b60405180910390f35b6100f060048036038101906100eb9190610ed9565b6103aa565b005b61010c60048036038101906101079190610ed9565b6103ad565b6040516101199190611248565b60405180910390f35b61013c60048036038101906101379190610ed9565b61089d565b6040516101499190611277565b60405180910390f35b61016c600480360381019061016791906113bc565b6108bd565b005b610188600480360381019061018391906114fb565b610934565b005b6101a4600480360381019061019f9190611597565b610a4a565b005b5050565b606060015f8381526020019081526020015f20600601805480602002602001604051908101604052809291908181526020015f905b8282101561039f578382905f5260205f2090600402016040518060800160405290815f8201805461020f906116c7565b80601f016020809104026020016040519081016040528092919081815260200182805461023b906116c7565b80156102865780601f1061025d57610100808354040283529160200191610286565b820191905f5260205f20905b81548152906001019060200180831161026957829003601f168201915b50505050508152602001600182015f9054906101000a900460ff1660ff1660ff1681526020016002820180546102bb906116c7565b80601f01602080910402602001604051908101604052809291908181526020018280546102e7906116c7565b80156103325780601f1061030957610100808354040283529160200191610332565b820191905f5260205f20905b81548152906001019060200180831161031557829003601f168201915b50505050508152602001600382015f9054906101000a900473ffffffffffffffffffffffffffffffffffffffff1673ffffffffffffffffffffffffffffffffffffffff1673ffffffffffffffffffffffffffffffffffffffff1681525050815260200190600101906101df565b505050509050919050565b50565b6103b5610bef565b60015f8381526020019081526020015f206040518060e00160405290815f82015481526020016001820180546103ea906116c7565b80601f0160208091040260200160405190810160405280929190818152602001828054610416906116c7565b80156104615780601f1061043857610100808354040283529160200191610461565b820191905f5260205f20905b81548152906001019060200180831161044457829003601f168201915b5050505050815260200160028201805461047a906116c7565b80601f01602080910402602001604051908101604052809291908181526020018280546104a6906116c7565b80156104f15780601f106104c8576101008083540402835291602001916104f1565b820191905f5260205f20905b8154815290600101906020018083116104d457829003601f168201915b5050505050815260200160038201805461050a906116c7565b80601f0160208091040260200160405190810160405280929190818152602001828054610536906116c7565b80156105815780601f1061055857610100808354040283529160200191610581565b820191905f5260205f20905b81548152906001019060200180831161056457829003601f168201915b5050505050815260200160048201805461059a906116c7565b80601f01602080910402602001604051908101604052809291908181526020018280546105c6906116c7565b80156106115780601f106105e857610100808354040283529160200191610611565b820191905f5260205f20905b8154815290600101906020018083116105f457829003601f168201915b5050505050815260200160058201805461062a906116c7565b80601f0160208091040260200160405190810160405280929190818152602001828054610656906116c7565b80156106a15780601f10610678576101008083540402835291602001916106a1565b820191905f5260205f20905b81548152906001019060200180831161068457829003601f168201915b5050505050815260200160068201805480602002602001604051908101604052809291908181526020015f905b8282101561088e578382905f5260205f2090600402016040518060800160405290815f820180546106fe906116c7565b80601f016020809104026020016040519081016040528092919081815260200182805461072a906116c7565b80156107755780601f1061074c57610100808354040283529160200191610775565b820191905f5260205f20905b81548152906001019060200180831161075857829003601f168201915b50505050508152602001600182015f9054906101000a900460ff1660ff1660ff1681526020016002820180546107aa906116c7565b80601f01602080910402602001604051908101604052809291908181526020018280546107d6906116c7565b80156108215780601f106107f857610100808354040283529160200191610821565b820191905f5260205f20905b81548152906001019060200180831161080457829003601f168201915b50505050508152602001600382015f9054906101000a900473ffffffffffffffffffffffffffffffffffffffff1673ffffffffffffffffffffffffffffffffffffffff1673ffffffffffffffffffffffffffffffffffffffff1681525050815260200190600101906106ce565b50505050815250509050919050565b5f60015f8381526020019081526020015f20600601805490509050919050565b5f60015f8881526020019081526020015f209050858160010190816108e29190611894565b50848160020190816108f49190611894565b50838160030190816109069190611894565b50828160040190816109189190611894565b508181600501908161092a9190611894565b5050505050505050565b5f60405180608001604052808581526020018360ff1681526020018481526020013373ffffffffffffffffffffffffffffffffffffffff1681525090505f60015f8781526020019081526020015f2090508060060182908060018154018082558091505060019003905f5260205f2090600402015f909190919091505f820151815f0190816109c39190611894565b506020820151816001015f6101000a81548160ff021916908360ff16021790555060408201518160020190816109f99190611894565b506060820151816003015f6101000a81548173ffffffffffffffffffffffffffffffffffffffff021916908373ffffffffffffffffffffffffffffffffffffffff1602179055505050505050505050565b6001600254610a599190611990565b6002819055505f60025490505f60015f8381526020019081526020015f20905081815f018190555086816001019081610a929190611894565b5085816002019081610aa49190611894565b5084816003019081610ab69190611894565b5083816004019081610ac89190611894565b5082816005019081610ada9190611894565b505f81908060018154018082558091505060019003905f5260205f2090600702015f909190919091505f820154815f015560018201816001019081610b1f91906119d8565b5060028201816002019081610b3491906119d8565b5060038201816003019081610b4991906119d8565b5060048201816004019081610b5e91906119d8565b5060058201816005019081610b7391906119d8565b506006820181600601908054610b8a929190610c2b565b50505084604051610b9b9190611af7565b604051809103902087604051610bb19190611af7565b6040518091039020837f2eaf5c3aec496fce10b5616bd077441243efa6fd20f3ae98eb388b9d48a288ae60405160405180910390a450505050505050565b6040518060e001604052805f81526020016060815260200160608152602001606081526020016060815260200160608152602001606081525090565b828054828255905f5260205f20906004028101928215610d27575f5260205f209160040282015b82811115610d265782825f8201815f019081610c6e91906119d8565b50600182015f9054906101000a900460ff16816001015f6101000a81548160ff021916908360ff16021790555060028201816002019081610caf91906119d8565b50600382015f9054906101000a900473ffffffffffffffffffffffffffffffffffffffff16816003015f6101000a81548173ffffffffffffffffffffffffffffffffffffffff021916908373ffffffffffffffffffffffffffffffffffffffff160217905550505091600401919060040190610c52565b5b509050610d349190610d38565b5090565b5b80821115610da1575f8082015f610d509190610da5565b600182015f6101000a81549060ff0219169055600282015f610d729190610da5565b600382015f6101000a81549073ffffffffffffffffffffffffffffffffffffffff021916905550600401610d39565b5090565b508054610db1906116c7565b5f825580601f10610dc25750610ddf565b601f0160209004905f5260205f2090810190610dde9190610de2565b5b50565b5b80821115610df9575f815f905550600101610de3565b5090565b5f604051905090565b5f80fd5b5f80fd5b5f819050919050565b610e2081610e0e565b8114610e2a575f80fd5b50565b5f81359050610e3b81610e17565b92915050565b5f73ffffffffffffffffffffffffffffffffffffffff82169050919050565b5f610e6a82610e41565b9050919050565b610e7a81610e60565b8114610e84575f80fd5b50565b5f81359050610e9581610e71565b92915050565b5f8060408385031215610eb157610eb0610e06565b5b5f610ebe85828601610e2d565b9250506020610ecf85828601610e87565b9150509250929050565b5f60208284031215610eee57610eed610e06565b5b5f610efb84828501610e2d565b91505092915050565b5f81519050919050565b5f82825260208201905092915050565b5f819050602082019050919050565b5f81519050919050565b5f82825260208201905092915050565b5f5b83811015610f64578082015181840152602081019050610f49565b5f8484015250505050565b5f601f19601f8301169050919050565b5f610f8982610f2d565b610f938185610f37565b9350610fa3818560208601610f47565b610fac81610f6f565b840191505092915050565b5f60ff82169050919050565b610fcc81610fb7565b82525050565b610fdb81610e60565b82525050565b5f608083015f8301518482035f860152610ffb8282610f7f565b91505060208301516110106020860182610fc3565b50604083015184820360408601526110288282610f7f565b915050606083015161103d6060860182610fd2565b508091505092915050565b5f6110538383610fe1565b905092915050565b5f602082019050919050565b5f61107182610f04565b61107b8185610f0e565b93508360208202850161108d85610f1e565b805f5b858110156110c857848403895281516110a98582611048565b94506110b48361105b565b925060208a01995050600181019050611090565b50829750879550505050505092915050565b5f6020820190508181035f8301526110f28184611067565b905092915050565b61110381610e0e565b82525050565b5f82825260208201905092915050565b5f61112382610f04565b61112d8185611109565b93508360208202850161113f85610f1e565b805f5b8581101561117a578484038952815161115b8582611048565b94506111668361105b565b925060208a01995050600181019050611142565b50829750879550505050505092915050565b5f60e083015f8301516111a15f8601826110fa565b50602083015184820360208601526111b98282610f7f565b915050604083015184820360408601526111d38282610f7f565b915050606083015184820360608601526111ed8282610f7f565b915050608083015184820360808601526112078282610f7f565b91505060a083015184820360a08601526112218282610f7f565b91505060c083015184820360c086015261123b8282611119565b9150508091505092915050565b5f6020820190508181035f830152611260818461118c565b905092915050565b61127181610e0e565b82525050565b5f60208201905061128a5f830184611268565b92915050565b5f80fd5b5f80fd5b7f4e487b71000000000000000000000000000000000000000000000000000000005f52604160045260245ffd5b6112ce82610f6f565b810181811067ffffffffffffffff821117156112ed576112ec611298565b5b80604052505050565b5f6112ff610dfd565b905061130b82826112c5565b919050565b5f67ffffffffffffffff82111561132a57611329611298565b5b61133382610f6f565b9050602081019050919050565b828183375f83830152505050565b5f61136061135b84611310565b6112f6565b90508281526020810184848401111561137c5761137b611294565b5b611387848285611340565b509392505050565b5f82601f8301126113a3576113a2611290565b5b81356113b384826020860161134e565b91505092915050565b5f805f805f8060c087890312156113d6576113d5610e06565b5b5f6113e389828a01610e2d565b965050602087013567ffffffffffffffff81111561140457611403610e0a565b5b61141089828a0161138f565b955050604087013567ffffffffffffffff81111561143157611430610e0a565b5b61143d89828a0161138f565b945050606087013567ffffffffffffffff81111561145e5761145d610e0a565b5b61146a89828a0161138f565b935050608087013567ffffffffffffffff81111561148b5761148a610e0a565b5b61149789828a0161138f565b92505060a087013567ffffffffffffffff8111156114b8576114b7610e0a565b5b6114c489828a0161138f565b9150509295509295509295565b6114da81610fb7565b81146114e4575f80fd5b50565b5f813590506114f5816114d1565b92915050565b5f805f806080858703121561151357611512610e06565b5b5f61152087828801610e2d565b945050602085013567ffffffffffffffff81111561154157611540610e0a565b5b61154d8782880161138f565b935050604085013567ffffffffffffffff81111561156e5761156d610e0a565b5b61157a8782880161138f565b925050606061158b878288016114e7565b91505092959194509250565b5f805f805f60a086880312156115b0576115af610e06565b5b5f86013567ffffffffffffffff8111156115cd576115cc610e0a565b5b6115d98882890161138f565b955050602086013567ffffffffffffffff8111156115fa576115f9610e0a565b5b6116068882890161138f565b945050604086013567ffffffffffffffff81111561162757611626610e0a565b5b6116338882890161138f565b935050606086013567ffffffffffffffff81111561165457611653610e0a565b5b6116608882890161138f565b925050608086013567ffffffffffffffff81111561168157611680610e0a565b5b61168d8882890161138f565b9150509295509295909350565b7f4e487b71000000000000000000000000000000000000000000000000000000005f52602260045260245ffd5b5f60028204905060018216806116de57607f821691505b6020821081036116f1576116f061169a565b5b50919050565b5f819050815f5260205f209050919050565b5f6020601f8301049050919050565b5f82821b905092915050565b5f600883026117537fffffffffffffffffffffffffffffffffffffffffffffffffffffffffffffffff82611718565b61175d8683611718565b95508019841693508086168417925050509392505050565b5f819050919050565b5f61179861179361178e84610e0e565b611775565b610e0e565b9050919050565b5f819050919050565b6117b18361177e565b6117c56117bd8261179f565b848454611724565b825550505050565b5f90565b6117d96117cd565b6117e48184846117a8565b505050565b5b81811015611807576117fc5f826117d1565b6001810190506117ea565b5050565b601f82111561184c5761181d816116f7565b61182684611709565b81016020851015611835578190505b61184961184185611709565b8301826117e9565b50505b505050565b5f82821c905092915050565b5f61186c5f1984600802611851565b1980831691505092915050565b5f611884838361185d565b9150826002028217905092915050565b61189d82610f2d565b67ffffffffffffffff8111156118b6576118b5611298565b5b6118c082546116c7565b6118cb82828561180b565b5f60209050601f8311600181146118fc575f84156118ea578287015190505b6118f48582611879565b86555061195b565b601f19841661190a866116f7565b5f5b828110156119315784890151825560018201915060208501945060208101905061190c565b8683101561194e578489015161194a601f89168261185d565b8355505b6001600288020188555050505b505050505050565b7f4e487b71000000000000000000000000000000000000000000000000000000005f52601160045260245ffd5b5f61199a82610e0e565b91506119a583610e0e565b92508282019050808211156119bd576119bc611963565b5b92915050565b5f815490506119d1816116c7565b9050919050565b8181036119e6575050611abb565b6119ef826119c3565b67ffffffffffffffff811115611a0857611a07611298565b5b611a1282546116c7565b611a1d82828561180b565b5f601f831160018114611a4a575f8415611a38578287015490505b611a428582611879565b865550611ab4565b601f198416611a58876116f7565b9650611a63866116f7565b5f5b82811015611a8a57848901548255600182019150600185019450602081019050611a65565b86831015611aa75784890154611aa3601f89168261185d565b8355505b6001600288020188555050505b5050505050505b565b5f81905092915050565b5f611ad182610f2d565b611adb8185611abd565b9350611aeb818560208601610f47565b80840191505092915050565b5f611b028284611ac7565b91508190509291505056fea26469706673582212202a3d04cbb3c7429b3d5be855218ff411bba7afe04d4cd49965b5fe9d509686e064736f6c63430008180033",
					"opcodes": "PUSH1 0x80 PUSH1 0x40 MSTORE CALLVALUE DUP1 ISZERO PUSH2 0xF JUMPI PUSH0 DUP1 REVERT JUMPDEST POP PUSH2 0x1B43 DUP1 PUSH2 0x1D PUSH0 CODECOPY PUSH0 RETURN INVALID PUSH1 0x80 PUSH1 0x40 MSTORE CALLVALUE DUP1 ISZERO PUSH2 0xF JUMPI PUSH0 DUP1 REVERT JUMPDEST POP PUSH1 0x4 CALLDATASIZE LT PUSH2 0x86 JUMPI PUSH0 CALLDATALOAD PUSH1 0xE0 SHR DUP1 PUSH4 0x45EB8E9F GT PUSH2 0x59 JUMPI DUP1 PUSH4 0x45EB8E9F EQ PUSH2 0x122 JUMPI DUP1 PUSH4 0x61C1CB70 EQ PUSH2 0x152 JUMPI DUP1 PUSH4 0x84EFD1D3 EQ PUSH2 0x16E JUMPI DUP1 PUSH4 0x9AC8CAA0 EQ PUSH2 0x18A JUMPI PUSH2 0x86 JUMP JUMPDEST DUP1 PUSH4 0x2957B520 EQ PUSH2 0x8A JUMPI DUP1 PUSH4 0x38F69348 EQ PUSH2 0xA6 JUMPI DUP1 PUSH4 0x3FABF1B3 EQ PUSH2 0xD6 JUMPI DUP1 PUSH4 0x41F5B72E EQ PUSH2 0xF2 JUMPI JUMPDEST PUSH0 DUP1 REVERT JUMPDEST PUSH2 0xA4 PUSH1 0x4 DUP1 CALLDATASIZE SUB DUP2 ADD SWAP1 PUSH2 0x9F SWAP2 SWAP1 PUSH2 0xE9B JUMP JUMPDEST PUSH2 0x1A6 JUMP JUMPDEST STOP JUMPDEST PUSH2 0xC0 PUSH1 0x4 DUP1 CALLDATASIZE SUB DUP2 ADD SWAP1 PUSH2 0xBB SWAP2 SWAP1 PUSH2 0xED9 JUMP JUMPDEST PUSH2 0x1AA JUMP JUMPDEST PUSH1 0x40 MLOAD PUSH2 0xCD SWAP2 SWAP1 PUSH2 0x10DA JUMP JUMPDEST PUSH1 0x40 MLOAD DUP1 SWAP2 SUB SWAP1 RETURN JUMPDEST PUSH2 0xF0 PUSH1 0x4 DUP1 CALLDATASIZE SUB DUP2 ADD SWAP1 PUSH2 0xEB SWAP2 SWAP1 PUSH2 0xED9 JUMP JUMPDEST PUSH2 0x3AA JUMP JUMPDEST STOP JUMPDEST PUSH2 0x10C PUSH1 0x4 DUP1 CALLDATASIZE SUB DUP2 ADD SWAP1 PUSH2 0x107 SWAP2 SWAP1 PUSH2 0xED9 JUMP JUMPDEST PUSH2 0x3AD JUMP JUMPDEST PUSH1 0x40 MLOAD PUSH2 0x119 SWAP2 SWAP1 PUSH2 0x1248 JUMP JUMPDEST PUSH1 0x40 MLOAD DUP1 SWAP2 SUB SWAP1 RETURN JUMPDEST PUSH2 0x13C PUSH1 0x4 DUP1 CALLDATASIZE SUB DUP2 ADD SWAP1 PUSH2 0x137 SWAP2 SWAP1 PUSH2 0xED9 JUMP JUMPDEST PUSH2 0x89D JUMP JUMPDEST PUSH1 0x40 MLOAD PUSH2 0x149 SWAP2 SWAP1 PUSH2 0x1277 JUMP JUMPDEST PUSH1 0x40 MLOAD DUP1 SWAP2 SUB SWAP1 RETURN JUMPDEST PUSH2 0x16C PUSH1 0x4 DUP1 CALLDATASIZE SUB DUP2 ADD SWAP1 PUSH2 0x167 SWAP2 SWAP1 PUSH2 0x13BC JUMP JUMPDEST PUSH2 0x8BD JUMP JUMPDEST STOP JUMPDEST PUSH2 0x188 PUSH1 0x4 DUP1 CALLDATASIZE SUB DUP2 ADD SWAP1 PUSH2 0x183 SWAP2 SWAP1 PUSH2 0x14FB JUMP JUMPDEST PUSH2 0x934 JUMP JUMPDEST STOP JUMPDEST PUSH2 0x1A4 PUSH1 0x4 DUP1 CALLDATASIZE SUB DUP2 ADD SWAP1 PUSH2 0x19F SWAP2 SWAP1 PUSH2 0x1597 JUMP JUMPDEST PUSH2 0xA4A JUMP JUMPDEST STOP JUMPDEST POP POP JUMP JUMPDEST PUSH1 0x60 PUSH1 0x1 PUSH0 DUP4 DUP2 MSTORE PUSH1 0x20 ADD SWAP1 DUP2 MSTORE PUSH1 0x20 ADD PUSH0 KECCAK256 PUSH1 0x6 ADD DUP1 SLOAD DUP1 PUSH1 0x20 MUL PUSH1 0x20 ADD PUSH1 0x40 MLOAD SWAP1 DUP2 ADD PUSH1 0x40 MSTORE DUP1 SWAP3 SWAP2 SWAP1 DUP2 DUP2 MSTORE PUSH1 0x20 ADD PUSH0 SWAP1 JUMPDEST DUP3 DUP3 LT ISZERO PUSH2 0x39F JUMPI DUP4 DUP3 SWAP1 PUSH0 MSTORE PUSH1 0x20 PUSH0 KECCAK256 SWAP1 PUSH1 0x4 MUL ADD PUSH1 0x40 MLOAD DUP1 PUSH1 0x80 ADD PUSH1 0x40 MSTORE SWAP1 DUP2 PUSH0 DUP3 ADD DUP1 SLOAD PUSH2 0x20F SWAP1 PUSH2 0x16C7 JUMP JUMPDEST DUP1 PUSH1 0x1F ADD PUSH1 0x20 DUP1 SWAP2 DIV MUL PUSH1 0x20 ADD PUSH1 0x40 MLOAD SWAP1 DUP2 ADD PUSH1 0x40 MSTORE DUP1 SWAP3 SWAP2 SWAP1 DUP2 DUP2 MSTORE PUSH1 0x20 ADD DUP3 DUP1 SLOAD PUSH2 0x23B SWAP1 PUSH2 0x16C7 JUMP JUMPDEST DUP1 ISZERO PUSH2 0x286 JUMPI DUP1 PUSH1 0x1F LT PUSH2 0x25D JUMPI PUSH2 0x100 DUP1 DUP4 SLOAD DIV MUL DUP4 MSTORE SWAP2 PUSH1 0x20 ADD SWAP2 PUSH2 0x286 JUMP JUMPDEST DUP3 ADD SWAP2 SWAP1 PUSH0 MSTORE PUSH1 0x20 PUSH0 KECCAK256 SWAP1 JUMPDEST DUP2 SLOAD DUP2 MSTORE SWAP1 PUSH1 0x1 ADD SWAP1 PUSH1 0x20 ADD DUP1 DUP4 GT PUSH2 0x269 JUMPI DUP3 SWAP1 SUB PUSH1 0x1F AND DUP3 ADD SWAP2 JUMPDEST POP POP POP POP POP DUP2 MSTORE PUSH1 0x20 ADD PUSH1 0x1 DUP3 ADD PUSH0 SWAP1 SLOAD SWAP1 PUSH2 0x100 EXP SWAP1 DIV PUSH1 0xFF AND PUSH1 0xFF AND PUSH1 0xFF AND DUP2 MSTORE PUSH1 0x20 ADD PUSH1 0x2 DUP3 ADD DUP1 SLOAD PUSH2 0x2BB SWAP1 PUSH2 0x16C7 JUMP JUMPDEST DUP1 PUSH1 0x1F ADD PUSH1 0x20 DUP1 SWAP2 DIV MUL PUSH1 0x20 ADD PUSH1 0x40 MLOAD SWAP1 DUP2 ADD PUSH1 0x40 MSTORE DUP1 SWAP3 SWAP2 SWAP1 DUP2 DUP2 MSTORE PUSH1 0x20 ADD DUP3 DUP1 SLOAD PUSH2 0x2E7 SWAP1 PUSH2 0x16C7 JUMP JUMPDEST DUP1 ISZERO PUSH2 0x332 JUMPI DUP1 PUSH1 0x1F LT PUSH2 0x309 JUMPI PUSH2 0x100 DUP1 DUP4 SLOAD DIV MUL DUP4 MSTORE SWAP2 PUSH1 0x20 ADD SWAP2 PUSH2 0x332 JUMP JUMPDEST DUP3 ADD SWAP2 SWAP1 PUSH0 MSTORE PUSH1 0x20 PUSH0 KECCAK256 SWAP1 JUMPDEST DUP2 SLOAD DUP2 MSTORE SWAP1 PUSH1 0x1 ADD SWAP1 PUSH1 0x20 ADD DUP1 DUP4 GT PUSH2 0x315 JUMPI DUP3 SWAP1 SUB PUSH1 0x1F AND DUP3 ADD SWAP2 JUMPDEST POP POP POP POP POP DUP2 MSTORE PUSH1 0x20 ADD PUSH1 0x3 DUP3 ADD PUSH0 SWAP1 SLOAD SWAP1 PUSH2 0x100 EXP SWAP1 DIV PUSH20 0xFFFFFFFFFFFFFFFFFFFFFFFFFFFFFFFFFFFFFFFF AND PUSH20 0xFFFFFFFFFFFFFFFFFFFFFFFFFFFFFFFFFFFFFFFF AND PUSH20 0xFFFFFFFFFFFFFFFFFFFFFFFFFFFFFFFFFFFFFFFF AND DUP2 MSTORE POP POP DUP2 MSTORE PUSH1 0x20 ADD SWAP1 PUSH1 0x1 ADD SWAP1 PUSH2 0x1DF JUMP JUMPDEST POP POP POP POP SWAP1 POP SWAP2 SWAP1 POP JUMP JUMPDEST POP JUMP JUMPDEST PUSH2 0x3B5 PUSH2 0xBEF JUMP JUMPDEST PUSH1 0x1 PUSH0 DUP4 DUP2 MSTORE PUSH1 0x20 ADD SWAP1 DUP2 MSTORE PUSH1 0x20 ADD PUSH0 KECCAK256 PUSH1 0x40 MLOAD DUP1 PUSH1 0xE0 ADD PUSH1 0x40 MSTORE SWAP1 DUP2 PUSH0 DUP3 ADD SLOAD DUP2 MSTORE PUSH1 0x20 ADD PUSH1 0x1 DUP3 ADD DUP1 SLOAD PUSH2 0x3EA SWAP1 PUSH2 0x16C7 JUMP JUMPDEST DUP1 PUSH1 0x1F ADD PUSH1 0x20 DUP1 SWAP2 DIV MUL PUSH1 0x20 ADD PUSH1 0x40 MLOAD SWAP1 DUP2 ADD PUSH1 0x40 MSTORE DUP1 SWAP3 SWAP2 SWAP1 DUP2 DUP2 MSTORE PUSH1 0x20 ADD DUP3 DUP1 SLOAD PUSH2 0x416 SWAP1 PUSH2 0x16C7 JUMP JUMPDEST DUP1 ISZERO PUSH2 0x461 JUMPI DUP1 PUSH1 0x1F LT PUSH2 0x438 JUMPI PUSH2 0x100 DUP1 DUP4 SLOAD DIV MUL DUP4 MSTORE SWAP2 PUSH1 0x20 ADD SWAP2 PUSH2 0x461 JUMP JUMPDEST DUP3 ADD SWAP2 SWAP1 PUSH0 MSTORE PUSH1 0x20 PUSH0 KECCAK256 SWAP1 JUMPDEST DUP2 SLOAD DUP2 MSTORE SWAP1 PUSH1 0x1 ADD SWAP1 PUSH1 0x20 ADD DUP1 DUP4 GT PUSH2 0x444 JUMPI DUP3 SWAP1 SUB PUSH1 0x1F AND DUP3 ADD SWAP2 JUMPDEST POP POP POP POP POP DUP2 MSTORE PUSH1 0x20 ADD PUSH1 0x2 DUP3 ADD DUP1 SLOAD PUSH2 0x47A SWAP1 PUSH2 0x16C7 JUMP JUMPDEST DUP1 PUSH1 0x1F ADD PUSH1 0x20 DUP1 SWAP2 DIV MUL PUSH1 0x20 ADD PUSH1 0x40 MLOAD SWAP1 DUP2 ADD PUSH1 0x40 MSTORE DUP1 SWAP3 SWAP2 SWAP1 DUP2 DUP2 MSTORE PUSH1 0x20 ADD DUP3 DUP1 SLOAD PUSH2 0x4A6 SWAP1 PUSH2 0x16C7 JUMP JUMPDEST DUP1 ISZERO PUSH2 0x4F1 JUMPI DUP1 PUSH1 0x1F LT PUSH2 0x4C8 JUMPI PUSH2 0x100 DUP1 DUP4 SLOAD DIV MUL DUP4 MSTORE SWAP2 PUSH1 0x20 ADD SWAP2 PUSH2 0x4F1 JUMP JUMPDEST DUP3 ADD SWAP2 SWAP1 PUSH0 MSTORE PUSH1 0x20 PUSH0 KECCAK256 SWAP1 JUMPDEST DUP2 SLOAD DUP2 MSTORE SWAP1 PUSH1 0x1 ADD SWAP1 PUSH1 0x20 ADD DUP1 DUP4 GT PUSH2 0x4D4 JUMPI DUP3 SWAP1 SUB PUSH1 0x1F AND DUP3 ADD SWAP2 JUMPDEST POP POP POP POP POP DUP2 MSTORE PUSH1 0x20 ADD PUSH1 0x3 DUP3 ADD DUP1 SLOAD PUSH2 0x50A SWAP1 PUSH2 0x16C7 JUMP JUMPDEST DUP1 PUSH1 0x1F ADD PUSH1 0x20 DUP1 SWAP2 DIV MUL PUSH1 0x20 ADD PUSH1 0x40 MLOAD SWAP1 DUP2 ADD PUSH1 0x40 MSTORE DUP1 SWAP3 SWAP2 SWAP1 DUP2 DUP2 MSTORE PUSH1 0x20 ADD DUP3 DUP1 SLOAD PUSH2 0x536 SWAP1 PUSH2 0x16C7 JUMP JUMPDEST DUP1 ISZERO PUSH2 0x581 JUMPI DUP1 PUSH1 0x1F LT PUSH2 0x558 JUMPI PUSH2 0x100 DUP1 DUP4 SLOAD DIV MUL DUP4 MSTORE SWAP2 PUSH1 0x20 ADD SWAP2 PUSH2 0x581 JUMP JUMPDEST DUP3 ADD SWAP2 SWAP1 PUSH0 MSTORE PUSH1 0x20 PUSH0 KECCAK256 SWAP1 JUMPDEST DUP2 SLOAD DUP2 MSTORE SWAP1 PUSH1 0x1 ADD SWAP1 PUSH1 0x20 ADD DUP1 DUP4 GT PUSH2 0x564 JUMPI DUP3 SWAP1 SUB PUSH1 0x1F AND DUP3 ADD SWAP2 JUMPDEST POP POP POP POP POP DUP2 MSTORE PUSH1 0x20 ADD PUSH1 0x4 DUP3 ADD DUP1 SLOAD PUSH2 0x59A SWAP1 PUSH2 0x16C7 JUMP JUMPDEST DUP1 PUSH1 0x1F ADD PUSH1 0x20 DUP1 SWAP2 DIV MUL PUSH1 0x20 ADD PUSH1 0x40 MLOAD SWAP1 DUP2 ADD PUSH1 0x40 MSTORE DUP1 SWAP3 SWAP2 SWAP1 DUP2 DUP2 MSTORE PUSH1 0x20 ADD DUP3 DUP1 SLOAD PUSH2 0x5C6 SWAP1 PUSH2 0x16C7 JUMP JUMPDEST DUP1 ISZERO PUSH2 0x611 JUMPI DUP1 PUSH1 0x1F LT PUSH2 0x5E8 JUMPI PUSH2 0x100 DUP1 DUP4 SLOAD DIV MUL DUP4 MSTORE SWAP2 PUSH1 0x20 ADD SWAP2 PUSH2 0x611 JUMP JUMPDEST DUP3 ADD SWAP2 SWAP1 PUSH0 MSTORE PUSH1 0x20 PUSH0 KECCAK256 SWAP1 JUMPDEST DUP2 SLOAD DUP2 MSTORE SWAP1 PUSH1 0x1 ADD SWAP1 PUSH1 0x20 ADD DUP1 DUP4 GT PUSH2 0x5F4 JUMPI DUP3 SWAP1 SUB PUSH1 0x1F AND DUP3 ADD SWAP2 JUMPDEST POP POP POP POP POP DUP2 MSTORE PUSH1 0x20 ADD PUSH1 0x5 DUP3 ADD DUP1 SLOAD PUSH2 0x62A SWAP1 PUSH2 0x16C7 JUMP JUMPDEST DUP1 PUSH1 0x1F ADD PUSH1 0x20 DUP1 SWAP2 DIV MUL PUSH1 0x20 ADD PUSH1 0x40 MLOAD SWAP1 DUP2 ADD PUSH1 0x40 MSTORE DUP1 SWAP3 SWAP2 SWAP1 DUP2 DUP2 MSTORE PUSH1 0x20 ADD DUP3 DUP1 SLOAD PUSH2 0x656 SWAP1 PUSH2 0x16C7 JUMP JUMPDEST DUP1 ISZERO PUSH2 0x6A1 JUMPI DUP1 PUSH1 0x1F LT PUSH2 0x678 JUMPI PUSH2 0x100 DUP1 DUP4 SLOAD DIV MUL DUP4 MSTORE SWAP2 PUSH1 0x20 ADD SWAP2 PUSH2 0x6A1 JUMP JUMPDEST DUP3 ADD SWAP2 SWAP1 PUSH0 MSTORE PUSH1 0x20 PUSH0 KECCAK256 SWAP1 JUMPDEST DUP2 SLOAD DUP2 MSTORE SWAP1 PUSH1 0x1 ADD SWAP1 PUSH1 0x20 ADD DUP1 DUP4 GT PUSH2 0x684 JUMPI DUP3 SWAP1 SUB PUSH1 0x1F AND DUP3 ADD SWAP2 JUMPDEST POP POP POP POP POP DUP2 MSTORE PUSH1 0x20 ADD PUSH1 0x6 DUP3 ADD DUP1 SLOAD DUP1 PUSH1 0x20 MUL PUSH1 0x20 ADD PUSH1 0x40 MLOAD SWAP1 DUP2 ADD PUSH1 0x40 MSTORE DUP1 SWAP3 SWAP2 SWAP1 DUP2 DUP2 MSTORE PUSH1 0x20 ADD PUSH0 SWAP1 JUMPDEST DUP3 DUP3 LT ISZERO PUSH2 0x88E JUMPI DUP4 DUP3 SWAP1 PUSH0 MSTORE PUSH1 0x20 PUSH0 KECCAK256 SWAP1 PUSH1 0x4 MUL ADD PUSH1 0x40 MLOAD DUP1 PUSH1 0x80 ADD PUSH1 0x40 MSTORE SWAP1 DUP2 PUSH0 DUP3 ADD DUP1 SLOAD PUSH2 0x6FE SWAP1 PUSH2 0x16C7 JUMP JUMPDEST DUP1 PUSH1 0x1F ADD PUSH1 0x20 DUP1 SWAP2 DIV MUL PUSH1 0x20 ADD PUSH1 0x40 MLOAD SWAP1 DUP2 ADD PUSH1 0x40 MSTORE DUP1 SWAP3 SWAP2 SWAP1 DUP2 DUP2 MSTORE PUSH1 0x20 ADD DUP3 DUP1 SLOAD PUSH2 0x72A SWAP1 PUSH2 0x16C7 JUMP JUMPDEST DUP1 ISZERO PUSH2 0x775 JUMPI DUP1 PUSH1 0x1F LT PUSH2 0x74C JUMPI PUSH2 0x100 DUP1 DUP4 SLOAD DIV MUL DUP4 MSTORE SWAP2 PUSH1 0x20 ADD SWAP2 PUSH2 0x775 JUMP JUMPDEST DUP3 ADD SWAP2 SWAP1 PUSH0 MSTORE PUSH1 0x20 PUSH0 KECCAK256 SWAP1 JUMPDEST DUP2 SLOAD DUP2 MSTORE SWAP1 PUSH1 0x1 ADD SWAP1 PUSH1 0x20 ADD DUP1 DUP4 GT PUSH2 0x758 JUMPI DUP3 SWAP1 SUB PUSH1 0x1F AND DUP3 ADD SWAP2 JUMPDEST POP POP POP POP POP DUP2 MSTORE PUSH1 0x20 ADD PUSH1 0x1 DUP3 ADD PUSH0 SWAP1 SLOAD SWAP1 PUSH2 0x100 EXP SWAP1 DIV PUSH1 0xFF AND PUSH1 0xFF AND PUSH1 0xFF AND DUP2 MSTORE PUSH1 0x20 ADD PUSH1 0x2 DUP3 ADD DUP1 SLOAD PUSH2 0x7AA SWAP1 PUSH2 0x16C7 JUMP JUMPDEST DUP1 PUSH1 0x1F ADD PUSH1 0x20 DUP1 SWAP2 DIV MUL PUSH1 0x20 ADD PUSH1 0x40 MLOAD SWAP1 DUP2 ADD PUSH1 0x40 MSTORE DUP1 SWAP3 SWAP2 SWAP1 DUP2 DUP2 MSTORE PUSH1 0x20 ADD DUP3 DUP1 SLOAD PUSH2 0x7D6 SWAP1 PUSH2 0x16C7 JUMP JUMPDEST DUP1 ISZERO PUSH2 0x821 JUMPI DUP1 PUSH1 0x1F LT PUSH2 0x7F8 JUMPI PUSH2 0x100 DUP1 DUP4 SLOAD DIV MUL DUP4 MSTORE SWAP2 PUSH1 0x20 ADD SWAP2 PUSH2 0x821 JUMP JUMPDEST DUP3 ADD SWAP2 SWAP1 PUSH0 MSTORE PUSH1 0x20 PUSH0 KECCAK256 SWAP1 JUMPDEST DUP2 SLOAD DUP2 MSTORE SWAP1 PUSH1 0x1 ADD SWAP1 PUSH1 0x20 ADD DUP1 DUP4 GT PUSH2 0x804 JUMPI DUP3 SWAP1 SUB PUSH1 0x1F AND DUP3 ADD SWAP2 JUMPDEST POP POP POP POP POP DUP2 MSTORE PUSH1 0x20 ADD PUSH1 0x3 DUP3 ADD PUSH0 SWAP1 SLOAD SWAP1 PUSH2 0x100 EXP SWAP1 DIV PUSH20 0xFFFFFFFFFFFFFFFFFFFFFFFFFFFFFFFFFFFFFFFF AND PUSH20 0xFFFFFFFFFFFFFFFFFFFFFFFFFFFFFFFFFFFFFFFF AND PUSH20 0xFFFFFFFFFFFFFFFFFFFFFFFFFFFFFFFFFFFFFFFF AND DUP2 MSTORE POP POP DUP2 MSTORE PUSH1 0x20 ADD SWAP1 PUSH1 0x1 ADD SWAP1 PUSH2 0x6CE JUMP JUMPDEST POP POP POP POP DUP2 MSTORE POP POP SWAP1 POP SWAP2 SWAP1 POP JUMP JUMPDEST PUSH0 PUSH1 0x1 PUSH0 DUP4 DUP2 MSTORE PUSH1 0x20 ADD SWAP1 DUP2 MSTORE PUSH1 0x20 ADD PUSH0 KECCAK256 PUSH1 0x6 ADD DUP1 SLOAD SWAP1 POP SWAP1 POP SWAP2 SWAP1 POP JUMP JUMPDEST PUSH0 PUSH1 0x1 PUSH0 DUP9 DUP2 MSTORE PUSH1 0x20 ADD SWAP1 DUP2 MSTORE PUSH1 0x20 ADD PUSH0 KECCAK256 SWAP1 POP DUP6 DUP2 PUSH1 0x1 ADD SWAP1 DUP2 PUSH2 0x8E2 SWAP2 SWAP1 PUSH2 0x1894 JUMP JUMPDEST POP DUP5 DUP2 PUSH1 0x2 ADD SWAP1 DUP2 PUSH2 0x8F4 SWAP2 SWAP1 PUSH2 0x1894 JUMP JUMPDEST POP DUP4 DUP2 PUSH1 0x3 ADD SWAP1 DUP2 PUSH2 0x906 SWAP2 SWAP1 PUSH2 0x1894 JUMP JUMPDEST POP DUP3 DUP2 PUSH1 0x4 ADD SWAP1 DUP2 PUSH2 0x918 SWAP2 SWAP1 PUSH2 0x1894 JUMP JUMPDEST POP DUP2 DUP2 PUSH1 0x5 ADD SWAP1 DUP2 PUSH2 0x92A SWAP2 SWAP1 PUSH2 0x1894 JUMP JUMPDEST POP POP POP POP POP POP POP POP JUMP JUMPDEST PUSH0 PUSH1 0x40 MLOAD DUP1 PUSH1 0x80 ADD PUSH1 0x40 MSTORE DUP1 DUP6 DUP2 MSTORE PUSH1 0x20 ADD DUP4 PUSH1 0xFF AND DUP2 MSTORE PUSH1 0x20 ADD DUP5 DUP2 MSTORE PUSH1 0x20 ADD CALLER PUSH20 0xFFFFFFFFFFFFFFFFFFFFFFFFFFFFFFFFFFFFFFFF AND DUP2 MSTORE POP SWAP1 POP PUSH0 PUSH1 0x1 PUSH0 DUP8 DUP2 MSTORE PUSH1 0x20 ADD SWAP1 DUP2 MSTORE PUSH1 0x20 ADD PUSH0 KECCAK256 SWAP1 POP DUP1 PUSH1 0x6 ADD DUP3 SWAP1 DUP1 PUSH1 0x1 DUP2 SLOAD ADD DUP1 DUP3 SSTORE DUP1 SWAP2 POP POP PUSH1 0x1 SWAP1 SUB SWAP1 PUSH0 MSTORE PUSH1 0x20 PUSH0 KECCAK256 SWAP1 PUSH1 0x4 MUL ADD PUSH0 SWAP1 SWAP2 SWAP1 SWAP2 SWAP1 SWAP2 POP PUSH0 DUP3 ADD MLOAD DUP2 PUSH0 ADD SWAP1 DUP2 PUSH2 0x9C3 SWAP2 SWAP1 PUSH2 0x1894 JUMP JUMPDEST POP PUSH1 0x20 DUP3 ADD MLOAD DUP2 PUSH1 0x1 ADD PUSH0 PUSH2 0x100 EXP DUP2 SLOAD DUP2 PUSH1 0xFF MUL NOT AND SWAP1 DUP4 PUSH1 0xFF AND MUL OR SWAP1 SSTORE POP PUSH1 0x40 DUP3 ADD MLOAD DUP2 PUSH1 0x2 ADD SWAP1 DUP2 PUSH2 0x9F9 SWAP2 SWAP1 PUSH2 0x1894 JUMP JUMPDEST POP PUSH1 0x60 DUP3 ADD MLOAD DUP2 PUSH1 0x3 ADD PUSH0 PUSH2 0x100 EXP DUP2 SLOAD DUP2 PUSH20 0xFFFFFFFFFFFFFFFFFFFFFFFFFFFFFFFFFFFFFFFF MUL NOT AND SWAP1 DUP4 PUSH20 0xFFFFFFFFFFFFFFFFFFFFFFFFFFFFFFFFFFFFFFFF AND MUL OR SWAP1 SSTORE POP POP POP POP POP POP POP POP POP JUMP JUMPDEST PUSH1 0x1 PUSH1 0x2 SLOAD PUSH2 0xA59 SWAP2 SWAP1 PUSH2 0x1990 JUMP JUMPDEST PUSH1 0x2 DUP2 SWAP1 SSTORE POP PUSH0 PUSH1 0x2 SLOAD SWAP1 POP PUSH0 PUSH1 0x1 PUSH0 DUP4 DUP2 MSTORE PUSH1 0x20 ADD SWAP1 DUP2 MSTORE PUSH1 0x20 ADD PUSH0 KECCAK256 SWAP1 POP DUP2 DUP2 PUSH0 ADD DUP2 SWAP1 SSTORE POP DUP7 DUP2 PUSH1 0x1 ADD SWAP1 DUP2 PUSH2 0xA92 SWAP2 SWAP1 PUSH2 0x1894 JUMP JUMPDEST POP DUP6 DUP2 PUSH1 0x2 ADD SWAP1 DUP2 PUSH2 0xAA4 SWAP2 SWAP1 PUSH2 0x1894 JUMP JUMPDEST POP DUP5 DUP2 PUSH1 0x3 ADD SWAP1 DUP2 PUSH2 0xAB6 SWAP2 SWAP1 PUSH2 0x1894 JUMP JUMPDEST POP DUP4 DUP2 PUSH1 0x4 ADD SWAP1 DUP2 PUSH2 0xAC8 SWAP2 SWAP1 PUSH2 0x1894 JUMP JUMPDEST POP DUP3 DUP2 PUSH1 0x5 ADD SWAP1 DUP2 PUSH2 0xADA SWAP2 SWAP1 PUSH2 0x1894 JUMP JUMPDEST POP PUSH0 DUP2 SWAP1 DUP1 PUSH1 0x1 DUP2 SLOAD ADD DUP1 DUP3 SSTORE DUP1 SWAP2 POP POP PUSH1 0x1 SWAP1 SUB SWAP1 PUSH0 MSTORE PUSH1 0x20 PUSH0 KECCAK256 SWAP1 PUSH1 0x7 MUL ADD PUSH0 SWAP1 SWAP2 SWAP1 SWAP2 SWAP1 SWAP2 POP PUSH0 DUP3 ADD SLOAD DUP2 PUSH0 ADD SSTORE PUSH1 0x1 DUP3 ADD DUP2 PUSH1 0x1 ADD SWAP1 DUP2 PUSH2 0xB1F SWAP2 SWAP1 PUSH2 0x19D8 JUMP JUMPDEST POP PUSH1 0x2 DUP3 ADD DUP2 PUSH1 0x2 ADD SWAP1 DUP2 PUSH2 0xB34 SWAP2 SWAP1 PUSH2 0x19D8 JUMP JUMPDEST POP PUSH1 0x3 DUP3 ADD DUP2 PUSH1 0x3 ADD SWAP1 DUP2 PUSH2 0xB49 SWAP2 SWAP1 PUSH2 0x19D8 JUMP JUMPDEST POP PUSH1 0x4 DUP3 ADD DUP2 PUSH1 0x4 ADD SWAP1 DUP2 PUSH2 0xB5E SWAP2 SWAP1 PUSH2 0x19D8 JUMP JUMPDEST POP PUSH1 0x5 DUP3 ADD DUP2 PUSH1 0x5 ADD SWAP1 DUP2 PUSH2 0xB73 SWAP2 SWAP1 PUSH2 0x19D8 JUMP JUMPDEST POP PUSH1 0x6 DUP3 ADD DUP2 PUSH1 0x6 ADD SWAP1 DUP1 SLOAD PUSH2 0xB8A SWAP3 SWAP2 SWAP1 PUSH2 0xC2B JUMP JUMPDEST POP POP POP DUP5 PUSH1 0x40 MLOAD PUSH2 0xB9B SWAP2 SWAP1 PUSH2 0x1AF7 JUMP JUMPDEST PUSH1 0x40 MLOAD DUP1 SWAP2 SUB SWAP1 KECCAK256 DUP8 PUSH1 0x40 MLOAD PUSH2 0xBB1 SWAP2 SWAP1 PUSH2 0x1AF7 JUMP JUMPDEST PUSH1 0x40 MLOAD DUP1 SWAP2 SUB SWAP1 KECCAK256 DUP4 PUSH32 0x2EAF5C3AEC496FCE10B5616BD077441243EFA6FD20F3AE98EB388B9D48A288AE PUSH1 0x40 MLOAD PUSH1 0x40 MLOAD DUP1 SWAP2 SUB SWAP1 LOG4 POP POP POP POP POP POP POP JUMP JUMPDEST PUSH1 0x40 MLOAD DUP1 PUSH1 0xE0 ADD PUSH1 0x40 MSTORE DUP1 PUSH0 DUP2 MSTORE PUSH1 0x20 ADD PUSH1 0x60 DUP2 MSTORE PUSH1 0x20 ADD PUSH1 0x60 DUP2 MSTORE PUSH1 0x20 ADD PUSH1 0x60 DUP2 MSTORE PUSH1 0x20 ADD PUSH1 0x60 DUP2 MSTORE PUSH1 0x20 ADD PUSH1 0x60 DUP2 MSTORE PUSH1 0x20 ADD PUSH1 0x60 DUP2 MSTORE POP SWAP1 JUMP JUMPDEST DUP3 DUP1 SLOAD DUP3 DUP3 SSTORE SWAP1 PUSH0 MSTORE PUSH1 0x20 PUSH0 KECCAK256 SWAP1 PUSH1 0x4 MUL DUP2 ADD SWAP3 DUP3 ISZERO PUSH2 0xD27 JUMPI PUSH0 MSTORE PUSH1 0x20 PUSH0 KECCAK256 SWAP2 PUSH1 0x4 MUL DUP3 ADD JUMPDEST DUP3 DUP2 GT ISZERO PUSH2 0xD26 JUMPI DUP3 DUP3 PUSH0 DUP3 ADD DUP2 PUSH0 ADD SWAP1 DUP2 PUSH2 0xC6E SWAP2 SWAP1 PUSH2 0x19D8 JUMP JUMPDEST POP PUSH1 0x1 DUP3 ADD PUSH0 SWAP1 SLOAD SWAP1 PUSH2 0x100 EXP SWAP1 DIV PUSH1 0xFF AND DUP2 PUSH1 0x1 ADD PUSH0 PUSH2 0x100 EXP DUP2 SLOAD DUP2 PUSH1 0xFF MUL NOT AND SWAP1 DUP4 PUSH1 0xFF AND MUL OR SWAP1 SSTORE POP PUSH1 0x2 DUP3 ADD DUP2 PUSH1 0x2 ADD SWAP1 DUP2 PUSH2 0xCAF SWAP2 SWAP1 PUSH2 0x19D8 JUMP JUMPDEST POP PUSH1 0x3 DUP3 ADD PUSH0 SWAP1 SLOAD SWAP1 PUSH2 0x100 EXP SWAP1 DIV PUSH20 0xFFFFFFFFFFFFFFFFFFFFFFFFFFFFFFFFFFFFFFFF AND DUP2 PUSH1 0x3 ADD PUSH0 PUSH2 0x100 EXP DUP2 SLOAD DUP2 PUSH20 0xFFFFFFFFFFFFFFFFFFFFFFFFFFFFFFFFFFFFFFFF MUL NOT AND SWAP1 DUP4 PUSH20 0xFFFFFFFFFFFFFFFFFFFFFFFFFFFFFFFFFFFFFFFF AND MUL OR SWAP1 SSTORE POP POP POP SWAP2 PUSH1 0x4 ADD SWAP2 SWAP1 PUSH1 0x4 ADD SWAP1 PUSH2 0xC52 JUMP JUMPDEST JUMPDEST POP SWAP1 POP PUSH2 0xD34 SWAP2 SWAP1 PUSH2 0xD38 JUMP JUMPDEST POP SWAP1 JUMP JUMPDEST JUMPDEST DUP1 DUP3 GT ISZERO PUSH2 0xDA1 JUMPI PUSH0 DUP1 DUP3 ADD PUSH0 PUSH2 0xD50 SWAP2 SWAP1 PUSH2 0xDA5 JUMP JUMPDEST PUSH1 0x1 DUP3 ADD PUSH0 PUSH2 0x100 EXP DUP2 SLOAD SWAP1 PUSH1 0xFF MUL NOT AND SWAP1 SSTORE PUSH1 0x2 DUP3 ADD PUSH0 PUSH2 0xD72 SWAP2 SWAP1 PUSH2 0xDA5 JUMP JUMPDEST PUSH1 0x3 DUP3 ADD PUSH0 PUSH2 0x100 EXP DUP2 SLOAD SWAP1 PUSH20 0xFFFFFFFFFFFFFFFFFFFFFFFFFFFFFFFFFFFFFFFF MUL NOT AND SWAP1 SSTORE POP PUSH1 0x4 ADD PUSH2 0xD39 JUMP JUMPDEST POP SWAP1 JUMP JUMPDEST POP DUP1 SLOAD PUSH2 0xDB1 SWAP1 PUSH2 0x16C7 JUMP JUMPDEST PUSH0 DUP3 SSTORE DUP1 PUSH1 0x1F LT PUSH2 0xDC2 JUMPI POP PUSH2 0xDDF JUMP JUMPDEST PUSH1 0x1F ADD PUSH1 0x20 SWAP1 DIV SWAP1 PUSH0 MSTORE PUSH1 0x20 PUSH0 KECCAK256 SWAP1 DUP2 ADD SWAP1 PUSH2 0xDDE SWAP2 SWAP1 PUSH2 0xDE2 JUMP JUMPDEST JUMPDEST POP JUMP JUMPDEST JUMPDEST DUP1 DUP3 GT ISZERO PUSH2 0xDF9 JUMPI PUSH0 DUP2 PUSH0 SWAP1 SSTORE POP PUSH1 0x1 ADD PUSH2 0xDE3 JUMP JUMPDEST POP SWAP1 JUMP JUMPDEST PUSH0 PUSH1 0x40 MLOAD SWAP1 POP SWAP1 JUMP JUMPDEST PUSH0 DUP1 REVERT JUMPDEST PUSH0 DUP1 REVERT JUMPDEST PUSH0 DUP2 SWAP1 POP SWAP2 SWAP1 POP JUMP JUMPDEST PUSH2 0xE20 DUP2 PUSH2 0xE0E JUMP JUMPDEST DUP2 EQ PUSH2 0xE2A JUMPI PUSH0 DUP1 REVERT JUMPDEST POP JUMP JUMPDEST PUSH0 DUP2 CALLDATALOAD SWAP1 POP PUSH2 0xE3B DUP2 PUSH2 0xE17 JUMP JUMPDEST SWAP3 SWAP2 POP POP JUMP JUMPDEST PUSH0 PUSH20 0xFFFFFFFFFFFFFFFFFFFFFFFFFFFFFFFFFFFFFFFF DUP3 AND SWAP1 POP SWAP2 SWAP1 POP JUMP JUMPDEST PUSH0 PUSH2 0xE6A DUP3 PUSH2 0xE41 JUMP JUMPDEST SWAP1 POP SWAP2 SWAP1 POP JUMP JUMPDEST PUSH2 0xE7A DUP2 PUSH2 0xE60 JUMP JUMPDEST DUP2 EQ PUSH2 0xE84 JUMPI PUSH0 DUP1 REVERT JUMPDEST POP JUMP JUMPDEST PUSH0 DUP2 CALLDATALOAD SWAP1 POP PUSH2 0xE95 DUP2 PUSH2 0xE71 JUMP JUMPDEST SWAP3 SWAP2 POP POP JUMP JUMPDEST PUSH0 DUP1 PUSH1 0x40 DUP4 DUP6 SUB SLT ISZERO PUSH2 0xEB1 JUMPI PUSH2 0xEB0 PUSH2 0xE06 JUMP JUMPDEST JUMPDEST PUSH0 PUSH2 0xEBE DUP6 DUP3 DUP7 ADD PUSH2 0xE2D JUMP JUMPDEST SWAP3 POP POP PUSH1 0x20 PUSH2 0xECF DUP6 DUP3 DUP7 ADD PUSH2 0xE87 JUMP JUMPDEST SWAP2 POP POP SWAP3 POP SWAP3 SWAP1 POP JUMP JUMPDEST PUSH0 PUSH1 0x20 DUP3 DUP5 SUB SLT ISZERO PUSH2 0xEEE JUMPI PUSH2 0xEED PUSH2 0xE06 JUMP JUMPDEST JUMPDEST PUSH0 PUSH2 0xEFB DUP5 DUP3 DUP6 ADD PUSH2 0xE2D JUMP JUMPDEST SWAP2 POP POP SWAP3 SWAP2 POP POP JUMP JUMPDEST PUSH0 DUP2 MLOAD SWAP1 POP SWAP2 SWAP1 POP JUMP JUMPDEST PUSH0 DUP3 DUP3 MSTORE PUSH1 0x20 DUP3 ADD SWAP1 POP SWAP3 SWAP2 POP POP JUMP JUMPDEST PUSH0 DUP2 SWAP1 POP PUSH1 0x20 DUP3 ADD SWAP1 POP SWAP2 SWAP1 POP JUMP JUMPDEST PUSH0 DUP2 MLOAD SWAP1 POP SWAP2 SWAP1 POP JUMP JUMPDEST PUSH0 DUP3 DUP3 MSTORE PUSH1 0x20 DUP3 ADD SWAP1 POP SWAP3 SWAP2 POP POP JUMP JUMPDEST PUSH0 JUMPDEST DUP4 DUP2 LT ISZERO PUSH2 0xF64 JUMPI DUP1 DUP3 ADD MLOAD DUP2 DUP5 ADD MSTORE PUSH1 0x20 DUP2 ADD SWAP1 POP PUSH2 0xF49 JUMP JUMPDEST PUSH0 DUP5 DUP5 ADD MSTORE POP POP POP POP JUMP JUMPDEST PUSH0 PUSH1 0x1F NOT PUSH1 0x1F DUP4 ADD AND SWAP1 POP SWAP2 SWAP1 POP JUMP JUMPDEST PUSH0 PUSH2 0xF89 DUP3 PUSH2 0xF2D JUMP JUMPDEST PUSH2 0xF93 DUP2 DUP6 PUSH2 0xF37 JUMP JUMPDEST SWAP4 POP PUSH2 0xFA3 DUP2 DUP6 PUSH1 0x20 DUP7 ADD PUSH2 0xF47 JUMP JUMPDEST PUSH2 0xFAC DUP2 PUSH2 0xF6F JUMP JUMPDEST DUP5 ADD SWAP2 POP POP SWAP3 SWAP2 POP POP JUMP JUMPDEST PUSH0 PUSH1 0xFF DUP3 AND SWAP1 POP SWAP2 SWAP1 POP JUMP JUMPDEST PUSH2 0xFCC DUP2 PUSH2 0xFB7 JUMP JUMPDEST DUP3 MSTORE POP POP JUMP JUMPDEST PUSH2 0xFDB DUP2 PUSH2 0xE60 JUMP JUMPDEST DUP3 MSTORE POP POP JUMP JUMPDEST PUSH0 PUSH1 0x80 DUP4 ADD PUSH0 DUP4 ADD MLOAD DUP5 DUP3 SUB PUSH0 DUP7 ADD MSTORE PUSH2 0xFFB DUP3 DUP3 PUSH2 0xF7F JUMP JUMPDEST SWAP2 POP POP PUSH1 0x20 DUP4 ADD MLOAD PUSH2 0x1010 PUSH1 0x20 DUP7 ADD DUP3 PUSH2 0xFC3 JUMP JUMPDEST POP PUSH1 0x40 DUP4 ADD MLOAD DUP5 DUP3 SUB PUSH1 0x40 DUP7 ADD MSTORE PUSH2 0x1028 DUP3 DUP3 PUSH2 0xF7F JUMP JUMPDEST SWAP2 POP POP PUSH1 0x60 DUP4 ADD MLOAD PUSH2 0x103D PUSH1 0x60 DUP7 ADD DUP3 PUSH2 0xFD2 JUMP JUMPDEST POP DUP1 SWAP2 POP POP SWAP3 SWAP2 POP POP JUMP JUMPDEST PUSH0 PUSH2 0x1053 DUP4 DUP4 PUSH2 0xFE1 JUMP JUMPDEST SWAP1 POP SWAP3 SWAP2 POP POP JUMP JUMPDEST PUSH0 PUSH1 0x20 DUP3 ADD SWAP1 POP SWAP2 SWAP1 POP JUMP JUMPDEST PUSH0 PUSH2 0x1071 DUP3 PUSH2 0xF04 JUMP JUMPDEST PUSH2 0x107B DUP2 DUP6 PUSH2 0xF0E JUMP JUMPDEST SWAP4 POP DUP4 PUSH1 0x20 DUP3 MUL DUP6 ADD PUSH2 0x108D DUP6 PUSH2 0xF1E JUMP JUMPDEST DUP1 PUSH0 JUMPDEST DUP6 DUP2 LT ISZERO PUSH2 0x10C8 JUMPI DUP5 DUP5 SUB DUP10 MSTORE DUP2 MLOAD PUSH2 0x10A9 DUP6 DUP3 PUSH2 0x1048 JUMP JUMPDEST SWAP5 POP PUSH2 0x10B4 DUP4 PUSH2 0x105B JUMP JUMPDEST SWAP3 POP PUSH1 0x20 DUP11 ADD SWAP10 POP POP PUSH1 0x1 DUP2 ADD SWAP1 POP PUSH2 0x1090 JUMP JUMPDEST POP DUP3 SWAP8 POP DUP8 SWAP6 POP POP POP POP POP POP SWAP3 SWAP2 POP POP JUMP JUMPDEST PUSH0 PUSH1 0x20 DUP3 ADD SWAP1 POP DUP2 DUP2 SUB PUSH0 DUP4 ADD MSTORE PUSH2 0x10F2 DUP2 DUP5 PUSH2 0x1067 JUMP JUMPDEST SWAP1 POP SWAP3 SWAP2 POP POP JUMP JUMPDEST PUSH2 0x1103 DUP2 PUSH2 0xE0E JUMP JUMPDEST DUP3 MSTORE POP POP JUMP JUMPDEST PUSH0 DUP3 DUP3 MSTORE PUSH1 0x20 DUP3 ADD SWAP1 POP SWAP3 SWAP2 POP POP JUMP JUMPDEST PUSH0 PUSH2 0x1123 DUP3 PUSH2 0xF04 JUMP JUMPDEST PUSH2 0x112D DUP2 DUP6 PUSH2 0x1109 JUMP JUMPDEST SWAP4 POP DUP4 PUSH1 0x20 DUP3 MUL DUP6 ADD PUSH2 0x113F DUP6 PUSH2 0xF1E JUMP JUMPDEST DUP1 PUSH0 JUMPDEST DUP6 DUP2 LT ISZERO PUSH2 0x117A JUMPI DUP5 DUP5 SUB DUP10 MSTORE DUP2 MLOAD PUSH2 0x115B DUP6 DUP3 PUSH2 0x1048 JUMP JUMPDEST SWAP5 POP PUSH2 0x1166 DUP4 PUSH2 0x105B JUMP JUMPDEST SWAP3 POP PUSH1 0x20 DUP11 ADD SWAP10 POP POP PUSH1 0x1 DUP2 ADD SWAP1 POP PUSH2 0x1142 JUMP JUMPDEST POP DUP3 SWAP8 POP DUP8 SWAP6 POP POP POP POP POP POP SWAP3 SWAP2 POP POP JUMP JUMPDEST PUSH0 PUSH1 0xE0 DUP4 ADD PUSH0 DUP4 ADD MLOAD PUSH2 0x11A1 PUSH0 DUP7 ADD DUP3 PUSH2 0x10FA JUMP JUMPDEST POP PUSH1 0x20 DUP4 ADD MLOAD DUP5 DUP3 SUB PUSH1 0x20 DUP7 ADD MSTORE PUSH2 0x11B9 DUP3 DUP3 PUSH2 0xF7F JUMP JUMPDEST SWAP2 POP POP PUSH1 0x40 DUP4 ADD MLOAD DUP5 DUP3 SUB PUSH1 0x40 DUP7 ADD MSTORE PUSH2 0x11D3 DUP3 DUP3 PUSH2 0xF7F JUMP JUMPDEST SWAP2 POP POP PUSH1 0x60 DUP4 ADD MLOAD DUP5 DUP3 SUB PUSH1 0x60 DUP7 ADD MSTORE PUSH2 0x11ED DUP3 DUP3 PUSH2 0xF7F JUMP JUMPDEST SWAP2 POP POP PUSH1 0x80 DUP4 ADD MLOAD DUP5 DUP3 SUB PUSH1 0x80 DUP7 ADD MSTORE PUSH2 0x1207 DUP3 DUP3 PUSH2 0xF7F JUMP JUMPDEST SWAP2 POP POP PUSH1 0xA0 DUP4 ADD MLOAD DUP5 DUP3 SUB PUSH1 0xA0 DUP7 ADD MSTORE PUSH2 0x1221 DUP3 DUP3 PUSH2 0xF7F JUMP JUMPDEST SWAP2 POP POP PUSH1 0xC0 DUP4 ADD MLOAD DUP5 DUP3 SUB PUSH1 0xC0 DUP7 ADD MSTORE PUSH2 0x123B DUP3 DUP3 PUSH2 0x1119 JUMP JUMPDEST SWAP2 POP POP DUP1 SWAP2 POP POP SWAP3 SWAP2 POP POP JUMP JUMPDEST PUSH0 PUSH1 0x20 DUP3 ADD SWAP1 POP DUP2 DUP2 SUB PUSH0 DUP4 ADD MSTORE PUSH2 0x1260 DUP2 DUP5 PUSH2 0x118C JUMP JUMPDEST SWAP1 POP SWAP3 SWAP2 POP POP JUMP JUMPDEST PUSH2 0x1271 DUP2 PUSH2 0xE0E JUMP JUMPDEST DUP3 MSTORE POP POP JUMP JUMPDEST PUSH0 PUSH1 0x20 DUP3 ADD SWAP1 POP PUSH2 0x128A PUSH0 DUP4 ADD DUP5 PUSH2 0x1268 JUMP JUMPDEST SWAP3 SWAP2 POP POP JUMP JUMPDEST PUSH0 DUP1 REVERT JUMPDEST PUSH0 DUP1 REVERT JUMPDEST PUSH32 0x4E487B7100000000000000000000000000000000000000000000000000000000 PUSH0 MSTORE PUSH1 0x41 PUSH1 0x4 MSTORE PUSH1 0x24 PUSH0 REVERT JUMPDEST PUSH2 0x12CE DUP3 PUSH2 0xF6F JUMP JUMPDEST DUP2 ADD DUP2 DUP2 LT PUSH8 0xFFFFFFFFFFFFFFFF DUP3 GT OR ISZERO PUSH2 0x12ED JUMPI PUSH2 0x12EC PUSH2 0x1298 JUMP JUMPDEST JUMPDEST DUP1 PUSH1 0x40 MSTORE POP POP POP JUMP JUMPDEST PUSH0 PUSH2 0x12FF PUSH2 0xDFD JUMP JUMPDEST SWAP1 POP PUSH2 0x130B DUP3 DUP3 PUSH2 0x12C5 JUMP JUMPDEST SWAP2 SWAP1 POP JUMP JUMPDEST PUSH0 PUSH8 0xFFFFFFFFFFFFFFFF DUP3 GT ISZERO PUSH2 0x132A JUMPI PUSH2 0x1329 PUSH2 0x1298 JUMP JUMPDEST JUMPDEST PUSH2 0x1333 DUP3 PUSH2 0xF6F JUMP JUMPDEST SWAP1 POP PUSH1 0x20 DUP2 ADD SWAP1 POP SWAP2 SWAP1 POP JUMP JUMPDEST DUP3 DUP2 DUP4 CALLDATACOPY PUSH0 DUP4 DUP4 ADD MSTORE POP POP POP JUMP JUMPDEST PUSH0 PUSH2 0x1360 PUSH2 0x135B DUP5 PUSH2 0x1310 JUMP JUMPDEST PUSH2 0x12F6 JUMP JUMPDEST SWAP1 POP DUP3 DUP2 MSTORE PUSH1 0x20 DUP2 ADD DUP5 DUP5 DUP5 ADD GT ISZERO PUSH2 0x137C JUMPI PUSH2 0x137B PUSH2 0x1294 JUMP JUMPDEST JUMPDEST PUSH2 0x1387 DUP5 DUP3 DUP6 PUSH2 0x1340 JUMP JUMPDEST POP SWAP4 SWAP3 POP POP POP JUMP JUMPDEST PUSH0 DUP3 PUSH1 0x1F DUP4 ADD SLT PUSH2 0x13A3 JUMPI PUSH2 0x13A2 PUSH2 0x1290 JUMP JUMPDEST JUMPDEST DUP2 CALLDATALOAD PUSH2 0x13B3 DUP5 DUP3 PUSH1 0x20 DUP7 ADD PUSH2 0x134E JUMP JUMPDEST SWAP2 POP POP SWAP3 SWAP2 POP POP JUMP JUMPDEST PUSH0 DUP1 PUSH0 DUP1 PUSH0 DUP1 PUSH1 0xC0 DUP8 DUP10 SUB SLT ISZERO PUSH2 0x13D6 JUMPI PUSH2 0x13D5 PUSH2 0xE06 JUMP JUMPDEST JUMPDEST PUSH0 PUSH2 0x13E3 DUP10 DUP3 DUP11 ADD PUSH2 0xE2D JUMP JUMPDEST SWAP7 POP POP PUSH1 0x20 DUP8 ADD CALLDATALOAD PUSH8 0xFFFFFFFFFFFFFFFF DUP2 GT ISZERO PUSH2 0x1404 JUMPI PUSH2 0x1403 PUSH2 0xE0A JUMP JUMPDEST JUMPDEST PUSH2 0x1410 DUP10 DUP3 DUP11 ADD PUSH2 0x138F JUMP JUMPDEST SWAP6 POP POP PUSH1 0x40 DUP8 ADD CALLDATALOAD PUSH8 0xFFFFFFFFFFFFFFFF DUP2 GT ISZERO PUSH2 0x1431 JUMPI PUSH2 0x1430 PUSH2 0xE0A JUMP JUMPDEST JUMPDEST PUSH2 0x143D DUP10 DUP3 DUP11 ADD PUSH2 0x138F JUMP JUMPDEST SWAP5 POP POP PUSH1 0x60 DUP8 ADD CALLDATALOAD PUSH8 0xFFFFFFFFFFFFFFFF DUP2 GT ISZERO PUSH2 0x145E JUMPI PUSH2 0x145D PUSH2 0xE0A JUMP JUMPDEST JUMPDEST PUSH2 0x146A DUP10 DUP3 DUP11 ADD PUSH2 0x138F JUMP JUMPDEST SWAP4 POP POP PUSH1 0x80 DUP8 ADD CALLDATALOAD PUSH8 0xFFFFFFFFFFFFFFFF DUP2 GT ISZERO PUSH2 0x148B JUMPI PUSH2 0x148A PUSH2 0xE0A JUMP JUMPDEST JUMPDEST PUSH2 0x1497 DUP10 DUP3 DUP11 ADD PUSH2 0x138F JUMP JUMPDEST SWAP3 POP POP PUSH1 0xA0 DUP8 ADD CALLDATALOAD PUSH8 0xFFFFFFFFFFFFFFFF DUP2 GT ISZERO PUSH2 0x14B8 JUMPI PUSH2 0x14B7 PUSH2 0xE0A JUMP JUMPDEST JUMPDEST PUSH2 0x14C4 DUP10 DUP3 DUP11 ADD PUSH2 0x138F JUMP JUMPDEST SWAP2 POP POP SWAP3 SWAP6 POP SWAP3 SWAP6 POP SWAP3 SWAP6 JUMP JUMPDEST PUSH2 0x14DA DUP2 PUSH2 0xFB7 JUMP JUMPDEST DUP2 EQ PUSH2 0x14E4 JUMPI PUSH0 DUP1 REVERT JUMPDEST POP JUMP JUMPDEST PUSH0 DUP2 CALLDATALOAD SWAP1 POP PUSH2 0x14F5 DUP2 PUSH2 0x14D1 JUMP JUMPDEST SWAP3 SWAP2 POP POP JUMP JUMPDEST PUSH0 DUP1 PUSH0 DUP1 PUSH1 0x80 DUP6 DUP8 SUB SLT ISZERO PUSH2 0x1513 JUMPI PUSH2 0x1512 PUSH2 0xE06 JUMP JUMPDEST JUMPDEST PUSH0 PUSH2 0x1520 DUP8 DUP3 DUP9 ADD PUSH2 0xE2D JUMP JUMPDEST SWAP5 POP POP PUSH1 0x20 DUP6 ADD CALLDATALOAD PUSH8 0xFFFFFFFFFFFFFFFF DUP2 GT ISZERO PUSH2 0x1541 JUMPI PUSH2 0x1540 PUSH2 0xE0A JUMP JUMPDEST JUMPDEST PUSH2 0x154D DUP8 DUP3 DUP9 ADD PUSH2 0x138F JUMP JUMPDEST SWAP4 POP POP PUSH1 0x40 DUP6 ADD CALLDATALOAD PUSH8 0xFFFFFFFFFFFFFFFF DUP2 GT ISZERO PUSH2 0x156E JUMPI PUSH2 0x156D PUSH2 0xE0A JUMP JUMPDEST JUMPDEST PUSH2 0x157A DUP8 DUP3 DUP9 ADD PUSH2 0x138F JUMP JUMPDEST SWAP3 POP POP PUSH1 0x60 PUSH2 0x158B DUP8 DUP3 DUP9 ADD PUSH2 0x14E7 JUMP JUMPDEST SWAP2 POP POP SWAP3 SWAP6 SWAP2 SWAP5 POP SWAP3 POP JUMP JUMPDEST PUSH0 DUP1 PUSH0 DUP1 PUSH0 PUSH1 0xA0 DUP7 DUP9 SUB SLT ISZERO PUSH2 0x15B0 JUMPI PUSH2 0x15AF PUSH2 0xE06 JUMP JUMPDEST JUMPDEST PUSH0 DUP7 ADD CALLDATALOAD PUSH8 0xFFFFFFFFFFFFFFFF DUP2 GT ISZERO PUSH2 0x15CD JUMPI PUSH2 0x15CC PUSH2 0xE0A JUMP JUMPDEST JUMPDEST PUSH2 0x15D9 DUP9 DUP3 DUP10 ADD PUSH2 0x138F JUMP JUMPDEST SWAP6 POP POP PUSH1 0x20 DUP7 ADD CALLDATALOAD PUSH8 0xFFFFFFFFFFFFFFFF DUP2 GT ISZERO PUSH2 0x15FA JUMPI PUSH2 0x15F9 PUSH2 0xE0A JUMP JUMPDEST JUMPDEST PUSH2 0x1606 DUP9 DUP3 DUP10 ADD PUSH2 0x138F JUMP JUMPDEST SWAP5 POP POP PUSH1 0x40 DUP7 ADD CALLDATALOAD PUSH8 0xFFFFFFFFFFFFFFFF DUP2 GT ISZERO PUSH2 0x1627 JUMPI PUSH2 0x1626 PUSH2 0xE0A JUMP JUMPDEST JUMPDEST PUSH2 0x1633 DUP9 DUP3 DUP10 ADD PUSH2 0x138F JUMP JUMPDEST SWAP4 POP POP PUSH1 0x60 DUP7 ADD CALLDATALOAD PUSH8 0xFFFFFFFFFFFFFFFF DUP2 GT ISZERO PUSH2 0x1654 JUMPI PUSH2 0x1653 PUSH2 0xE0A JUMP JUMPDEST JUMPDEST PUSH2 0x1660 DUP9 DUP3 DUP10 ADD PUSH2 0x138F JUMP JUMPDEST SWAP3 POP POP PUSH1 0x80 DUP7 ADD CALLDATALOAD PUSH8 0xFFFFFFFFFFFFFFFF DUP2 GT ISZERO PUSH2 0x1681 JUMPI PUSH2 0x1680 PUSH2 0xE0A JUMP JUMPDEST JUMPDEST PUSH2 0x168D DUP9 DUP3 DUP10 ADD PUSH2 0x138F JUMP JUMPDEST SWAP2 POP POP SWAP3 SWAP6 POP SWAP3 SWAP6 SWAP1 SWAP4 POP JUMP JUMPDEST PUSH32 0x4E487B7100000000000000000000000000000000000000000000000000000000 PUSH0 MSTORE PUSH1 0x22 PUSH1 0x4 MSTORE PUSH1 0x24 PUSH0 REVERT JUMPDEST PUSH0 PUSH1 0x2 DUP3 DIV SWAP1 POP PUSH1 0x1 DUP3 AND DUP1 PUSH2 0x16DE JUMPI PUSH1 0x7F DUP3 AND SWAP2 POP JUMPDEST PUSH1 0x20 DUP3 LT DUP2 SUB PUSH2 0x16F1 JUMPI PUSH2 0x16F0 PUSH2 0x169A JUMP JUMPDEST JUMPDEST POP SWAP2 SWAP1 POP JUMP JUMPDEST PUSH0 DUP2 SWAP1 POP DUP2 PUSH0 MSTORE PUSH1 0x20 PUSH0 KECCAK256 SWAP1 POP SWAP2 SWAP1 POP JUMP JUMPDEST PUSH0 PUSH1 0x20 PUSH1 0x1F DUP4 ADD DIV SWAP1 POP SWAP2 SWAP1 POP JUMP JUMPDEST PUSH0 DUP3 DUP3 SHL SWAP1 POP SWAP3 SWAP2 POP POP JUMP JUMPDEST PUSH0 PUSH1 0x8 DUP4 MUL PUSH2 0x1753 PUSH32 0xFFFFFFFFFFFFFFFFFFFFFFFFFFFFFFFFFFFFFFFFFFFFFFFFFFFFFFFFFFFFFFFF DUP3 PUSH2 0x1718 JUMP JUMPDEST PUSH2 0x175D DUP7 DUP4 PUSH2 0x1718 JUMP JUMPDEST SWAP6 POP DUP1 NOT DUP5 AND SWAP4 POP DUP1 DUP7 AND DUP5 OR SWAP3 POP POP POP SWAP4 SWAP3 POP POP POP JUMP JUMPDEST PUSH0 DUP2 SWAP1 POP SWAP2 SWAP1 POP JUMP JUMPDEST PUSH0 PUSH2 0x1798 PUSH2 0x1793 PUSH2 0x178E DUP5 PUSH2 0xE0E JUMP JUMPDEST PUSH2 0x1775 JUMP JUMPDEST PUSH2 0xE0E JUMP JUMPDEST SWAP1 POP SWAP2 SWAP1 POP JUMP JUMPDEST PUSH0 DUP2 SWAP1 POP SWAP2 SWAP1 POP JUMP JUMPDEST PUSH2 0x17B1 DUP4 PUSH2 0x177E JUMP JUMPDEST PUSH2 0x17C5 PUSH2 0x17BD DUP3 PUSH2 0x179F JUMP JUMPDEST DUP5 DUP5 SLOAD PUSH2 0x1724 JUMP JUMPDEST DUP3 SSTORE POP POP POP POP JUMP JUMPDEST PUSH0 SWAP1 JUMP JUMPDEST PUSH2 0x17D9 PUSH2 0x17CD JUMP JUMPDEST PUSH2 0x17E4 DUP2 DUP5 DUP5 PUSH2 0x17A8 JUMP JUMPDEST POP POP POP JUMP JUMPDEST JUMPDEST DUP2 DUP2 LT ISZERO PUSH2 0x1807 JUMPI PUSH2 0x17FC PUSH0 DUP3 PUSH2 0x17D1 JUMP JUMPDEST PUSH1 0x1 DUP2 ADD SWAP1 POP PUSH2 0x17EA JUMP JUMPDEST POP POP JUMP JUMPDEST PUSH1 0x1F DUP3 GT ISZERO PUSH2 0x184C JUMPI PUSH2 0x181D DUP2 PUSH2 0x16F7 JUMP JUMPDEST PUSH2 0x1826 DUP5 PUSH2 0x1709 JUMP JUMPDEST DUP2 ADD PUSH1 0x20 DUP6 LT ISZERO PUSH2 0x1835 JUMPI DUP2 SWAP1 POP JUMPDEST PUSH2 0x1849 PUSH2 0x1841 DUP6 PUSH2 0x1709 JUMP JUMPDEST DUP4 ADD DUP3 PUSH2 0x17E9 JUMP JUMPDEST POP POP JUMPDEST POP POP POP JUMP JUMPDEST PUSH0 DUP3 DUP3 SHR SWAP1 POP SWAP3 SWAP2 POP POP JUMP JUMPDEST PUSH0 PUSH2 0x186C PUSH0 NOT DUP5 PUSH1 0x8 MUL PUSH2 0x1851 JUMP JUMPDEST NOT DUP1 DUP4 AND SWAP2 POP POP SWAP3 SWAP2 POP POP JUMP JUMPDEST PUSH0 PUSH2 0x1884 DUP4 DUP4 PUSH2 0x185D JUMP JUMPDEST SWAP2 POP DUP3 PUSH1 0x2 MUL DUP3 OR SWAP1 POP SWAP3 SWAP2 POP POP JUMP JUMPDEST PUSH2 0x189D DUP3 PUSH2 0xF2D JUMP JUMPDEST PUSH8 0xFFFFFFFFFFFFFFFF DUP2 GT ISZERO PUSH2 0x18B6 JUMPI PUSH2 0x18B5 PUSH2 0x1298 JUMP JUMPDEST JUMPDEST PUSH2 0x18C0 DUP3 SLOAD PUSH2 0x16C7 JUMP JUMPDEST PUSH2 0x18CB DUP3 DUP3 DUP6 PUSH2 0x180B JUMP JUMPDEST PUSH0 PUSH1 0x20 SWAP1 POP PUSH1 0x1F DUP4 GT PUSH1 0x1 DUP2 EQ PUSH2 0x18FC JUMPI PUSH0 DUP5 ISZERO PUSH2 0x18EA JUMPI DUP3 DUP8 ADD MLOAD SWAP1 POP JUMPDEST PUSH2 0x18F4 DUP6 DUP3 PUSH2 0x1879 JUMP JUMPDEST DUP7 SSTORE POP PUSH2 0x195B JUMP JUMPDEST PUSH1 0x1F NOT DUP5 AND PUSH2 0x190A DUP7 PUSH2 0x16F7 JUMP JUMPDEST PUSH0 JUMPDEST DUP3 DUP2 LT ISZERO PUSH2 0x1931 JUMPI DUP5 DUP10 ADD MLOAD DUP3 SSTORE PUSH1 0x1 DUP3 ADD SWAP2 POP PUSH1 0x20 DUP6 ADD SWAP5 POP PUSH1 0x20 DUP2 ADD SWAP1 POP PUSH2 0x190C JUMP JUMPDEST DUP7 DUP4 LT ISZERO PUSH2 0x194E JUMPI DUP5 DUP10 ADD MLOAD PUSH2 0x194A PUSH1 0x1F DUP10 AND DUP3 PUSH2 0x185D JUMP JUMPDEST DUP4 SSTORE POP JUMPDEST PUSH1 0x1 PUSH1 0x2 DUP9 MUL ADD DUP9 SSTORE POP POP POP JUMPDEST POP POP POP POP POP POP JUMP JUMPDEST PUSH32 0x4E487B7100000000000000000000000000000000000000000000000000000000 PUSH0 MSTORE PUSH1 0x11 PUSH1 0x4 MSTORE PUSH1 0x24 PUSH0 REVERT JUMPDEST PUSH0 PUSH2 0x199A DUP3 PUSH2 0xE0E JUMP JUMPDEST SWAP2 POP PUSH2 0x19A5 DUP4 PUSH2 0xE0E JUMP JUMPDEST SWAP3 POP DUP3 DUP3 ADD SWAP1 POP DUP1 DUP3 GT ISZERO PUSH2 0x19BD JUMPI PUSH2 0x19BC PUSH2 0x1963 JUMP JUMPDEST JUMPDEST SWAP3 SWAP2 POP POP JUMP JUMPDEST PUSH0 DUP2 SLOAD SWAP1 POP PUSH2 0x19D1 DUP2 PUSH2 0x16C7 JUMP JUMPDEST SWAP1 POP SWAP2 SWAP1 POP JUMP JUMPDEST DUP2 DUP2 SUB PUSH2 0x19E6 JUMPI POP POP PUSH2 0x1ABB JUMP JUMPDEST PUSH2 0x19EF DUP3 PUSH2 0x19C3 JUMP JUMPDEST PUSH8 0xFFFFFFFFFFFFFFFF DUP2 GT ISZERO PUSH2 0x1A08 JUMPI PUSH2 0x1A07 PUSH2 0x1298 JUMP JUMPDEST JUMPDEST PUSH2 0x1A12 DUP3 SLOAD PUSH2 0x16C7 JUMP JUMPDEST PUSH2 0x1A1D DUP3 DUP3 DUP6 PUSH2 0x180B JUMP JUMPDEST PUSH0 PUSH1 0x1F DUP4 GT PUSH1 0x1 DUP2 EQ PUSH2 0x1A4A JUMPI PUSH0 DUP5 ISZERO PUSH2 0x1A38 JUMPI DUP3 DUP8 ADD SLOAD SWAP1 POP JUMPDEST PUSH2 0x1A42 DUP6 DUP3 PUSH2 0x1879 JUMP JUMPDEST DUP7 SSTORE POP PUSH2 0x1AB4 JUMP JUMPDEST PUSH1 0x1F NOT DUP5 AND PUSH2 0x1A58 DUP8 PUSH2 0x16F7 JUMP JUMPDEST SWAP7 POP PUSH2 0x1A63 DUP7 PUSH2 0x16F7 JUMP JUMPDEST PUSH0 JUMPDEST DUP3 DUP2 LT ISZERO PUSH2 0x1A8A JUMPI DUP5 DUP10 ADD SLOAD DUP3 SSTORE PUSH1 0x1 DUP3 ADD SWAP2 POP PUSH1 0x1 DUP6 ADD SWAP5 POP PUSH1 0x20 DUP2 ADD SWAP1 POP PUSH2 0x1A65 JUMP JUMPDEST DUP7 DUP4 LT ISZERO PUSH2 0x1AA7 JUMPI DUP5 DUP10 ADD SLOAD PUSH2 0x1AA3 PUSH1 0x1F DUP10 AND DUP3 PUSH2 0x185D JUMP JUMPDEST DUP4 SSTORE POP JUMPDEST PUSH1 0x1 PUSH1 0x2 DUP9 MUL ADD DUP9 SSTORE POP POP POP JUMPDEST POP POP POP POP POP POP JUMPDEST JUMP JUMPDEST PUSH0 DUP2 SWAP1 POP SWAP3 SWAP2 POP POP JUMP JUMPDEST PUSH0 PUSH2 0x1AD1 DUP3 PUSH2 0xF2D JUMP JUMPDEST PUSH2 0x1ADB DUP2 DUP6 PUSH2 0x1ABD JUMP JUMPDEST SWAP4 POP PUSH2 0x1AEB DUP2 DUP6 PUSH1 0x20 DUP7 ADD PUSH2 0xF47 JUMP JUMPDEST DUP1 DUP5 ADD SWAP2 POP POP SWAP3 SWAP2 POP POP JUMP JUMPDEST PUSH0 PUSH2 0x1B02 DUP3 DUP5 PUSH2 0x1AC7 JUMP JUMPDEST SWAP2 POP DUP2 SWAP1 POP SWAP3 SWAP2 POP POP JUMP INVALID LOG2 PUSH5 0x6970667358 0x22 SLT KECCAK256 0x2A RETURNDATASIZE DIV 0xCB 0xB3 0xC7 TIMESTAMP SWAP12 RETURNDATASIZE JUMPDEST 0xE8 SSTORE 0x21 DUP16 DELEGATECALL GT 0xBB 0xA7 0xAF 0xE0 0x4D 0x4C 0xD4 SWAP10 PUSH6 0xB5FE9D509686 0xE0 PUSH5 0x736F6C6343 STOP ADDMOD XOR STOP CALLER "
				},
				"gasEstimates": {
					"creation": {
						"codeDepositCost": "1395800",
						"executionCost": "1456",
						"totalCost": "1397256"
					},
					"external": {
						"CaptureAttendance(uint256,address)": "621",
						"CreateEvent(string,string,string,string,string)": "infinite",
						"DetailsOfPeopleRegisterd(uint256)": "infinite",
						"NumberOFPeopleRegisterd(uint256)": "infinite",
						"RegisterForEvent(uint256,string,string,uint8)": "infinite",
						"UnLockNFT(uint256)": "446",
						"UpdateEvent(uint256,string,string,string,string,string)": "infinite",
						"ViewEvent(uint256)": "infinite"
					}
				},
				"methodIdentifiers": {
					"CaptureAttendance(uint256,address)": "2957b520",
					"CreateEvent(string,string,string,string,string)": "9ac8caa0",
					"DetailsOfPeopleRegisterd(uint256)": "38f69348",
					"NumberOFPeopleRegisterd(uint256)": "45eb8e9f",
					"RegisterForEvent(uint256,string,string,uint8)": "84efd1d3",
					"UnLockNFT(uint256)": "3fabf1b3",
					"UpdateEvent(uint256,string,string,string,string,string)": "61c1cb70",
					"ViewEvent(uint256)": "41f5b72e"
				}
			},
			"storageLayout": {
				"storage": [
					{
						"astId": 173,
						"contract": "contracts/GatedEvent.sol:GatedEvent",
						"label": "eventArray",
						"offset": 0,
						"slot": "0",
						"type": "t_array(t_struct(EventStruct)160_storage)dyn_storage"
					},
					{
						"astId": 178,
						"contract": "contracts/GatedEvent.sol:GatedEvent",
						"label": "eventMapping",
						"offset": 0,
						"slot": "1",
						"type": "t_mapping(t_uint256,t_struct(EventStruct)160_storage)"
					},
					{
						"astId": 180,
						"contract": "contracts/GatedEvent.sol:GatedEvent",
						"label": "EventIDCounter",
						"offset": 0,
						"slot": "2",
						"type": "t_uint256"
					}
				],
				"types": {
					"t_address": {
						"encoding": "inplace",
						"label": "address",
						"numberOfBytes": "20"
					},
					"t_array(t_struct(AttendeeDetails)169_storage)dyn_storage": {
						"base": "t_struct(AttendeeDetails)169_storage",
						"encoding": "dynamic_array",
						"label": "struct GatedEvent.AttendeeDetails[]",
						"numberOfBytes": "32"
					},
					"t_array(t_struct(EventStruct)160_storage)dyn_storage": {
						"base": "t_struct(EventStruct)160_storage",
						"encoding": "dynamic_array",
						"label": "struct GatedEvent.EventStruct[]",
						"numberOfBytes": "32"
					},
					"t_mapping(t_uint256,t_struct(EventStruct)160_storage)": {
						"encoding": "mapping",
						"key": "t_uint256",
						"label": "mapping(uint256 => struct GatedEvent.EventStruct)",
						"numberOfBytes": "32",
						"value": "t_struct(EventStruct)160_storage"
					},
					"t_string_storage": {
						"encoding": "bytes",
						"label": "string",
						"numberOfBytes": "32"
					},
					"t_struct(AttendeeDetails)169_storage": {
						"encoding": "inplace",
						"label": "struct GatedEvent.AttendeeDetails",
						"members": [
							{
								"astId": 162,
								"contract": "contracts/GatedEvent.sol:GatedEvent",
								"label": "Name",
								"offset": 0,
								"slot": "0",
								"type": "t_string_storage"
							},
							{
								"astId": 164,
								"contract": "contracts/GatedEvent.sol:GatedEvent",
								"label": "Age",
								"offset": 0,
								"slot": "1",
								"type": "t_uint8"
							},
							{
								"astId": 166,
								"contract": "contracts/GatedEvent.sol:GatedEvent",
								"label": "Email",
								"offset": 0,
								"slot": "2",
								"type": "t_string_storage"
							},
							{
								"astId": 168,
								"contract": "contracts/GatedEvent.sol:GatedEvent",
								"label": "AttendeeAddress",
								"offset": 0,
								"slot": "3",
								"type": "t_address"
							}
						],
						"numberOfBytes": "128"
					},
					"t_struct(EventStruct)160_storage": {
						"encoding": "inplace",
						"label": "struct GatedEvent.EventStruct",
						"members": [
							{
								"astId": 145,
								"contract": "contracts/GatedEvent.sol:GatedEvent",
								"label": "Id",
								"offset": 0,
								"slot": "0",
								"type": "t_uint256"
							},
							{
								"astId": 147,
								"contract": "contracts/GatedEvent.sol:GatedEvent",
								"label": "Title",
								"offset": 0,
								"slot": "1",
								"type": "t_string_storage"
							},
							{
								"astId": 149,
								"contract": "contracts/GatedEvent.sol:GatedEvent",
								"label": "Details",
								"offset": 0,
								"slot": "2",
								"type": "t_string_storage"
							},
							{
								"astId": 151,
								"contract": "contracts/GatedEvent.sol:GatedEvent",
								"label": "Host",
								"offset": 0,
								"slot": "3",
								"type": "t_string_storage"
							},
							{
								"astId": 153,
								"contract": "contracts/GatedEvent.sol:GatedEvent",
								"label": "DateTime",
								"offset": 0,
								"slot": "4",
								"type": "t_string_storage"
							},
							{
								"astId": 155,
								"contract": "contracts/GatedEvent.sol:GatedEvent",
								"label": "Location",
								"offset": 0,
								"slot": "5",
								"type": "t_string_storage"
							},
							{
								"astId": 159,
								"contract": "contracts/GatedEvent.sol:GatedEvent",
								"label": "AttendeeInfo",
								"offset": 0,
								"slot": "6",
								"type": "t_array(t_struct(AttendeeDetails)169_storage)dyn_storage"
							}
						],
						"numberOfBytes": "224"
					},
					"t_uint256": {
						"encoding": "inplace",
						"label": "uint256",
						"numberOfBytes": "32"
					},
					"t_uint8": {
						"encoding": "inplace",
						"label": "uint8",
						"numberOfBytes": "1"
					}
				}
			},
			"userdoc": {
				"kind": "user",
				"methods": {},
				"version": 1
			}
		}
	}
}