{
	"contracts/GatedEvent.sol": {
		"GatedEvent": {
			"abi": [
				{
					"inputs": [
						{
							"internalType": "address",
							"name": "_nftAddress",
							"type": "address"
						}
					],
					"stateMutability": "nonpayable",
					"type": "constructor"
				},
				{
					"anonymous": false,
					"inputs": [
						{
							"indexed": true,
							"internalType": "uint256",
							"name": "Id",
							"type": "uint256"
						},
						{
							"indexed": true,
							"internalType": "string",
							"name": "Title",
							"type": "string"
						},
						{
							"indexed": true,
							"internalType": "string",
							"name": "Host",
							"type": "string"
						}
					],
					"name": "NewEventCreated",
					"type": "event"
				},
				{
					"inputs": [
						{
							"internalType": "uint256",
							"name": "_id",
							"type": "uint256"
						},
						{
							"internalType": "address",
							"name": "_attendee",
							"type": "address"
						}
					],
					"name": "CaptureAttendance",
					"outputs": [],
					"stateMutability": "nonpayable",
					"type": "function"
				},
				{
					"inputs": [
						{
							"internalType": "string",
							"name": "_title",
							"type": "string"
						},
						{
							"internalType": "string",
							"name": "_details",
							"type": "string"
						},
						{
							"internalType": "string",
							"name": "_host",
							"type": "string"
						},
						{
							"internalType": "string",
							"name": "_datetime",
							"type": "string"
						},
						{
							"internalType": "string",
							"name": "_location",
							"type": "string"
						}
					],
					"name": "CreateEvent",
					"outputs": [],
					"stateMutability": "nonpayable",
					"type": "function"
				},
				{
					"inputs": [
						{
							"internalType": "uint256",
							"name": "_id",
							"type": "uint256"
						}
					],
					"name": "NumberOFPeopleRegisterd",
					"outputs": [
						{
							"internalType": "uint256",
							"name": "",
							"type": "uint256"
						}
					],
					"stateMutability": "view",
					"type": "function"
				},
				{
					"inputs": [
						{
							"internalType": "uint256",
							"name": "_id",
							"type": "uint256"
						},
						{
							"internalType": "string",
							"name": "_name",
							"type": "string"
						},
						{
							"internalType": "string",
							"name": "_email",
							"type": "string"
						},
						{
							"internalType": "uint8",
							"name": "_age",
							"type": "uint8"
						}
					],
					"name": "RegisterForEvent",
					"outputs": [],
					"stateMutability": "nonpayable",
					"type": "function"
				},
				{
					"inputs": [
						{
							"internalType": "uint256",
							"name": "_id",
							"type": "uint256"
						}
					],
					"name": "UnLockNFT",
					"outputs": [],
					"stateMutability": "nonpayable",
					"type": "function"
				},
				{
					"inputs": [
						{
							"internalType": "uint256",
							"name": "_id",
							"type": "uint256"
						},
						{
							"internalType": "string",
							"name": "_title",
							"type": "string"
						},
						{
							"internalType": "string",
							"name": "_details",
							"type": "string"
						},
						{
							"internalType": "string",
							"name": "_host",
							"type": "string"
						},
						{
							"internalType": "string",
							"name": "_datetime",
							"type": "string"
						},
						{
							"internalType": "string",
							"name": "_location",
							"type": "string"
						}
					],
					"name": "UpdateEvent",
					"outputs": [],
					"stateMutability": "nonpayable",
					"type": "function"
				},
				{
					"inputs": [
						{
							"internalType": "uint256",
							"name": "_id",
							"type": "uint256"
						}
					],
					"name": "ViewEvent",
					"outputs": [
						{
							"components": [
								{
									"internalType": "uint256",
									"name": "Id",
									"type": "uint256"
								},
								{
									"internalType": "string",
									"name": "Title",
									"type": "string"
								},
								{
									"internalType": "string",
									"name": "Details",
									"type": "string"
								},
								{
									"internalType": "string",
									"name": "Host",
									"type": "string"
								},
								{
									"internalType": "string",
									"name": "DateTime",
									"type": "string"
								},
								{
									"internalType": "string",
									"name": "Location",
									"type": "string"
								},
								{
									"components": [
										{
											"internalType": "string",
											"name": "Name",
											"type": "string"
										},
										{
											"internalType": "uint8",
											"name": "Age",
											"type": "uint8"
										},
										{
											"internalType": "string",
											"name": "Email",
											"type": "string"
										},
										{
											"internalType": "address",
											"name": "AttendeeAddress",
											"type": "address"
										}
									],
									"internalType": "struct GatedEvent.AttendeeDetails[]",
									"name": "AttendeeInfo",
									"type": "tuple[]"
								}
							],
							"internalType": "struct GatedEvent.EventStruct",
							"name": "",
							"type": "tuple"
						}
					],
					"stateMutability": "view",
					"type": "function"
				}
			],
			"devdoc": {
				"kind": "dev",
				"methods": {},
				"version": 1
			},
			"evm": {
				"assembly": "    /* \"contracts/GatedEvent.sol\":118:3923  contract GatedEvent {... */\n  mstore(0x40, 0x80)\n    /* \"contracts/GatedEvent.sol\":200:273  constructor(address _nftAddress){... */\n  callvalue\n  dup1\n  iszero\n  tag_1\n  jumpi\n  0x00\n  dup1\n  revert\ntag_1:\n  pop\n  mload(0x40)\n  sub(codesize, bytecodeSize)\n  dup1\n  bytecodeSize\n  dup4\n  codecopy\n  dup2\n  dup2\n  add\n  0x40\n  mstore\n  dup2\n  add\n  swap1\n  tag_2\n  swap2\n  swap1\n  tag_3\n  jump\t// in\ntag_2:\n    /* \"contracts/GatedEvent.sol\":255:266  _nftAddress */\n  dup1\n    /* \"contracts/GatedEvent.sol\":242:252  NFTAddress */\n  0x00\n  dup1\n    /* \"contracts/GatedEvent.sol\":242:266  NFTAddress = _nftAddress */\n  0x0100\n  exp\n  dup2\n  sload\n  dup2\n  0xffffffffffffffffffffffffffffffffffffffff\n  mul\n  not\n  and\n  swap1\n  dup4\n  0xffffffffffffffffffffffffffffffffffffffff\n  and\n  mul\n  or\n  swap1\n  sstore\n  pop\n    /* \"contracts/GatedEvent.sol\":200:273  constructor(address _nftAddress){... */\n  pop\n    /* \"contracts/GatedEvent.sol\":118:3923  contract GatedEvent {... */\n  jump(tag_6)\n    /* \"#utility.yul\":88:205   */\ntag_8:\n    /* \"#utility.yul\":197:198   */\n  0x00\n    /* \"#utility.yul\":194:195   */\n  dup1\n    /* \"#utility.yul\":187:199   */\n  revert\n    /* \"#utility.yul\":334:460   */\ntag_10:\n    /* \"#utility.yul\":371:378   */\n  0x00\n    /* \"#utility.yul\":411:453   */\n  0xffffffffffffffffffffffffffffffffffffffff\n    /* \"#utility.yul\":404:409   */\n  dup3\n    /* \"#utility.yul\":400:454   */\n  and\n    /* \"#utility.yul\":389:454   */\n  swap1\n  pop\n    /* \"#utility.yul\":334:460   */\n  swap2\n  swap1\n  pop\n  jump\t// out\n    /* \"#utility.yul\":466:562   */\ntag_11:\n    /* \"#utility.yul\":503:510   */\n  0x00\n    /* \"#utility.yul\":532:556   */\n  tag_20\n    /* \"#utility.yul\":550:555   */\n  dup3\n    /* \"#utility.yul\":532:556   */\n  tag_10\n  jump\t// in\ntag_20:\n    /* \"#utility.yul\":521:556   */\n  swap1\n  pop\n    /* \"#utility.yul\":466:562   */\n  swap2\n  swap1\n  pop\n  jump\t// out\n    /* \"#utility.yul\":568:690   */\ntag_12:\n    /* \"#utility.yul\":641:665   */\n  tag_22\n    /* \"#utility.yul\":659:664   */\n  dup2\n    /* \"#utility.yul\":641:665   */\n  tag_11\n  jump\t// in\ntag_22:\n    /* \"#utility.yul\":634:639   */\n  dup2\n    /* \"#utility.yul\":631:666   */\n  eq\n    /* \"#utility.yul\":621:684   */\n  tag_23\n  jumpi\n    /* \"#utility.yul\":680:681   */\n  0x00\n    /* \"#utility.yul\":677:678   */\n  dup1\n    /* \"#utility.yul\":670:682   */\n  revert\n    /* \"#utility.yul\":621:684   */\ntag_23:\n    /* \"#utility.yul\":568:690   */\n  pop\n  jump\t// out\n    /* \"#utility.yul\":696:839   */\ntag_13:\n    /* \"#utility.yul\":753:758   */\n  0x00\n    /* \"#utility.yul\":784:790   */\n  dup2\n    /* \"#utility.yul\":778:791   */\n  mload\n    /* \"#utility.yul\":769:791   */\n  swap1\n  pop\n    /* \"#utility.yul\":800:833   */\n  tag_25\n    /* \"#utility.yul\":827:832   */\n  dup2\n    /* \"#utility.yul\":800:833   */\n  tag_12\n  jump\t// in\ntag_25:\n    /* \"#utility.yul\":696:839   */\n  swap3\n  swap2\n  pop\n  pop\n  jump\t// out\n    /* \"#utility.yul\":845:1196   */\ntag_3:\n    /* \"#utility.yul\":915:921   */\n  0x00\n    /* \"#utility.yul\":964:966   */\n  0x20\n    /* \"#utility.yul\":952:961   */\n  dup3\n    /* \"#utility.yul\":943:950   */\n  dup5\n    /* \"#utility.yul\":939:962   */\n  sub\n    /* \"#utility.yul\":935:967   */\n  slt\n    /* \"#utility.yul\":932:1051   */\n  iszero\n  tag_27\n  jumpi\n    /* \"#utility.yul\":970:1049   */\n  tag_28\n  tag_8\n  jump\t// in\ntag_28:\n    /* \"#utility.yul\":932:1051   */\ntag_27:\n    /* \"#utility.yul\":1090:1091   */\n  0x00\n    /* \"#utility.yul\":1115:1179   */\n  tag_29\n    /* \"#utility.yul\":1171:1178   */\n  dup5\n    /* \"#utility.yul\":1162:1168   */\n  dup3\n    /* \"#utility.yul\":1151:1160   */\n  dup6\n    /* \"#utility.yul\":1147:1169   */\n  add\n    /* \"#utility.yul\":1115:1179   */\n  tag_13\n  jump\t// in\ntag_29:\n    /* \"#utility.yul\":1105:1179   */\n  swap2\n  pop\n    /* \"#utility.yul\":1061:1189   */\n  pop\n    /* \"#utility.yul\":845:1196   */\n  swap3\n  swap2\n  pop\n  pop\n  jump\t// out\n    /* \"contracts/GatedEvent.sol\":118:3923  contract GatedEvent {... */\ntag_6:\n  dataSize(sub_0)\n  dup1\n  dataOffset(sub_0)\n  0x00\n  codecopy\n  0x00\n  return\nstop\n\nsub_0: assembly {\n        /* \"contracts/GatedEvent.sol\":118:3923  contract GatedEvent {... */\n      mstore(0x40, 0x80)\n      callvalue\n      dup1\n      iszero\n      tag_1\n      jumpi\n      0x00\n      dup1\n      revert\n    tag_1:\n      pop\n      jumpi(tag_2, lt(calldatasize, 0x04))\n      shr(0xe0, calldataload(0x00))\n      dup1\n      0x45eb8e9f\n      gt\n      tag_10\n      jumpi\n      dup1\n      0x45eb8e9f\n      eq\n      tag_6\n      jumpi\n      dup1\n      0x61c1cb70\n      eq\n      tag_7\n      jumpi\n      dup1\n      0x84efd1d3\n      eq\n      tag_8\n      jumpi\n      dup1\n      0x9ac8caa0\n      eq\n      tag_9\n      jumpi\n      jump(tag_2)\n    tag_10:\n      dup1\n      0x2957b520\n      eq\n      tag_3\n      jumpi\n      dup1\n      0x3fabf1b3\n      eq\n      tag_4\n      jumpi\n      dup1\n      0x41f5b72e\n      eq\n      tag_5\n      jumpi\n    tag_2:\n      0x00\n      dup1\n      revert\n        /* \"contracts/GatedEvent.sol\":3551:3765  function CaptureAttendance(uint256 _id, address _attendee) external {... */\n    tag_3:\n      tag_11\n      0x04\n      dup1\n      calldatasize\n      sub\n      dup2\n      add\n      swap1\n      tag_12\n      swap2\n      swap1\n      tag_13\n      jump\t// in\n    tag_12:\n      tag_14\n      jump\t// in\n    tag_11:\n      stop\n        /* \"contracts/GatedEvent.sol\":3771:3921  function UnLockNFT(uint256 _id) external {... */\n    tag_4:\n      tag_15\n      0x04\n      dup1\n      calldatasize\n      sub\n      dup2\n      add\n      swap1\n      tag_16\n      swap2\n      swap1\n      tag_17\n      jump\t// in\n    tag_16:\n      tag_18\n      jump\t// in\n    tag_15:\n      stop\n        /* \"contracts/GatedEvent.sol\":2484:2600  function ViewEvent(uint256 _id) external view returns (EventStruct memory) {... */\n    tag_5:\n      tag_19\n      0x04\n      dup1\n      calldatasize\n      sub\n      dup2\n      add\n      swap1\n      tag_20\n      swap2\n      swap1\n      tag_17\n      jump\t// in\n    tag_20:\n      tag_21\n      jump\t// in\n    tag_19:\n      mload(0x40)\n      tag_22\n      swap2\n      swap1\n      tag_23\n      jump\t// in\n    tag_22:\n      mload(0x40)\n      dup1\n      swap2\n      sub\n      swap1\n      return\n        /* \"contracts/GatedEvent.sol\":3270:3545  function NumberOFPeopleRegisterd(... */\n    tag_6:\n      tag_24\n      0x04\n      dup1\n      calldatasize\n      sub\n      dup2\n      add\n      swap1\n      tag_25\n      swap2\n      swap1\n      tag_17\n      jump\t// in\n    tag_25:\n      tag_26\n      jump\t// in\n    tag_24:\n      mload(0x40)\n      tag_27\n      swap2\n      swap1\n      tag_28\n      jump\t// in\n    tag_27:\n      mload(0x40)\n      dup1\n      swap2\n      sub\n      swap1\n      return\n        /* \"contracts/GatedEvent.sol\":1959:2478  function UpdateEvent(... */\n    tag_7:\n      tag_29\n      0x04\n      dup1\n      calldatasize\n      sub\n      dup2\n      add\n      swap1\n      tag_30\n      swap2\n      swap1\n      tag_31\n      jump\t// in\n    tag_30:\n      tag_32\n      jump\t// in\n    tag_29:\n      stop\n        /* \"contracts/GatedEvent.sol\":2606:3264  function RegisterForEvent(... */\n    tag_8:\n      tag_33\n      0x04\n      dup1\n      calldatasize\n      sub\n      dup2\n      add\n      swap1\n      tag_34\n      swap2\n      swap1\n      tag_35\n      jump\t// in\n    tag_34:\n      tag_36\n      jump\t// in\n    tag_33:\n      stop\n        /* \"contracts/GatedEvent.sol\":1261:1953  function CreateEvent(... */\n    tag_9:\n      tag_37\n      0x04\n      dup1\n      calldatasize\n      sub\n      dup2\n      add\n      swap1\n      tag_38\n      swap2\n      swap1\n      tag_39\n      jump\t// in\n    tag_38:\n      tag_40\n      jump\t// in\n    tag_37:\n      stop\n        /* \"contracts/GatedEvent.sol\":3551:3765  function CaptureAttendance(uint256 _id, address _attendee) external {... */\n    tag_14:\n      pop\n      pop\n      jump\t// out\n        /* \"contracts/GatedEvent.sol\":3771:3921  function UnLockNFT(uint256 _id) external {... */\n    tag_18:\n      pop\n      jump\t// out\n        /* \"contracts/GatedEvent.sol\":2484:2600  function ViewEvent(uint256 _id) external view returns (EventStruct memory) {... */\n    tag_21:\n        /* \"contracts/GatedEvent.sol\":2539:2557  EventStruct memory */\n      tag_43\n      tag_44\n      jump\t// in\n    tag_43:\n        /* \"contracts/GatedEvent.sol\":2576:2588  eventMapping */\n      0x02\n        /* \"contracts/GatedEvent.sol\":2576:2593  eventMapping[_id] */\n      0x00\n        /* \"contracts/GatedEvent.sol\":2589:2592  _id */\n      dup4\n        /* \"contracts/GatedEvent.sol\":2576:2593  eventMapping[_id] */\n      dup2\n      mstore\n      0x20\n      add\n      swap1\n      dup2\n      mstore\n      0x20\n      add\n      0x00\n      keccak256\n        /* \"contracts/GatedEvent.sol\":2569:2593  return eventMapping[_id] */\n      mload(0x40)\n      dup1\n      0xe0\n      add\n      0x40\n      mstore\n      swap1\n      dup2\n      0x00\n      dup3\n      add\n      sload\n      dup2\n      mstore\n      0x20\n      add\n      0x01\n      dup3\n      add\n      dup1\n      sload\n      tag_46\n      swap1\n      tag_47\n      jump\t// in\n    tag_46:\n      dup1\n      0x1f\n      add\n      0x20\n      dup1\n      swap2\n      div\n      mul\n      0x20\n      add\n      mload(0x40)\n      swap1\n      dup2\n      add\n      0x40\n      mstore\n      dup1\n      swap3\n      swap2\n      swap1\n      dup2\n      dup2\n      mstore\n      0x20\n      add\n      dup3\n      dup1\n      sload\n      tag_48\n      swap1\n      tag_47\n      jump\t// in\n    tag_48:\n      dup1\n      iszero\n      tag_49\n      jumpi\n      dup1\n      0x1f\n      lt\n      tag_50\n      jumpi\n      0x0100\n      dup1\n      dup4\n      sload\n      div\n      mul\n      dup4\n      mstore\n      swap2\n      0x20\n      add\n      swap2\n      jump(tag_49)\n    tag_50:\n      dup3\n      add\n      swap2\n      swap1\n      0x00\n      mstore\n      keccak256(0x00, 0x20)\n      swap1\n    tag_51:\n      dup2\n      sload\n      dup2\n      mstore\n      swap1\n      0x01\n      add\n      swap1\n      0x20\n      add\n      dup1\n      dup4\n      gt\n      tag_51\n      jumpi\n      dup3\n      swap1\n      sub\n      0x1f\n      and\n      dup3\n      add\n      swap2\n    tag_49:\n      pop\n      pop\n      pop\n      pop\n      pop\n      dup2\n      mstore\n      0x20\n      add\n      0x02\n      dup3\n      add\n      dup1\n      sload\n      tag_52\n      swap1\n      tag_47\n      jump\t// in\n    tag_52:\n      dup1\n      0x1f\n      add\n      0x20\n      dup1\n      swap2\n      div\n      mul\n      0x20\n      add\n      mload(0x40)\n      swap1\n      dup2\n      add\n      0x40\n      mstore\n      dup1\n      swap3\n      swap2\n      swap1\n      dup2\n      dup2\n      mstore\n      0x20\n      add\n      dup3\n      dup1\n      sload\n      tag_53\n      swap1\n      tag_47\n      jump\t// in\n    tag_53:\n      dup1\n      iszero\n      tag_54\n      jumpi\n      dup1\n      0x1f\n      lt\n      tag_55\n      jumpi\n      0x0100\n      dup1\n      dup4\n      sload\n      div\n      mul\n      dup4\n      mstore\n      swap2\n      0x20\n      add\n      swap2\n      jump(tag_54)\n    tag_55:\n      dup3\n      add\n      swap2\n      swap1\n      0x00\n      mstore\n      keccak256(0x00, 0x20)\n      swap1\n    tag_56:\n      dup2\n      sload\n      dup2\n      mstore\n      swap1\n      0x01\n      add\n      swap1\n      0x20\n      add\n      dup1\n      dup4\n      gt\n      tag_56\n      jumpi\n      dup3\n      swap1\n      sub\n      0x1f\n      and\n      dup3\n      add\n      swap2\n    tag_54:\n      pop\n      pop\n      pop\n      pop\n      pop\n      dup2\n      mstore\n      0x20\n      add\n      0x03\n      dup3\n      add\n      dup1\n      sload\n      tag_57\n      swap1\n      tag_47\n      jump\t// in\n    tag_57:\n      dup1\n      0x1f\n      add\n      0x20\n      dup1\n      swap2\n      div\n      mul\n      0x20\n      add\n      mload(0x40)\n      swap1\n      dup2\n      add\n      0x40\n      mstore\n      dup1\n      swap3\n      swap2\n      swap1\n      dup2\n      dup2\n      mstore\n      0x20\n      add\n      dup3\n      dup1\n      sload\n      tag_58\n      swap1\n      tag_47\n      jump\t// in\n    tag_58:\n      dup1\n      iszero\n      tag_59\n      jumpi\n      dup1\n      0x1f\n      lt\n      tag_60\n      jumpi\n      0x0100\n      dup1\n      dup4\n      sload\n      div\n      mul\n      dup4\n      mstore\n      swap2\n      0x20\n      add\n      swap2\n      jump(tag_59)\n    tag_60:\n      dup3\n      add\n      swap2\n      swap1\n      0x00\n      mstore\n      keccak256(0x00, 0x20)\n      swap1\n    tag_61:\n      dup2\n      sload\n      dup2\n      mstore\n      swap1\n      0x01\n      add\n      swap1\n      0x20\n      add\n      dup1\n      dup4\n      gt\n      tag_61\n      jumpi\n      dup3\n      swap1\n      sub\n      0x1f\n      and\n      dup3\n      add\n      swap2\n    tag_59:\n      pop\n      pop\n      pop\n      pop\n      pop\n      dup2\n      mstore\n      0x20\n      add\n      0x04\n      dup3\n      add\n      dup1\n      sload\n      tag_62\n      swap1\n      tag_47\n      jump\t// in\n    tag_62:\n      dup1\n      0x1f\n      add\n      0x20\n      dup1\n      swap2\n      div\n      mul\n      0x20\n      add\n      mload(0x40)\n      swap1\n      dup2\n      add\n      0x40\n      mstore\n      dup1\n      swap3\n      swap2\n      swap1\n      dup2\n      dup2\n      mstore\n      0x20\n      add\n      dup3\n      dup1\n      sload\n      tag_63\n      swap1\n      tag_47\n      jump\t// in\n    tag_63:\n      dup1\n      iszero\n      tag_64\n      jumpi\n      dup1\n      0x1f\n      lt\n      tag_65\n      jumpi\n      0x0100\n      dup1\n      dup4\n      sload\n      div\n      mul\n      dup4\n      mstore\n      swap2\n      0x20\n      add\n      swap2\n      jump(tag_64)\n    tag_65:\n      dup3\n      add\n      swap2\n      swap1\n      0x00\n      mstore\n      keccak256(0x00, 0x20)\n      swap1\n    tag_66:\n      dup2\n      sload\n      dup2\n      mstore\n      swap1\n      0x01\n      add\n      swap1\n      0x20\n      add\n      dup1\n      dup4\n      gt\n      tag_66\n      jumpi\n      dup3\n      swap1\n      sub\n      0x1f\n      and\n      dup3\n      add\n      swap2\n    tag_64:\n      pop\n      pop\n      pop\n      pop\n      pop\n      dup2\n      mstore\n      0x20\n      add\n      0x05\n      dup3\n      add\n      dup1\n      sload\n      tag_67\n      swap1\n      tag_47\n      jump\t// in\n    tag_67:\n      dup1\n      0x1f\n      add\n      0x20\n      dup1\n      swap2\n      div\n      mul\n      0x20\n      add\n      mload(0x40)\n      swap1\n      dup2\n      add\n      0x40\n      mstore\n      dup1\n      swap3\n      swap2\n      swap1\n      dup2\n      dup2\n      mstore\n      0x20\n      add\n      dup3\n      dup1\n      sload\n      tag_68\n      swap1\n      tag_47\n      jump\t// in\n    tag_68:\n      dup1\n      iszero\n      tag_69\n      jumpi\n      dup1\n      0x1f\n      lt\n      tag_70\n      jumpi\n      0x0100\n      dup1\n      dup4\n      sload\n      div\n      mul\n      dup4\n      mstore\n      swap2\n      0x20\n      add\n      swap2\n      jump(tag_69)\n    tag_70:\n      dup3\n      add\n      swap2\n      swap1\n      0x00\n      mstore\n      keccak256(0x00, 0x20)\n      swap1\n    tag_71:\n      dup2\n      sload\n      dup2\n      mstore\n      swap1\n      0x01\n      add\n      swap1\n      0x20\n      add\n      dup1\n      dup4\n      gt\n      tag_71\n      jumpi\n      dup3\n      swap1\n      sub\n      0x1f\n      and\n      dup3\n      add\n      swap2\n    tag_69:\n      pop\n      pop\n      pop\n      pop\n      pop\n      dup2\n      mstore\n      0x20\n      add\n      0x06\n      dup3\n      add\n      dup1\n      sload\n      dup1\n      0x20\n      mul\n      0x20\n      add\n      mload(0x40)\n      swap1\n      dup2\n      add\n      0x40\n      mstore\n      dup1\n      swap3\n      swap2\n      swap1\n      dup2\n      dup2\n      mstore\n      0x20\n      add\n      0x00\n      swap1\n    tag_72:\n      dup3\n      dup3\n      lt\n      iszero\n      tag_73\n      jumpi\n      dup4\n      dup3\n      swap1\n      0x00\n      mstore\n      keccak256(0x00, 0x20)\n      swap1\n      0x04\n      mul\n      add\n      mload(0x40)\n      dup1\n      0x80\n      add\n      0x40\n      mstore\n      swap1\n      dup2\n      0x00\n      dup3\n      add\n      dup1\n      sload\n      tag_75\n      swap1\n      tag_47\n      jump\t// in\n    tag_75:\n      dup1\n      0x1f\n      add\n      0x20\n      dup1\n      swap2\n      div\n      mul\n      0x20\n      add\n      mload(0x40)\n      swap1\n      dup2\n      add\n      0x40\n      mstore\n      dup1\n      swap3\n      swap2\n      swap1\n      dup2\n      dup2\n      mstore\n      0x20\n      add\n      dup3\n      dup1\n      sload\n      tag_76\n      swap1\n      tag_47\n      jump\t// in\n    tag_76:\n      dup1\n      iszero\n      tag_77\n      jumpi\n      dup1\n      0x1f\n      lt\n      tag_78\n      jumpi\n      0x0100\n      dup1\n      dup4\n      sload\n      div\n      mul\n      dup4\n      mstore\n      swap2\n      0x20\n      add\n      swap2\n      jump(tag_77)\n    tag_78:\n      dup3\n      add\n      swap2\n      swap1\n      0x00\n      mstore\n      keccak256(0x00, 0x20)\n      swap1\n    tag_79:\n      dup2\n      sload\n      dup2\n      mstore\n      swap1\n      0x01\n      add\n      swap1\n      0x20\n      add\n      dup1\n      dup4\n      gt\n      tag_79\n      jumpi\n      dup3\n      swap1\n      sub\n      0x1f\n      and\n      dup3\n      add\n      swap2\n    tag_77:\n      pop\n      pop\n      pop\n      pop\n      pop\n      dup2\n      mstore\n      0x20\n      add\n      0x01\n      dup3\n      add\n      0x00\n      swap1\n      sload\n      swap1\n      0x0100\n      exp\n      swap1\n      div\n      0xff\n      and\n      0xff\n      and\n      0xff\n      and\n      dup2\n      mstore\n      0x20\n      add\n      0x02\n      dup3\n      add\n      dup1\n      sload\n      tag_80\n      swap1\n      tag_47\n      jump\t// in\n    tag_80:\n      dup1\n      0x1f\n      add\n      0x20\n      dup1\n      swap2\n      div\n      mul\n      0x20\n      add\n      mload(0x40)\n      swap1\n      dup2\n      add\n      0x40\n      mstore\n      dup1\n      swap3\n      swap2\n      swap1\n      dup2\n      dup2\n      mstore\n      0x20\n      add\n      dup3\n      dup1\n      sload\n      tag_81\n      swap1\n      tag_47\n      jump\t// in\n    tag_81:\n      dup1\n      iszero\n      tag_82\n      jumpi\n      dup1\n      0x1f\n      lt\n      tag_83\n      jumpi\n      0x0100\n      dup1\n      dup4\n      sload\n      div\n      mul\n      dup4\n      mstore\n      swap2\n      0x20\n      add\n      swap2\n      jump(tag_82)\n    tag_83:\n      dup3\n      add\n      swap2\n      swap1\n      0x00\n      mstore\n      keccak256(0x00, 0x20)\n      swap1\n    tag_84:\n      dup2\n      sload\n      dup2\n      mstore\n      swap1\n      0x01\n      add\n      swap1\n      0x20\n      add\n      dup1\n      dup4\n      gt\n      tag_84\n      jumpi\n      dup3\n      swap1\n      sub\n      0x1f\n      and\n      dup3\n      add\n      swap2\n    tag_82:\n      pop\n      pop\n      pop\n      pop\n      pop\n      dup2\n      mstore\n      0x20\n      add\n      0x03\n      dup3\n      add\n      0x00\n      swap1\n      sload\n      swap1\n      0x0100\n      exp\n      swap1\n      div\n      0xffffffffffffffffffffffffffffffffffffffff\n      and\n      0xffffffffffffffffffffffffffffffffffffffff\n      and\n      0xffffffffffffffffffffffffffffffffffffffff\n      and\n      dup2\n      mstore\n      pop\n      pop\n      dup2\n      mstore\n      0x20\n      add\n      swap1\n      0x01\n      add\n      swap1\n      jump(tag_72)\n    tag_73:\n      pop\n      pop\n      pop\n      pop\n      dup2\n      mstore\n      pop\n      pop\n      swap1\n      pop\n        /* \"contracts/GatedEvent.sol\":2484:2600  function ViewEvent(uint256 _id) external view returns (EventStruct memory) {... */\n      swap2\n      swap1\n      pop\n      jump\t// out\n        /* \"contracts/GatedEvent.sol\":3270:3545  function NumberOFPeopleRegisterd(... */\n    tag_26:\n        /* \"contracts/GatedEvent.sol\":3353:3360  uint256 */\n      0x00\n        /* \"contracts/GatedEvent.sol\":3379:3391  eventMapping */\n      0x02\n        /* \"contracts/GatedEvent.sol\":3379:3396  eventMapping[_id] */\n      0x00\n        /* \"contracts/GatedEvent.sol\":3392:3395  _id */\n      dup4\n        /* \"contracts/GatedEvent.sol\":3379:3396  eventMapping[_id] */\n      dup2\n      mstore\n      0x20\n      add\n      swap1\n      dup2\n      mstore\n      0x20\n      add\n      0x00\n      keccak256\n        /* \"contracts/GatedEvent.sol\":3379:3409  eventMapping[_id].AttendeeInfo */\n      0x06\n      add\n        /* \"contracts/GatedEvent.sol\":3379:3416  eventMapping[_id].AttendeeInfo.length */\n      dup1\n      sload\n      swap1\n      pop\n        /* \"contracts/GatedEvent.sol\":3372:3416  return eventMapping[_id].AttendeeInfo.length */\n      swap1\n      pop\n        /* \"contracts/GatedEvent.sol\":3270:3545  function NumberOFPeopleRegisterd(... */\n      swap2\n      swap1\n      pop\n      jump\t// out\n        /* \"contracts/GatedEvent.sol\":1959:2478  function UpdateEvent(... */\n    tag_32:\n        /* \"contracts/GatedEvent.sol\":2183:2221  EventStruct storage eventDetailsUpdate */\n      0x00\n        /* \"contracts/GatedEvent.sol\":2224:2236  eventMapping */\n      0x02\n        /* \"contracts/GatedEvent.sol\":2224:2241  eventMapping[_id] */\n      0x00\n        /* \"contracts/GatedEvent.sol\":2237:2240  _id */\n      dup9\n        /* \"contracts/GatedEvent.sol\":2224:2241  eventMapping[_id] */\n      dup2\n      mstore\n      0x20\n      add\n      swap1\n      dup2\n      mstore\n      0x20\n      add\n      0x00\n      keccak256\n        /* \"contracts/GatedEvent.sol\":2183:2241  EventStruct storage eventDetailsUpdate = eventMapping[_id] */\n      swap1\n      pop\n        /* \"contracts/GatedEvent.sol\":2279:2285  _title */\n      dup6\n        /* \"contracts/GatedEvent.sol\":2252:2270  eventDetailsUpdate */\n      dup2\n        /* \"contracts/GatedEvent.sol\":2252:2276  eventDetailsUpdate.Title */\n      0x01\n      add\n        /* \"contracts/GatedEvent.sol\":2252:2285  eventDetailsUpdate.Title = _title */\n      swap1\n      dup2\n      tag_87\n      swap2\n      swap1\n      tag_88\n      jump\t// in\n    tag_87:\n      pop\n        /* \"contracts/GatedEvent.sol\":2324:2332  _details */\n      dup5\n        /* \"contracts/GatedEvent.sol\":2295:2313  eventDetailsUpdate */\n      dup2\n        /* \"contracts/GatedEvent.sol\":2295:2321  eventDetailsUpdate.Details */\n      0x02\n      add\n        /* \"contracts/GatedEvent.sol\":2295:2332  eventDetailsUpdate.Details = _details */\n      swap1\n      dup2\n      tag_89\n      swap2\n      swap1\n      tag_88\n      jump\t// in\n    tag_89:\n      pop\n        /* \"contracts/GatedEvent.sol\":2368:2373  _host */\n      dup4\n        /* \"contracts/GatedEvent.sol\":2342:2360  eventDetailsUpdate */\n      dup2\n        /* \"contracts/GatedEvent.sol\":2342:2365  eventDetailsUpdate.Host */\n      0x03\n      add\n        /* \"contracts/GatedEvent.sol\":2342:2373  eventDetailsUpdate.Host = _host */\n      swap1\n      dup2\n      tag_90\n      swap2\n      swap1\n      tag_88\n      jump\t// in\n    tag_90:\n      pop\n        /* \"contracts/GatedEvent.sol\":2413:2422  _datetime */\n      dup3\n        /* \"contracts/GatedEvent.sol\":2383:2401  eventDetailsUpdate */\n      dup2\n        /* \"contracts/GatedEvent.sol\":2383:2410  eventDetailsUpdate.DateTime */\n      0x04\n      add\n        /* \"contracts/GatedEvent.sol\":2383:2422  eventDetailsUpdate.DateTime = _datetime */\n      swap1\n      dup2\n      tag_91\n      swap2\n      swap1\n      tag_88\n      jump\t// in\n    tag_91:\n      pop\n        /* \"contracts/GatedEvent.sol\":2462:2471  _location */\n      dup2\n        /* \"contracts/GatedEvent.sol\":2432:2450  eventDetailsUpdate */\n      dup2\n        /* \"contracts/GatedEvent.sol\":2432:2459  eventDetailsUpdate.Location */\n      0x05\n      add\n        /* \"contracts/GatedEvent.sol\":2432:2471  eventDetailsUpdate.Location = _location */\n      swap1\n      dup2\n      tag_92\n      swap2\n      swap1\n      tag_88\n      jump\t// in\n    tag_92:\n      pop\n        /* \"contracts/GatedEvent.sol\":2173:2478  {... */\n      pop\n        /* \"contracts/GatedEvent.sol\":1959:2478  function UpdateEvent(... */\n      pop\n      pop\n      pop\n      pop\n      pop\n      pop\n      jump\t// out\n        /* \"contracts/GatedEvent.sol\":2606:3264  function RegisterForEvent(... */\n    tag_36:\n        /* \"contracts/GatedEvent.sol\":2814:2852  AttendeeDetails memory attendeeDetails */\n      0x00\n        /* \"contracts/GatedEvent.sol\":2855:2961  AttendeeDetails(... */\n      mload(0x40)\n      dup1\n      0x80\n      add\n      0x40\n      mstore\n      dup1\n        /* \"contracts/GatedEvent.sol\":2884:2889  _name */\n      dup6\n        /* \"contracts/GatedEvent.sol\":2855:2961  AttendeeDetails(... */\n      dup2\n      mstore\n      0x20\n      add\n        /* \"contracts/GatedEvent.sol\":2903:2907  _age */\n      dup4\n        /* \"contracts/GatedEvent.sol\":2855:2961  AttendeeDetails(... */\n      0xff\n      and\n      dup2\n      mstore\n      0x20\n      add\n        /* \"contracts/GatedEvent.sol\":2921:2927  _email */\n      dup5\n        /* \"contracts/GatedEvent.sol\":2855:2961  AttendeeDetails(... */\n      dup2\n      mstore\n      0x20\n      add\n        /* \"contracts/GatedEvent.sol\":2941:2951  msg.sender */\n      caller\n        /* \"contracts/GatedEvent.sol\":2855:2961  AttendeeDetails(... */\n      0xffffffffffffffffffffffffffffffffffffffff\n      and\n      dup2\n      mstore\n      pop\n        /* \"contracts/GatedEvent.sol\":2814:2961  AttendeeDetails memory attendeeDetails = AttendeeDetails(... */\n      swap1\n      pop\n        /* \"contracts/GatedEvent.sol\":2971:3009  EventStruct storage eventDetailsUpdate */\n      0x00\n        /* \"contracts/GatedEvent.sol\":3012:3024  eventMapping */\n      0x02\n        /* \"contracts/GatedEvent.sol\":3012:3029  eventMapping[_id] */\n      0x00\n        /* \"contracts/GatedEvent.sol\":3025:3028  _id */\n      dup8\n        /* \"contracts/GatedEvent.sol\":3012:3029  eventMapping[_id] */\n      dup2\n      mstore\n      0x20\n      add\n      swap1\n      dup2\n      mstore\n      0x20\n      add\n      0x00\n      keccak256\n        /* \"contracts/GatedEvent.sol\":2971:3029  EventStruct storage eventDetailsUpdate = eventMapping[_id] */\n      swap1\n      pop\n        /* \"contracts/GatedEvent.sol\":3040:3058  eventDetailsUpdate */\n      dup1\n        /* \"contracts/GatedEvent.sol\":3040:3071  eventDetailsUpdate.AttendeeInfo */\n      0x06\n      add\n        /* \"contracts/GatedEvent.sol\":3077:3092  attendeeDetails */\n      dup3\n        /* \"contracts/GatedEvent.sol\":3040:3093  eventDetailsUpdate.AttendeeInfo.push(attendeeDetails) */\n      swap1\n      dup1\n      0x01\n      dup2\n      sload\n      add\n      dup1\n      dup3\n      sstore\n      dup1\n      swap2\n      pop\n      pop\n      0x01\n      swap1\n      sub\n      swap1\n      0x00\n      mstore\n      keccak256(0x00, 0x20)\n      swap1\n      0x04\n      mul\n      add\n      0x00\n      swap1\n      swap2\n      swap1\n      swap2\n      swap1\n      swap2\n      pop\n      0x00\n      dup3\n      add\n      mload\n      dup2\n      0x00\n      add\n      swap1\n      dup2\n      tag_95\n      swap2\n      swap1\n      tag_88\n      jump\t// in\n    tag_95:\n      pop\n      0x20\n      dup3\n      add\n      mload\n      dup2\n      0x01\n      add\n      exp(0x0100, 0x00)\n      dup2\n      sload\n      dup2\n      0xff\n      mul\n      not\n      and\n      swap1\n      dup4\n      0xff\n      and\n      mul\n      or\n      swap1\n      sstore\n      pop\n      0x40\n      dup3\n      add\n      mload\n      dup2\n      0x02\n      add\n      swap1\n      dup2\n      tag_96\n      swap2\n      swap1\n      tag_88\n      jump\t// in\n    tag_96:\n      pop\n      0x60\n      dup3\n      add\n      mload\n      dup2\n      0x03\n      add\n      exp(0x0100, 0x00)\n      dup2\n      sload\n      dup2\n      0xffffffffffffffffffffffffffffffffffffffff\n      mul\n      not\n      and\n      swap1\n      dup4\n      0xffffffffffffffffffffffffffffffffffffffff\n      and\n      mul\n      or\n      swap1\n      sstore\n      pop\n      pop\n      pop\n        /* \"contracts/GatedEvent.sol\":2747:3264  {... */\n      pop\n      pop\n        /* \"contracts/GatedEvent.sol\":2606:3264  function RegisterForEvent(... */\n      pop\n      pop\n      pop\n      pop\n      jump\t// out\n        /* \"contracts/GatedEvent.sol\":1261:1953  function CreateEvent(... */\n    tag_40:\n        /* \"contracts/GatedEvent.sol\":1498:1499  1 */\n      0x01\n        /* \"contracts/GatedEvent.sol\":1481:1495  EventIDCounter */\n      sload(0x03)\n        /* \"contracts/GatedEvent.sol\":1481:1499  EventIDCounter + 1 */\n      tag_98\n      swap2\n      swap1\n      tag_99\n      jump\t// in\n    tag_98:\n        /* \"contracts/GatedEvent.sol\":1464:1478  EventIDCounter */\n      0x03\n        /* \"contracts/GatedEvent.sol\":1464:1499  EventIDCounter = EventIDCounter + 1 */\n      dup2\n      swap1\n      sstore\n      pop\n        /* \"contracts/GatedEvent.sol\":1510:1527  uint256 _newEvent */\n      0x00\n        /* \"contracts/GatedEvent.sol\":1530:1544  EventIDCounter */\n      sload(0x03)\n        /* \"contracts/GatedEvent.sol\":1510:1544  uint256 _newEvent = EventIDCounter */\n      swap1\n      pop\n        /* \"contracts/GatedEvent.sol\":1555:1587  EventStruct storage eventDetails */\n      0x00\n        /* \"contracts/GatedEvent.sol\":1590:1602  eventMapping */\n      0x02\n        /* \"contracts/GatedEvent.sol\":1590:1613  eventMapping[_newEvent] */\n      0x00\n        /* \"contracts/GatedEvent.sol\":1603:1612  _newEvent */\n      dup4\n        /* \"contracts/GatedEvent.sol\":1590:1613  eventMapping[_newEvent] */\n      dup2\n      mstore\n      0x20\n      add\n      swap1\n      dup2\n      mstore\n      0x20\n      add\n      0x00\n      keccak256\n        /* \"contracts/GatedEvent.sol\":1555:1613  EventStruct storage eventDetails = eventMapping[_newEvent] */\n      swap1\n      pop\n        /* \"contracts/GatedEvent.sol\":1641:1650  _newEvent */\n      dup2\n        /* \"contracts/GatedEvent.sol\":1623:1635  eventDetails */\n      dup2\n        /* \"contracts/GatedEvent.sol\":1623:1638  eventDetails.Id */\n      0x00\n      add\n        /* \"contracts/GatedEvent.sol\":1623:1650  eventDetails.Id = _newEvent */\n      dup2\n      swap1\n      sstore\n      pop\n        /* \"contracts/GatedEvent.sol\":1681:1687  _title */\n      dup7\n        /* \"contracts/GatedEvent.sol\":1660:1672  eventDetails */\n      dup2\n        /* \"contracts/GatedEvent.sol\":1660:1678  eventDetails.Title */\n      0x01\n      add\n        /* \"contracts/GatedEvent.sol\":1660:1687  eventDetails.Title = _title */\n      swap1\n      dup2\n      tag_100\n      swap2\n      swap1\n      tag_88\n      jump\t// in\n    tag_100:\n      pop\n        /* \"contracts/GatedEvent.sol\":1720:1728  _details */\n      dup6\n        /* \"contracts/GatedEvent.sol\":1697:1709  eventDetails */\n      dup2\n        /* \"contracts/GatedEvent.sol\":1697:1717  eventDetails.Details */\n      0x02\n      add\n        /* \"contracts/GatedEvent.sol\":1697:1728  eventDetails.Details = _details */\n      swap1\n      dup2\n      tag_101\n      swap2\n      swap1\n      tag_88\n      jump\t// in\n    tag_101:\n      pop\n        /* \"contracts/GatedEvent.sol\":1758:1763  _host */\n      dup5\n        /* \"contracts/GatedEvent.sol\":1738:1750  eventDetails */\n      dup2\n        /* \"contracts/GatedEvent.sol\":1738:1755  eventDetails.Host */\n      0x03\n      add\n        /* \"contracts/GatedEvent.sol\":1738:1763  eventDetails.Host = _host */\n      swap1\n      dup2\n      tag_102\n      swap2\n      swap1\n      tag_88\n      jump\t// in\n    tag_102:\n      pop\n        /* \"contracts/GatedEvent.sol\":1797:1806  _datetime */\n      dup4\n        /* \"contracts/GatedEvent.sol\":1773:1785  eventDetails */\n      dup2\n        /* \"contracts/GatedEvent.sol\":1773:1794  eventDetails.DateTime */\n      0x04\n      add\n        /* \"contracts/GatedEvent.sol\":1773:1806  eventDetails.DateTime = _datetime */\n      swap1\n      dup2\n      tag_103\n      swap2\n      swap1\n      tag_88\n      jump\t// in\n    tag_103:\n      pop\n        /* \"contracts/GatedEvent.sol\":1840:1849  _location */\n      dup3\n        /* \"contracts/GatedEvent.sol\":1816:1828  eventDetails */\n      dup2\n        /* \"contracts/GatedEvent.sol\":1816:1837  eventDetails.Location */\n      0x05\n      add\n        /* \"contracts/GatedEvent.sol\":1816:1849  eventDetails.Location = _location */\n      swap1\n      dup2\n      tag_104\n      swap2\n      swap1\n      tag_88\n      jump\t// in\n    tag_104:\n      pop\n        /* \"contracts/GatedEvent.sol\":1860:1870  eventArray */\n      0x01\n        /* \"contracts/GatedEvent.sol\":1876:1888  eventDetails */\n      dup2\n        /* \"contracts/GatedEvent.sol\":1860:1889  eventArray.push(eventDetails) */\n      swap1\n      dup1\n      0x01\n      dup2\n      sload\n      add\n      dup1\n      dup3\n      sstore\n      dup1\n      swap2\n      pop\n      pop\n      0x01\n      swap1\n      sub\n      swap1\n      0x00\n      mstore\n      keccak256(0x00, 0x20)\n      swap1\n      0x07\n      mul\n      add\n      0x00\n      swap1\n      swap2\n      swap1\n      swap2\n      swap1\n      swap2\n      pop\n      0x00\n      dup3\n      add\n      sload\n      dup2\n      0x00\n      add\n      sstore\n      0x01\n      dup3\n      add\n      dup2\n      0x01\n      add\n      swap1\n      dup2\n      tag_106\n      swap2\n      swap1\n      tag_107\n      jump\t// in\n    tag_106:\n      pop\n      0x02\n      dup3\n      add\n      dup2\n      0x02\n      add\n      swap1\n      dup2\n      tag_108\n      swap2\n      swap1\n      tag_107\n      jump\t// in\n    tag_108:\n      pop\n      0x03\n      dup3\n      add\n      dup2\n      0x03\n      add\n      swap1\n      dup2\n      tag_109\n      swap2\n      swap1\n      tag_107\n      jump\t// in\n    tag_109:\n      pop\n      0x04\n      dup3\n      add\n      dup2\n      0x04\n      add\n      swap1\n      dup2\n      tag_110\n      swap2\n      swap1\n      tag_107\n      jump\t// in\n    tag_110:\n      pop\n      0x05\n      dup3\n      add\n      dup2\n      0x05\n      add\n      swap1\n      dup2\n      tag_111\n      swap2\n      swap1\n      tag_107\n      jump\t// in\n    tag_111:\n      pop\n      0x06\n      dup3\n      add\n      dup2\n      0x06\n      add\n      swap1\n      dup1\n      sload\n      tag_112\n      swap3\n      swap2\n      swap1\n      tag_113\n      jump\t// in\n    tag_112:\n      pop\n      pop\n      pop\n        /* \"contracts/GatedEvent.sol\":1940:1945  _host */\n      dup5\n        /* \"contracts/GatedEvent.sol\":1905:1946  NewEventCreated(_newEvent, _title, _host) */\n      mload(0x40)\n      tag_114\n      swap2\n      swap1\n      tag_115\n      jump\t// in\n    tag_114:\n      mload(0x40)\n      dup1\n      swap2\n      sub\n      swap1\n      keccak256\n        /* \"contracts/GatedEvent.sol\":1932:1938  _title */\n      dup8\n        /* \"contracts/GatedEvent.sol\":1905:1946  NewEventCreated(_newEvent, _title, _host) */\n      mload(0x40)\n      tag_116\n      swap2\n      swap1\n      tag_115\n      jump\t// in\n    tag_116:\n      mload(0x40)\n      dup1\n      swap2\n      sub\n      swap1\n      keccak256\n        /* \"contracts/GatedEvent.sol\":1921:1930  _newEvent */\n      dup4\n        /* \"contracts/GatedEvent.sol\":1905:1946  NewEventCreated(_newEvent, _title, _host) */\n      0x2eaf5c3aec496fce10b5616bd077441243efa6fd20f3ae98eb388b9d48a288ae\n      mload(0x40)\n      mload(0x40)\n      dup1\n      swap2\n      sub\n      swap1\n      log4\n        /* \"contracts/GatedEvent.sol\":1454:1953  {... */\n      pop\n      pop\n        /* \"contracts/GatedEvent.sol\":1261:1953  function CreateEvent(... */\n      pop\n      pop\n      pop\n      pop\n      pop\n      jump\t// out\n    tag_44:\n      mload(0x40)\n      dup1\n      0xe0\n      add\n      0x40\n      mstore\n      dup1\n      0x00\n      dup2\n      mstore\n      0x20\n      add\n      0x60\n      dup2\n      mstore\n      0x20\n      add\n      0x60\n      dup2\n      mstore\n      0x20\n      add\n      0x60\n      dup2\n      mstore\n      0x20\n      add\n      0x60\n      dup2\n      mstore\n      0x20\n      add\n      0x60\n      dup2\n      mstore\n      0x20\n      add\n      0x60\n      dup2\n      mstore\n      pop\n      swap1\n      jump\t// out\n    tag_113:\n      dup3\n      dup1\n      sload\n      dup3\n      dup3\n      sstore\n      swap1\n      0x00\n      mstore\n      keccak256(0x00, 0x20)\n      swap1\n      0x04\n      mul\n      dup2\n      add\n      swap3\n      dup3\n      iszero\n      tag_117\n      jumpi\n      0x00\n      mstore\n      keccak256(0x00, 0x20)\n      swap2\n      0x04\n      mul\n      dup3\n      add\n    tag_118:\n      dup3\n      dup2\n      gt\n      iszero\n      tag_119\n      jumpi\n      dup3\n      dup3\n      0x00\n      dup3\n      add\n      dup2\n      0x00\n      add\n      swap1\n      dup2\n      tag_120\n      swap2\n      swap1\n      tag_107\n      jump\t// in\n    tag_120:\n      pop\n      0x01\n      dup3\n      add\n      0x00\n      swap1\n      sload\n      swap1\n      0x0100\n      exp\n      swap1\n      div\n      0xff\n      and\n      dup2\n      0x01\n      add\n      exp(0x0100, 0x00)\n      dup2\n      sload\n      dup2\n      0xff\n      mul\n      not\n      and\n      swap1\n      dup4\n      0xff\n      and\n      mul\n      or\n      swap1\n      sstore\n      pop\n      0x02\n      dup3\n      add\n      dup2\n      0x02\n      add\n      swap1\n      dup2\n      tag_121\n      swap2\n      swap1\n      tag_107\n      jump\t// in\n    tag_121:\n      pop\n      0x03\n      dup3\n      add\n      0x00\n      swap1\n      sload\n      swap1\n      0x0100\n      exp\n      swap1\n      div\n      0xffffffffffffffffffffffffffffffffffffffff\n      and\n      dup2\n      0x03\n      add\n      exp(0x0100, 0x00)\n      dup2\n      sload\n      dup2\n      0xffffffffffffffffffffffffffffffffffffffff\n      mul\n      not\n      and\n      swap1\n      dup4\n      0xffffffffffffffffffffffffffffffffffffffff\n      and\n      mul\n      or\n      swap1\n      sstore\n      pop\n      pop\n      pop\n      swap2\n      0x04\n      add\n      swap2\n      swap1\n      0x04\n      add\n      swap1\n      jump(tag_118)\n    tag_119:\n    tag_117:\n      pop\n      swap1\n      pop\n      tag_122\n      swap2\n      swap1\n      tag_123\n      jump\t// in\n    tag_122:\n      pop\n      swap1\n      jump\t// out\n    tag_123:\n    tag_124:\n      dup1\n      dup3\n      gt\n      iszero\n      tag_125\n      jumpi\n      0x00\n      dup1\n      dup3\n      add\n      0x00\n      tag_126\n      swap2\n      swap1\n      tag_127\n      jump\t// in\n    tag_126:\n      0x01\n      dup3\n      add\n      exp(0x0100, 0x00)\n      dup2\n      sload\n      swap1\n      0xff\n      mul\n      not\n      and\n      swap1\n      sstore\n      0x02\n      dup3\n      add\n      0x00\n      tag_128\n      swap2\n      swap1\n      tag_127\n      jump\t// in\n    tag_128:\n      0x03\n      dup3\n      add\n      exp(0x0100, 0x00)\n      dup2\n      sload\n      swap1\n      0xffffffffffffffffffffffffffffffffffffffff\n      mul\n      not\n      and\n      swap1\n      sstore\n      pop\n      0x04\n      add\n      jump(tag_124)\n    tag_125:\n      pop\n      swap1\n      jump\t// out\n    tag_127:\n      pop\n      dup1\n      sload\n      tag_129\n      swap1\n      tag_47\n      jump\t// in\n    tag_129:\n      0x00\n      dup3\n      sstore\n      dup1\n      0x1f\n      lt\n      tag_131\n      jumpi\n      pop\n      jump(tag_130)\n    tag_131:\n      0x1f\n      add\n      0x20\n      swap1\n      div\n      swap1\n      0x00\n      mstore\n      keccak256(0x00, 0x20)\n      swap1\n      dup2\n      add\n      swap1\n      tag_132\n      swap2\n      swap1\n      tag_133\n      jump\t// in\n    tag_132:\n    tag_130:\n      pop\n      jump\t// out\n    tag_133:\n    tag_134:\n      dup1\n      dup3\n      gt\n      iszero\n      tag_135\n      jumpi\n      0x00\n      dup2\n      0x00\n      swap1\n      sstore\n      pop\n      0x01\n      add\n      jump(tag_134)\n    tag_135:\n      pop\n      swap1\n      jump\t// out\n        /* \"#utility.yul\":7:82   */\n    tag_136:\n        /* \"#utility.yul\":40:46   */\n      0x00\n        /* \"#utility.yul\":73:75   */\n      0x40\n        /* \"#utility.yul\":67:76   */\n      mload\n        /* \"#utility.yul\":57:76   */\n      swap1\n      pop\n        /* \"#utility.yul\":7:82   */\n      swap1\n      jump\t// out\n        /* \"#utility.yul\":88:205   */\n    tag_137:\n        /* \"#utility.yul\":197:198   */\n      0x00\n        /* \"#utility.yul\":194:195   */\n      dup1\n        /* \"#utility.yul\":187:199   */\n      revert\n        /* \"#utility.yul\":211:328   */\n    tag_138:\n        /* \"#utility.yul\":320:321   */\n      0x00\n        /* \"#utility.yul\":317:318   */\n      dup1\n        /* \"#utility.yul\":310:322   */\n      revert\n        /* \"#utility.yul\":334:411   */\n    tag_139:\n        /* \"#utility.yul\":371:378   */\n      0x00\n        /* \"#utility.yul\":400:405   */\n      dup2\n        /* \"#utility.yul\":389:405   */\n      swap1\n      pop\n        /* \"#utility.yul\":334:411   */\n      swap2\n      swap1\n      pop\n      jump\t// out\n        /* \"#utility.yul\":417:539   */\n    tag_140:\n        /* \"#utility.yul\":490:514   */\n      tag_201\n        /* \"#utility.yul\":508:513   */\n      dup2\n        /* \"#utility.yul\":490:514   */\n      tag_139\n      jump\t// in\n    tag_201:\n        /* \"#utility.yul\":483:488   */\n      dup2\n        /* \"#utility.yul\":480:515   */\n      eq\n        /* \"#utility.yul\":470:533   */\n      tag_202\n      jumpi\n        /* \"#utility.yul\":529:530   */\n      0x00\n        /* \"#utility.yul\":526:527   */\n      dup1\n        /* \"#utility.yul\":519:531   */\n      revert\n        /* \"#utility.yul\":470:533   */\n    tag_202:\n        /* \"#utility.yul\":417:539   */\n      pop\n      jump\t// out\n        /* \"#utility.yul\":545:684   */\n    tag_141:\n        /* \"#utility.yul\":591:596   */\n      0x00\n        /* \"#utility.yul\":629:635   */\n      dup2\n        /* \"#utility.yul\":616:636   */\n      calldataload\n        /* \"#utility.yul\":607:636   */\n      swap1\n      pop\n        /* \"#utility.yul\":645:678   */\n      tag_204\n        /* \"#utility.yul\":672:677   */\n      dup2\n        /* \"#utility.yul\":645:678   */\n      tag_140\n      jump\t// in\n    tag_204:\n        /* \"#utility.yul\":545:684   */\n      swap3\n      swap2\n      pop\n      pop\n      jump\t// out\n        /* \"#utility.yul\":690:816   */\n    tag_142:\n        /* \"#utility.yul\":727:734   */\n      0x00\n        /* \"#utility.yul\":767:809   */\n      0xffffffffffffffffffffffffffffffffffffffff\n        /* \"#utility.yul\":760:765   */\n      dup3\n        /* \"#utility.yul\":756:810   */\n      and\n        /* \"#utility.yul\":745:810   */\n      swap1\n      pop\n        /* \"#utility.yul\":690:816   */\n      swap2\n      swap1\n      pop\n      jump\t// out\n        /* \"#utility.yul\":822:918   */\n    tag_143:\n        /* \"#utility.yul\":859:866   */\n      0x00\n        /* \"#utility.yul\":888:912   */\n      tag_207\n        /* \"#utility.yul\":906:911   */\n      dup3\n        /* \"#utility.yul\":888:912   */\n      tag_142\n      jump\t// in\n    tag_207:\n        /* \"#utility.yul\":877:912   */\n      swap1\n      pop\n        /* \"#utility.yul\":822:918   */\n      swap2\n      swap1\n      pop\n      jump\t// out\n        /* \"#utility.yul\":924:1046   */\n    tag_144:\n        /* \"#utility.yul\":997:1021   */\n      tag_209\n        /* \"#utility.yul\":1015:1020   */\n      dup2\n        /* \"#utility.yul\":997:1021   */\n      tag_143\n      jump\t// in\n    tag_209:\n        /* \"#utility.yul\":990:995   */\n      dup2\n        /* \"#utility.yul\":987:1022   */\n      eq\n        /* \"#utility.yul\":977:1040   */\n      tag_210\n      jumpi\n        /* \"#utility.yul\":1036:1037   */\n      0x00\n        /* \"#utility.yul\":1033:1034   */\n      dup1\n        /* \"#utility.yul\":1026:1038   */\n      revert\n        /* \"#utility.yul\":977:1040   */\n    tag_210:\n        /* \"#utility.yul\":924:1046   */\n      pop\n      jump\t// out\n        /* \"#utility.yul\":1052:1191   */\n    tag_145:\n        /* \"#utility.yul\":1098:1103   */\n      0x00\n        /* \"#utility.yul\":1136:1142   */\n      dup2\n        /* \"#utility.yul\":1123:1143   */\n      calldataload\n        /* \"#utility.yul\":1114:1143   */\n      swap1\n      pop\n        /* \"#utility.yul\":1152:1185   */\n      tag_212\n        /* \"#utility.yul\":1179:1184   */\n      dup2\n        /* \"#utility.yul\":1152:1185   */\n      tag_144\n      jump\t// in\n    tag_212:\n        /* \"#utility.yul\":1052:1191   */\n      swap3\n      swap2\n      pop\n      pop\n      jump\t// out\n        /* \"#utility.yul\":1197:1671   */\n    tag_13:\n        /* \"#utility.yul\":1265:1271   */\n      0x00\n        /* \"#utility.yul\":1273:1279   */\n      dup1\n        /* \"#utility.yul\":1322:1324   */\n      0x40\n        /* \"#utility.yul\":1310:1319   */\n      dup4\n        /* \"#utility.yul\":1301:1308   */\n      dup6\n        /* \"#utility.yul\":1297:1320   */\n      sub\n        /* \"#utility.yul\":1293:1325   */\n      slt\n        /* \"#utility.yul\":1290:1409   */\n      iszero\n      tag_214\n      jumpi\n        /* \"#utility.yul\":1328:1407   */\n      tag_215\n      tag_137\n      jump\t// in\n    tag_215:\n        /* \"#utility.yul\":1290:1409   */\n    tag_214:\n        /* \"#utility.yul\":1448:1449   */\n      0x00\n        /* \"#utility.yul\":1473:1526   */\n      tag_216\n        /* \"#utility.yul\":1518:1525   */\n      dup6\n        /* \"#utility.yul\":1509:1515   */\n      dup3\n        /* \"#utility.yul\":1498:1507   */\n      dup7\n        /* \"#utility.yul\":1494:1516   */\n      add\n        /* \"#utility.yul\":1473:1526   */\n      tag_141\n      jump\t// in\n    tag_216:\n        /* \"#utility.yul\":1463:1526   */\n      swap3\n      pop\n        /* \"#utility.yul\":1419:1536   */\n      pop\n        /* \"#utility.yul\":1575:1577   */\n      0x20\n        /* \"#utility.yul\":1601:1654   */\n      tag_217\n        /* \"#utility.yul\":1646:1653   */\n      dup6\n        /* \"#utility.yul\":1637:1643   */\n      dup3\n        /* \"#utility.yul\":1626:1635   */\n      dup7\n        /* \"#utility.yul\":1622:1644   */\n      add\n        /* \"#utility.yul\":1601:1654   */\n      tag_145\n      jump\t// in\n    tag_217:\n        /* \"#utility.yul\":1591:1654   */\n      swap2\n      pop\n        /* \"#utility.yul\":1546:1664   */\n      pop\n        /* \"#utility.yul\":1197:1671   */\n      swap3\n      pop\n      swap3\n      swap1\n      pop\n      jump\t// out\n        /* \"#utility.yul\":1677:2006   */\n    tag_17:\n        /* \"#utility.yul\":1736:1742   */\n      0x00\n        /* \"#utility.yul\":1785:1787   */\n      0x20\n        /* \"#utility.yul\":1773:1782   */\n      dup3\n        /* \"#utility.yul\":1764:1771   */\n      dup5\n        /* \"#utility.yul\":1760:1783   */\n      sub\n        /* \"#utility.yul\":1756:1788   */\n      slt\n        /* \"#utility.yul\":1753:1872   */\n      iszero\n      tag_219\n      jumpi\n        /* \"#utility.yul\":1791:1870   */\n      tag_220\n      tag_137\n      jump\t// in\n    tag_220:\n        /* \"#utility.yul\":1753:1872   */\n    tag_219:\n        /* \"#utility.yul\":1911:1912   */\n      0x00\n        /* \"#utility.yul\":1936:1989   */\n      tag_221\n        /* \"#utility.yul\":1981:1988   */\n      dup5\n        /* \"#utility.yul\":1972:1978   */\n      dup3\n        /* \"#utility.yul\":1961:1970   */\n      dup6\n        /* \"#utility.yul\":1957:1979   */\n      add\n        /* \"#utility.yul\":1936:1989   */\n      tag_141\n      jump\t// in\n    tag_221:\n        /* \"#utility.yul\":1926:1989   */\n      swap2\n      pop\n        /* \"#utility.yul\":1882:1999   */\n      pop\n        /* \"#utility.yul\":1677:2006   */\n      swap3\n      swap2\n      pop\n      pop\n      jump\t// out\n        /* \"#utility.yul\":2012:2120   */\n    tag_146:\n        /* \"#utility.yul\":2089:2113   */\n      tag_223\n        /* \"#utility.yul\":2107:2112   */\n      dup2\n        /* \"#utility.yul\":2089:2113   */\n      tag_139\n      jump\t// in\n    tag_223:\n        /* \"#utility.yul\":2084:2087   */\n      dup3\n        /* \"#utility.yul\":2077:2114   */\n      mstore\n        /* \"#utility.yul\":2012:2120   */\n      pop\n      pop\n      jump\t// out\n        /* \"#utility.yul\":2126:2225   */\n    tag_147:\n        /* \"#utility.yul\":2178:2184   */\n      0x00\n        /* \"#utility.yul\":2212:2217   */\n      dup2\n        /* \"#utility.yul\":2206:2218   */\n      mload\n        /* \"#utility.yul\":2196:2218   */\n      swap1\n      pop\n        /* \"#utility.yul\":2126:2225   */\n      swap2\n      swap1\n      pop\n      jump\t// out\n        /* \"#utility.yul\":2231:2390   */\n    tag_148:\n        /* \"#utility.yul\":2305:2316   */\n      0x00\n        /* \"#utility.yul\":2339:2345   */\n      dup3\n        /* \"#utility.yul\":2334:2337   */\n      dup3\n        /* \"#utility.yul\":2327:2346   */\n      mstore\n        /* \"#utility.yul\":2379:2383   */\n      0x20\n        /* \"#utility.yul\":2374:2377   */\n      dup3\n        /* \"#utility.yul\":2370:2384   */\n      add\n        /* \"#utility.yul\":2355:2384   */\n      swap1\n      pop\n        /* \"#utility.yul\":2231:2390   */\n      swap3\n      swap2\n      pop\n      pop\n      jump\t// out\n        /* \"#utility.yul\":2396:2642   */\n    tag_149:\n        /* \"#utility.yul\":2477:2478   */\n      0x00\n        /* \"#utility.yul\":2487:2600   */\n    tag_227:\n        /* \"#utility.yul\":2501:2507   */\n      dup4\n        /* \"#utility.yul\":2498:2499   */\n      dup2\n        /* \"#utility.yul\":2495:2508   */\n      lt\n        /* \"#utility.yul\":2487:2600   */\n      iszero\n      tag_229\n      jumpi\n        /* \"#utility.yul\":2586:2587   */\n      dup1\n        /* \"#utility.yul\":2581:2584   */\n      dup3\n        /* \"#utility.yul\":2577:2588   */\n      add\n        /* \"#utility.yul\":2571:2589   */\n      mload\n        /* \"#utility.yul\":2567:2568   */\n      dup2\n        /* \"#utility.yul\":2562:2565   */\n      dup5\n        /* \"#utility.yul\":2558:2569   */\n      add\n        /* \"#utility.yul\":2551:2590   */\n      mstore\n        /* \"#utility.yul\":2523:2525   */\n      0x20\n        /* \"#utility.yul\":2520:2521   */\n      dup2\n        /* \"#utility.yul\":2516:2526   */\n      add\n        /* \"#utility.yul\":2511:2526   */\n      swap1\n      pop\n        /* \"#utility.yul\":2487:2600   */\n      jump(tag_227)\n    tag_229:\n        /* \"#utility.yul\":2634:2635   */\n      0x00\n        /* \"#utility.yul\":2625:2631   */\n      dup5\n        /* \"#utility.yul\":2620:2623   */\n      dup5\n        /* \"#utility.yul\":2616:2632   */\n      add\n        /* \"#utility.yul\":2609:2636   */\n      mstore\n        /* \"#utility.yul\":2458:2642   */\n      pop\n        /* \"#utility.yul\":2396:2642   */\n      pop\n      pop\n      pop\n      jump\t// out\n        /* \"#utility.yul\":2648:2750   */\n    tag_150:\n        /* \"#utility.yul\":2689:2695   */\n      0x00\n        /* \"#utility.yul\":2740:2742   */\n      0x1f\n        /* \"#utility.yul\":2736:2743   */\n      not\n        /* \"#utility.yul\":2731:2733   */\n      0x1f\n        /* \"#utility.yul\":2724:2729   */\n      dup4\n        /* \"#utility.yul\":2720:2734   */\n      add\n        /* \"#utility.yul\":2716:2744   */\n      and\n        /* \"#utility.yul\":2706:2744   */\n      swap1\n      pop\n        /* \"#utility.yul\":2648:2750   */\n      swap2\n      swap1\n      pop\n      jump\t// out\n        /* \"#utility.yul\":2756:3113   */\n    tag_151:\n        /* \"#utility.yul\":2834:2837   */\n      0x00\n        /* \"#utility.yul\":2862:2901   */\n      tag_232\n        /* \"#utility.yul\":2895:2900   */\n      dup3\n        /* \"#utility.yul\":2862:2901   */\n      tag_147\n      jump\t// in\n    tag_232:\n        /* \"#utility.yul\":2917:2978   */\n      tag_233\n        /* \"#utility.yul\":2971:2977   */\n      dup2\n        /* \"#utility.yul\":2966:2969   */\n      dup6\n        /* \"#utility.yul\":2917:2978   */\n      tag_148\n      jump\t// in\n    tag_233:\n        /* \"#utility.yul\":2910:2978   */\n      swap4\n      pop\n        /* \"#utility.yul\":2987:3052   */\n      tag_234\n        /* \"#utility.yul\":3045:3051   */\n      dup2\n        /* \"#utility.yul\":3040:3043   */\n      dup6\n        /* \"#utility.yul\":3033:3037   */\n      0x20\n        /* \"#utility.yul\":3026:3031   */\n      dup7\n        /* \"#utility.yul\":3022:3038   */\n      add\n        /* \"#utility.yul\":2987:3052   */\n      tag_149\n      jump\t// in\n    tag_234:\n        /* \"#utility.yul\":3077:3106   */\n      tag_235\n        /* \"#utility.yul\":3099:3105   */\n      dup2\n        /* \"#utility.yul\":3077:3106   */\n      tag_150\n      jump\t// in\n    tag_235:\n        /* \"#utility.yul\":3072:3075   */\n      dup5\n        /* \"#utility.yul\":3068:3107   */\n      add\n        /* \"#utility.yul\":3061:3107   */\n      swap2\n      pop\n        /* \"#utility.yul\":2838:3113   */\n      pop\n        /* \"#utility.yul\":2756:3113   */\n      swap3\n      swap2\n      pop\n      pop\n      jump\t// out\n        /* \"#utility.yul\":3119:3265   */\n    tag_152:\n        /* \"#utility.yul\":3218:3224   */\n      0x00\n        /* \"#utility.yul\":3252:3257   */\n      dup2\n        /* \"#utility.yul\":3246:3258   */\n      mload\n        /* \"#utility.yul\":3236:3258   */\n      swap1\n      pop\n        /* \"#utility.yul\":3119:3265   */\n      swap2\n      swap1\n      pop\n      jump\t// out\n        /* \"#utility.yul\":3271:3477   */\n    tag_153:\n        /* \"#utility.yul\":3392:3403   */\n      0x00\n        /* \"#utility.yul\":3426:3432   */\n      dup3\n        /* \"#utility.yul\":3421:3424   */\n      dup3\n        /* \"#utility.yul\":3414:3433   */\n      mstore\n        /* \"#utility.yul\":3466:3470   */\n      0x20\n        /* \"#utility.yul\":3461:3464   */\n      dup3\n        /* \"#utility.yul\":3457:3471   */\n      add\n        /* \"#utility.yul\":3442:3471   */\n      swap1\n      pop\n        /* \"#utility.yul\":3271:3477   */\n      swap3\n      swap2\n      pop\n      pop\n      jump\t// out\n        /* \"#utility.yul\":3483:3647   */\n    tag_154:\n        /* \"#utility.yul\":3582:3586   */\n      0x00\n        /* \"#utility.yul\":3605:3608   */\n      dup2\n        /* \"#utility.yul\":3597:3608   */\n      swap1\n      pop\n        /* \"#utility.yul\":3635:3639   */\n      0x20\n        /* \"#utility.yul\":3630:3633   */\n      dup3\n        /* \"#utility.yul\":3626:3640   */\n      add\n        /* \"#utility.yul\":3618:3640   */\n      swap1\n      pop\n        /* \"#utility.yul\":3483:3647   */\n      swap2\n      swap1\n      pop\n      jump\t// out\n        /* \"#utility.yul\":3653:3739   */\n    tag_155:\n        /* \"#utility.yul\":3688:3695   */\n      0x00\n        /* \"#utility.yul\":3728:3732   */\n      0xff\n        /* \"#utility.yul\":3721:3726   */\n      dup3\n        /* \"#utility.yul\":3717:3733   */\n      and\n        /* \"#utility.yul\":3706:3733   */\n      swap1\n      pop\n        /* \"#utility.yul\":3653:3739   */\n      swap2\n      swap1\n      pop\n      jump\t// out\n        /* \"#utility.yul\":3745:3847   */\n    tag_156:\n        /* \"#utility.yul\":3818:3840   */\n      tag_241\n        /* \"#utility.yul\":3834:3839   */\n      dup2\n        /* \"#utility.yul\":3818:3840   */\n      tag_155\n      jump\t// in\n    tag_241:\n        /* \"#utility.yul\":3813:3816   */\n      dup3\n        /* \"#utility.yul\":3806:3841   */\n      mstore\n        /* \"#utility.yul\":3745:3847   */\n      pop\n      pop\n      jump\t// out\n        /* \"#utility.yul\":3853:3961   */\n    tag_157:\n        /* \"#utility.yul\":3930:3954   */\n      tag_243\n        /* \"#utility.yul\":3948:3953   */\n      dup2\n        /* \"#utility.yul\":3930:3954   */\n      tag_143\n      jump\t// in\n    tag_243:\n        /* \"#utility.yul\":3925:3928   */\n      dup3\n        /* \"#utility.yul\":3918:3955   */\n      mstore\n        /* \"#utility.yul\":3853:3961   */\n      pop\n      pop\n      jump\t// out\n        /* \"#utility.yul\":4045:5081   */\n    tag_158:\n        /* \"#utility.yul\":4168:4171   */\n      0x00\n        /* \"#utility.yul\":4204:4208   */\n      0x80\n        /* \"#utility.yul\":4199:4202   */\n      dup4\n        /* \"#utility.yul\":4195:4209   */\n      add\n        /* \"#utility.yul\":4291:4295   */\n      0x00\n        /* \"#utility.yul\":4284:4289   */\n      dup4\n        /* \"#utility.yul\":4280:4296   */\n      add\n        /* \"#utility.yul\":4274:4297   */\n      mload\n        /* \"#utility.yul\":4344:4347   */\n      dup5\n        /* \"#utility.yul\":4338:4342   */\n      dup3\n        /* \"#utility.yul\":4334:4348   */\n      sub\n        /* \"#utility.yul\":4327:4331   */\n      0x00\n        /* \"#utility.yul\":4322:4325   */\n      dup7\n        /* \"#utility.yul\":4318:4332   */\n      add\n        /* \"#utility.yul\":4311:4349   */\n      mstore\n        /* \"#utility.yul\":4370:4443   */\n      tag_245\n        /* \"#utility.yul\":4438:4442   */\n      dup3\n        /* \"#utility.yul\":4424:4436   */\n      dup3\n        /* \"#utility.yul\":4370:4443   */\n      tag_151\n      jump\t// in\n    tag_245:\n        /* \"#utility.yul\":4362:4443   */\n      swap2\n      pop\n        /* \"#utility.yul\":4219:4454   */\n      pop\n        /* \"#utility.yul\":4535:4539   */\n      0x20\n        /* \"#utility.yul\":4528:4533   */\n      dup4\n        /* \"#utility.yul\":4524:4540   */\n      add\n        /* \"#utility.yul\":4518:4541   */\n      mload\n        /* \"#utility.yul\":4554:4613   */\n      tag_246\n        /* \"#utility.yul\":4607:4611   */\n      0x20\n        /* \"#utility.yul\":4602:4605   */\n      dup7\n        /* \"#utility.yul\":4598:4612   */\n      add\n        /* \"#utility.yul\":4584:4596   */\n      dup3\n        /* \"#utility.yul\":4554:4613   */\n      tag_156\n      jump\t// in\n    tag_246:\n        /* \"#utility.yul\":4464:4623   */\n      pop\n        /* \"#utility.yul\":4706:4710   */\n      0x40\n        /* \"#utility.yul\":4699:4704   */\n      dup4\n        /* \"#utility.yul\":4695:4711   */\n      add\n        /* \"#utility.yul\":4689:4712   */\n      mload\n        /* \"#utility.yul\":4759:4762   */\n      dup5\n        /* \"#utility.yul\":4753:4757   */\n      dup3\n        /* \"#utility.yul\":4749:4763   */\n      sub\n        /* \"#utility.yul\":4742:4746   */\n      0x40\n        /* \"#utility.yul\":4737:4740   */\n      dup7\n        /* \"#utility.yul\":4733:4747   */\n      add\n        /* \"#utility.yul\":4726:4764   */\n      mstore\n        /* \"#utility.yul\":4785:4858   */\n      tag_247\n        /* \"#utility.yul\":4853:4857   */\n      dup3\n        /* \"#utility.yul\":4839:4851   */\n      dup3\n        /* \"#utility.yul\":4785:4858   */\n      tag_151\n      jump\t// in\n    tag_247:\n        /* \"#utility.yul\":4777:4858   */\n      swap2\n      pop\n        /* \"#utility.yul\":4633:4869   */\n      pop\n        /* \"#utility.yul\":4962:4966   */\n      0x60\n        /* \"#utility.yul\":4955:4960   */\n      dup4\n        /* \"#utility.yul\":4951:4967   */\n      add\n        /* \"#utility.yul\":4945:4968   */\n      mload\n        /* \"#utility.yul\":4981:5044   */\n      tag_248\n        /* \"#utility.yul\":5038:5042   */\n      0x60\n        /* \"#utility.yul\":5033:5036   */\n      dup7\n        /* \"#utility.yul\":5029:5043   */\n      add\n        /* \"#utility.yul\":5015:5027   */\n      dup3\n        /* \"#utility.yul\":4981:5044   */\n      tag_157\n      jump\t// in\n    tag_248:\n        /* \"#utility.yul\":4879:5054   */\n      pop\n        /* \"#utility.yul\":5071:5075   */\n      dup1\n        /* \"#utility.yul\":5064:5075   */\n      swap2\n      pop\n        /* \"#utility.yul\":4173:5081   */\n      pop\n        /* \"#utility.yul\":4045:5081   */\n      swap3\n      swap2\n      pop\n      pop\n      jump\t// out\n        /* \"#utility.yul\":5087:5371   */\n    tag_159:\n        /* \"#utility.yul\":5220:5230   */\n      0x00\n        /* \"#utility.yul\":5255:5365   */\n      tag_250\n        /* \"#utility.yul\":5361:5364   */\n      dup4\n        /* \"#utility.yul\":5353:5359   */\n      dup4\n        /* \"#utility.yul\":5255:5365   */\n      tag_158\n      jump\t// in\n    tag_250:\n        /* \"#utility.yul\":5241:5365   */\n      swap1\n      pop\n        /* \"#utility.yul\":5087:5371   */\n      swap3\n      swap2\n      pop\n      pop\n      jump\t// out\n        /* \"#utility.yul\":5377:5522   */\n    tag_160:\n        /* \"#utility.yul\":5479:5483   */\n      0x00\n        /* \"#utility.yul\":5511:5515   */\n      0x20\n        /* \"#utility.yul\":5506:5509   */\n      dup3\n        /* \"#utility.yul\":5502:5516   */\n      add\n        /* \"#utility.yul\":5494:5516   */\n      swap1\n      pop\n        /* \"#utility.yul\":5377:5522   */\n      swap2\n      swap1\n      pop\n      jump\t// out\n        /* \"#utility.yul\":5610:6757   */\n    tag_161:\n        /* \"#utility.yul\":5783:5786   */\n      0x00\n        /* \"#utility.yul\":5812:5898   */\n      tag_253\n        /* \"#utility.yul\":5892:5897   */\n      dup3\n        /* \"#utility.yul\":5812:5898   */\n      tag_152\n      jump\t// in\n    tag_253:\n        /* \"#utility.yul\":5914:6022   */\n      tag_254\n        /* \"#utility.yul\":6015:6021   */\n      dup2\n        /* \"#utility.yul\":6010:6013   */\n      dup6\n        /* \"#utility.yul\":5914:6022   */\n      tag_153\n      jump\t// in\n    tag_254:\n        /* \"#utility.yul\":5907:6022   */\n      swap4\n      pop\n        /* \"#utility.yul\":6048:6051   */\n      dup4\n        /* \"#utility.yul\":6093:6097   */\n      0x20\n        /* \"#utility.yul\":6085:6091   */\n      dup3\n        /* \"#utility.yul\":6081:6098   */\n      mul\n        /* \"#utility.yul\":6076:6079   */\n      dup6\n        /* \"#utility.yul\":6072:6099   */\n      add\n        /* \"#utility.yul\":6123:6211   */\n      tag_255\n        /* \"#utility.yul\":6205:6210   */\n      dup6\n        /* \"#utility.yul\":6123:6211   */\n      tag_154\n      jump\t// in\n    tag_255:\n        /* \"#utility.yul\":6234:6241   */\n      dup1\n        /* \"#utility.yul\":6265:6266   */\n      0x00\n        /* \"#utility.yul\":6250:6712   */\n    tag_256:\n        /* \"#utility.yul\":6275:6281   */\n      dup6\n        /* \"#utility.yul\":6272:6273   */\n      dup2\n        /* \"#utility.yul\":6269:6282   */\n      lt\n        /* \"#utility.yul\":6250:6712   */\n      iszero\n      tag_258\n      jumpi\n        /* \"#utility.yul\":6346:6355   */\n      dup5\n        /* \"#utility.yul\":6340:6344   */\n      dup5\n        /* \"#utility.yul\":6336:6356   */\n      sub\n        /* \"#utility.yul\":6331:6334   */\n      dup10\n        /* \"#utility.yul\":6324:6357   */\n      mstore\n        /* \"#utility.yul\":6397:6403   */\n      dup2\n        /* \"#utility.yul\":6391:6404   */\n      mload\n        /* \"#utility.yul\":6425:6553   */\n      tag_259\n        /* \"#utility.yul\":6548:6552   */\n      dup6\n        /* \"#utility.yul\":6533:6546   */\n      dup3\n        /* \"#utility.yul\":6425:6553   */\n      tag_159\n      jump\t// in\n    tag_259:\n        /* \"#utility.yul\":6417:6553   */\n      swap5\n      pop\n        /* \"#utility.yul\":6576:6668   */\n      tag_260\n        /* \"#utility.yul\":6661:6667   */\n      dup4\n        /* \"#utility.yul\":6576:6668   */\n      tag_160\n      jump\t// in\n    tag_260:\n        /* \"#utility.yul\":6566:6668   */\n      swap3\n      pop\n        /* \"#utility.yul\":6697:6701   */\n      0x20\n        /* \"#utility.yul\":6692:6695   */\n      dup11\n        /* \"#utility.yul\":6688:6702   */\n      add\n        /* \"#utility.yul\":6681:6702   */\n      swap10\n      pop\n        /* \"#utility.yul\":6310:6712   */\n      pop\n        /* \"#utility.yul\":6297:6298   */\n      0x01\n        /* \"#utility.yul\":6294:6295   */\n      dup2\n        /* \"#utility.yul\":6290:6299   */\n      add\n        /* \"#utility.yul\":6285:6299   */\n      swap1\n      pop\n        /* \"#utility.yul\":6250:6712   */\n      jump(tag_256)\n    tag_258:\n        /* \"#utility.yul\":6254:6268   */\n      pop\n        /* \"#utility.yul\":6728:6732   */\n      dup3\n        /* \"#utility.yul\":6721:6732   */\n      swap8\n      pop\n        /* \"#utility.yul\":6748:6751   */\n      dup8\n        /* \"#utility.yul\":6741:6751   */\n      swap6\n      pop\n        /* \"#utility.yul\":5788:6757   */\n      pop\n      pop\n      pop\n      pop\n      pop\n        /* \"#utility.yul\":5610:6757   */\n      swap3\n      swap2\n      pop\n      pop\n      jump\t// out\n        /* \"#utility.yul\":6833:8782   */\n    tag_162:\n        /* \"#utility.yul\":6958:6961   */\n      0x00\n        /* \"#utility.yul\":6994:6998   */\n      0xe0\n        /* \"#utility.yul\":6989:6992   */\n      dup4\n        /* \"#utility.yul\":6985:6999   */\n      add\n        /* \"#utility.yul\":7079:7083   */\n      0x00\n        /* \"#utility.yul\":7072:7077   */\n      dup4\n        /* \"#utility.yul\":7068:7084   */\n      add\n        /* \"#utility.yul\":7062:7085   */\n      mload\n        /* \"#utility.yul\":7098:7161   */\n      tag_262\n        /* \"#utility.yul\":7155:7159   */\n      0x00\n        /* \"#utility.yul\":7150:7153   */\n      dup7\n        /* \"#utility.yul\":7146:7160   */\n      add\n        /* \"#utility.yul\":7132:7144   */\n      dup3\n        /* \"#utility.yul\":7098:7161   */\n      tag_146\n      jump\t// in\n    tag_262:\n        /* \"#utility.yul\":7009:7171   */\n      pop\n        /* \"#utility.yul\":7254:7258   */\n      0x20\n        /* \"#utility.yul\":7247:7252   */\n      dup4\n        /* \"#utility.yul\":7243:7259   */\n      add\n        /* \"#utility.yul\":7237:7260   */\n      mload\n        /* \"#utility.yul\":7307:7310   */\n      dup5\n        /* \"#utility.yul\":7301:7305   */\n      dup3\n        /* \"#utility.yul\":7297:7311   */\n      sub\n        /* \"#utility.yul\":7290:7294   */\n      0x20\n        /* \"#utility.yul\":7285:7288   */\n      dup7\n        /* \"#utility.yul\":7281:7295   */\n      add\n        /* \"#utility.yul\":7274:7312   */\n      mstore\n        /* \"#utility.yul\":7333:7406   */\n      tag_263\n        /* \"#utility.yul\":7401:7405   */\n      dup3\n        /* \"#utility.yul\":7387:7399   */\n      dup3\n        /* \"#utility.yul\":7333:7406   */\n      tag_151\n      jump\t// in\n    tag_263:\n        /* \"#utility.yul\":7325:7406   */\n      swap2\n      pop\n        /* \"#utility.yul\":7181:7417   */\n      pop\n        /* \"#utility.yul\":7502:7506   */\n      0x40\n        /* \"#utility.yul\":7495:7500   */\n      dup4\n        /* \"#utility.yul\":7491:7507   */\n      add\n        /* \"#utility.yul\":7485:7508   */\n      mload\n        /* \"#utility.yul\":7555:7558   */\n      dup5\n        /* \"#utility.yul\":7549:7553   */\n      dup3\n        /* \"#utility.yul\":7545:7559   */\n      sub\n        /* \"#utility.yul\":7538:7542   */\n      0x40\n        /* \"#utility.yul\":7533:7536   */\n      dup7\n        /* \"#utility.yul\":7529:7543   */\n      add\n        /* \"#utility.yul\":7522:7560   */\n      mstore\n        /* \"#utility.yul\":7581:7654   */\n      tag_264\n        /* \"#utility.yul\":7649:7653   */\n      dup3\n        /* \"#utility.yul\":7635:7647   */\n      dup3\n        /* \"#utility.yul\":7581:7654   */\n      tag_151\n      jump\t// in\n    tag_264:\n        /* \"#utility.yul\":7573:7654   */\n      swap2\n      pop\n        /* \"#utility.yul\":7427:7665   */\n      pop\n        /* \"#utility.yul\":7747:7751   */\n      0x60\n        /* \"#utility.yul\":7740:7745   */\n      dup4\n        /* \"#utility.yul\":7736:7752   */\n      add\n        /* \"#utility.yul\":7730:7753   */\n      mload\n        /* \"#utility.yul\":7800:7803   */\n      dup5\n        /* \"#utility.yul\":7794:7798   */\n      dup3\n        /* \"#utility.yul\":7790:7804   */\n      sub\n        /* \"#utility.yul\":7783:7787   */\n      0x60\n        /* \"#utility.yul\":7778:7781   */\n      dup7\n        /* \"#utility.yul\":7774:7788   */\n      add\n        /* \"#utility.yul\":7767:7805   */\n      mstore\n        /* \"#utility.yul\":7826:7899   */\n      tag_265\n        /* \"#utility.yul\":7894:7898   */\n      dup3\n        /* \"#utility.yul\":7880:7892   */\n      dup3\n        /* \"#utility.yul\":7826:7899   */\n      tag_151\n      jump\t// in\n    tag_265:\n        /* \"#utility.yul\":7818:7899   */\n      swap2\n      pop\n        /* \"#utility.yul\":7675:7910   */\n      pop\n        /* \"#utility.yul\":7996:8000   */\n      0x80\n        /* \"#utility.yul\":7989:7994   */\n      dup4\n        /* \"#utility.yul\":7985:8001   */\n      add\n        /* \"#utility.yul\":7979:8002   */\n      mload\n        /* \"#utility.yul\":8049:8052   */\n      dup5\n        /* \"#utility.yul\":8043:8047   */\n      dup3\n        /* \"#utility.yul\":8039:8053   */\n      sub\n        /* \"#utility.yul\":8032:8036   */\n      0x80\n        /* \"#utility.yul\":8027:8030   */\n      dup7\n        /* \"#utility.yul\":8023:8037   */\n      add\n        /* \"#utility.yul\":8016:8054   */\n      mstore\n        /* \"#utility.yul\":8075:8148   */\n      tag_266\n        /* \"#utility.yul\":8143:8147   */\n      dup3\n        /* \"#utility.yul\":8129:8141   */\n      dup3\n        /* \"#utility.yul\":8075:8148   */\n      tag_151\n      jump\t// in\n    tag_266:\n        /* \"#utility.yul\":8067:8148   */\n      swap2\n      pop\n        /* \"#utility.yul\":7920:8159   */\n      pop\n        /* \"#utility.yul\":8245:8249   */\n      0xa0\n        /* \"#utility.yul\":8238:8243   */\n      dup4\n        /* \"#utility.yul\":8234:8250   */\n      add\n        /* \"#utility.yul\":8228:8251   */\n      mload\n        /* \"#utility.yul\":8298:8301   */\n      dup5\n        /* \"#utility.yul\":8292:8296   */\n      dup3\n        /* \"#utility.yul\":8288:8302   */\n      sub\n        /* \"#utility.yul\":8281:8285   */\n      0xa0\n        /* \"#utility.yul\":8276:8279   */\n      dup7\n        /* \"#utility.yul\":8272:8286   */\n      add\n        /* \"#utility.yul\":8265:8303   */\n      mstore\n        /* \"#utility.yul\":8324:8397   */\n      tag_267\n        /* \"#utility.yul\":8392:8396   */\n      dup3\n        /* \"#utility.yul\":8378:8390   */\n      dup3\n        /* \"#utility.yul\":8324:8397   */\n      tag_151\n      jump\t// in\n    tag_267:\n        /* \"#utility.yul\":8316:8397   */\n      swap2\n      pop\n        /* \"#utility.yul\":8169:8408   */\n      pop\n        /* \"#utility.yul\":8498:8502   */\n      0xc0\n        /* \"#utility.yul\":8491:8496   */\n      dup4\n        /* \"#utility.yul\":8487:8503   */\n      add\n        /* \"#utility.yul\":8481:8504   */\n      mload\n        /* \"#utility.yul\":8551:8554   */\n      dup5\n        /* \"#utility.yul\":8545:8549   */\n      dup3\n        /* \"#utility.yul\":8541:8555   */\n      sub\n        /* \"#utility.yul\":8534:8538   */\n      0xc0\n        /* \"#utility.yul\":8529:8532   */\n      dup7\n        /* \"#utility.yul\":8525:8539   */\n      add\n        /* \"#utility.yul\":8518:8556   */\n      mstore\n        /* \"#utility.yul\":8577:8744   */\n      tag_268\n        /* \"#utility.yul\":8739:8743   */\n      dup3\n        /* \"#utility.yul\":8725:8737   */\n      dup3\n        /* \"#utility.yul\":8577:8744   */\n      tag_161\n      jump\t// in\n    tag_268:\n        /* \"#utility.yul\":8569:8744   */\n      swap2\n      pop\n        /* \"#utility.yul\":8418:8755   */\n      pop\n        /* \"#utility.yul\":8772:8776   */\n      dup1\n        /* \"#utility.yul\":8765:8776   */\n      swap2\n      pop\n        /* \"#utility.yul\":6963:8782   */\n      pop\n        /* \"#utility.yul\":6833:8782   */\n      swap3\n      swap2\n      pop\n      pop\n      jump\t// out\n        /* \"#utility.yul\":8788:9173   */\n    tag_23:\n        /* \"#utility.yul\":8937:8941   */\n      0x00\n        /* \"#utility.yul\":8975:8977   */\n      0x20\n        /* \"#utility.yul\":8964:8973   */\n      dup3\n        /* \"#utility.yul\":8960:8978   */\n      add\n        /* \"#utility.yul\":8952:8978   */\n      swap1\n      pop\n        /* \"#utility.yul\":9024:9033   */\n      dup2\n        /* \"#utility.yul\":9018:9022   */\n      dup2\n        /* \"#utility.yul\":9014:9034   */\n      sub\n        /* \"#utility.yul\":9010:9011   */\n      0x00\n        /* \"#utility.yul\":8999:9008   */\n      dup4\n        /* \"#utility.yul\":8995:9012   */\n      add\n        /* \"#utility.yul\":8988:9035   */\n      mstore\n        /* \"#utility.yul\":9052:9166   */\n      tag_270\n        /* \"#utility.yul\":9161:9165   */\n      dup2\n        /* \"#utility.yul\":9152:9158   */\n      dup5\n        /* \"#utility.yul\":9052:9166   */\n      tag_162\n      jump\t// in\n    tag_270:\n        /* \"#utility.yul\":9044:9166   */\n      swap1\n      pop\n        /* \"#utility.yul\":8788:9173   */\n      swap3\n      swap2\n      pop\n      pop\n      jump\t// out\n        /* \"#utility.yul\":9179:9297   */\n    tag_163:\n        /* \"#utility.yul\":9266:9290   */\n      tag_272\n        /* \"#utility.yul\":9284:9289   */\n      dup2\n        /* \"#utility.yul\":9266:9290   */\n      tag_139\n      jump\t// in\n    tag_272:\n        /* \"#utility.yul\":9261:9264   */\n      dup3\n        /* \"#utility.yul\":9254:9291   */\n      mstore\n        /* \"#utility.yul\":9179:9297   */\n      pop\n      pop\n      jump\t// out\n        /* \"#utility.yul\":9303:9525   */\n    tag_28:\n        /* \"#utility.yul\":9396:9400   */\n      0x00\n        /* \"#utility.yul\":9434:9436   */\n      0x20\n        /* \"#utility.yul\":9423:9432   */\n      dup3\n        /* \"#utility.yul\":9419:9437   */\n      add\n        /* \"#utility.yul\":9411:9437   */\n      swap1\n      pop\n        /* \"#utility.yul\":9447:9518   */\n      tag_274\n        /* \"#utility.yul\":9515:9516   */\n      0x00\n        /* \"#utility.yul\":9504:9513   */\n      dup4\n        /* \"#utility.yul\":9500:9517   */\n      add\n        /* \"#utility.yul\":9491:9497   */\n      dup5\n        /* \"#utility.yul\":9447:9518   */\n      tag_163\n      jump\t// in\n    tag_274:\n        /* \"#utility.yul\":9303:9525   */\n      swap3\n      swap2\n      pop\n      pop\n      jump\t// out\n        /* \"#utility.yul\":9531:9648   */\n    tag_164:\n        /* \"#utility.yul\":9640:9641   */\n      0x00\n        /* \"#utility.yul\":9637:9638   */\n      dup1\n        /* \"#utility.yul\":9630:9642   */\n      revert\n        /* \"#utility.yul\":9654:9771   */\n    tag_165:\n        /* \"#utility.yul\":9763:9764   */\n      0x00\n        /* \"#utility.yul\":9760:9761   */\n      dup1\n        /* \"#utility.yul\":9753:9765   */\n      revert\n        /* \"#utility.yul\":9777:9957   */\n    tag_166:\n        /* \"#utility.yul\":9825:9902   */\n      0x4e487b7100000000000000000000000000000000000000000000000000000000\n        /* \"#utility.yul\":9822:9823   */\n      0x00\n        /* \"#utility.yul\":9815:9903   */\n      mstore\n        /* \"#utility.yul\":9922:9926   */\n      0x41\n        /* \"#utility.yul\":9919:9920   */\n      0x04\n        /* \"#utility.yul\":9912:9927   */\n      mstore\n        /* \"#utility.yul\":9946:9950   */\n      0x24\n        /* \"#utility.yul\":9943:9944   */\n      0x00\n        /* \"#utility.yul\":9936:9951   */\n      revert\n        /* \"#utility.yul\":9963:10244   */\n    tag_167:\n        /* \"#utility.yul\":10046:10073   */\n      tag_279\n        /* \"#utility.yul\":10068:10072   */\n      dup3\n        /* \"#utility.yul\":10046:10073   */\n      tag_150\n      jump\t// in\n    tag_279:\n        /* \"#utility.yul\":10038:10044   */\n      dup2\n        /* \"#utility.yul\":10034:10074   */\n      add\n        /* \"#utility.yul\":10176:10182   */\n      dup2\n        /* \"#utility.yul\":10164:10174   */\n      dup2\n        /* \"#utility.yul\":10161:10183   */\n      lt\n        /* \"#utility.yul\":10140:10158   */\n      0xffffffffffffffff\n        /* \"#utility.yul\":10128:10138   */\n      dup3\n        /* \"#utility.yul\":10125:10159   */\n      gt\n        /* \"#utility.yul\":10122:10184   */\n      or\n        /* \"#utility.yul\":10119:10207   */\n      iszero\n      tag_280\n      jumpi\n        /* \"#utility.yul\":10187:10205   */\n      tag_281\n      tag_166\n      jump\t// in\n    tag_281:\n        /* \"#utility.yul\":10119:10207   */\n    tag_280:\n        /* \"#utility.yul\":10227:10237   */\n      dup1\n        /* \"#utility.yul\":10223:10225   */\n      0x40\n        /* \"#utility.yul\":10216:10238   */\n      mstore\n        /* \"#utility.yul\":10006:10244   */\n      pop\n        /* \"#utility.yul\":9963:10244   */\n      pop\n      pop\n      jump\t// out\n        /* \"#utility.yul\":10250:10379   */\n    tag_168:\n        /* \"#utility.yul\":10284:10290   */\n      0x00\n        /* \"#utility.yul\":10311:10331   */\n      tag_283\n      tag_136\n      jump\t// in\n    tag_283:\n        /* \"#utility.yul\":10301:10331   */\n      swap1\n      pop\n        /* \"#utility.yul\":10340:10373   */\n      tag_284\n        /* \"#utility.yul\":10368:10372   */\n      dup3\n        /* \"#utility.yul\":10360:10366   */\n      dup3\n        /* \"#utility.yul\":10340:10373   */\n      tag_167\n      jump\t// in\n    tag_284:\n        /* \"#utility.yul\":10250:10379   */\n      swap2\n      swap1\n      pop\n      jump\t// out\n        /* \"#utility.yul\":10385:10693   */\n    tag_169:\n        /* \"#utility.yul\":10447:10451   */\n      0x00\n        /* \"#utility.yul\":10537:10555   */\n      0xffffffffffffffff\n        /* \"#utility.yul\":10529:10535   */\n      dup3\n        /* \"#utility.yul\":10526:10556   */\n      gt\n        /* \"#utility.yul\":10523:10579   */\n      iszero\n      tag_286\n      jumpi\n        /* \"#utility.yul\":10559:10577   */\n      tag_287\n      tag_166\n      jump\t// in\n    tag_287:\n        /* \"#utility.yul\":10523:10579   */\n    tag_286:\n        /* \"#utility.yul\":10597:10626   */\n      tag_288\n        /* \"#utility.yul\":10619:10625   */\n      dup3\n        /* \"#utility.yul\":10597:10626   */\n      tag_150\n      jump\t// in\n    tag_288:\n        /* \"#utility.yul\":10589:10626   */\n      swap1\n      pop\n        /* \"#utility.yul\":10681:10685   */\n      0x20\n        /* \"#utility.yul\":10675:10679   */\n      dup2\n        /* \"#utility.yul\":10671:10686   */\n      add\n        /* \"#utility.yul\":10663:10686   */\n      swap1\n      pop\n        /* \"#utility.yul\":10385:10693   */\n      swap2\n      swap1\n      pop\n      jump\t// out\n        /* \"#utility.yul\":10699:10845   */\n    tag_170:\n        /* \"#utility.yul\":10796:10802   */\n      dup3\n        /* \"#utility.yul\":10791:10794   */\n      dup2\n        /* \"#utility.yul\":10786:10789   */\n      dup4\n        /* \"#utility.yul\":10773:10803   */\n      calldatacopy\n        /* \"#utility.yul\":10837:10838   */\n      0x00\n        /* \"#utility.yul\":10828:10834   */\n      dup4\n        /* \"#utility.yul\":10823:10826   */\n      dup4\n        /* \"#utility.yul\":10819:10835   */\n      add\n        /* \"#utility.yul\":10812:10839   */\n      mstore\n        /* \"#utility.yul\":10699:10845   */\n      pop\n      pop\n      pop\n      jump\t// out\n        /* \"#utility.yul\":10851:11276   */\n    tag_171:\n        /* \"#utility.yul\":10929:10934   */\n      0x00\n        /* \"#utility.yul\":10954:11020   */\n      tag_291\n        /* \"#utility.yul\":10970:11019   */\n      tag_292\n        /* \"#utility.yul\":11012:11018   */\n      dup5\n        /* \"#utility.yul\":10970:11019   */\n      tag_169\n      jump\t// in\n    tag_292:\n        /* \"#utility.yul\":10954:11020   */\n      tag_168\n      jump\t// in\n    tag_291:\n        /* \"#utility.yul\":10945:11020   */\n      swap1\n      pop\n        /* \"#utility.yul\":11043:11049   */\n      dup3\n        /* \"#utility.yul\":11036:11041   */\n      dup2\n        /* \"#utility.yul\":11029:11050   */\n      mstore\n        /* \"#utility.yul\":11081:11085   */\n      0x20\n        /* \"#utility.yul\":11074:11079   */\n      dup2\n        /* \"#utility.yul\":11070:11086   */\n      add\n        /* \"#utility.yul\":11119:11122   */\n      dup5\n        /* \"#utility.yul\":11110:11116   */\n      dup5\n        /* \"#utility.yul\":11105:11108   */\n      dup5\n        /* \"#utility.yul\":11101:11117   */\n      add\n        /* \"#utility.yul\":11098:11123   */\n      gt\n        /* \"#utility.yul\":11095:11207   */\n      iszero\n      tag_293\n      jumpi\n        /* \"#utility.yul\":11126:11205   */\n      tag_294\n      tag_165\n      jump\t// in\n    tag_294:\n        /* \"#utility.yul\":11095:11207   */\n    tag_293:\n        /* \"#utility.yul\":11216:11270   */\n      tag_295\n        /* \"#utility.yul\":11263:11269   */\n      dup5\n        /* \"#utility.yul\":11258:11261   */\n      dup3\n        /* \"#utility.yul\":11253:11256   */\n      dup6\n        /* \"#utility.yul\":11216:11270   */\n      tag_170\n      jump\t// in\n    tag_295:\n        /* \"#utility.yul\":10935:11276   */\n      pop\n        /* \"#utility.yul\":10851:11276   */\n      swap4\n      swap3\n      pop\n      pop\n      pop\n      jump\t// out\n        /* \"#utility.yul\":11296:11636   */\n    tag_172:\n        /* \"#utility.yul\":11352:11357   */\n      0x00\n        /* \"#utility.yul\":11401:11404   */\n      dup3\n        /* \"#utility.yul\":11394:11398   */\n      0x1f\n        /* \"#utility.yul\":11386:11392   */\n      dup4\n        /* \"#utility.yul\":11382:11399   */\n      add\n        /* \"#utility.yul\":11378:11405   */\n      slt\n        /* \"#utility.yul\":11368:11490   */\n      tag_297\n      jumpi\n        /* \"#utility.yul\":11409:11488   */\n      tag_298\n      tag_164\n      jump\t// in\n    tag_298:\n        /* \"#utility.yul\":11368:11490   */\n    tag_297:\n        /* \"#utility.yul\":11526:11532   */\n      dup2\n        /* \"#utility.yul\":11513:11533   */\n      calldataload\n        /* \"#utility.yul\":11551:11630   */\n      tag_299\n        /* \"#utility.yul\":11626:11629   */\n      dup5\n        /* \"#utility.yul\":11618:11624   */\n      dup3\n        /* \"#utility.yul\":11611:11615   */\n      0x20\n        /* \"#utility.yul\":11603:11609   */\n      dup7\n        /* \"#utility.yul\":11599:11616   */\n      add\n        /* \"#utility.yul\":11551:11630   */\n      tag_171\n      jump\t// in\n    tag_299:\n        /* \"#utility.yul\":11542:11630   */\n      swap2\n      pop\n        /* \"#utility.yul\":11358:11636   */\n      pop\n        /* \"#utility.yul\":11296:11636   */\n      swap3\n      swap2\n      pop\n      pop\n      jump\t// out\n        /* \"#utility.yul\":11642:13599   */\n    tag_31:\n        /* \"#utility.yul\":11796:11802   */\n      0x00\n        /* \"#utility.yul\":11804:11810   */\n      dup1\n        /* \"#utility.yul\":11812:11818   */\n      0x00\n        /* \"#utility.yul\":11820:11826   */\n      dup1\n        /* \"#utility.yul\":11828:11834   */\n      0x00\n        /* \"#utility.yul\":11836:11842   */\n      dup1\n        /* \"#utility.yul\":11885:11888   */\n      0xc0\n        /* \"#utility.yul\":11873:11882   */\n      dup8\n        /* \"#utility.yul\":11864:11871   */\n      dup10\n        /* \"#utility.yul\":11860:11883   */\n      sub\n        /* \"#utility.yul\":11856:11889   */\n      slt\n        /* \"#utility.yul\":11853:11973   */\n      iszero\n      tag_301\n      jumpi\n        /* \"#utility.yul\":11892:11971   */\n      tag_302\n      tag_137\n      jump\t// in\n    tag_302:\n        /* \"#utility.yul\":11853:11973   */\n    tag_301:\n        /* \"#utility.yul\":12012:12013   */\n      0x00\n        /* \"#utility.yul\":12037:12090   */\n      tag_303\n        /* \"#utility.yul\":12082:12089   */\n      dup10\n        /* \"#utility.yul\":12073:12079   */\n      dup3\n        /* \"#utility.yul\":12062:12071   */\n      dup11\n        /* \"#utility.yul\":12058:12080   */\n      add\n        /* \"#utility.yul\":12037:12090   */\n      tag_141\n      jump\t// in\n    tag_303:\n        /* \"#utility.yul\":12027:12090   */\n      swap7\n      pop\n        /* \"#utility.yul\":11983:12100   */\n      pop\n        /* \"#utility.yul\":12167:12169   */\n      0x20\n        /* \"#utility.yul\":12156:12165   */\n      dup8\n        /* \"#utility.yul\":12152:12170   */\n      add\n        /* \"#utility.yul\":12139:12171   */\n      calldataload\n        /* \"#utility.yul\":12198:12216   */\n      0xffffffffffffffff\n        /* \"#utility.yul\":12190:12196   */\n      dup2\n        /* \"#utility.yul\":12187:12217   */\n      gt\n        /* \"#utility.yul\":12184:12301   */\n      iszero\n      tag_304\n      jumpi\n        /* \"#utility.yul\":12220:12299   */\n      tag_305\n      tag_138\n      jump\t// in\n    tag_305:\n        /* \"#utility.yul\":12184:12301   */\n    tag_304:\n        /* \"#utility.yul\":12325:12388   */\n      tag_306\n        /* \"#utility.yul\":12380:12387   */\n      dup10\n        /* \"#utility.yul\":12371:12377   */\n      dup3\n        /* \"#utility.yul\":12360:12369   */\n      dup11\n        /* \"#utility.yul\":12356:12378   */\n      add\n        /* \"#utility.yul\":12325:12388   */\n      tag_172\n      jump\t// in\n    tag_306:\n        /* \"#utility.yul\":12315:12388   */\n      swap6\n      pop\n        /* \"#utility.yul\":12110:12398   */\n      pop\n        /* \"#utility.yul\":12465:12467   */\n      0x40\n        /* \"#utility.yul\":12454:12463   */\n      dup8\n        /* \"#utility.yul\":12450:12468   */\n      add\n        /* \"#utility.yul\":12437:12469   */\n      calldataload\n        /* \"#utility.yul\":12496:12514   */\n      0xffffffffffffffff\n        /* \"#utility.yul\":12488:12494   */\n      dup2\n        /* \"#utility.yul\":12485:12515   */\n      gt\n        /* \"#utility.yul\":12482:12599   */\n      iszero\n      tag_307\n      jumpi\n        /* \"#utility.yul\":12518:12597   */\n      tag_308\n      tag_138\n      jump\t// in\n    tag_308:\n        /* \"#utility.yul\":12482:12599   */\n    tag_307:\n        /* \"#utility.yul\":12623:12686   */\n      tag_309\n        /* \"#utility.yul\":12678:12685   */\n      dup10\n        /* \"#utility.yul\":12669:12675   */\n      dup3\n        /* \"#utility.yul\":12658:12667   */\n      dup11\n        /* \"#utility.yul\":12654:12676   */\n      add\n        /* \"#utility.yul\":12623:12686   */\n      tag_172\n      jump\t// in\n    tag_309:\n        /* \"#utility.yul\":12613:12686   */\n      swap5\n      pop\n        /* \"#utility.yul\":12408:12696   */\n      pop\n        /* \"#utility.yul\":12763:12765   */\n      0x60\n        /* \"#utility.yul\":12752:12761   */\n      dup8\n        /* \"#utility.yul\":12748:12766   */\n      add\n        /* \"#utility.yul\":12735:12767   */\n      calldataload\n        /* \"#utility.yul\":12794:12812   */\n      0xffffffffffffffff\n        /* \"#utility.yul\":12786:12792   */\n      dup2\n        /* \"#utility.yul\":12783:12813   */\n      gt\n        /* \"#utility.yul\":12780:12897   */\n      iszero\n      tag_310\n      jumpi\n        /* \"#utility.yul\":12816:12895   */\n      tag_311\n      tag_138\n      jump\t// in\n    tag_311:\n        /* \"#utility.yul\":12780:12897   */\n    tag_310:\n        /* \"#utility.yul\":12921:12984   */\n      tag_312\n        /* \"#utility.yul\":12976:12983   */\n      dup10\n        /* \"#utility.yul\":12967:12973   */\n      dup3\n        /* \"#utility.yul\":12956:12965   */\n      dup11\n        /* \"#utility.yul\":12952:12974   */\n      add\n        /* \"#utility.yul\":12921:12984   */\n      tag_172\n      jump\t// in\n    tag_312:\n        /* \"#utility.yul\":12911:12984   */\n      swap4\n      pop\n        /* \"#utility.yul\":12706:12994   */\n      pop\n        /* \"#utility.yul\":13061:13064   */\n      0x80\n        /* \"#utility.yul\":13050:13059   */\n      dup8\n        /* \"#utility.yul\":13046:13065   */\n      add\n        /* \"#utility.yul\":13033:13066   */\n      calldataload\n        /* \"#utility.yul\":13093:13111   */\n      0xffffffffffffffff\n        /* \"#utility.yul\":13085:13091   */\n      dup2\n        /* \"#utility.yul\":13082:13112   */\n      gt\n        /* \"#utility.yul\":13079:13196   */\n      iszero\n      tag_313\n      jumpi\n        /* \"#utility.yul\":13115:13194   */\n      tag_314\n      tag_138\n      jump\t// in\n    tag_314:\n        /* \"#utility.yul\":13079:13196   */\n    tag_313:\n        /* \"#utility.yul\":13220:13283   */\n      tag_315\n        /* \"#utility.yul\":13275:13282   */\n      dup10\n        /* \"#utility.yul\":13266:13272   */\n      dup3\n        /* \"#utility.yul\":13255:13264   */\n      dup11\n        /* \"#utility.yul\":13251:13273   */\n      add\n        /* \"#utility.yul\":13220:13283   */\n      tag_172\n      jump\t// in\n    tag_315:\n        /* \"#utility.yul\":13210:13283   */\n      swap3\n      pop\n        /* \"#utility.yul\":13004:13293   */\n      pop\n        /* \"#utility.yul\":13360:13363   */\n      0xa0\n        /* \"#utility.yul\":13349:13358   */\n      dup8\n        /* \"#utility.yul\":13345:13364   */\n      add\n        /* \"#utility.yul\":13332:13365   */\n      calldataload\n        /* \"#utility.yul\":13392:13410   */\n      0xffffffffffffffff\n        /* \"#utility.yul\":13384:13390   */\n      dup2\n        /* \"#utility.yul\":13381:13411   */\n      gt\n        /* \"#utility.yul\":13378:13495   */\n      iszero\n      tag_316\n      jumpi\n        /* \"#utility.yul\":13414:13493   */\n      tag_317\n      tag_138\n      jump\t// in\n    tag_317:\n        /* \"#utility.yul\":13378:13495   */\n    tag_316:\n        /* \"#utility.yul\":13519:13582   */\n      tag_318\n        /* \"#utility.yul\":13574:13581   */\n      dup10\n        /* \"#utility.yul\":13565:13571   */\n      dup3\n        /* \"#utility.yul\":13554:13563   */\n      dup11\n        /* \"#utility.yul\":13550:13572   */\n      add\n        /* \"#utility.yul\":13519:13582   */\n      tag_172\n      jump\t// in\n    tag_318:\n        /* \"#utility.yul\":13509:13582   */\n      swap2\n      pop\n        /* \"#utility.yul\":13303:13592   */\n      pop\n        /* \"#utility.yul\":11642:13599   */\n      swap3\n      swap6\n      pop\n      swap3\n      swap6\n      pop\n      swap3\n      swap6\n      jump\t// out\n        /* \"#utility.yul\":13605:13723   */\n    tag_173:\n        /* \"#utility.yul\":13676:13698   */\n      tag_320\n        /* \"#utility.yul\":13692:13697   */\n      dup2\n        /* \"#utility.yul\":13676:13698   */\n      tag_155\n      jump\t// in\n    tag_320:\n        /* \"#utility.yul\":13669:13674   */\n      dup2\n        /* \"#utility.yul\":13666:13699   */\n      eq\n        /* \"#utility.yul\":13656:13717   */\n      tag_321\n      jumpi\n        /* \"#utility.yul\":13713:13714   */\n      0x00\n        /* \"#utility.yul\":13710:13711   */\n      dup1\n        /* \"#utility.yul\":13703:13715   */\n      revert\n        /* \"#utility.yul\":13656:13717   */\n    tag_321:\n        /* \"#utility.yul\":13605:13723   */\n      pop\n      jump\t// out\n        /* \"#utility.yul\":13729:13864   */\n    tag_174:\n        /* \"#utility.yul\":13773:13778   */\n      0x00\n        /* \"#utility.yul\":13811:13817   */\n      dup2\n        /* \"#utility.yul\":13798:13818   */\n      calldataload\n        /* \"#utility.yul\":13789:13818   */\n      swap1\n      pop\n        /* \"#utility.yul\":13827:13858   */\n      tag_323\n        /* \"#utility.yul\":13852:13857   */\n      dup2\n        /* \"#utility.yul\":13827:13858   */\n      tag_173\n      jump\t// in\n    tag_323:\n        /* \"#utility.yul\":13729:13864   */\n      swap3\n      swap2\n      pop\n      pop\n      jump\t// out\n        /* \"#utility.yul\":13870:14991   */\n    tag_35:\n        /* \"#utility.yul\":13974:13980   */\n      0x00\n        /* \"#utility.yul\":13982:13988   */\n      dup1\n        /* \"#utility.yul\":13990:13996   */\n      0x00\n        /* \"#utility.yul\":13998:14004   */\n      dup1\n        /* \"#utility.yul\":14047:14050   */\n      0x80\n        /* \"#utility.yul\":14035:14044   */\n      dup6\n        /* \"#utility.yul\":14026:14033   */\n      dup8\n        /* \"#utility.yul\":14022:14045   */\n      sub\n        /* \"#utility.yul\":14018:14051   */\n      slt\n        /* \"#utility.yul\":14015:14135   */\n      iszero\n      tag_325\n      jumpi\n        /* \"#utility.yul\":14054:14133   */\n      tag_326\n      tag_137\n      jump\t// in\n    tag_326:\n        /* \"#utility.yul\":14015:14135   */\n    tag_325:\n        /* \"#utility.yul\":14174:14175   */\n      0x00\n        /* \"#utility.yul\":14199:14252   */\n      tag_327\n        /* \"#utility.yul\":14244:14251   */\n      dup8\n        /* \"#utility.yul\":14235:14241   */\n      dup3\n        /* \"#utility.yul\":14224:14233   */\n      dup9\n        /* \"#utility.yul\":14220:14242   */\n      add\n        /* \"#utility.yul\":14199:14252   */\n      tag_141\n      jump\t// in\n    tag_327:\n        /* \"#utility.yul\":14189:14252   */\n      swap5\n      pop\n        /* \"#utility.yul\":14145:14262   */\n      pop\n        /* \"#utility.yul\":14329:14331   */\n      0x20\n        /* \"#utility.yul\":14318:14327   */\n      dup6\n        /* \"#utility.yul\":14314:14332   */\n      add\n        /* \"#utility.yul\":14301:14333   */\n      calldataload\n        /* \"#utility.yul\":14360:14378   */\n      0xffffffffffffffff\n        /* \"#utility.yul\":14352:14358   */\n      dup2\n        /* \"#utility.yul\":14349:14379   */\n      gt\n        /* \"#utility.yul\":14346:14463   */\n      iszero\n      tag_328\n      jumpi\n        /* \"#utility.yul\":14382:14461   */\n      tag_329\n      tag_138\n      jump\t// in\n    tag_329:\n        /* \"#utility.yul\":14346:14463   */\n    tag_328:\n        /* \"#utility.yul\":14487:14550   */\n      tag_330\n        /* \"#utility.yul\":14542:14549   */\n      dup8\n        /* \"#utility.yul\":14533:14539   */\n      dup3\n        /* \"#utility.yul\":14522:14531   */\n      dup9\n        /* \"#utility.yul\":14518:14540   */\n      add\n        /* \"#utility.yul\":14487:14550   */\n      tag_172\n      jump\t// in\n    tag_330:\n        /* \"#utility.yul\":14477:14550   */\n      swap4\n      pop\n        /* \"#utility.yul\":14272:14560   */\n      pop\n        /* \"#utility.yul\":14627:14629   */\n      0x40\n        /* \"#utility.yul\":14616:14625   */\n      dup6\n        /* \"#utility.yul\":14612:14630   */\n      add\n        /* \"#utility.yul\":14599:14631   */\n      calldataload\n        /* \"#utility.yul\":14658:14676   */\n      0xffffffffffffffff\n        /* \"#utility.yul\":14650:14656   */\n      dup2\n        /* \"#utility.yul\":14647:14677   */\n      gt\n        /* \"#utility.yul\":14644:14761   */\n      iszero\n      tag_331\n      jumpi\n        /* \"#utility.yul\":14680:14759   */\n      tag_332\n      tag_138\n      jump\t// in\n    tag_332:\n        /* \"#utility.yul\":14644:14761   */\n    tag_331:\n        /* \"#utility.yul\":14785:14848   */\n      tag_333\n        /* \"#utility.yul\":14840:14847   */\n      dup8\n        /* \"#utility.yul\":14831:14837   */\n      dup3\n        /* \"#utility.yul\":14820:14829   */\n      dup9\n        /* \"#utility.yul\":14816:14838   */\n      add\n        /* \"#utility.yul\":14785:14848   */\n      tag_172\n      jump\t// in\n    tag_333:\n        /* \"#utility.yul\":14775:14848   */\n      swap3\n      pop\n        /* \"#utility.yul\":14570:14858   */\n      pop\n        /* \"#utility.yul\":14897:14899   */\n      0x60\n        /* \"#utility.yul\":14923:14974   */\n      tag_334\n        /* \"#utility.yul\":14966:14973   */\n      dup8\n        /* \"#utility.yul\":14957:14963   */\n      dup3\n        /* \"#utility.yul\":14946:14955   */\n      dup9\n        /* \"#utility.yul\":14942:14964   */\n      add\n        /* \"#utility.yul\":14923:14974   */\n      tag_174\n      jump\t// in\n    tag_334:\n        /* \"#utility.yul\":14913:14974   */\n      swap2\n      pop\n        /* \"#utility.yul\":14868:14984   */\n      pop\n        /* \"#utility.yul\":13870:14991   */\n      swap3\n      swap6\n      swap2\n      swap5\n      pop\n      swap3\n      pop\n      jump\t// out\n        /* \"#utility.yul\":14997:16808   */\n    tag_39:\n        /* \"#utility.yul\":15142:15148   */\n      0x00\n        /* \"#utility.yul\":15150:15156   */\n      dup1\n        /* \"#utility.yul\":15158:15164   */\n      0x00\n        /* \"#utility.yul\":15166:15172   */\n      dup1\n        /* \"#utility.yul\":15174:15180   */\n      0x00\n        /* \"#utility.yul\":15223:15226   */\n      0xa0\n        /* \"#utility.yul\":15211:15220   */\n      dup7\n        /* \"#utility.yul\":15202:15209   */\n      dup9\n        /* \"#utility.yul\":15198:15221   */\n      sub\n        /* \"#utility.yul\":15194:15227   */\n      slt\n        /* \"#utility.yul\":15191:15311   */\n      iszero\n      tag_336\n      jumpi\n        /* \"#utility.yul\":15230:15309   */\n      tag_337\n      tag_137\n      jump\t// in\n    tag_337:\n        /* \"#utility.yul\":15191:15311   */\n    tag_336:\n        /* \"#utility.yul\":15378:15379   */\n      0x00\n        /* \"#utility.yul\":15367:15376   */\n      dup7\n        /* \"#utility.yul\":15363:15380   */\n      add\n        /* \"#utility.yul\":15350:15381   */\n      calldataload\n        /* \"#utility.yul\":15408:15426   */\n      0xffffffffffffffff\n        /* \"#utility.yul\":15400:15406   */\n      dup2\n        /* \"#utility.yul\":15397:15427   */\n      gt\n        /* \"#utility.yul\":15394:15511   */\n      iszero\n      tag_338\n      jumpi\n        /* \"#utility.yul\":15430:15509   */\n      tag_339\n      tag_138\n      jump\t// in\n    tag_339:\n        /* \"#utility.yul\":15394:15511   */\n    tag_338:\n        /* \"#utility.yul\":15535:15598   */\n      tag_340\n        /* \"#utility.yul\":15590:15597   */\n      dup9\n        /* \"#utility.yul\":15581:15587   */\n      dup3\n        /* \"#utility.yul\":15570:15579   */\n      dup10\n        /* \"#utility.yul\":15566:15588   */\n      add\n        /* \"#utility.yul\":15535:15598   */\n      tag_172\n      jump\t// in\n    tag_340:\n        /* \"#utility.yul\":15525:15598   */\n      swap6\n      pop\n        /* \"#utility.yul\":15321:15608   */\n      pop\n        /* \"#utility.yul\":15675:15677   */\n      0x20\n        /* \"#utility.yul\":15664:15673   */\n      dup7\n        /* \"#utility.yul\":15660:15678   */\n      add\n        /* \"#utility.yul\":15647:15679   */\n      calldataload\n        /* \"#utility.yul\":15706:15724   */\n      0xffffffffffffffff\n        /* \"#utility.yul\":15698:15704   */\n      dup2\n        /* \"#utility.yul\":15695:15725   */\n      gt\n        /* \"#utility.yul\":15692:15809   */\n      iszero\n      tag_341\n      jumpi\n        /* \"#utility.yul\":15728:15807   */\n      tag_342\n      tag_138\n      jump\t// in\n    tag_342:\n        /* \"#utility.yul\":15692:15809   */\n    tag_341:\n        /* \"#utility.yul\":15833:15896   */\n      tag_343\n        /* \"#utility.yul\":15888:15895   */\n      dup9\n        /* \"#utility.yul\":15879:15885   */\n      dup3\n        /* \"#utility.yul\":15868:15877   */\n      dup10\n        /* \"#utility.yul\":15864:15886   */\n      add\n        /* \"#utility.yul\":15833:15896   */\n      tag_172\n      jump\t// in\n    tag_343:\n        /* \"#utility.yul\":15823:15896   */\n      swap5\n      pop\n        /* \"#utility.yul\":15618:15906   */\n      pop\n        /* \"#utility.yul\":15973:15975   */\n      0x40\n        /* \"#utility.yul\":15962:15971   */\n      dup7\n        /* \"#utility.yul\":15958:15976   */\n      add\n        /* \"#utility.yul\":15945:15977   */\n      calldataload\n        /* \"#utility.yul\":16004:16022   */\n      0xffffffffffffffff\n        /* \"#utility.yul\":15996:16002   */\n      dup2\n        /* \"#utility.yul\":15993:16023   */\n      gt\n        /* \"#utility.yul\":15990:16107   */\n      iszero\n      tag_344\n      jumpi\n        /* \"#utility.yul\":16026:16105   */\n      tag_345\n      tag_138\n      jump\t// in\n    tag_345:\n        /* \"#utility.yul\":15990:16107   */\n    tag_344:\n        /* \"#utility.yul\":16131:16194   */\n      tag_346\n        /* \"#utility.yul\":16186:16193   */\n      dup9\n        /* \"#utility.yul\":16177:16183   */\n      dup3\n        /* \"#utility.yul\":16166:16175   */\n      dup10\n        /* \"#utility.yul\":16162:16184   */\n      add\n        /* \"#utility.yul\":16131:16194   */\n      tag_172\n      jump\t// in\n    tag_346:\n        /* \"#utility.yul\":16121:16194   */\n      swap4\n      pop\n        /* \"#utility.yul\":15916:16204   */\n      pop\n        /* \"#utility.yul\":16271:16273   */\n      0x60\n        /* \"#utility.yul\":16260:16269   */\n      dup7\n        /* \"#utility.yul\":16256:16274   */\n      add\n        /* \"#utility.yul\":16243:16275   */\n      calldataload\n        /* \"#utility.yul\":16302:16320   */\n      0xffffffffffffffff\n        /* \"#utility.yul\":16294:16300   */\n      dup2\n        /* \"#utility.yul\":16291:16321   */\n      gt\n        /* \"#utility.yul\":16288:16405   */\n      iszero\n      tag_347\n      jumpi\n        /* \"#utility.yul\":16324:16403   */\n      tag_348\n      tag_138\n      jump\t// in\n    tag_348:\n        /* \"#utility.yul\":16288:16405   */\n    tag_347:\n        /* \"#utility.yul\":16429:16492   */\n      tag_349\n        /* \"#utility.yul\":16484:16491   */\n      dup9\n        /* \"#utility.yul\":16475:16481   */\n      dup3\n        /* \"#utility.yul\":16464:16473   */\n      dup10\n        /* \"#utility.yul\":16460:16482   */\n      add\n        /* \"#utility.yul\":16429:16492   */\n      tag_172\n      jump\t// in\n    tag_349:\n        /* \"#utility.yul\":16419:16492   */\n      swap3\n      pop\n        /* \"#utility.yul\":16214:16502   */\n      pop\n        /* \"#utility.yul\":16569:16572   */\n      0x80\n        /* \"#utility.yul\":16558:16567   */\n      dup7\n        /* \"#utility.yul\":16554:16573   */\n      add\n        /* \"#utility.yul\":16541:16574   */\n      calldataload\n        /* \"#utility.yul\":16601:16619   */\n      0xffffffffffffffff\n        /* \"#utility.yul\":16593:16599   */\n      dup2\n        /* \"#utility.yul\":16590:16620   */\n      gt\n        /* \"#utility.yul\":16587:16704   */\n      iszero\n      tag_350\n      jumpi\n        /* \"#utility.yul\":16623:16702   */\n      tag_351\n      tag_138\n      jump\t// in\n    tag_351:\n        /* \"#utility.yul\":16587:16704   */\n    tag_350:\n        /* \"#utility.yul\":16728:16791   */\n      tag_352\n        /* \"#utility.yul\":16783:16790   */\n      dup9\n        /* \"#utility.yul\":16774:16780   */\n      dup3\n        /* \"#utility.yul\":16763:16772   */\n      dup10\n        /* \"#utility.yul\":16759:16781   */\n      add\n        /* \"#utility.yul\":16728:16791   */\n      tag_172\n      jump\t// in\n    tag_352:\n        /* \"#utility.yul\":16718:16791   */\n      swap2\n      pop\n        /* \"#utility.yul\":16512:16801   */\n      pop\n        /* \"#utility.yul\":14997:16808   */\n      swap3\n      swap6\n      pop\n      swap3\n      swap6\n      swap1\n      swap4\n      pop\n      jump\t// out\n        /* \"#utility.yul\":16814:16994   */\n    tag_175:\n        /* \"#utility.yul\":16862:16939   */\n      0x4e487b7100000000000000000000000000000000000000000000000000000000\n        /* \"#utility.yul\":16859:16860   */\n      0x00\n        /* \"#utility.yul\":16852:16940   */\n      mstore\n        /* \"#utility.yul\":16959:16963   */\n      0x22\n        /* \"#utility.yul\":16956:16957   */\n      0x04\n        /* \"#utility.yul\":16949:16964   */\n      mstore\n        /* \"#utility.yul\":16983:16987   */\n      0x24\n        /* \"#utility.yul\":16980:16981   */\n      0x00\n        /* \"#utility.yul\":16973:16988   */\n      revert\n        /* \"#utility.yul\":17000:17320   */\n    tag_47:\n        /* \"#utility.yul\":17044:17050   */\n      0x00\n        /* \"#utility.yul\":17081:17082   */\n      0x02\n        /* \"#utility.yul\":17075:17079   */\n      dup3\n        /* \"#utility.yul\":17071:17083   */\n      div\n        /* \"#utility.yul\":17061:17083   */\n      swap1\n      pop\n        /* \"#utility.yul\":17128:17129   */\n      0x01\n        /* \"#utility.yul\":17122:17126   */\n      dup3\n        /* \"#utility.yul\":17118:17130   */\n      and\n        /* \"#utility.yul\":17149:17167   */\n      dup1\n        /* \"#utility.yul\":17139:17220   */\n      tag_355\n      jumpi\n        /* \"#utility.yul\":17205:17209   */\n      0x7f\n        /* \"#utility.yul\":17197:17203   */\n      dup3\n        /* \"#utility.yul\":17193:17210   */\n      and\n        /* \"#utility.yul\":17183:17210   */\n      swap2\n      pop\n        /* \"#utility.yul\":17139:17220   */\n    tag_355:\n        /* \"#utility.yul\":17267:17269   */\n      0x20\n        /* \"#utility.yul\":17259:17265   */\n      dup3\n        /* \"#utility.yul\":17256:17270   */\n      lt\n        /* \"#utility.yul\":17236:17254   */\n      dup2\n        /* \"#utility.yul\":17233:17271   */\n      sub\n        /* \"#utility.yul\":17230:17314   */\n      tag_356\n      jumpi\n        /* \"#utility.yul\":17286:17304   */\n      tag_357\n      tag_175\n      jump\t// in\n    tag_357:\n        /* \"#utility.yul\":17230:17314   */\n    tag_356:\n        /* \"#utility.yul\":17051:17320   */\n      pop\n        /* \"#utility.yul\":17000:17320   */\n      swap2\n      swap1\n      pop\n      jump\t// out\n        /* \"#utility.yul\":17326:17467   */\n    tag_176:\n        /* \"#utility.yul\":17375:17379   */\n      0x00\n        /* \"#utility.yul\":17398:17401   */\n      dup2\n        /* \"#utility.yul\":17390:17401   */\n      swap1\n      pop\n        /* \"#utility.yul\":17421:17424   */\n      dup2\n        /* \"#utility.yul\":17418:17419   */\n      0x00\n        /* \"#utility.yul\":17411:17425   */\n      mstore\n        /* \"#utility.yul\":17455:17459   */\n      0x20\n        /* \"#utility.yul\":17452:17453   */\n      0x00\n        /* \"#utility.yul\":17442:17460   */\n      keccak256\n        /* \"#utility.yul\":17434:17460   */\n      swap1\n      pop\n        /* \"#utility.yul\":17326:17467   */\n      swap2\n      swap1\n      pop\n      jump\t// out\n        /* \"#utility.yul\":17473:17566   */\n    tag_177:\n        /* \"#utility.yul\":17510:17516   */\n      0x00\n        /* \"#utility.yul\":17557:17559   */\n      0x20\n        /* \"#utility.yul\":17552:17554   */\n      0x1f\n        /* \"#utility.yul\":17545:17550   */\n      dup4\n        /* \"#utility.yul\":17541:17555   */\n      add\n        /* \"#utility.yul\":17537:17560   */\n      div\n        /* \"#utility.yul\":17527:17560   */\n      swap1\n      pop\n        /* \"#utility.yul\":17473:17566   */\n      swap2\n      swap1\n      pop\n      jump\t// out\n        /* \"#utility.yul\":17572:17679   */\n    tag_178:\n        /* \"#utility.yul\":17616:17624   */\n      0x00\n        /* \"#utility.yul\":17666:17671   */\n      dup3\n        /* \"#utility.yul\":17660:17664   */\n      dup3\n        /* \"#utility.yul\":17656:17672   */\n      shl\n        /* \"#utility.yul\":17635:17672   */\n      swap1\n      pop\n        /* \"#utility.yul\":17572:17679   */\n      swap3\n      swap2\n      pop\n      pop\n      jump\t// out\n        /* \"#utility.yul\":17685:18078   */\n    tag_179:\n        /* \"#utility.yul\":17754:17760   */\n      0x00\n        /* \"#utility.yul\":17804:17805   */\n      0x08\n        /* \"#utility.yul\":17792:17802   */\n      dup4\n        /* \"#utility.yul\":17788:17806   */\n      mul\n        /* \"#utility.yul\":17827:17924   */\n      tag_362\n        /* \"#utility.yul\":17857:17923   */\n      0xffffffffffffffffffffffffffffffffffffffffffffffffffffffffffffffff\n        /* \"#utility.yul\":17846:17855   */\n      dup3\n        /* \"#utility.yul\":17827:17924   */\n      tag_178\n      jump\t// in\n    tag_362:\n        /* \"#utility.yul\":17945:17984   */\n      tag_363\n        /* \"#utility.yul\":17975:17983   */\n      dup7\n        /* \"#utility.yul\":17964:17973   */\n      dup4\n        /* \"#utility.yul\":17945:17984   */\n      tag_178\n      jump\t// in\n    tag_363:\n        /* \"#utility.yul\":17933:17984   */\n      swap6\n      pop\n        /* \"#utility.yul\":18017:18021   */\n      dup1\n        /* \"#utility.yul\":18013:18022   */\n      not\n        /* \"#utility.yul\":18006:18011   */\n      dup5\n        /* \"#utility.yul\":18002:18023   */\n      and\n        /* \"#utility.yul\":17993:18023   */\n      swap4\n      pop\n        /* \"#utility.yul\":18066:18070   */\n      dup1\n        /* \"#utility.yul\":18056:18064   */\n      dup7\n        /* \"#utility.yul\":18052:18071   */\n      and\n        /* \"#utility.yul\":18045:18050   */\n      dup5\n        /* \"#utility.yul\":18042:18072   */\n      or\n        /* \"#utility.yul\":18032:18072   */\n      swap3\n      pop\n        /* \"#utility.yul\":17761:18078   */\n      pop\n      pop\n        /* \"#utility.yul\":17685:18078   */\n      swap4\n      swap3\n      pop\n      pop\n      pop\n      jump\t// out\n        /* \"#utility.yul\":18084:18144   */\n    tag_180:\n        /* \"#utility.yul\":18112:18115   */\n      0x00\n        /* \"#utility.yul\":18133:18138   */\n      dup2\n        /* \"#utility.yul\":18126:18138   */\n      swap1\n      pop\n        /* \"#utility.yul\":18084:18144   */\n      swap2\n      swap1\n      pop\n      jump\t// out\n        /* \"#utility.yul\":18150:18292   */\n    tag_181:\n        /* \"#utility.yul\":18200:18209   */\n      0x00\n        /* \"#utility.yul\":18233:18286   */\n      tag_366\n        /* \"#utility.yul\":18251:18285   */\n      tag_367\n        /* \"#utility.yul\":18260:18284   */\n      tag_368\n        /* \"#utility.yul\":18278:18283   */\n      dup5\n        /* \"#utility.yul\":18260:18284   */\n      tag_139\n      jump\t// in\n    tag_368:\n        /* \"#utility.yul\":18251:18285   */\n      tag_180\n      jump\t// in\n    tag_367:\n        /* \"#utility.yul\":18233:18286   */\n      tag_139\n      jump\t// in\n    tag_366:\n        /* \"#utility.yul\":18220:18286   */\n      swap1\n      pop\n        /* \"#utility.yul\":18150:18292   */\n      swap2\n      swap1\n      pop\n      jump\t// out\n        /* \"#utility.yul\":18298:18373   */\n    tag_182:\n        /* \"#utility.yul\":18341:18344   */\n      0x00\n        /* \"#utility.yul\":18362:18367   */\n      dup2\n        /* \"#utility.yul\":18355:18367   */\n      swap1\n      pop\n        /* \"#utility.yul\":18298:18373   */\n      swap2\n      swap1\n      pop\n      jump\t// out\n        /* \"#utility.yul\":18379:18648   */\n    tag_183:\n        /* \"#utility.yul\":18489:18528   */\n      tag_371\n        /* \"#utility.yul\":18520:18527   */\n      dup4\n        /* \"#utility.yul\":18489:18528   */\n      tag_181\n      jump\t// in\n    tag_371:\n        /* \"#utility.yul\":18550:18641   */\n      tag_372\n        /* \"#utility.yul\":18599:18640   */\n      tag_373\n        /* \"#utility.yul\":18623:18639   */\n      dup3\n        /* \"#utility.yul\":18599:18640   */\n      tag_182\n      jump\t// in\n    tag_373:\n        /* \"#utility.yul\":18591:18597   */\n      dup5\n        /* \"#utility.yul\":18584:18588   */\n      dup5\n        /* \"#utility.yul\":18578:18589   */\n      sload\n        /* \"#utility.yul\":18550:18641   */\n      tag_179\n      jump\t// in\n    tag_372:\n        /* \"#utility.yul\":18544:18548   */\n      dup3\n        /* \"#utility.yul\":18537:18642   */\n      sstore\n        /* \"#utility.yul\":18455:18648   */\n      pop\n        /* \"#utility.yul\":18379:18648   */\n      pop\n      pop\n      pop\n      jump\t// out\n        /* \"#utility.yul\":18654:18727   */\n    tag_184:\n        /* \"#utility.yul\":18699:18702   */\n      0x00\n        /* \"#utility.yul\":18654:18727   */\n      swap1\n      jump\t// out\n        /* \"#utility.yul\":18733:18922   */\n    tag_185:\n        /* \"#utility.yul\":18810:18842   */\n      tag_376\n      tag_184\n      jump\t// in\n    tag_376:\n        /* \"#utility.yul\":18851:18916   */\n      tag_377\n        /* \"#utility.yul\":18909:18915   */\n      dup2\n        /* \"#utility.yul\":18901:18907   */\n      dup5\n        /* \"#utility.yul\":18895:18899   */\n      dup5\n        /* \"#utility.yul\":18851:18916   */\n      tag_183\n      jump\t// in\n    tag_377:\n        /* \"#utility.yul\":18786:18922   */\n      pop\n        /* \"#utility.yul\":18733:18922   */\n      pop\n      pop\n      jump\t// out\n        /* \"#utility.yul\":18928:19114   */\n    tag_186:\n        /* \"#utility.yul\":18988:19108   */\n    tag_379:\n        /* \"#utility.yul\":19005:19008   */\n      dup2\n        /* \"#utility.yul\":18998:19003   */\n      dup2\n        /* \"#utility.yul\":18995:19009   */\n      lt\n        /* \"#utility.yul\":18988:19108   */\n      iszero\n      tag_381\n      jumpi\n        /* \"#utility.yul\":19059:19098   */\n      tag_382\n        /* \"#utility.yul\":19096:19097   */\n      0x00\n        /* \"#utility.yul\":19089:19094   */\n      dup3\n        /* \"#utility.yul\":19059:19098   */\n      tag_185\n      jump\t// in\n    tag_382:\n        /* \"#utility.yul\":19032:19033   */\n      0x01\n        /* \"#utility.yul\":19025:19030   */\n      dup2\n        /* \"#utility.yul\":19021:19034   */\n      add\n        /* \"#utility.yul\":19012:19034   */\n      swap1\n      pop\n        /* \"#utility.yul\":18988:19108   */\n      jump(tag_379)\n    tag_381:\n        /* \"#utility.yul\":18928:19114   */\n      pop\n      pop\n      jump\t// out\n        /* \"#utility.yul\":19120:19663   */\n    tag_187:\n        /* \"#utility.yul\":19221:19223   */\n      0x1f\n        /* \"#utility.yul\":19216:19219   */\n      dup3\n        /* \"#utility.yul\":19213:19224   */\n      gt\n        /* \"#utility.yul\":19210:19656   */\n      iszero\n      tag_384\n      jumpi\n        /* \"#utility.yul\":19255:19293   */\n      tag_385\n        /* \"#utility.yul\":19287:19292   */\n      dup2\n        /* \"#utility.yul\":19255:19293   */\n      tag_176\n      jump\t// in\n    tag_385:\n        /* \"#utility.yul\":19339:19368   */\n      tag_386\n        /* \"#utility.yul\":19357:19367   */\n      dup5\n        /* \"#utility.yul\":19339:19368   */\n      tag_177\n      jump\t// in\n    tag_386:\n        /* \"#utility.yul\":19329:19337   */\n      dup2\n        /* \"#utility.yul\":19325:19369   */\n      add\n        /* \"#utility.yul\":19522:19524   */\n      0x20\n        /* \"#utility.yul\":19510:19520   */\n      dup6\n        /* \"#utility.yul\":19507:19525   */\n      lt\n        /* \"#utility.yul\":19504:19553   */\n      iszero\n      tag_387\n      jumpi\n        /* \"#utility.yul\":19543:19551   */\n      dup2\n        /* \"#utility.yul\":19528:19551   */\n      swap1\n      pop\n        /* \"#utility.yul\":19504:19553   */\n    tag_387:\n        /* \"#utility.yul\":19566:19646   */\n      tag_388\n        /* \"#utility.yul\":19622:19644   */\n      tag_389\n        /* \"#utility.yul\":19640:19643   */\n      dup6\n        /* \"#utility.yul\":19622:19644   */\n      tag_177\n      jump\t// in\n    tag_389:\n        /* \"#utility.yul\":19612:19620   */\n      dup4\n        /* \"#utility.yul\":19608:19645   */\n      add\n        /* \"#utility.yul\":19595:19606   */\n      dup3\n        /* \"#utility.yul\":19566:19646   */\n      tag_186\n      jump\t// in\n    tag_388:\n        /* \"#utility.yul\":19225:19656   */\n      pop\n      pop\n        /* \"#utility.yul\":19210:19656   */\n    tag_384:\n        /* \"#utility.yul\":19120:19663   */\n      pop\n      pop\n      pop\n      jump\t// out\n        /* \"#utility.yul\":19669:19786   */\n    tag_188:\n        /* \"#utility.yul\":19723:19731   */\n      0x00\n        /* \"#utility.yul\":19773:19778   */\n      dup3\n        /* \"#utility.yul\":19767:19771   */\n      dup3\n        /* \"#utility.yul\":19763:19779   */\n      shr\n        /* \"#utility.yul\":19742:19779   */\n      swap1\n      pop\n        /* \"#utility.yul\":19669:19786   */\n      swap3\n      swap2\n      pop\n      pop\n      jump\t// out\n        /* \"#utility.yul\":19792:19961   */\n    tag_189:\n        /* \"#utility.yul\":19836:19842   */\n      0x00\n        /* \"#utility.yul\":19869:19920   */\n      tag_392\n        /* \"#utility.yul\":19917:19918   */\n      0x00\n        /* \"#utility.yul\":19913:19919   */\n      not\n        /* \"#utility.yul\":19905:19910   */\n      dup5\n        /* \"#utility.yul\":19902:19903   */\n      0x08\n        /* \"#utility.yul\":19898:19911   */\n      mul\n        /* \"#utility.yul\":19869:19920   */\n      tag_188\n      jump\t// in\n    tag_392:\n        /* \"#utility.yul\":19865:19921   */\n      not\n        /* \"#utility.yul\":19950:19954   */\n      dup1\n        /* \"#utility.yul\":19944:19948   */\n      dup4\n        /* \"#utility.yul\":19940:19955   */\n      and\n        /* \"#utility.yul\":19930:19955   */\n      swap2\n      pop\n        /* \"#utility.yul\":19843:19961   */\n      pop\n        /* \"#utility.yul\":19792:19961   */\n      swap3\n      swap2\n      pop\n      pop\n      jump\t// out\n        /* \"#utility.yul\":19966:20261   */\n    tag_190:\n        /* \"#utility.yul\":20042:20046   */\n      0x00\n        /* \"#utility.yul\":20188:20217   */\n      tag_394\n        /* \"#utility.yul\":20213:20216   */\n      dup4\n        /* \"#utility.yul\":20207:20211   */\n      dup4\n        /* \"#utility.yul\":20188:20217   */\n      tag_189\n      jump\t// in\n    tag_394:\n        /* \"#utility.yul\":20180:20217   */\n      swap2\n      pop\n        /* \"#utility.yul\":20250:20253   */\n      dup3\n        /* \"#utility.yul\":20247:20248   */\n      0x02\n        /* \"#utility.yul\":20243:20254   */\n      mul\n        /* \"#utility.yul\":20237:20241   */\n      dup3\n        /* \"#utility.yul\":20234:20255   */\n      or\n        /* \"#utility.yul\":20226:20255   */\n      swap1\n      pop\n        /* \"#utility.yul\":19966:20261   */\n      swap3\n      swap2\n      pop\n      pop\n      jump\t// out\n        /* \"#utility.yul\":20266:21661   */\n    tag_88:\n        /* \"#utility.yul\":20383:20420   */\n      tag_396\n        /* \"#utility.yul\":20416:20419   */\n      dup3\n        /* \"#utility.yul\":20383:20420   */\n      tag_147\n      jump\t// in\n    tag_396:\n        /* \"#utility.yul\":20485:20503   */\n      0xffffffffffffffff\n        /* \"#utility.yul\":20477:20483   */\n      dup2\n        /* \"#utility.yul\":20474:20504   */\n      gt\n        /* \"#utility.yul\":20471:20527   */\n      iszero\n      tag_397\n      jumpi\n        /* \"#utility.yul\":20507:20525   */\n      tag_398\n      tag_166\n      jump\t// in\n    tag_398:\n        /* \"#utility.yul\":20471:20527   */\n    tag_397:\n        /* \"#utility.yul\":20551:20589   */\n      tag_399\n        /* \"#utility.yul\":20583:20587   */\n      dup3\n        /* \"#utility.yul\":20577:20588   */\n      sload\n        /* \"#utility.yul\":20551:20589   */\n      tag_47\n      jump\t// in\n    tag_399:\n        /* \"#utility.yul\":20636:20703   */\n      tag_400\n        /* \"#utility.yul\":20696:20702   */\n      dup3\n        /* \"#utility.yul\":20688:20694   */\n      dup3\n        /* \"#utility.yul\":20682:20686   */\n      dup6\n        /* \"#utility.yul\":20636:20703   */\n      tag_187\n      jump\t// in\n    tag_400:\n        /* \"#utility.yul\":20730:20731   */\n      0x00\n        /* \"#utility.yul\":20754:20758   */\n      0x20\n        /* \"#utility.yul\":20741:20758   */\n      swap1\n      pop\n        /* \"#utility.yul\":20786:20788   */\n      0x1f\n        /* \"#utility.yul\":20778:20784   */\n      dup4\n        /* \"#utility.yul\":20775:20789   */\n      gt\n        /* \"#utility.yul\":20803:20804   */\n      0x01\n        /* \"#utility.yul\":20798:21416   */\n      dup2\n      eq\n      tag_402\n      jumpi\n        /* \"#utility.yul\":21460:21461   */\n      0x00\n        /* \"#utility.yul\":21477:21483   */\n      dup5\n        /* \"#utility.yul\":21474:21551   */\n      iszero\n      tag_403\n      jumpi\n        /* \"#utility.yul\":21526:21535   */\n      dup3\n        /* \"#utility.yul\":21521:21524   */\n      dup8\n        /* \"#utility.yul\":21517:21536   */\n      add\n        /* \"#utility.yul\":21511:21537   */\n      mload\n        /* \"#utility.yul\":21502:21537   */\n      swap1\n      pop\n        /* \"#utility.yul\":21474:21551   */\n    tag_403:\n        /* \"#utility.yul\":21577:21644   */\n      tag_404\n        /* \"#utility.yul\":21637:21643   */\n      dup6\n        /* \"#utility.yul\":21630:21635   */\n      dup3\n        /* \"#utility.yul\":21577:21644   */\n      tag_190\n      jump\t// in\n    tag_404:\n        /* \"#utility.yul\":21571:21575   */\n      dup7\n        /* \"#utility.yul\":21564:21645   */\n      sstore\n        /* \"#utility.yul\":21433:21655   */\n      pop\n        /* \"#utility.yul\":20768:21655   */\n      jump(tag_401)\n        /* \"#utility.yul\":20798:21416   */\n    tag_402:\n        /* \"#utility.yul\":20850:20854   */\n      0x1f\n        /* \"#utility.yul\":20846:20855   */\n      not\n        /* \"#utility.yul\":20838:20844   */\n      dup5\n        /* \"#utility.yul\":20834:20856   */\n      and\n        /* \"#utility.yul\":20884:20921   */\n      tag_405\n        /* \"#utility.yul\":20916:20920   */\n      dup7\n        /* \"#utility.yul\":20884:20921   */\n      tag_176\n      jump\t// in\n    tag_405:\n        /* \"#utility.yul\":20943:20944   */\n      0x00\n        /* \"#utility.yul\":20957:21165   */\n    tag_406:\n        /* \"#utility.yul\":20971:20978   */\n      dup3\n        /* \"#utility.yul\":20968:20969   */\n      dup2\n        /* \"#utility.yul\":20965:20979   */\n      lt\n        /* \"#utility.yul\":20957:21165   */\n      iszero\n      tag_408\n      jumpi\n        /* \"#utility.yul\":21050:21059   */\n      dup5\n        /* \"#utility.yul\":21045:21048   */\n      dup10\n        /* \"#utility.yul\":21041:21060   */\n      add\n        /* \"#utility.yul\":21035:21061   */\n      mload\n        /* \"#utility.yul\":21027:21033   */\n      dup3\n        /* \"#utility.yul\":21020:21062   */\n      sstore\n        /* \"#utility.yul\":21101:21102   */\n      0x01\n        /* \"#utility.yul\":21093:21099   */\n      dup3\n        /* \"#utility.yul\":21089:21103   */\n      add\n        /* \"#utility.yul\":21079:21103   */\n      swap2\n      pop\n        /* \"#utility.yul\":21148:21150   */\n      0x20\n        /* \"#utility.yul\":21137:21146   */\n      dup6\n        /* \"#utility.yul\":21133:21151   */\n      add\n        /* \"#utility.yul\":21120:21151   */\n      swap5\n      pop\n        /* \"#utility.yul\":20994:20998   */\n      0x20\n        /* \"#utility.yul\":20991:20992   */\n      dup2\n        /* \"#utility.yul\":20987:20999   */\n      add\n        /* \"#utility.yul\":20982:20999   */\n      swap1\n      pop\n        /* \"#utility.yul\":20957:21165   */\n      jump(tag_406)\n    tag_408:\n        /* \"#utility.yul\":21193:21199   */\n      dup7\n        /* \"#utility.yul\":21184:21191   */\n      dup4\n        /* \"#utility.yul\":21181:21200   */\n      lt\n        /* \"#utility.yul\":21178:21357   */\n      iszero\n      tag_409\n      jumpi\n        /* \"#utility.yul\":21251:21260   */\n      dup5\n        /* \"#utility.yul\":21246:21249   */\n      dup10\n        /* \"#utility.yul\":21242:21261   */\n      add\n        /* \"#utility.yul\":21236:21262   */\n      mload\n        /* \"#utility.yul\":21294:21342   */\n      tag_410\n        /* \"#utility.yul\":21336:21340   */\n      0x1f\n        /* \"#utility.yul\":21328:21334   */\n      dup10\n        /* \"#utility.yul\":21324:21341   */\n      and\n        /* \"#utility.yul\":21313:21322   */\n      dup3\n        /* \"#utility.yul\":21294:21342   */\n      tag_189\n      jump\t// in\n    tag_410:\n        /* \"#utility.yul\":21286:21292   */\n      dup4\n        /* \"#utility.yul\":21279:21343   */\n      sstore\n        /* \"#utility.yul\":21201:21357   */\n      pop\n        /* \"#utility.yul\":21178:21357   */\n    tag_409:\n        /* \"#utility.yul\":21403:21404   */\n      0x01\n        /* \"#utility.yul\":21399:21400   */\n      0x02\n        /* \"#utility.yul\":21391:21397   */\n      dup9\n        /* \"#utility.yul\":21387:21401   */\n      mul\n        /* \"#utility.yul\":21383:21405   */\n      add\n        /* \"#utility.yul\":21377:21381   */\n      dup9\n        /* \"#utility.yul\":21370:21406   */\n      sstore\n        /* \"#utility.yul\":20805:21416   */\n      pop\n      pop\n      pop\n        /* \"#utility.yul\":20768:21655   */\n    tag_401:\n      pop\n        /* \"#utility.yul\":20358:21661   */\n      pop\n      pop\n      pop\n        /* \"#utility.yul\":20266:21661   */\n      pop\n      pop\n      jump\t// out\n        /* \"#utility.yul\":21667:21847   */\n    tag_191:\n        /* \"#utility.yul\":21715:21792   */\n      0x4e487b7100000000000000000000000000000000000000000000000000000000\n        /* \"#utility.yul\":21712:21713   */\n      0x00\n        /* \"#utility.yul\":21705:21793   */\n      mstore\n        /* \"#utility.yul\":21812:21816   */\n      0x11\n        /* \"#utility.yul\":21809:21810   */\n      0x04\n        /* \"#utility.yul\":21802:21817   */\n      mstore\n        /* \"#utility.yul\":21836:21840   */\n      0x24\n        /* \"#utility.yul\":21833:21834   */\n      0x00\n        /* \"#utility.yul\":21826:21841   */\n      revert\n        /* \"#utility.yul\":21853:22044   */\n    tag_99:\n        /* \"#utility.yul\":21893:21896   */\n      0x00\n        /* \"#utility.yul\":21912:21932   */\n      tag_413\n        /* \"#utility.yul\":21930:21931   */\n      dup3\n        /* \"#utility.yul\":21912:21932   */\n      tag_139\n      jump\t// in\n    tag_413:\n        /* \"#utility.yul\":21907:21932   */\n      swap2\n      pop\n        /* \"#utility.yul\":21946:21966   */\n      tag_414\n        /* \"#utility.yul\":21964:21965   */\n      dup4\n        /* \"#utility.yul\":21946:21966   */\n      tag_139\n      jump\t// in\n    tag_414:\n        /* \"#utility.yul\":21941:21966   */\n      swap3\n      pop\n        /* \"#utility.yul\":21989:21990   */\n      dup3\n        /* \"#utility.yul\":21986:21987   */\n      dup3\n        /* \"#utility.yul\":21982:21991   */\n      add\n        /* \"#utility.yul\":21975:21991   */\n      swap1\n      pop\n        /* \"#utility.yul\":22010:22013   */\n      dup1\n        /* \"#utility.yul\":22007:22008   */\n      dup3\n        /* \"#utility.yul\":22004:22014   */\n      gt\n        /* \"#utility.yul\":22001:22037   */\n      iszero\n      tag_415\n      jumpi\n        /* \"#utility.yul\":22017:22035   */\n      tag_416\n      tag_191\n      jump\t// in\n    tag_416:\n        /* \"#utility.yul\":22001:22037   */\n    tag_415:\n        /* \"#utility.yul\":21853:22044   */\n      swap3\n      swap2\n      pop\n      pop\n      jump\t// out\n        /* \"#utility.yul\":22050:22199   */\n    tag_192:\n        /* \"#utility.yul\":22099:22105   */\n      0x00\n        /* \"#utility.yul\":22133:22138   */\n      dup2\n        /* \"#utility.yul\":22127:22139   */\n      sload\n        /* \"#utility.yul\":22117:22139   */\n      swap1\n      pop\n        /* \"#utility.yul\":22159:22192   */\n      tag_418\n        /* \"#utility.yul\":22185:22191   */\n      dup2\n        /* \"#utility.yul\":22159:22192   */\n      tag_47\n      jump\t// in\n    tag_418:\n        /* \"#utility.yul\":22149:22192   */\n      swap1\n      pop\n        /* \"#utility.yul\":22050:22199   */\n      swap2\n      swap1\n      pop\n      jump\t// out\n        /* \"#utility.yul\":22205:23656   */\n    tag_107:\n        /* \"#utility.yul\":22316:22319   */\n      dup2\n        /* \"#utility.yul\":22310:22314   */\n      dup2\n        /* \"#utility.yul\":22307:22320   */\n      sub\n        /* \"#utility.yul\":22304:22330   */\n      tag_420\n      jumpi\n        /* \"#utility.yul\":22323:22328   */\n      pop\n      pop\n      jump(tag_419)\n        /* \"#utility.yul\":22304:22330   */\n    tag_420:\n        /* \"#utility.yul\":22354:22388   */\n      tag_421\n        /* \"#utility.yul\":22384:22387   */\n      dup3\n        /* \"#utility.yul\":22354:22388   */\n      tag_192\n      jump\t// in\n    tag_421:\n        /* \"#utility.yul\":22453:22471   */\n      0xffffffffffffffff\n        /* \"#utility.yul\":22445:22451   */\n      dup2\n        /* \"#utility.yul\":22442:22472   */\n      gt\n        /* \"#utility.yul\":22439:22495   */\n      iszero\n      tag_422\n      jumpi\n        /* \"#utility.yul\":22475:22493   */\n      tag_423\n      tag_166\n      jump\t// in\n    tag_423:\n        /* \"#utility.yul\":22439:22495   */\n    tag_422:\n        /* \"#utility.yul\":22519:22557   */\n      tag_424\n        /* \"#utility.yul\":22551:22555   */\n      dup3\n        /* \"#utility.yul\":22545:22556   */\n      sload\n        /* \"#utility.yul\":22519:22557   */\n      tag_47\n      jump\t// in\n    tag_424:\n        /* \"#utility.yul\":22604:22671   */\n      tag_425\n        /* \"#utility.yul\":22664:22670   */\n      dup3\n        /* \"#utility.yul\":22656:22662   */\n      dup3\n        /* \"#utility.yul\":22650:22654   */\n      dup6\n        /* \"#utility.yul\":22604:22671   */\n      tag_187\n      jump\t// in\n    tag_425:\n        /* \"#utility.yul\":22698:22699   */\n      0x00\n        /* \"#utility.yul\":22727:22729   */\n      0x1f\n        /* \"#utility.yul\":22719:22725   */\n      dup4\n        /* \"#utility.yul\":22716:22730   */\n      gt\n        /* \"#utility.yul\":22744:22745   */\n      0x01\n        /* \"#utility.yul\":22739:23411   */\n      dup2\n      eq\n      tag_427\n      jumpi\n        /* \"#utility.yul\":23455:23456   */\n      0x00\n        /* \"#utility.yul\":23472:23478   */\n      dup5\n        /* \"#utility.yul\":23469:23546   */\n      iszero\n      tag_428\n      jumpi\n        /* \"#utility.yul\":23521:23530   */\n      dup3\n        /* \"#utility.yul\":23516:23519   */\n      dup8\n        /* \"#utility.yul\":23512:23531   */\n      add\n        /* \"#utility.yul\":23506:23532   */\n      sload\n        /* \"#utility.yul\":23497:23532   */\n      swap1\n      pop\n        /* \"#utility.yul\":23469:23546   */\n    tag_428:\n        /* \"#utility.yul\":23572:23639   */\n      tag_429\n        /* \"#utility.yul\":23632:23638   */\n      dup6\n        /* \"#utility.yul\":23625:23630   */\n      dup3\n        /* \"#utility.yul\":23572:23639   */\n      tag_190\n      jump\t// in\n    tag_429:\n        /* \"#utility.yul\":23566:23570   */\n      dup7\n        /* \"#utility.yul\":23559:23640   */\n      sstore\n        /* \"#utility.yul\":23428:23650   */\n      pop\n        /* \"#utility.yul\":22709:23650   */\n      jump(tag_426)\n        /* \"#utility.yul\":22739:23411   */\n    tag_427:\n        /* \"#utility.yul\":22791:22795   */\n      0x1f\n        /* \"#utility.yul\":22787:22796   */\n      not\n        /* \"#utility.yul\":22779:22785   */\n      dup5\n        /* \"#utility.yul\":22775:22797   */\n      and\n        /* \"#utility.yul\":22817:22853   */\n      tag_430\n        /* \"#utility.yul\":22849:22852   */\n      dup8\n        /* \"#utility.yul\":22817:22853   */\n      tag_176\n      jump\t// in\n    tag_430:\n        /* \"#utility.yul\":22810:22853   */\n      swap7\n      pop\n        /* \"#utility.yul\":22880:22917   */\n      tag_431\n        /* \"#utility.yul\":22912:22916   */\n      dup7\n        /* \"#utility.yul\":22880:22917   */\n      tag_176\n      jump\t// in\n    tag_431:\n        /* \"#utility.yul\":22939:22940   */\n      0x00\n        /* \"#utility.yul\":22953:23160   */\n    tag_432:\n        /* \"#utility.yul\":22967:22974   */\n      dup3\n        /* \"#utility.yul\":22964:22965   */\n      dup2\n        /* \"#utility.yul\":22961:22975   */\n      lt\n        /* \"#utility.yul\":22953:23160   */\n      iszero\n      tag_434\n      jumpi\n        /* \"#utility.yul\":23046:23055   */\n      dup5\n        /* \"#utility.yul\":23041:23044   */\n      dup10\n        /* \"#utility.yul\":23037:23056   */\n      add\n        /* \"#utility.yul\":23031:23057   */\n      sload\n        /* \"#utility.yul\":23023:23029   */\n      dup3\n        /* \"#utility.yul\":23016:23058   */\n      sstore\n        /* \"#utility.yul\":23097:23098   */\n      0x01\n        /* \"#utility.yul\":23089:23095   */\n      dup3\n        /* \"#utility.yul\":23085:23099   */\n      add\n        /* \"#utility.yul\":23075:23099   */\n      swap2\n      pop\n        /* \"#utility.yul\":23144:23145   */\n      0x01\n        /* \"#utility.yul\":23133:23142   */\n      dup6\n        /* \"#utility.yul\":23129:23146   */\n      add\n        /* \"#utility.yul\":23116:23146   */\n      swap5\n      pop\n        /* \"#utility.yul\":22990:22994   */\n      0x20\n        /* \"#utility.yul\":22987:22988   */\n      dup2\n        /* \"#utility.yul\":22983:22995   */\n      add\n        /* \"#utility.yul\":22978:22995   */\n      swap1\n      pop\n        /* \"#utility.yul\":22953:23160   */\n      jump(tag_432)\n    tag_434:\n        /* \"#utility.yul\":23188:23194   */\n      dup7\n        /* \"#utility.yul\":23179:23186   */\n      dup4\n        /* \"#utility.yul\":23176:23195   */\n      lt\n        /* \"#utility.yul\":23173:23352   */\n      iszero\n      tag_435\n      jumpi\n        /* \"#utility.yul\":23246:23255   */\n      dup5\n        /* \"#utility.yul\":23241:23244   */\n      dup10\n        /* \"#utility.yul\":23237:23256   */\n      add\n        /* \"#utility.yul\":23231:23257   */\n      sload\n        /* \"#utility.yul\":23289:23337   */\n      tag_436\n        /* \"#utility.yul\":23331:23335   */\n      0x1f\n        /* \"#utility.yul\":23323:23329   */\n      dup10\n        /* \"#utility.yul\":23319:23336   */\n      and\n        /* \"#utility.yul\":23308:23317   */\n      dup3\n        /* \"#utility.yul\":23289:23337   */\n      tag_189\n      jump\t// in\n    tag_436:\n        /* \"#utility.yul\":23281:23287   */\n      dup4\n        /* \"#utility.yul\":23274:23338   */\n      sstore\n        /* \"#utility.yul\":23196:23352   */\n      pop\n        /* \"#utility.yul\":23173:23352   */\n    tag_435:\n        /* \"#utility.yul\":23398:23399   */\n      0x01\n        /* \"#utility.yul\":23394:23395   */\n      0x02\n        /* \"#utility.yul\":23386:23392   */\n      dup9\n        /* \"#utility.yul\":23382:23396   */\n      mul\n        /* \"#utility.yul\":23378:23400   */\n      add\n        /* \"#utility.yul\":23372:23376   */\n      dup9\n        /* \"#utility.yul\":23365:23401   */\n      sstore\n        /* \"#utility.yul\":22746:23411   */\n      pop\n      pop\n      pop\n        /* \"#utility.yul\":22709:23650   */\n    tag_426:\n      pop\n        /* \"#utility.yul\":22294:23656   */\n      pop\n      pop\n      pop\n        /* \"#utility.yul\":22205:23656   */\n      pop\n      pop\n    tag_419:\n      jump\t// out\n        /* \"#utility.yul\":23662:23810   */\n    tag_193:\n        /* \"#utility.yul\":23764:23775   */\n      0x00\n        /* \"#utility.yul\":23801:23804   */\n      dup2\n        /* \"#utility.yul\":23786:23804   */\n      swap1\n      pop\n        /* \"#utility.yul\":23662:23810   */\n      swap3\n      swap2\n      pop\n      pop\n      jump\t// out\n        /* \"#utility.yul\":23816:24206   */\n    tag_194:\n        /* \"#utility.yul\":23922:23925   */\n      0x00\n        /* \"#utility.yul\":23950:23989   */\n      tag_439\n        /* \"#utility.yul\":23983:23988   */\n      dup3\n        /* \"#utility.yul\":23950:23989   */\n      tag_147\n      jump\t// in\n    tag_439:\n        /* \"#utility.yul\":24005:24094   */\n      tag_440\n        /* \"#utility.yul\":24087:24093   */\n      dup2\n        /* \"#utility.yul\":24082:24085   */\n      dup6\n        /* \"#utility.yul\":24005:24094   */\n      tag_193\n      jump\t// in\n    tag_440:\n        /* \"#utility.yul\":23998:24094   */\n      swap4\n      pop\n        /* \"#utility.yul\":24103:24168   */\n      tag_441\n        /* \"#utility.yul\":24161:24167   */\n      dup2\n        /* \"#utility.yul\":24156:24159   */\n      dup6\n        /* \"#utility.yul\":24149:24153   */\n      0x20\n        /* \"#utility.yul\":24142:24147   */\n      dup7\n        /* \"#utility.yul\":24138:24154   */\n      add\n        /* \"#utility.yul\":24103:24168   */\n      tag_149\n      jump\t// in\n    tag_441:\n        /* \"#utility.yul\":24193:24199   */\n      dup1\n        /* \"#utility.yul\":24188:24191   */\n      dup5\n        /* \"#utility.yul\":24184:24200   */\n      add\n        /* \"#utility.yul\":24177:24200   */\n      swap2\n      pop\n        /* \"#utility.yul\":23926:24206   */\n      pop\n        /* \"#utility.yul\":23816:24206   */\n      swap3\n      swap2\n      pop\n      pop\n      jump\t// out\n        /* \"#utility.yul\":24212:24487   */\n    tag_115:\n        /* \"#utility.yul\":24344:24347   */\n      0x00\n        /* \"#utility.yul\":24366:24461   */\n      tag_443\n        /* \"#utility.yul\":24457:24460   */\n      dup3\n        /* \"#utility.yul\":24448:24454   */\n      dup5\n        /* \"#utility.yul\":24366:24461   */\n      tag_194\n      jump\t// in\n    tag_443:\n        /* \"#utility.yul\":24359:24461   */\n      swap2\n      pop\n        /* \"#utility.yul\":24478:24481   */\n      dup2\n        /* \"#utility.yul\":24471:24481   */\n      swap1\n      pop\n        /* \"#utility.yul\":24212:24487   */\n      swap3\n      swap2\n      pop\n      pop\n      jump\t// out\n\n    auxdata: 0xa26469706673582212209d6ce2d9a11f76b18294659193674a787201d5579c94208b799ec017239a27ac64736f6c63430008180033\n}\n",
				"bytecode": {
					"linkReferences": {},
					"object": "608060405234801562000010575f80fd5b5060405162001985380380620019858339818101604052810190620000369190620000e1565b805f806101000a81548173ffffffffffffffffffffffffffffffffffffffff021916908373ffffffffffffffffffffffffffffffffffffffff1602179055505062000111565b5f80fd5b5f73ffffffffffffffffffffffffffffffffffffffff82169050919050565b5f620000ab8262000080565b9050919050565b620000bd816200009f565b8114620000c8575f80fd5b50565b5f81519050620000db81620000b2565b92915050565b5f60208284031215620000f957620000f86200007c565b5b5f6200010884828501620000cb565b91505092915050565b611866806200011f5f395ff3fe608060405234801561000f575f80fd5b506004361061007b575f3560e01c806345eb8e9f1161005957806345eb8e9f146100e757806361c1cb701461011757806384efd1d3146101335780639ac8caa01461014f5761007b565b80632957b5201461007f5780633fabf1b31461009b57806341f5b72e146100b7575b5f80fd5b61009960048036038101906100949190610c61565b61016b565b005b6100b560048036038101906100b09190610c9f565b61016f565b005b6100d160048036038101906100cc9190610c9f565b610172565b6040516100de9190610f6b565b60405180910390f35b61010160048036038101906100fc9190610c9f565b610662565b60405161010e9190610f9a565b60405180910390f35b610131600480360381019061012c91906110df565b610682565b005b61014d6004803603810190610148919061121e565b6106f9565b005b610169600480360381019061016491906112ba565b61080f565b005b5050565b50565b61017a6109b5565b60025f8381526020019081526020015f206040518060e00160405290815f82015481526020016001820180546101af906113ea565b80601f01602080910402602001604051908101604052809291908181526020018280546101db906113ea565b80156102265780601f106101fd57610100808354040283529160200191610226565b820191905f5260205f20905b81548152906001019060200180831161020957829003601f168201915b5050505050815260200160028201805461023f906113ea565b80601f016020809104026020016040519081016040528092919081815260200182805461026b906113ea565b80156102b65780601f1061028d576101008083540402835291602001916102b6565b820191905f5260205f20905b81548152906001019060200180831161029957829003601f168201915b505050505081526020016003820180546102cf906113ea565b80601f01602080910402602001604051908101604052809291908181526020018280546102fb906113ea565b80156103465780601f1061031d57610100808354040283529160200191610346565b820191905f5260205f20905b81548152906001019060200180831161032957829003601f168201915b5050505050815260200160048201805461035f906113ea565b80601f016020809104026020016040519081016040528092919081815260200182805461038b906113ea565b80156103d65780601f106103ad576101008083540402835291602001916103d6565b820191905f5260205f20905b8154815290600101906020018083116103b957829003601f168201915b505050505081526020016005820180546103ef906113ea565b80601f016020809104026020016040519081016040528092919081815260200182805461041b906113ea565b80156104665780601f1061043d57610100808354040283529160200191610466565b820191905f5260205f20905b81548152906001019060200180831161044957829003601f168201915b5050505050815260200160068201805480602002602001604051908101604052809291908181526020015f905b82821015610653578382905f5260205f2090600402016040518060800160405290815f820180546104c3906113ea565b80601f01602080910402602001604051908101604052809291908181526020018280546104ef906113ea565b801561053a5780601f106105115761010080835404028352916020019161053a565b820191905f5260205f20905b81548152906001019060200180831161051d57829003601f168201915b50505050508152602001600182015f9054906101000a900460ff1660ff1660ff16815260200160028201805461056f906113ea565b80601f016020809104026020016040519081016040528092919081815260200182805461059b906113ea565b80156105e65780601f106105bd576101008083540402835291602001916105e6565b820191905f5260205f20905b8154815290600101906020018083116105c957829003601f168201915b50505050508152602001600382015f9054906101000a900473ffffffffffffffffffffffffffffffffffffffff1673ffffffffffffffffffffffffffffffffffffffff1673ffffffffffffffffffffffffffffffffffffffff168152505081526020019060010190610493565b50505050815250509050919050565b5f60025f8381526020019081526020015f20600601805490509050919050565b5f60025f8881526020019081526020015f209050858160010190816106a791906115b7565b50848160020190816106b991906115b7565b50838160030190816106cb91906115b7565b50828160040190816106dd91906115b7565b50818160050190816106ef91906115b7565b5050505050505050565b5f60405180608001604052808581526020018360ff1681526020018481526020013373ffffffffffffffffffffffffffffffffffffffff1681525090505f60025f8781526020019081526020015f2090508060060182908060018154018082558091505060019003905f5260205f2090600402015f909190919091505f820151815f01908161078891906115b7565b506020820151816001015f6101000a81548160ff021916908360ff16021790555060408201518160020190816107be91906115b7565b506060820151816003015f6101000a81548173ffffffffffffffffffffffffffffffffffffffff021916908373ffffffffffffffffffffffffffffffffffffffff1602179055505050505050505050565b600160035461081e91906116b3565b6003819055505f60035490505f60025f8381526020019081526020015f20905081815f01819055508681600101908161085791906115b7565b508581600201908161086991906115b7565b508481600301908161087b91906115b7565b508381600401908161088d91906115b7565b508281600501908161089f91906115b7565b50600181908060018154018082558091505060019003905f5260205f2090600702015f909190919091505f820154815f0155600182018160010190816108e591906116fb565b50600282018160020190816108fa91906116fb565b506003820181600301908161090f91906116fb565b506004820181600401908161092491906116fb565b506005820181600501908161093991906116fb565b5060068201816006019080546109509291906109f1565b50505084604051610961919061181a565b604051809103902087604051610977919061181a565b6040518091039020837f2eaf5c3aec496fce10b5616bd077441243efa6fd20f3ae98eb388b9d48a288ae60405160405180910390a450505050505050565b6040518060e001604052805f81526020016060815260200160608152602001606081526020016060815260200160608152602001606081525090565b828054828255905f5260205f20906004028101928215610aed575f5260205f209160040282015b82811115610aec5782825f8201815f019081610a3491906116fb565b50600182015f9054906101000a900460ff16816001015f6101000a81548160ff021916908360ff16021790555060028201816002019081610a7591906116fb565b50600382015f9054906101000a900473ffffffffffffffffffffffffffffffffffffffff16816003015f6101000a81548173ffffffffffffffffffffffffffffffffffffffff021916908373ffffffffffffffffffffffffffffffffffffffff160217905550505091600401919060040190610a18565b5b509050610afa9190610afe565b5090565b5b80821115610b67575f8082015f610b169190610b6b565b600182015f6101000a81549060ff0219169055600282015f610b389190610b6b565b600382015f6101000a81549073ffffffffffffffffffffffffffffffffffffffff021916905550600401610aff565b5090565b508054610b77906113ea565b5f825580601f10610b885750610ba5565b601f0160209004905f5260205f2090810190610ba49190610ba8565b5b50565b5b80821115610bbf575f815f905550600101610ba9565b5090565b5f604051905090565b5f80fd5b5f80fd5b5f819050919050565b610be681610bd4565b8114610bf0575f80fd5b50565b5f81359050610c0181610bdd565b92915050565b5f73ffffffffffffffffffffffffffffffffffffffff82169050919050565b5f610c3082610c07565b9050919050565b610c4081610c26565b8114610c4a575f80fd5b50565b5f81359050610c5b81610c37565b92915050565b5f8060408385031215610c7757610c76610bcc565b5b5f610c8485828601610bf3565b9250506020610c9585828601610c4d565b9150509250929050565b5f60208284031215610cb457610cb3610bcc565b5b5f610cc184828501610bf3565b91505092915050565b610cd381610bd4565b82525050565b5f81519050919050565b5f82825260208201905092915050565b5f5b83811015610d10578082015181840152602081019050610cf5565b5f8484015250505050565b5f601f19601f8301169050919050565b5f610d3582610cd9565b610d3f8185610ce3565b9350610d4f818560208601610cf3565b610d5881610d1b565b840191505092915050565b5f81519050919050565b5f82825260208201905092915050565b5f819050602082019050919050565b5f60ff82169050919050565b610da181610d8c565b82525050565b610db081610c26565b82525050565b5f608083015f8301518482035f860152610dd08282610d2b565b9150506020830151610de56020860182610d98565b5060408301518482036040860152610dfd8282610d2b565b9150506060830151610e126060860182610da7565b508091505092915050565b5f610e288383610db6565b905092915050565b5f602082019050919050565b5f610e4682610d63565b610e508185610d6d565b935083602082028501610e6285610d7d565b805f5b85811015610e9d5784840389528151610e7e8582610e1d565b9450610e8983610e30565b925060208a01995050600181019050610e65565b50829750879550505050505092915050565b5f60e083015f830151610ec45f860182610cca565b5060208301518482036020860152610edc8282610d2b565b91505060408301518482036040860152610ef68282610d2b565b91505060608301518482036060860152610f108282610d2b565b91505060808301518482036080860152610f2a8282610d2b565b91505060a083015184820360a0860152610f448282610d2b565b91505060c083015184820360c0860152610f5e8282610e3c565b9150508091505092915050565b5f6020820190508181035f830152610f838184610eaf565b905092915050565b610f9481610bd4565b82525050565b5f602082019050610fad5f830184610f8b565b92915050565b5f80fd5b5f80fd5b7f4e487b71000000000000000000000000000000000000000000000000000000005f52604160045260245ffd5b610ff182610d1b565b810181811067ffffffffffffffff821117156110105761100f610fbb565b5b80604052505050565b5f611022610bc3565b905061102e8282610fe8565b919050565b5f67ffffffffffffffff82111561104d5761104c610fbb565b5b61105682610d1b565b9050602081019050919050565b828183375f83830152505050565b5f61108361107e84611033565b611019565b90508281526020810184848401111561109f5761109e610fb7565b5b6110aa848285611063565b509392505050565b5f82601f8301126110c6576110c5610fb3565b5b81356110d6848260208601611071565b91505092915050565b5f805f805f8060c087890312156110f9576110f8610bcc565b5b5f61110689828a01610bf3565b965050602087013567ffffffffffffffff81111561112757611126610bd0565b5b61113389828a016110b2565b955050604087013567ffffffffffffffff81111561115457611153610bd0565b5b61116089828a016110b2565b945050606087013567ffffffffffffffff81111561118157611180610bd0565b5b61118d89828a016110b2565b935050608087013567ffffffffffffffff8111156111ae576111ad610bd0565b5b6111ba89828a016110b2565b92505060a087013567ffffffffffffffff8111156111db576111da610bd0565b5b6111e789828a016110b2565b9150509295509295509295565b6111fd81610d8c565b8114611207575f80fd5b50565b5f81359050611218816111f4565b92915050565b5f805f806080858703121561123657611235610bcc565b5b5f61124387828801610bf3565b945050602085013567ffffffffffffffff81111561126457611263610bd0565b5b611270878288016110b2565b935050604085013567ffffffffffffffff81111561129157611290610bd0565b5b61129d878288016110b2565b92505060606112ae8782880161120a565b91505092959194509250565b5f805f805f60a086880312156112d3576112d2610bcc565b5b5f86013567ffffffffffffffff8111156112f0576112ef610bd0565b5b6112fc888289016110b2565b955050602086013567ffffffffffffffff81111561131d5761131c610bd0565b5b611329888289016110b2565b945050604086013567ffffffffffffffff81111561134a57611349610bd0565b5b611356888289016110b2565b935050606086013567ffffffffffffffff81111561137757611376610bd0565b5b611383888289016110b2565b925050608086013567ffffffffffffffff8111156113a4576113a3610bd0565b5b6113b0888289016110b2565b9150509295509295909350565b7f4e487b71000000000000000000000000000000000000000000000000000000005f52602260045260245ffd5b5f600282049050600182168061140157607f821691505b602082108103611414576114136113bd565b5b50919050565b5f819050815f5260205f209050919050565b5f6020601f8301049050919050565b5f82821b905092915050565b5f600883026114767fffffffffffffffffffffffffffffffffffffffffffffffffffffffffffffffff8261143b565b611480868361143b565b95508019841693508086168417925050509392505050565b5f819050919050565b5f6114bb6114b66114b184610bd4565b611498565b610bd4565b9050919050565b5f819050919050565b6114d4836114a1565b6114e86114e0826114c2565b848454611447565b825550505050565b5f90565b6114fc6114f0565b6115078184846114cb565b505050565b5b8181101561152a5761151f5f826114f4565b60018101905061150d565b5050565b601f82111561156f576115408161141a565b6115498461142c565b81016020851015611558578190505b61156c6115648561142c565b83018261150c565b50505b505050565b5f82821c905092915050565b5f61158f5f1984600802611574565b1980831691505092915050565b5f6115a78383611580565b9150826002028217905092915050565b6115c082610cd9565b67ffffffffffffffff8111156115d9576115d8610fbb565b5b6115e382546113ea565b6115ee82828561152e565b5f60209050601f83116001811461161f575f841561160d578287015190505b611617858261159c565b86555061167e565b601f19841661162d8661141a565b5f5b828110156116545784890151825560018201915060208501945060208101905061162f565b86831015611671578489015161166d601f891682611580565b8355505b6001600288020188555050505b505050505050565b7f4e487b71000000000000000000000000000000000000000000000000000000005f52601160045260245ffd5b5f6116bd82610bd4565b91506116c883610bd4565b92508282019050808211156116e0576116df611686565b5b92915050565b5f815490506116f4816113ea565b9050919050565b8181036117095750506117de565b611712826116e6565b67ffffffffffffffff81111561172b5761172a610fbb565b5b61173582546113ea565b61174082828561152e565b5f601f83116001811461176d575f841561175b578287015490505b611765858261159c565b8655506117d7565b601f19841661177b8761141a565b96506117868661141a565b5f5b828110156117ad57848901548255600182019150600185019450602081019050611788565b868310156117ca57848901546117c6601f891682611580565b8355505b6001600288020188555050505b5050505050505b565b5f81905092915050565b5f6117f482610cd9565b6117fe81856117e0565b935061180e818560208601610cf3565b80840191505092915050565b5f61182582846117ea565b91508190509291505056fea26469706673582212209d6ce2d9a11f76b18294659193674a787201d5579c94208b799ec017239a27ac64736f6c63430008180033",
					"opcodes": "PUSH1 0x80 PUSH1 0x40 MSTORE CALLVALUE DUP1 ISZERO PUSH3 0x10 JUMPI PUSH0 DUP1 REVERT JUMPDEST POP PUSH1 0x40 MLOAD PUSH3 0x1985 CODESIZE SUB DUP1 PUSH3 0x1985 DUP4 CODECOPY DUP2 DUP2 ADD PUSH1 0x40 MSTORE DUP2 ADD SWAP1 PUSH3 0x36 SWAP2 SWAP1 PUSH3 0xE1 JUMP JUMPDEST DUP1 PUSH0 DUP1 PUSH2 0x100 EXP DUP2 SLOAD DUP2 PUSH20 0xFFFFFFFFFFFFFFFFFFFFFFFFFFFFFFFFFFFFFFFF MUL NOT AND SWAP1 DUP4 PUSH20 0xFFFFFFFFFFFFFFFFFFFFFFFFFFFFFFFFFFFFFFFF AND MUL OR SWAP1 SSTORE POP POP PUSH3 0x111 JUMP JUMPDEST PUSH0 DUP1 REVERT JUMPDEST PUSH0 PUSH20 0xFFFFFFFFFFFFFFFFFFFFFFFFFFFFFFFFFFFFFFFF DUP3 AND SWAP1 POP SWAP2 SWAP1 POP JUMP JUMPDEST PUSH0 PUSH3 0xAB DUP3 PUSH3 0x80 JUMP JUMPDEST SWAP1 POP SWAP2 SWAP1 POP JUMP JUMPDEST PUSH3 0xBD DUP2 PUSH3 0x9F JUMP JUMPDEST DUP2 EQ PUSH3 0xC8 JUMPI PUSH0 DUP1 REVERT JUMPDEST POP JUMP JUMPDEST PUSH0 DUP2 MLOAD SWAP1 POP PUSH3 0xDB DUP2 PUSH3 0xB2 JUMP JUMPDEST SWAP3 SWAP2 POP POP JUMP JUMPDEST PUSH0 PUSH1 0x20 DUP3 DUP5 SUB SLT ISZERO PUSH3 0xF9 JUMPI PUSH3 0xF8 PUSH3 0x7C JUMP JUMPDEST JUMPDEST PUSH0 PUSH3 0x108 DUP5 DUP3 DUP6 ADD PUSH3 0xCB JUMP JUMPDEST SWAP2 POP POP SWAP3 SWAP2 POP POP JUMP JUMPDEST PUSH2 0x1866 DUP1 PUSH3 0x11F PUSH0 CODECOPY PUSH0 RETURN INVALID PUSH1 0x80 PUSH1 0x40 MSTORE CALLVALUE DUP1 ISZERO PUSH2 0xF JUMPI PUSH0 DUP1 REVERT JUMPDEST POP PUSH1 0x4 CALLDATASIZE LT PUSH2 0x7B JUMPI PUSH0 CALLDATALOAD PUSH1 0xE0 SHR DUP1 PUSH4 0x45EB8E9F GT PUSH2 0x59 JUMPI DUP1 PUSH4 0x45EB8E9F EQ PUSH2 0xE7 JUMPI DUP1 PUSH4 0x61C1CB70 EQ PUSH2 0x117 JUMPI DUP1 PUSH4 0x84EFD1D3 EQ PUSH2 0x133 JUMPI DUP1 PUSH4 0x9AC8CAA0 EQ PUSH2 0x14F JUMPI PUSH2 0x7B JUMP JUMPDEST DUP1 PUSH4 0x2957B520 EQ PUSH2 0x7F JUMPI DUP1 PUSH4 0x3FABF1B3 EQ PUSH2 0x9B JUMPI DUP1 PUSH4 0x41F5B72E EQ PUSH2 0xB7 JUMPI JUMPDEST PUSH0 DUP1 REVERT JUMPDEST PUSH2 0x99 PUSH1 0x4 DUP1 CALLDATASIZE SUB DUP2 ADD SWAP1 PUSH2 0x94 SWAP2 SWAP1 PUSH2 0xC61 JUMP JUMPDEST PUSH2 0x16B JUMP JUMPDEST STOP JUMPDEST PUSH2 0xB5 PUSH1 0x4 DUP1 CALLDATASIZE SUB DUP2 ADD SWAP1 PUSH2 0xB0 SWAP2 SWAP1 PUSH2 0xC9F JUMP JUMPDEST PUSH2 0x16F JUMP JUMPDEST STOP JUMPDEST PUSH2 0xD1 PUSH1 0x4 DUP1 CALLDATASIZE SUB DUP2 ADD SWAP1 PUSH2 0xCC SWAP2 SWAP1 PUSH2 0xC9F JUMP JUMPDEST PUSH2 0x172 JUMP JUMPDEST PUSH1 0x40 MLOAD PUSH2 0xDE SWAP2 SWAP1 PUSH2 0xF6B JUMP JUMPDEST PUSH1 0x40 MLOAD DUP1 SWAP2 SUB SWAP1 RETURN JUMPDEST PUSH2 0x101 PUSH1 0x4 DUP1 CALLDATASIZE SUB DUP2 ADD SWAP1 PUSH2 0xFC SWAP2 SWAP1 PUSH2 0xC9F JUMP JUMPDEST PUSH2 0x662 JUMP JUMPDEST PUSH1 0x40 MLOAD PUSH2 0x10E SWAP2 SWAP1 PUSH2 0xF9A JUMP JUMPDEST PUSH1 0x40 MLOAD DUP1 SWAP2 SUB SWAP1 RETURN JUMPDEST PUSH2 0x131 PUSH1 0x4 DUP1 CALLDATASIZE SUB DUP2 ADD SWAP1 PUSH2 0x12C SWAP2 SWAP1 PUSH2 0x10DF JUMP JUMPDEST PUSH2 0x682 JUMP JUMPDEST STOP JUMPDEST PUSH2 0x14D PUSH1 0x4 DUP1 CALLDATASIZE SUB DUP2 ADD SWAP1 PUSH2 0x148 SWAP2 SWAP1 PUSH2 0x121E JUMP JUMPDEST PUSH2 0x6F9 JUMP JUMPDEST STOP JUMPDEST PUSH2 0x169 PUSH1 0x4 DUP1 CALLDATASIZE SUB DUP2 ADD SWAP1 PUSH2 0x164 SWAP2 SWAP1 PUSH2 0x12BA JUMP JUMPDEST PUSH2 0x80F JUMP JUMPDEST STOP JUMPDEST POP POP JUMP JUMPDEST POP JUMP JUMPDEST PUSH2 0x17A PUSH2 0x9B5 JUMP JUMPDEST PUSH1 0x2 PUSH0 DUP4 DUP2 MSTORE PUSH1 0x20 ADD SWAP1 DUP2 MSTORE PUSH1 0x20 ADD PUSH0 KECCAK256 PUSH1 0x40 MLOAD DUP1 PUSH1 0xE0 ADD PUSH1 0x40 MSTORE SWAP1 DUP2 PUSH0 DUP3 ADD SLOAD DUP2 MSTORE PUSH1 0x20 ADD PUSH1 0x1 DUP3 ADD DUP1 SLOAD PUSH2 0x1AF SWAP1 PUSH2 0x13EA JUMP JUMPDEST DUP1 PUSH1 0x1F ADD PUSH1 0x20 DUP1 SWAP2 DIV MUL PUSH1 0x20 ADD PUSH1 0x40 MLOAD SWAP1 DUP2 ADD PUSH1 0x40 MSTORE DUP1 SWAP3 SWAP2 SWAP1 DUP2 DUP2 MSTORE PUSH1 0x20 ADD DUP3 DUP1 SLOAD PUSH2 0x1DB SWAP1 PUSH2 0x13EA JUMP JUMPDEST DUP1 ISZERO PUSH2 0x226 JUMPI DUP1 PUSH1 0x1F LT PUSH2 0x1FD JUMPI PUSH2 0x100 DUP1 DUP4 SLOAD DIV MUL DUP4 MSTORE SWAP2 PUSH1 0x20 ADD SWAP2 PUSH2 0x226 JUMP JUMPDEST DUP3 ADD SWAP2 SWAP1 PUSH0 MSTORE PUSH1 0x20 PUSH0 KECCAK256 SWAP1 JUMPDEST DUP2 SLOAD DUP2 MSTORE SWAP1 PUSH1 0x1 ADD SWAP1 PUSH1 0x20 ADD DUP1 DUP4 GT PUSH2 0x209 JUMPI DUP3 SWAP1 SUB PUSH1 0x1F AND DUP3 ADD SWAP2 JUMPDEST POP POP POP POP POP DUP2 MSTORE PUSH1 0x20 ADD PUSH1 0x2 DUP3 ADD DUP1 SLOAD PUSH2 0x23F SWAP1 PUSH2 0x13EA JUMP JUMPDEST DUP1 PUSH1 0x1F ADD PUSH1 0x20 DUP1 SWAP2 DIV MUL PUSH1 0x20 ADD PUSH1 0x40 MLOAD SWAP1 DUP2 ADD PUSH1 0x40 MSTORE DUP1 SWAP3 SWAP2 SWAP1 DUP2 DUP2 MSTORE PUSH1 0x20 ADD DUP3 DUP1 SLOAD PUSH2 0x26B SWAP1 PUSH2 0x13EA JUMP JUMPDEST DUP1 ISZERO PUSH2 0x2B6 JUMPI DUP1 PUSH1 0x1F LT PUSH2 0x28D JUMPI PUSH2 0x100 DUP1 DUP4 SLOAD DIV MUL DUP4 MSTORE SWAP2 PUSH1 0x20 ADD SWAP2 PUSH2 0x2B6 JUMP JUMPDEST DUP3 ADD SWAP2 SWAP1 PUSH0 MSTORE PUSH1 0x20 PUSH0 KECCAK256 SWAP1 JUMPDEST DUP2 SLOAD DUP2 MSTORE SWAP1 PUSH1 0x1 ADD SWAP1 PUSH1 0x20 ADD DUP1 DUP4 GT PUSH2 0x299 JUMPI DUP3 SWAP1 SUB PUSH1 0x1F AND DUP3 ADD SWAP2 JUMPDEST POP POP POP POP POP DUP2 MSTORE PUSH1 0x20 ADD PUSH1 0x3 DUP3 ADD DUP1 SLOAD PUSH2 0x2CF SWAP1 PUSH2 0x13EA JUMP JUMPDEST DUP1 PUSH1 0x1F ADD PUSH1 0x20 DUP1 SWAP2 DIV MUL PUSH1 0x20 ADD PUSH1 0x40 MLOAD SWAP1 DUP2 ADD PUSH1 0x40 MSTORE DUP1 SWAP3 SWAP2 SWAP1 DUP2 DUP2 MSTORE PUSH1 0x20 ADD DUP3 DUP1 SLOAD PUSH2 0x2FB SWAP1 PUSH2 0x13EA JUMP JUMPDEST DUP1 ISZERO PUSH2 0x346 JUMPI DUP1 PUSH1 0x1F LT PUSH2 0x31D JUMPI PUSH2 0x100 DUP1 DUP4 SLOAD DIV MUL DUP4 MSTORE SWAP2 PUSH1 0x20 ADD SWAP2 PUSH2 0x346 JUMP JUMPDEST DUP3 ADD SWAP2 SWAP1 PUSH0 MSTORE PUSH1 0x20 PUSH0 KECCAK256 SWAP1 JUMPDEST DUP2 SLOAD DUP2 MSTORE SWAP1 PUSH1 0x1 ADD SWAP1 PUSH1 0x20 ADD DUP1 DUP4 GT PUSH2 0x329 JUMPI DUP3 SWAP1 SUB PUSH1 0x1F AND DUP3 ADD SWAP2 JUMPDEST POP POP POP POP POP DUP2 MSTORE PUSH1 0x20 ADD PUSH1 0x4 DUP3 ADD DUP1 SLOAD PUSH2 0x35F SWAP1 PUSH2 0x13EA JUMP JUMPDEST DUP1 PUSH1 0x1F ADD PUSH1 0x20 DUP1 SWAP2 DIV MUL PUSH1 0x20 ADD PUSH1 0x40 MLOAD SWAP1 DUP2 ADD PUSH1 0x40 MSTORE DUP1 SWAP3 SWAP2 SWAP1 DUP2 DUP2 MSTORE PUSH1 0x20 ADD DUP3 DUP1 SLOAD PUSH2 0x38B SWAP1 PUSH2 0x13EA JUMP JUMPDEST DUP1 ISZERO PUSH2 0x3D6 JUMPI DUP1 PUSH1 0x1F LT PUSH2 0x3AD JUMPI PUSH2 0x100 DUP1 DUP4 SLOAD DIV MUL DUP4 MSTORE SWAP2 PUSH1 0x20 ADD SWAP2 PUSH2 0x3D6 JUMP JUMPDEST DUP3 ADD SWAP2 SWAP1 PUSH0 MSTORE PUSH1 0x20 PUSH0 KECCAK256 SWAP1 JUMPDEST DUP2 SLOAD DUP2 MSTORE SWAP1 PUSH1 0x1 ADD SWAP1 PUSH1 0x20 ADD DUP1 DUP4 GT PUSH2 0x3B9 JUMPI DUP3 SWAP1 SUB PUSH1 0x1F AND DUP3 ADD SWAP2 JUMPDEST POP POP POP POP POP DUP2 MSTORE PUSH1 0x20 ADD PUSH1 0x5 DUP3 ADD DUP1 SLOAD PUSH2 0x3EF SWAP1 PUSH2 0x13EA JUMP JUMPDEST DUP1 PUSH1 0x1F ADD PUSH1 0x20 DUP1 SWAP2 DIV MUL PUSH1 0x20 ADD PUSH1 0x40 MLOAD SWAP1 DUP2 ADD PUSH1 0x40 MSTORE DUP1 SWAP3 SWAP2 SWAP1 DUP2 DUP2 MSTORE PUSH1 0x20 ADD DUP3 DUP1 SLOAD PUSH2 0x41B SWAP1 PUSH2 0x13EA JUMP JUMPDEST DUP1 ISZERO PUSH2 0x466 JUMPI DUP1 PUSH1 0x1F LT PUSH2 0x43D JUMPI PUSH2 0x100 DUP1 DUP4 SLOAD DIV MUL DUP4 MSTORE SWAP2 PUSH1 0x20 ADD SWAP2 PUSH2 0x466 JUMP JUMPDEST DUP3 ADD SWAP2 SWAP1 PUSH0 MSTORE PUSH1 0x20 PUSH0 KECCAK256 SWAP1 JUMPDEST DUP2 SLOAD DUP2 MSTORE SWAP1 PUSH1 0x1 ADD SWAP1 PUSH1 0x20 ADD DUP1 DUP4 GT PUSH2 0x449 JUMPI DUP3 SWAP1 SUB PUSH1 0x1F AND DUP3 ADD SWAP2 JUMPDEST POP POP POP POP POP DUP2 MSTORE PUSH1 0x20 ADD PUSH1 0x6 DUP3 ADD DUP1 SLOAD DUP1 PUSH1 0x20 MUL PUSH1 0x20 ADD PUSH1 0x40 MLOAD SWAP1 DUP2 ADD PUSH1 0x40 MSTORE DUP1 SWAP3 SWAP2 SWAP1 DUP2 DUP2 MSTORE PUSH1 0x20 ADD PUSH0 SWAP1 JUMPDEST DUP3 DUP3 LT ISZERO PUSH2 0x653 JUMPI DUP4 DUP3 SWAP1 PUSH0 MSTORE PUSH1 0x20 PUSH0 KECCAK256 SWAP1 PUSH1 0x4 MUL ADD PUSH1 0x40 MLOAD DUP1 PUSH1 0x80 ADD PUSH1 0x40 MSTORE SWAP1 DUP2 PUSH0 DUP3 ADD DUP1 SLOAD PUSH2 0x4C3 SWAP1 PUSH2 0x13EA JUMP JUMPDEST DUP1 PUSH1 0x1F ADD PUSH1 0x20 DUP1 SWAP2 DIV MUL PUSH1 0x20 ADD PUSH1 0x40 MLOAD SWAP1 DUP2 ADD PUSH1 0x40 MSTORE DUP1 SWAP3 SWAP2 SWAP1 DUP2 DUP2 MSTORE PUSH1 0x20 ADD DUP3 DUP1 SLOAD PUSH2 0x4EF SWAP1 PUSH2 0x13EA JUMP JUMPDEST DUP1 ISZERO PUSH2 0x53A JUMPI DUP1 PUSH1 0x1F LT PUSH2 0x511 JUMPI PUSH2 0x100 DUP1 DUP4 SLOAD DIV MUL DUP4 MSTORE SWAP2 PUSH1 0x20 ADD SWAP2 PUSH2 0x53A JUMP JUMPDEST DUP3 ADD SWAP2 SWAP1 PUSH0 MSTORE PUSH1 0x20 PUSH0 KECCAK256 SWAP1 JUMPDEST DUP2 SLOAD DUP2 MSTORE SWAP1 PUSH1 0x1 ADD SWAP1 PUSH1 0x20 ADD DUP1 DUP4 GT PUSH2 0x51D JUMPI DUP3 SWAP1 SUB PUSH1 0x1F AND DUP3 ADD SWAP2 JUMPDEST POP POP POP POP POP DUP2 MSTORE PUSH1 0x20 ADD PUSH1 0x1 DUP3 ADD PUSH0 SWAP1 SLOAD SWAP1 PUSH2 0x100 EXP SWAP1 DIV PUSH1 0xFF AND PUSH1 0xFF AND PUSH1 0xFF AND DUP2 MSTORE PUSH1 0x20 ADD PUSH1 0x2 DUP3 ADD DUP1 SLOAD PUSH2 0x56F SWAP1 PUSH2 0x13EA JUMP JUMPDEST DUP1 PUSH1 0x1F ADD PUSH1 0x20 DUP1 SWAP2 DIV MUL PUSH1 0x20 ADD PUSH1 0x40 MLOAD SWAP1 DUP2 ADD PUSH1 0x40 MSTORE DUP1 SWAP3 SWAP2 SWAP1 DUP2 DUP2 MSTORE PUSH1 0x20 ADD DUP3 DUP1 SLOAD PUSH2 0x59B SWAP1 PUSH2 0x13EA JUMP JUMPDEST DUP1 ISZERO PUSH2 0x5E6 JUMPI DUP1 PUSH1 0x1F LT PUSH2 0x5BD JUMPI PUSH2 0x100 DUP1 DUP4 SLOAD DIV MUL DUP4 MSTORE SWAP2 PUSH1 0x20 ADD SWAP2 PUSH2 0x5E6 JUMP JUMPDEST DUP3 ADD SWAP2 SWAP1 PUSH0 MSTORE PUSH1 0x20 PUSH0 KECCAK256 SWAP1 JUMPDEST DUP2 SLOAD DUP2 MSTORE SWAP1 PUSH1 0x1 ADD SWAP1 PUSH1 0x20 ADD DUP1 DUP4 GT PUSH2 0x5C9 JUMPI DUP3 SWAP1 SUB PUSH1 0x1F AND DUP3 ADD SWAP2 JUMPDEST POP POP POP POP POP DUP2 MSTORE PUSH1 0x20 ADD PUSH1 0x3 DUP3 ADD PUSH0 SWAP1 SLOAD SWAP1 PUSH2 0x100 EXP SWAP1 DIV PUSH20 0xFFFFFFFFFFFFFFFFFFFFFFFFFFFFFFFFFFFFFFFF AND PUSH20 0xFFFFFFFFFFFFFFFFFFFFFFFFFFFFFFFFFFFFFFFF AND PUSH20 0xFFFFFFFFFFFFFFFFFFFFFFFFFFFFFFFFFFFFFFFF AND DUP2 MSTORE POP POP DUP2 MSTORE PUSH1 0x20 ADD SWAP1 PUSH1 0x1 ADD SWAP1 PUSH2 0x493 JUMP JUMPDEST POP POP POP POP DUP2 MSTORE POP POP SWAP1 POP SWAP2 SWAP1 POP JUMP JUMPDEST PUSH0 PUSH1 0x2 PUSH0 DUP4 DUP2 MSTORE PUSH1 0x20 ADD SWAP1 DUP2 MSTORE PUSH1 0x20 ADD PUSH0 KECCAK256 PUSH1 0x6 ADD DUP1 SLOAD SWAP1 POP SWAP1 POP SWAP2 SWAP1 POP JUMP JUMPDEST PUSH0 PUSH1 0x2 PUSH0 DUP9 DUP2 MSTORE PUSH1 0x20 ADD SWAP1 DUP2 MSTORE PUSH1 0x20 ADD PUSH0 KECCAK256 SWAP1 POP DUP6 DUP2 PUSH1 0x1 ADD SWAP1 DUP2 PUSH2 0x6A7 SWAP2 SWAP1 PUSH2 0x15B7 JUMP JUMPDEST POP DUP5 DUP2 PUSH1 0x2 ADD SWAP1 DUP2 PUSH2 0x6B9 SWAP2 SWAP1 PUSH2 0x15B7 JUMP JUMPDEST POP DUP4 DUP2 PUSH1 0x3 ADD SWAP1 DUP2 PUSH2 0x6CB SWAP2 SWAP1 PUSH2 0x15B7 JUMP JUMPDEST POP DUP3 DUP2 PUSH1 0x4 ADD SWAP1 DUP2 PUSH2 0x6DD SWAP2 SWAP1 PUSH2 0x15B7 JUMP JUMPDEST POP DUP2 DUP2 PUSH1 0x5 ADD SWAP1 DUP2 PUSH2 0x6EF SWAP2 SWAP1 PUSH2 0x15B7 JUMP JUMPDEST POP POP POP POP POP POP POP POP JUMP JUMPDEST PUSH0 PUSH1 0x40 MLOAD DUP1 PUSH1 0x80 ADD PUSH1 0x40 MSTORE DUP1 DUP6 DUP2 MSTORE PUSH1 0x20 ADD DUP4 PUSH1 0xFF AND DUP2 MSTORE PUSH1 0x20 ADD DUP5 DUP2 MSTORE PUSH1 0x20 ADD CALLER PUSH20 0xFFFFFFFFFFFFFFFFFFFFFFFFFFFFFFFFFFFFFFFF AND DUP2 MSTORE POP SWAP1 POP PUSH0 PUSH1 0x2 PUSH0 DUP8 DUP2 MSTORE PUSH1 0x20 ADD SWAP1 DUP2 MSTORE PUSH1 0x20 ADD PUSH0 KECCAK256 SWAP1 POP DUP1 PUSH1 0x6 ADD DUP3 SWAP1 DUP1 PUSH1 0x1 DUP2 SLOAD ADD DUP1 DUP3 SSTORE DUP1 SWAP2 POP POP PUSH1 0x1 SWAP1 SUB SWAP1 PUSH0 MSTORE PUSH1 0x20 PUSH0 KECCAK256 SWAP1 PUSH1 0x4 MUL ADD PUSH0 SWAP1 SWAP2 SWAP1 SWAP2 SWAP1 SWAP2 POP PUSH0 DUP3 ADD MLOAD DUP2 PUSH0 ADD SWAP1 DUP2 PUSH2 0x788 SWAP2 SWAP1 PUSH2 0x15B7 JUMP JUMPDEST POP PUSH1 0x20 DUP3 ADD MLOAD DUP2 PUSH1 0x1 ADD PUSH0 PUSH2 0x100 EXP DUP2 SLOAD DUP2 PUSH1 0xFF MUL NOT AND SWAP1 DUP4 PUSH1 0xFF AND MUL OR SWAP1 SSTORE POP PUSH1 0x40 DUP3 ADD MLOAD DUP2 PUSH1 0x2 ADD SWAP1 DUP2 PUSH2 0x7BE SWAP2 SWAP1 PUSH2 0x15B7 JUMP JUMPDEST POP PUSH1 0x60 DUP3 ADD MLOAD DUP2 PUSH1 0x3 ADD PUSH0 PUSH2 0x100 EXP DUP2 SLOAD DUP2 PUSH20 0xFFFFFFFFFFFFFFFFFFFFFFFFFFFFFFFFFFFFFFFF MUL NOT AND SWAP1 DUP4 PUSH20 0xFFFFFFFFFFFFFFFFFFFFFFFFFFFFFFFFFFFFFFFF AND MUL OR SWAP1 SSTORE POP POP POP POP POP POP POP POP POP JUMP JUMPDEST PUSH1 0x1 PUSH1 0x3 SLOAD PUSH2 0x81E SWAP2 SWAP1 PUSH2 0x16B3 JUMP JUMPDEST PUSH1 0x3 DUP2 SWAP1 SSTORE POP PUSH0 PUSH1 0x3 SLOAD SWAP1 POP PUSH0 PUSH1 0x2 PUSH0 DUP4 DUP2 MSTORE PUSH1 0x20 ADD SWAP1 DUP2 MSTORE PUSH1 0x20 ADD PUSH0 KECCAK256 SWAP1 POP DUP2 DUP2 PUSH0 ADD DUP2 SWAP1 SSTORE POP DUP7 DUP2 PUSH1 0x1 ADD SWAP1 DUP2 PUSH2 0x857 SWAP2 SWAP1 PUSH2 0x15B7 JUMP JUMPDEST POP DUP6 DUP2 PUSH1 0x2 ADD SWAP1 DUP2 PUSH2 0x869 SWAP2 SWAP1 PUSH2 0x15B7 JUMP JUMPDEST POP DUP5 DUP2 PUSH1 0x3 ADD SWAP1 DUP2 PUSH2 0x87B SWAP2 SWAP1 PUSH2 0x15B7 JUMP JUMPDEST POP DUP4 DUP2 PUSH1 0x4 ADD SWAP1 DUP2 PUSH2 0x88D SWAP2 SWAP1 PUSH2 0x15B7 JUMP JUMPDEST POP DUP3 DUP2 PUSH1 0x5 ADD SWAP1 DUP2 PUSH2 0x89F SWAP2 SWAP1 PUSH2 0x15B7 JUMP JUMPDEST POP PUSH1 0x1 DUP2 SWAP1 DUP1 PUSH1 0x1 DUP2 SLOAD ADD DUP1 DUP3 SSTORE DUP1 SWAP2 POP POP PUSH1 0x1 SWAP1 SUB SWAP1 PUSH0 MSTORE PUSH1 0x20 PUSH0 KECCAK256 SWAP1 PUSH1 0x7 MUL ADD PUSH0 SWAP1 SWAP2 SWAP1 SWAP2 SWAP1 SWAP2 POP PUSH0 DUP3 ADD SLOAD DUP2 PUSH0 ADD SSTORE PUSH1 0x1 DUP3 ADD DUP2 PUSH1 0x1 ADD SWAP1 DUP2 PUSH2 0x8E5 SWAP2 SWAP1 PUSH2 0x16FB JUMP JUMPDEST POP PUSH1 0x2 DUP3 ADD DUP2 PUSH1 0x2 ADD SWAP1 DUP2 PUSH2 0x8FA SWAP2 SWAP1 PUSH2 0x16FB JUMP JUMPDEST POP PUSH1 0x3 DUP3 ADD DUP2 PUSH1 0x3 ADD SWAP1 DUP2 PUSH2 0x90F SWAP2 SWAP1 PUSH2 0x16FB JUMP JUMPDEST POP PUSH1 0x4 DUP3 ADD DUP2 PUSH1 0x4 ADD SWAP1 DUP2 PUSH2 0x924 SWAP2 SWAP1 PUSH2 0x16FB JUMP JUMPDEST POP PUSH1 0x5 DUP3 ADD DUP2 PUSH1 0x5 ADD SWAP1 DUP2 PUSH2 0x939 SWAP2 SWAP1 PUSH2 0x16FB JUMP JUMPDEST POP PUSH1 0x6 DUP3 ADD DUP2 PUSH1 0x6 ADD SWAP1 DUP1 SLOAD PUSH2 0x950 SWAP3 SWAP2 SWAP1 PUSH2 0x9F1 JUMP JUMPDEST POP POP POP DUP5 PUSH1 0x40 MLOAD PUSH2 0x961 SWAP2 SWAP1 PUSH2 0x181A JUMP JUMPDEST PUSH1 0x40 MLOAD DUP1 SWAP2 SUB SWAP1 KECCAK256 DUP8 PUSH1 0x40 MLOAD PUSH2 0x977 SWAP2 SWAP1 PUSH2 0x181A JUMP JUMPDEST PUSH1 0x40 MLOAD DUP1 SWAP2 SUB SWAP1 KECCAK256 DUP4 PUSH32 0x2EAF5C3AEC496FCE10B5616BD077441243EFA6FD20F3AE98EB388B9D48A288AE PUSH1 0x40 MLOAD PUSH1 0x40 MLOAD DUP1 SWAP2 SUB SWAP1 LOG4 POP POP POP POP POP POP POP JUMP JUMPDEST PUSH1 0x40 MLOAD DUP1 PUSH1 0xE0 ADD PUSH1 0x40 MSTORE DUP1 PUSH0 DUP2 MSTORE PUSH1 0x20 ADD PUSH1 0x60 DUP2 MSTORE PUSH1 0x20 ADD PUSH1 0x60 DUP2 MSTORE PUSH1 0x20 ADD PUSH1 0x60 DUP2 MSTORE PUSH1 0x20 ADD PUSH1 0x60 DUP2 MSTORE PUSH1 0x20 ADD PUSH1 0x60 DUP2 MSTORE PUSH1 0x20 ADD PUSH1 0x60 DUP2 MSTORE POP SWAP1 JUMP JUMPDEST DUP3 DUP1 SLOAD DUP3 DUP3 SSTORE SWAP1 PUSH0 MSTORE PUSH1 0x20 PUSH0 KECCAK256 SWAP1 PUSH1 0x4 MUL DUP2 ADD SWAP3 DUP3 ISZERO PUSH2 0xAED JUMPI PUSH0 MSTORE PUSH1 0x20 PUSH0 KECCAK256 SWAP2 PUSH1 0x4 MUL DUP3 ADD JUMPDEST DUP3 DUP2 GT ISZERO PUSH2 0xAEC JUMPI DUP3 DUP3 PUSH0 DUP3 ADD DUP2 PUSH0 ADD SWAP1 DUP2 PUSH2 0xA34 SWAP2 SWAP1 PUSH2 0x16FB JUMP JUMPDEST POP PUSH1 0x1 DUP3 ADD PUSH0 SWAP1 SLOAD SWAP1 PUSH2 0x100 EXP SWAP1 DIV PUSH1 0xFF AND DUP2 PUSH1 0x1 ADD PUSH0 PUSH2 0x100 EXP DUP2 SLOAD DUP2 PUSH1 0xFF MUL NOT AND SWAP1 DUP4 PUSH1 0xFF AND MUL OR SWAP1 SSTORE POP PUSH1 0x2 DUP3 ADD DUP2 PUSH1 0x2 ADD SWAP1 DUP2 PUSH2 0xA75 SWAP2 SWAP1 PUSH2 0x16FB JUMP JUMPDEST POP PUSH1 0x3 DUP3 ADD PUSH0 SWAP1 SLOAD SWAP1 PUSH2 0x100 EXP SWAP1 DIV PUSH20 0xFFFFFFFFFFFFFFFFFFFFFFFFFFFFFFFFFFFFFFFF AND DUP2 PUSH1 0x3 ADD PUSH0 PUSH2 0x100 EXP DUP2 SLOAD DUP2 PUSH20 0xFFFFFFFFFFFFFFFFFFFFFFFFFFFFFFFFFFFFFFFF MUL NOT AND SWAP1 DUP4 PUSH20 0xFFFFFFFFFFFFFFFFFFFFFFFFFFFFFFFFFFFFFFFF AND MUL OR SWAP1 SSTORE POP POP POP SWAP2 PUSH1 0x4 ADD SWAP2 SWAP1 PUSH1 0x4 ADD SWAP1 PUSH2 0xA18 JUMP JUMPDEST JUMPDEST POP SWAP1 POP PUSH2 0xAFA SWAP2 SWAP1 PUSH2 0xAFE JUMP JUMPDEST POP SWAP1 JUMP JUMPDEST JUMPDEST DUP1 DUP3 GT ISZERO PUSH2 0xB67 JUMPI PUSH0 DUP1 DUP3 ADD PUSH0 PUSH2 0xB16 SWAP2 SWAP1 PUSH2 0xB6B JUMP JUMPDEST PUSH1 0x1 DUP3 ADD PUSH0 PUSH2 0x100 EXP DUP2 SLOAD SWAP1 PUSH1 0xFF MUL NOT AND SWAP1 SSTORE PUSH1 0x2 DUP3 ADD PUSH0 PUSH2 0xB38 SWAP2 SWAP1 PUSH2 0xB6B JUMP JUMPDEST PUSH1 0x3 DUP3 ADD PUSH0 PUSH2 0x100 EXP DUP2 SLOAD SWAP1 PUSH20 0xFFFFFFFFFFFFFFFFFFFFFFFFFFFFFFFFFFFFFFFF MUL NOT AND SWAP1 SSTORE POP PUSH1 0x4 ADD PUSH2 0xAFF JUMP JUMPDEST POP SWAP1 JUMP JUMPDEST POP DUP1 SLOAD PUSH2 0xB77 SWAP1 PUSH2 0x13EA JUMP JUMPDEST PUSH0 DUP3 SSTORE DUP1 PUSH1 0x1F LT PUSH2 0xB88 JUMPI POP PUSH2 0xBA5 JUMP JUMPDEST PUSH1 0x1F ADD PUSH1 0x20 SWAP1 DIV SWAP1 PUSH0 MSTORE PUSH1 0x20 PUSH0 KECCAK256 SWAP1 DUP2 ADD SWAP1 PUSH2 0xBA4 SWAP2 SWAP1 PUSH2 0xBA8 JUMP JUMPDEST JUMPDEST POP JUMP JUMPDEST JUMPDEST DUP1 DUP3 GT ISZERO PUSH2 0xBBF JUMPI PUSH0 DUP2 PUSH0 SWAP1 SSTORE POP PUSH1 0x1 ADD PUSH2 0xBA9 JUMP JUMPDEST POP SWAP1 JUMP JUMPDEST PUSH0 PUSH1 0x40 MLOAD SWAP1 POP SWAP1 JUMP JUMPDEST PUSH0 DUP1 REVERT JUMPDEST PUSH0 DUP1 REVERT JUMPDEST PUSH0 DUP2 SWAP1 POP SWAP2 SWAP1 POP JUMP JUMPDEST PUSH2 0xBE6 DUP2 PUSH2 0xBD4 JUMP JUMPDEST DUP2 EQ PUSH2 0xBF0 JUMPI PUSH0 DUP1 REVERT JUMPDEST POP JUMP JUMPDEST PUSH0 DUP2 CALLDATALOAD SWAP1 POP PUSH2 0xC01 DUP2 PUSH2 0xBDD JUMP JUMPDEST SWAP3 SWAP2 POP POP JUMP JUMPDEST PUSH0 PUSH20 0xFFFFFFFFFFFFFFFFFFFFFFFFFFFFFFFFFFFFFFFF DUP3 AND SWAP1 POP SWAP2 SWAP1 POP JUMP JUMPDEST PUSH0 PUSH2 0xC30 DUP3 PUSH2 0xC07 JUMP JUMPDEST SWAP1 POP SWAP2 SWAP1 POP JUMP JUMPDEST PUSH2 0xC40 DUP2 PUSH2 0xC26 JUMP JUMPDEST DUP2 EQ PUSH2 0xC4A JUMPI PUSH0 DUP1 REVERT JUMPDEST POP JUMP JUMPDEST PUSH0 DUP2 CALLDATALOAD SWAP1 POP PUSH2 0xC5B DUP2 PUSH2 0xC37 JUMP JUMPDEST SWAP3 SWAP2 POP POP JUMP JUMPDEST PUSH0 DUP1 PUSH1 0x40 DUP4 DUP6 SUB SLT ISZERO PUSH2 0xC77 JUMPI PUSH2 0xC76 PUSH2 0xBCC JUMP JUMPDEST JUMPDEST PUSH0 PUSH2 0xC84 DUP6 DUP3 DUP7 ADD PUSH2 0xBF3 JUMP JUMPDEST SWAP3 POP POP PUSH1 0x20 PUSH2 0xC95 DUP6 DUP3 DUP7 ADD PUSH2 0xC4D JUMP JUMPDEST SWAP2 POP POP SWAP3 POP SWAP3 SWAP1 POP JUMP JUMPDEST PUSH0 PUSH1 0x20 DUP3 DUP5 SUB SLT ISZERO PUSH2 0xCB4 JUMPI PUSH2 0xCB3 PUSH2 0xBCC JUMP JUMPDEST JUMPDEST PUSH0 PUSH2 0xCC1 DUP5 DUP3 DUP6 ADD PUSH2 0xBF3 JUMP JUMPDEST SWAP2 POP POP SWAP3 SWAP2 POP POP JUMP JUMPDEST PUSH2 0xCD3 DUP2 PUSH2 0xBD4 JUMP JUMPDEST DUP3 MSTORE POP POP JUMP JUMPDEST PUSH0 DUP2 MLOAD SWAP1 POP SWAP2 SWAP1 POP JUMP JUMPDEST PUSH0 DUP3 DUP3 MSTORE PUSH1 0x20 DUP3 ADD SWAP1 POP SWAP3 SWAP2 POP POP JUMP JUMPDEST PUSH0 JUMPDEST DUP4 DUP2 LT ISZERO PUSH2 0xD10 JUMPI DUP1 DUP3 ADD MLOAD DUP2 DUP5 ADD MSTORE PUSH1 0x20 DUP2 ADD SWAP1 POP PUSH2 0xCF5 JUMP JUMPDEST PUSH0 DUP5 DUP5 ADD MSTORE POP POP POP POP JUMP JUMPDEST PUSH0 PUSH1 0x1F NOT PUSH1 0x1F DUP4 ADD AND SWAP1 POP SWAP2 SWAP1 POP JUMP JUMPDEST PUSH0 PUSH2 0xD35 DUP3 PUSH2 0xCD9 JUMP JUMPDEST PUSH2 0xD3F DUP2 DUP6 PUSH2 0xCE3 JUMP JUMPDEST SWAP4 POP PUSH2 0xD4F DUP2 DUP6 PUSH1 0x20 DUP7 ADD PUSH2 0xCF3 JUMP JUMPDEST PUSH2 0xD58 DUP2 PUSH2 0xD1B JUMP JUMPDEST DUP5 ADD SWAP2 POP POP SWAP3 SWAP2 POP POP JUMP JUMPDEST PUSH0 DUP2 MLOAD SWAP1 POP SWAP2 SWAP1 POP JUMP JUMPDEST PUSH0 DUP3 DUP3 MSTORE PUSH1 0x20 DUP3 ADD SWAP1 POP SWAP3 SWAP2 POP POP JUMP JUMPDEST PUSH0 DUP2 SWAP1 POP PUSH1 0x20 DUP3 ADD SWAP1 POP SWAP2 SWAP1 POP JUMP JUMPDEST PUSH0 PUSH1 0xFF DUP3 AND SWAP1 POP SWAP2 SWAP1 POP JUMP JUMPDEST PUSH2 0xDA1 DUP2 PUSH2 0xD8C JUMP JUMPDEST DUP3 MSTORE POP POP JUMP JUMPDEST PUSH2 0xDB0 DUP2 PUSH2 0xC26 JUMP JUMPDEST DUP3 MSTORE POP POP JUMP JUMPDEST PUSH0 PUSH1 0x80 DUP4 ADD PUSH0 DUP4 ADD MLOAD DUP5 DUP3 SUB PUSH0 DUP7 ADD MSTORE PUSH2 0xDD0 DUP3 DUP3 PUSH2 0xD2B JUMP JUMPDEST SWAP2 POP POP PUSH1 0x20 DUP4 ADD MLOAD PUSH2 0xDE5 PUSH1 0x20 DUP7 ADD DUP3 PUSH2 0xD98 JUMP JUMPDEST POP PUSH1 0x40 DUP4 ADD MLOAD DUP5 DUP3 SUB PUSH1 0x40 DUP7 ADD MSTORE PUSH2 0xDFD DUP3 DUP3 PUSH2 0xD2B JUMP JUMPDEST SWAP2 POP POP PUSH1 0x60 DUP4 ADD MLOAD PUSH2 0xE12 PUSH1 0x60 DUP7 ADD DUP3 PUSH2 0xDA7 JUMP JUMPDEST POP DUP1 SWAP2 POP POP SWAP3 SWAP2 POP POP JUMP JUMPDEST PUSH0 PUSH2 0xE28 DUP4 DUP4 PUSH2 0xDB6 JUMP JUMPDEST SWAP1 POP SWAP3 SWAP2 POP POP JUMP JUMPDEST PUSH0 PUSH1 0x20 DUP3 ADD SWAP1 POP SWAP2 SWAP1 POP JUMP JUMPDEST PUSH0 PUSH2 0xE46 DUP3 PUSH2 0xD63 JUMP JUMPDEST PUSH2 0xE50 DUP2 DUP6 PUSH2 0xD6D JUMP JUMPDEST SWAP4 POP DUP4 PUSH1 0x20 DUP3 MUL DUP6 ADD PUSH2 0xE62 DUP6 PUSH2 0xD7D JUMP JUMPDEST DUP1 PUSH0 JUMPDEST DUP6 DUP2 LT ISZERO PUSH2 0xE9D JUMPI DUP5 DUP5 SUB DUP10 MSTORE DUP2 MLOAD PUSH2 0xE7E DUP6 DUP3 PUSH2 0xE1D JUMP JUMPDEST SWAP5 POP PUSH2 0xE89 DUP4 PUSH2 0xE30 JUMP JUMPDEST SWAP3 POP PUSH1 0x20 DUP11 ADD SWAP10 POP POP PUSH1 0x1 DUP2 ADD SWAP1 POP PUSH2 0xE65 JUMP JUMPDEST POP DUP3 SWAP8 POP DUP8 SWAP6 POP POP POP POP POP POP SWAP3 SWAP2 POP POP JUMP JUMPDEST PUSH0 PUSH1 0xE0 DUP4 ADD PUSH0 DUP4 ADD MLOAD PUSH2 0xEC4 PUSH0 DUP7 ADD DUP3 PUSH2 0xCCA JUMP JUMPDEST POP PUSH1 0x20 DUP4 ADD MLOAD DUP5 DUP3 SUB PUSH1 0x20 DUP7 ADD MSTORE PUSH2 0xEDC DUP3 DUP3 PUSH2 0xD2B JUMP JUMPDEST SWAP2 POP POP PUSH1 0x40 DUP4 ADD MLOAD DUP5 DUP3 SUB PUSH1 0x40 DUP7 ADD MSTORE PUSH2 0xEF6 DUP3 DUP3 PUSH2 0xD2B JUMP JUMPDEST SWAP2 POP POP PUSH1 0x60 DUP4 ADD MLOAD DUP5 DUP3 SUB PUSH1 0x60 DUP7 ADD MSTORE PUSH2 0xF10 DUP3 DUP3 PUSH2 0xD2B JUMP JUMPDEST SWAP2 POP POP PUSH1 0x80 DUP4 ADD MLOAD DUP5 DUP3 SUB PUSH1 0x80 DUP7 ADD MSTORE PUSH2 0xF2A DUP3 DUP3 PUSH2 0xD2B JUMP JUMPDEST SWAP2 POP POP PUSH1 0xA0 DUP4 ADD MLOAD DUP5 DUP3 SUB PUSH1 0xA0 DUP7 ADD MSTORE PUSH2 0xF44 DUP3 DUP3 PUSH2 0xD2B JUMP JUMPDEST SWAP2 POP POP PUSH1 0xC0 DUP4 ADD MLOAD DUP5 DUP3 SUB PUSH1 0xC0 DUP7 ADD MSTORE PUSH2 0xF5E DUP3 DUP3 PUSH2 0xE3C JUMP JUMPDEST SWAP2 POP POP DUP1 SWAP2 POP POP SWAP3 SWAP2 POP POP JUMP JUMPDEST PUSH0 PUSH1 0x20 DUP3 ADD SWAP1 POP DUP2 DUP2 SUB PUSH0 DUP4 ADD MSTORE PUSH2 0xF83 DUP2 DUP5 PUSH2 0xEAF JUMP JUMPDEST SWAP1 POP SWAP3 SWAP2 POP POP JUMP JUMPDEST PUSH2 0xF94 DUP2 PUSH2 0xBD4 JUMP JUMPDEST DUP3 MSTORE POP POP JUMP JUMPDEST PUSH0 PUSH1 0x20 DUP3 ADD SWAP1 POP PUSH2 0xFAD PUSH0 DUP4 ADD DUP5 PUSH2 0xF8B JUMP JUMPDEST SWAP3 SWAP2 POP POP JUMP JUMPDEST PUSH0 DUP1 REVERT JUMPDEST PUSH0 DUP1 REVERT JUMPDEST PUSH32 0x4E487B7100000000000000000000000000000000000000000000000000000000 PUSH0 MSTORE PUSH1 0x41 PUSH1 0x4 MSTORE PUSH1 0x24 PUSH0 REVERT JUMPDEST PUSH2 0xFF1 DUP3 PUSH2 0xD1B JUMP JUMPDEST DUP2 ADD DUP2 DUP2 LT PUSH8 0xFFFFFFFFFFFFFFFF DUP3 GT OR ISZERO PUSH2 0x1010 JUMPI PUSH2 0x100F PUSH2 0xFBB JUMP JUMPDEST JUMPDEST DUP1 PUSH1 0x40 MSTORE POP POP POP JUMP JUMPDEST PUSH0 PUSH2 0x1022 PUSH2 0xBC3 JUMP JUMPDEST SWAP1 POP PUSH2 0x102E DUP3 DUP3 PUSH2 0xFE8 JUMP JUMPDEST SWAP2 SWAP1 POP JUMP JUMPDEST PUSH0 PUSH8 0xFFFFFFFFFFFFFFFF DUP3 GT ISZERO PUSH2 0x104D JUMPI PUSH2 0x104C PUSH2 0xFBB JUMP JUMPDEST JUMPDEST PUSH2 0x1056 DUP3 PUSH2 0xD1B JUMP JUMPDEST SWAP1 POP PUSH1 0x20 DUP2 ADD SWAP1 POP SWAP2 SWAP1 POP JUMP JUMPDEST DUP3 DUP2 DUP4 CALLDATACOPY PUSH0 DUP4 DUP4 ADD MSTORE POP POP POP JUMP JUMPDEST PUSH0 PUSH2 0x1083 PUSH2 0x107E DUP5 PUSH2 0x1033 JUMP JUMPDEST PUSH2 0x1019 JUMP JUMPDEST SWAP1 POP DUP3 DUP2 MSTORE PUSH1 0x20 DUP2 ADD DUP5 DUP5 DUP5 ADD GT ISZERO PUSH2 0x109F JUMPI PUSH2 0x109E PUSH2 0xFB7 JUMP JUMPDEST JUMPDEST PUSH2 0x10AA DUP5 DUP3 DUP6 PUSH2 0x1063 JUMP JUMPDEST POP SWAP4 SWAP3 POP POP POP JUMP JUMPDEST PUSH0 DUP3 PUSH1 0x1F DUP4 ADD SLT PUSH2 0x10C6 JUMPI PUSH2 0x10C5 PUSH2 0xFB3 JUMP JUMPDEST JUMPDEST DUP2 CALLDATALOAD PUSH2 0x10D6 DUP5 DUP3 PUSH1 0x20 DUP7 ADD PUSH2 0x1071 JUMP JUMPDEST SWAP2 POP POP SWAP3 SWAP2 POP POP JUMP JUMPDEST PUSH0 DUP1 PUSH0 DUP1 PUSH0 DUP1 PUSH1 0xC0 DUP8 DUP10 SUB SLT ISZERO PUSH2 0x10F9 JUMPI PUSH2 0x10F8 PUSH2 0xBCC JUMP JUMPDEST JUMPDEST PUSH0 PUSH2 0x1106 DUP10 DUP3 DUP11 ADD PUSH2 0xBF3 JUMP JUMPDEST SWAP7 POP POP PUSH1 0x20 DUP8 ADD CALLDATALOAD PUSH8 0xFFFFFFFFFFFFFFFF DUP2 GT ISZERO PUSH2 0x1127 JUMPI PUSH2 0x1126 PUSH2 0xBD0 JUMP JUMPDEST JUMPDEST PUSH2 0x1133 DUP10 DUP3 DUP11 ADD PUSH2 0x10B2 JUMP JUMPDEST SWAP6 POP POP PUSH1 0x40 DUP8 ADD CALLDATALOAD PUSH8 0xFFFFFFFFFFFFFFFF DUP2 GT ISZERO PUSH2 0x1154 JUMPI PUSH2 0x1153 PUSH2 0xBD0 JUMP JUMPDEST JUMPDEST PUSH2 0x1160 DUP10 DUP3 DUP11 ADD PUSH2 0x10B2 JUMP JUMPDEST SWAP5 POP POP PUSH1 0x60 DUP8 ADD CALLDATALOAD PUSH8 0xFFFFFFFFFFFFFFFF DUP2 GT ISZERO PUSH2 0x1181 JUMPI PUSH2 0x1180 PUSH2 0xBD0 JUMP JUMPDEST JUMPDEST PUSH2 0x118D DUP10 DUP3 DUP11 ADD PUSH2 0x10B2 JUMP JUMPDEST SWAP4 POP POP PUSH1 0x80 DUP8 ADD CALLDATALOAD PUSH8 0xFFFFFFFFFFFFFFFF DUP2 GT ISZERO PUSH2 0x11AE JUMPI PUSH2 0x11AD PUSH2 0xBD0 JUMP JUMPDEST JUMPDEST PUSH2 0x11BA DUP10 DUP3 DUP11 ADD PUSH2 0x10B2 JUMP JUMPDEST SWAP3 POP POP PUSH1 0xA0 DUP8 ADD CALLDATALOAD PUSH8 0xFFFFFFFFFFFFFFFF DUP2 GT ISZERO PUSH2 0x11DB JUMPI PUSH2 0x11DA PUSH2 0xBD0 JUMP JUMPDEST JUMPDEST PUSH2 0x11E7 DUP10 DUP3 DUP11 ADD PUSH2 0x10B2 JUMP JUMPDEST SWAP2 POP POP SWAP3 SWAP6 POP SWAP3 SWAP6 POP SWAP3 SWAP6 JUMP JUMPDEST PUSH2 0x11FD DUP2 PUSH2 0xD8C JUMP JUMPDEST DUP2 EQ PUSH2 0x1207 JUMPI PUSH0 DUP1 REVERT JUMPDEST POP JUMP JUMPDEST PUSH0 DUP2 CALLDATALOAD SWAP1 POP PUSH2 0x1218 DUP2 PUSH2 0x11F4 JUMP JUMPDEST SWAP3 SWAP2 POP POP JUMP JUMPDEST PUSH0 DUP1 PUSH0 DUP1 PUSH1 0x80 DUP6 DUP8 SUB SLT ISZERO PUSH2 0x1236 JUMPI PUSH2 0x1235 PUSH2 0xBCC JUMP JUMPDEST JUMPDEST PUSH0 PUSH2 0x1243 DUP8 DUP3 DUP9 ADD PUSH2 0xBF3 JUMP JUMPDEST SWAP5 POP POP PUSH1 0x20 DUP6 ADD CALLDATALOAD PUSH8 0xFFFFFFFFFFFFFFFF DUP2 GT ISZERO PUSH2 0x1264 JUMPI PUSH2 0x1263 PUSH2 0xBD0 JUMP JUMPDEST JUMPDEST PUSH2 0x1270 DUP8 DUP3 DUP9 ADD PUSH2 0x10B2 JUMP JUMPDEST SWAP4 POP POP PUSH1 0x40 DUP6 ADD CALLDATALOAD PUSH8 0xFFFFFFFFFFFFFFFF DUP2 GT ISZERO PUSH2 0x1291 JUMPI PUSH2 0x1290 PUSH2 0xBD0 JUMP JUMPDEST JUMPDEST PUSH2 0x129D DUP8 DUP3 DUP9 ADD PUSH2 0x10B2 JUMP JUMPDEST SWAP3 POP POP PUSH1 0x60 PUSH2 0x12AE DUP8 DUP3 DUP9 ADD PUSH2 0x120A JUMP JUMPDEST SWAP2 POP POP SWAP3 SWAP6 SWAP2 SWAP5 POP SWAP3 POP JUMP JUMPDEST PUSH0 DUP1 PUSH0 DUP1 PUSH0 PUSH1 0xA0 DUP7 DUP9 SUB SLT ISZERO PUSH2 0x12D3 JUMPI PUSH2 0x12D2 PUSH2 0xBCC JUMP JUMPDEST JUMPDEST PUSH0 DUP7 ADD CALLDATALOAD PUSH8 0xFFFFFFFFFFFFFFFF DUP2 GT ISZERO PUSH2 0x12F0 JUMPI PUSH2 0x12EF PUSH2 0xBD0 JUMP JUMPDEST JUMPDEST PUSH2 0x12FC DUP9 DUP3 DUP10 ADD PUSH2 0x10B2 JUMP JUMPDEST SWAP6 POP POP PUSH1 0x20 DUP7 ADD CALLDATALOAD PUSH8 0xFFFFFFFFFFFFFFFF DUP2 GT ISZERO PUSH2 0x131D JUMPI PUSH2 0x131C PUSH2 0xBD0 JUMP JUMPDEST JUMPDEST PUSH2 0x1329 DUP9 DUP3 DUP10 ADD PUSH2 0x10B2 JUMP JUMPDEST SWAP5 POP POP PUSH1 0x40 DUP7 ADD CALLDATALOAD PUSH8 0xFFFFFFFFFFFFFFFF DUP2 GT ISZERO PUSH2 0x134A JUMPI PUSH2 0x1349 PUSH2 0xBD0 JUMP JUMPDEST JUMPDEST PUSH2 0x1356 DUP9 DUP3 DUP10 ADD PUSH2 0x10B2 JUMP JUMPDEST SWAP4 POP POP PUSH1 0x60 DUP7 ADD CALLDATALOAD PUSH8 0xFFFFFFFFFFFFFFFF DUP2 GT ISZERO PUSH2 0x1377 JUMPI PUSH2 0x1376 PUSH2 0xBD0 JUMP JUMPDEST JUMPDEST PUSH2 0x1383 DUP9 DUP3 DUP10 ADD PUSH2 0x10B2 JUMP JUMPDEST SWAP3 POP POP PUSH1 0x80 DUP7 ADD CALLDATALOAD PUSH8 0xFFFFFFFFFFFFFFFF DUP2 GT ISZERO PUSH2 0x13A4 JUMPI PUSH2 0x13A3 PUSH2 0xBD0 JUMP JUMPDEST JUMPDEST PUSH2 0x13B0 DUP9 DUP3 DUP10 ADD PUSH2 0x10B2 JUMP JUMPDEST SWAP2 POP POP SWAP3 SWAP6 POP SWAP3 SWAP6 SWAP1 SWAP4 POP JUMP JUMPDEST PUSH32 0x4E487B7100000000000000000000000000000000000000000000000000000000 PUSH0 MSTORE PUSH1 0x22 PUSH1 0x4 MSTORE PUSH1 0x24 PUSH0 REVERT JUMPDEST PUSH0 PUSH1 0x2 DUP3 DIV SWAP1 POP PUSH1 0x1 DUP3 AND DUP1 PUSH2 0x1401 JUMPI PUSH1 0x7F DUP3 AND SWAP2 POP JUMPDEST PUSH1 0x20 DUP3 LT DUP2 SUB PUSH2 0x1414 JUMPI PUSH2 0x1413 PUSH2 0x13BD JUMP JUMPDEST JUMPDEST POP SWAP2 SWAP1 POP JUMP JUMPDEST PUSH0 DUP2 SWAP1 POP DUP2 PUSH0 MSTORE PUSH1 0x20 PUSH0 KECCAK256 SWAP1 POP SWAP2 SWAP1 POP JUMP JUMPDEST PUSH0 PUSH1 0x20 PUSH1 0x1F DUP4 ADD DIV SWAP1 POP SWAP2 SWAP1 POP JUMP JUMPDEST PUSH0 DUP3 DUP3 SHL SWAP1 POP SWAP3 SWAP2 POP POP JUMP JUMPDEST PUSH0 PUSH1 0x8 DUP4 MUL PUSH2 0x1476 PUSH32 0xFFFFFFFFFFFFFFFFFFFFFFFFFFFFFFFFFFFFFFFFFFFFFFFFFFFFFFFFFFFFFFFF DUP3 PUSH2 0x143B JUMP JUMPDEST PUSH2 0x1480 DUP7 DUP4 PUSH2 0x143B JUMP JUMPDEST SWAP6 POP DUP1 NOT DUP5 AND SWAP4 POP DUP1 DUP7 AND DUP5 OR SWAP3 POP POP POP SWAP4 SWAP3 POP POP POP JUMP JUMPDEST PUSH0 DUP2 SWAP1 POP SWAP2 SWAP1 POP JUMP JUMPDEST PUSH0 PUSH2 0x14BB PUSH2 0x14B6 PUSH2 0x14B1 DUP5 PUSH2 0xBD4 JUMP JUMPDEST PUSH2 0x1498 JUMP JUMPDEST PUSH2 0xBD4 JUMP JUMPDEST SWAP1 POP SWAP2 SWAP1 POP JUMP JUMPDEST PUSH0 DUP2 SWAP1 POP SWAP2 SWAP1 POP JUMP JUMPDEST PUSH2 0x14D4 DUP4 PUSH2 0x14A1 JUMP JUMPDEST PUSH2 0x14E8 PUSH2 0x14E0 DUP3 PUSH2 0x14C2 JUMP JUMPDEST DUP5 DUP5 SLOAD PUSH2 0x1447 JUMP JUMPDEST DUP3 SSTORE POP POP POP POP JUMP JUMPDEST PUSH0 SWAP1 JUMP JUMPDEST PUSH2 0x14FC PUSH2 0x14F0 JUMP JUMPDEST PUSH2 0x1507 DUP2 DUP5 DUP5 PUSH2 0x14CB JUMP JUMPDEST POP POP POP JUMP JUMPDEST JUMPDEST DUP2 DUP2 LT ISZERO PUSH2 0x152A JUMPI PUSH2 0x151F PUSH0 DUP3 PUSH2 0x14F4 JUMP JUMPDEST PUSH1 0x1 DUP2 ADD SWAP1 POP PUSH2 0x150D JUMP JUMPDEST POP POP JUMP JUMPDEST PUSH1 0x1F DUP3 GT ISZERO PUSH2 0x156F JUMPI PUSH2 0x1540 DUP2 PUSH2 0x141A JUMP JUMPDEST PUSH2 0x1549 DUP5 PUSH2 0x142C JUMP JUMPDEST DUP2 ADD PUSH1 0x20 DUP6 LT ISZERO PUSH2 0x1558 JUMPI DUP2 SWAP1 POP JUMPDEST PUSH2 0x156C PUSH2 0x1564 DUP6 PUSH2 0x142C JUMP JUMPDEST DUP4 ADD DUP3 PUSH2 0x150C JUMP JUMPDEST POP POP JUMPDEST POP POP POP JUMP JUMPDEST PUSH0 DUP3 DUP3 SHR SWAP1 POP SWAP3 SWAP2 POP POP JUMP JUMPDEST PUSH0 PUSH2 0x158F PUSH0 NOT DUP5 PUSH1 0x8 MUL PUSH2 0x1574 JUMP JUMPDEST NOT DUP1 DUP4 AND SWAP2 POP POP SWAP3 SWAP2 POP POP JUMP JUMPDEST PUSH0 PUSH2 0x15A7 DUP4 DUP4 PUSH2 0x1580 JUMP JUMPDEST SWAP2 POP DUP3 PUSH1 0x2 MUL DUP3 OR SWAP1 POP SWAP3 SWAP2 POP POP JUMP JUMPDEST PUSH2 0x15C0 DUP3 PUSH2 0xCD9 JUMP JUMPDEST PUSH8 0xFFFFFFFFFFFFFFFF DUP2 GT ISZERO PUSH2 0x15D9 JUMPI PUSH2 0x15D8 PUSH2 0xFBB JUMP JUMPDEST JUMPDEST PUSH2 0x15E3 DUP3 SLOAD PUSH2 0x13EA JUMP JUMPDEST PUSH2 0x15EE DUP3 DUP3 DUP6 PUSH2 0x152E JUMP JUMPDEST PUSH0 PUSH1 0x20 SWAP1 POP PUSH1 0x1F DUP4 GT PUSH1 0x1 DUP2 EQ PUSH2 0x161F JUMPI PUSH0 DUP5 ISZERO PUSH2 0x160D JUMPI DUP3 DUP8 ADD MLOAD SWAP1 POP JUMPDEST PUSH2 0x1617 DUP6 DUP3 PUSH2 0x159C JUMP JUMPDEST DUP7 SSTORE POP PUSH2 0x167E JUMP JUMPDEST PUSH1 0x1F NOT DUP5 AND PUSH2 0x162D DUP7 PUSH2 0x141A JUMP JUMPDEST PUSH0 JUMPDEST DUP3 DUP2 LT ISZERO PUSH2 0x1654 JUMPI DUP5 DUP10 ADD MLOAD DUP3 SSTORE PUSH1 0x1 DUP3 ADD SWAP2 POP PUSH1 0x20 DUP6 ADD SWAP5 POP PUSH1 0x20 DUP2 ADD SWAP1 POP PUSH2 0x162F JUMP JUMPDEST DUP7 DUP4 LT ISZERO PUSH2 0x1671 JUMPI DUP5 DUP10 ADD MLOAD PUSH2 0x166D PUSH1 0x1F DUP10 AND DUP3 PUSH2 0x1580 JUMP JUMPDEST DUP4 SSTORE POP JUMPDEST PUSH1 0x1 PUSH1 0x2 DUP9 MUL ADD DUP9 SSTORE POP POP POP JUMPDEST POP POP POP POP POP POP JUMP JUMPDEST PUSH32 0x4E487B7100000000000000000000000000000000000000000000000000000000 PUSH0 MSTORE PUSH1 0x11 PUSH1 0x4 MSTORE PUSH1 0x24 PUSH0 REVERT JUMPDEST PUSH0 PUSH2 0x16BD DUP3 PUSH2 0xBD4 JUMP JUMPDEST SWAP2 POP PUSH2 0x16C8 DUP4 PUSH2 0xBD4 JUMP JUMPDEST SWAP3 POP DUP3 DUP3 ADD SWAP1 POP DUP1 DUP3 GT ISZERO PUSH2 0x16E0 JUMPI PUSH2 0x16DF PUSH2 0x1686 JUMP JUMPDEST JUMPDEST SWAP3 SWAP2 POP POP JUMP JUMPDEST PUSH0 DUP2 SLOAD SWAP1 POP PUSH2 0x16F4 DUP2 PUSH2 0x13EA JUMP JUMPDEST SWAP1 POP SWAP2 SWAP1 POP JUMP JUMPDEST DUP2 DUP2 SUB PUSH2 0x1709 JUMPI POP POP PUSH2 0x17DE JUMP JUMPDEST PUSH2 0x1712 DUP3 PUSH2 0x16E6 JUMP JUMPDEST PUSH8 0xFFFFFFFFFFFFFFFF DUP2 GT ISZERO PUSH2 0x172B JUMPI PUSH2 0x172A PUSH2 0xFBB JUMP JUMPDEST JUMPDEST PUSH2 0x1735 DUP3 SLOAD PUSH2 0x13EA JUMP JUMPDEST PUSH2 0x1740 DUP3 DUP3 DUP6 PUSH2 0x152E JUMP JUMPDEST PUSH0 PUSH1 0x1F DUP4 GT PUSH1 0x1 DUP2 EQ PUSH2 0x176D JUMPI PUSH0 DUP5 ISZERO PUSH2 0x175B JUMPI DUP3 DUP8 ADD SLOAD SWAP1 POP JUMPDEST PUSH2 0x1765 DUP6 DUP3 PUSH2 0x159C JUMP JUMPDEST DUP7 SSTORE POP PUSH2 0x17D7 JUMP JUMPDEST PUSH1 0x1F NOT DUP5 AND PUSH2 0x177B DUP8 PUSH2 0x141A JUMP JUMPDEST SWAP7 POP PUSH2 0x1786 DUP7 PUSH2 0x141A JUMP JUMPDEST PUSH0 JUMPDEST DUP3 DUP2 LT ISZERO PUSH2 0x17AD JUMPI DUP5 DUP10 ADD SLOAD DUP3 SSTORE PUSH1 0x1 DUP3 ADD SWAP2 POP PUSH1 0x1 DUP6 ADD SWAP5 POP PUSH1 0x20 DUP2 ADD SWAP1 POP PUSH2 0x1788 JUMP JUMPDEST DUP7 DUP4 LT ISZERO PUSH2 0x17CA JUMPI DUP5 DUP10 ADD SLOAD PUSH2 0x17C6 PUSH1 0x1F DUP10 AND DUP3 PUSH2 0x1580 JUMP JUMPDEST DUP4 SSTORE POP JUMPDEST PUSH1 0x1 PUSH1 0x2 DUP9 MUL ADD DUP9 SSTORE POP POP POP JUMPDEST POP POP POP POP POP POP JUMPDEST JUMP JUMPDEST PUSH0 DUP2 SWAP1 POP SWAP3 SWAP2 POP POP JUMP JUMPDEST PUSH0 PUSH2 0x17F4 DUP3 PUSH2 0xCD9 JUMP JUMPDEST PUSH2 0x17FE DUP2 DUP6 PUSH2 0x17E0 JUMP JUMPDEST SWAP4 POP PUSH2 0x180E DUP2 DUP6 PUSH1 0x20 DUP7 ADD PUSH2 0xCF3 JUMP JUMPDEST DUP1 DUP5 ADD SWAP2 POP POP SWAP3 SWAP2 POP POP JUMP JUMPDEST PUSH0 PUSH2 0x1825 DUP3 DUP5 PUSH2 0x17EA JUMP JUMPDEST SWAP2 POP DUP2 SWAP1 POP SWAP3 SWAP2 POP POP JUMP INVALID LOG2 PUSH5 0x6970667358 0x22 SLT KECCAK256 SWAP14 PUSH13 0xE2D9A11F76B18294659193674A PUSH25 0x7201D5579C94208B799EC017239A27AC64736F6C6343000818 STOP CALLER "
				},
				"gasEstimates": {
					"creation": {
						"codeDepositCost": "1249200",
						"executionCost": "infinite",
						"totalCost": "infinite"
					},
					"external": {
						"CaptureAttendance(uint256,address)": "621",
						"CreateEvent(string,string,string,string,string)": "infinite",
						"NumberOFPeopleRegisterd(uint256)": "infinite",
						"RegisterForEvent(uint256,string,string,uint8)": "infinite",
						"UnLockNFT(uint256)": "424",
						"UpdateEvent(uint256,string,string,string,string,string)": "infinite",
						"ViewEvent(uint256)": "infinite"
					}
				},
				"methodIdentifiers": {
					"CaptureAttendance(uint256,address)": "2957b520",
					"CreateEvent(string,string,string,string,string)": "9ac8caa0",
					"NumberOFPeopleRegisterd(uint256)": "45eb8e9f",
					"RegisterForEvent(uint256,string,string,uint8)": "84efd1d3",
					"UnLockNFT(uint256)": "3fabf1b3",
					"UpdateEvent(uint256,string,string,string,string,string)": "61c1cb70",
					"ViewEvent(uint256)": "41f5b72e"
				}
			},
			"storageLayout": {
				"storage": [
					{
						"astId": 133,
						"contract": "contracts/GatedEvent.sol:GatedEvent",
						"label": "NFTAddress",
						"offset": 0,
						"slot": "0",
						"type": "t_address"
					},
					{
						"astId": 181,
						"contract": "contracts/GatedEvent.sol:GatedEvent",
						"label": "eventArray",
						"offset": 0,
						"slot": "1",
						"type": "t_array(t_struct(EventStruct)168_storage)dyn_storage"
					},
					{
						"astId": 186,
						"contract": "contracts/GatedEvent.sol:GatedEvent",
						"label": "eventMapping",
						"offset": 0,
						"slot": "2",
						"type": "t_mapping(t_uint256,t_struct(EventStruct)168_storage)"
					},
					{
						"astId": 188,
						"contract": "contracts/GatedEvent.sol:GatedEvent",
						"label": "EventIDCounter",
						"offset": 0,
						"slot": "3",
						"type": "t_uint256"
					}
				],
				"types": {
					"t_address": {
						"encoding": "inplace",
						"label": "address",
						"numberOfBytes": "20"
					},
					"t_array(t_struct(AttendeeDetails)177_storage)dyn_storage": {
						"base": "t_struct(AttendeeDetails)177_storage",
						"encoding": "dynamic_array",
						"label": "struct GatedEvent.AttendeeDetails[]",
						"numberOfBytes": "32"
					},
					"t_array(t_struct(EventStruct)168_storage)dyn_storage": {
						"base": "t_struct(EventStruct)168_storage",
						"encoding": "dynamic_array",
						"label": "struct GatedEvent.EventStruct[]",
						"numberOfBytes": "32"
					},
					"t_mapping(t_uint256,t_struct(EventStruct)168_storage)": {
						"encoding": "mapping",
						"key": "t_uint256",
						"label": "mapping(uint256 => struct GatedEvent.EventStruct)",
						"numberOfBytes": "32",
						"value": "t_struct(EventStruct)168_storage"
					},
					"t_string_storage": {
						"encoding": "bytes",
						"label": "string",
						"numberOfBytes": "32"
					},
					"t_struct(AttendeeDetails)177_storage": {
						"encoding": "inplace",
						"label": "struct GatedEvent.AttendeeDetails",
						"members": [
							{
								"astId": 170,
								"contract": "contracts/GatedEvent.sol:GatedEvent",
								"label": "Name",
								"offset": 0,
								"slot": "0",
								"type": "t_string_storage"
							},
							{
								"astId": 172,
								"contract": "contracts/GatedEvent.sol:GatedEvent",
								"label": "Age",
								"offset": 0,
								"slot": "1",
								"type": "t_uint8"
							},
							{
								"astId": 174,
								"contract": "contracts/GatedEvent.sol:GatedEvent",
								"label": "Email",
								"offset": 0,
								"slot": "2",
								"type": "t_string_storage"
							},
							{
								"astId": 176,
								"contract": "contracts/GatedEvent.sol:GatedEvent",
								"label": "AttendeeAddress",
								"offset": 0,
								"slot": "3",
								"type": "t_address"
							}
						],
						"numberOfBytes": "128"
					},
					"t_struct(EventStruct)168_storage": {
						"encoding": "inplace",
						"label": "struct GatedEvent.EventStruct",
						"members": [
							{
								"astId": 153,
								"contract": "contracts/GatedEvent.sol:GatedEvent",
								"label": "Id",
								"offset": 0,
								"slot": "0",
								"type": "t_uint256"
							},
							{
								"astId": 155,
								"contract": "contracts/GatedEvent.sol:GatedEvent",
								"label": "Title",
								"offset": 0,
								"slot": "1",
								"type": "t_string_storage"
							},
							{
								"astId": 157,
								"contract": "contracts/GatedEvent.sol:GatedEvent",
								"label": "Details",
								"offset": 0,
								"slot": "2",
								"type": "t_string_storage"
							},
							{
								"astId": 159,
								"contract": "contracts/GatedEvent.sol:GatedEvent",
								"label": "Host",
								"offset": 0,
								"slot": "3",
								"type": "t_string_storage"
							},
							{
								"astId": 161,
								"contract": "contracts/GatedEvent.sol:GatedEvent",
								"label": "DateTime",
								"offset": 0,
								"slot": "4",
								"type": "t_string_storage"
							},
							{
								"astId": 163,
								"contract": "contracts/GatedEvent.sol:GatedEvent",
								"label": "Location",
								"offset": 0,
								"slot": "5",
								"type": "t_string_storage"
							},
							{
								"astId": 167,
								"contract": "contracts/GatedEvent.sol:GatedEvent",
								"label": "AttendeeInfo",
								"offset": 0,
								"slot": "6",
								"type": "t_array(t_struct(AttendeeDetails)177_storage)dyn_storage"
							}
						],
						"numberOfBytes": "224"
					},
					"t_uint256": {
						"encoding": "inplace",
						"label": "uint256",
						"numberOfBytes": "32"
					},
					"t_uint8": {
						"encoding": "inplace",
						"label": "uint8",
						"numberOfBytes": "1"
					}
				}
			},
			"userdoc": {
				"kind": "user",
				"methods": {},
				"version": 1
			}
		}
	}
}